{
  "_format": "hh-sol-artifact-1",
  "contractName": "Overmint1",
  "sourceName": "contracts/riddles/Overmint1.sol",
  "abi": [
    {
      "inputs": [],
      "stateMutability": "nonpayable",
      "type": "constructor"
    },
    {
      "anonymous": false,
      "inputs": [
        {
          "indexed": true,
          "internalType": "address",
          "name": "owner",
          "type": "address"
        },
        {
          "indexed": true,
          "internalType": "address",
          "name": "approved",
          "type": "address"
        },
        {
          "indexed": true,
          "internalType": "uint256",
          "name": "tokenId",
          "type": "uint256"
        }
      ],
      "name": "Approval",
      "type": "event"
    },
    {
      "anonymous": false,
      "inputs": [
        {
          "indexed": true,
          "internalType": "address",
          "name": "owner",
          "type": "address"
        },
        {
          "indexed": true,
          "internalType": "address",
          "name": "operator",
          "type": "address"
        },
        {
          "indexed": false,
          "internalType": "bool",
          "name": "approved",
          "type": "bool"
        }
      ],
      "name": "ApprovalForAll",
      "type": "event"
    },
    {
      "anonymous": false,
      "inputs": [
        {
          "indexed": true,
          "internalType": "address",
          "name": "from",
          "type": "address"
        },
        {
          "indexed": true,
          "internalType": "address",
          "name": "to",
          "type": "address"
        },
        {
          "indexed": true,
          "internalType": "uint256",
          "name": "tokenId",
          "type": "uint256"
        }
      ],
      "name": "Transfer",
      "type": "event"
    },
    {
      "inputs": [
        {
          "internalType": "address",
          "name": "",
          "type": "address"
        }
      ],
      "name": "amountMinted",
      "outputs": [
        {
          "internalType": "uint256",
          "name": "",
          "type": "uint256"
        }
      ],
      "stateMutability": "view",
      "type": "function"
    },
    {
      "inputs": [
        {
          "internalType": "address",
          "name": "to",
          "type": "address"
        },
        {
          "internalType": "uint256",
          "name": "tokenId",
          "type": "uint256"
        }
      ],
      "name": "approve",
      "outputs": [],
      "stateMutability": "nonpayable",
      "type": "function"
    },
    {
      "inputs": [
        {
          "internalType": "address",
          "name": "owner",
          "type": "address"
        }
      ],
      "name": "balanceOf",
      "outputs": [
        {
          "internalType": "uint256",
          "name": "",
          "type": "uint256"
        }
      ],
      "stateMutability": "view",
      "type": "function"
    },
    {
      "inputs": [
        {
          "internalType": "uint256",
          "name": "tokenId",
          "type": "uint256"
        }
      ],
      "name": "getApproved",
      "outputs": [
        {
          "internalType": "address",
          "name": "",
          "type": "address"
        }
      ],
      "stateMutability": "view",
      "type": "function"
    },
    {
      "inputs": [
        {
          "internalType": "address",
          "name": "owner",
          "type": "address"
        },
        {
          "internalType": "address",
          "name": "operator",
          "type": "address"
        }
      ],
      "name": "isApprovedForAll",
      "outputs": [
        {
          "internalType": "bool",
          "name": "",
          "type": "bool"
        }
      ],
      "stateMutability": "view",
      "type": "function"
    },
    {
      "inputs": [],
      "name": "mint",
      "outputs": [],
      "stateMutability": "nonpayable",
      "type": "function"
    },
    {
      "inputs": [],
      "name": "name",
      "outputs": [
        {
          "internalType": "string",
          "name": "",
          "type": "string"
        }
      ],
      "stateMutability": "view",
      "type": "function"
    },
    {
      "inputs": [
        {
          "internalType": "uint256",
          "name": "tokenId",
          "type": "uint256"
        }
      ],
      "name": "ownerOf",
      "outputs": [
        {
          "internalType": "address",
          "name": "",
          "type": "address"
        }
      ],
      "stateMutability": "view",
      "type": "function"
    },
    {
      "inputs": [
        {
          "internalType": "address",
          "name": "from",
          "type": "address"
        },
        {
          "internalType": "address",
          "name": "to",
          "type": "address"
        },
        {
          "internalType": "uint256",
          "name": "tokenId",
          "type": "uint256"
        }
      ],
      "name": "safeTransferFrom",
      "outputs": [],
      "stateMutability": "nonpayable",
      "type": "function"
    },
    {
      "inputs": [
        {
          "internalType": "address",
          "name": "from",
          "type": "address"
        },
        {
          "internalType": "address",
          "name": "to",
          "type": "address"
        },
        {
          "internalType": "uint256",
          "name": "tokenId",
          "type": "uint256"
        },
        {
          "internalType": "bytes",
          "name": "data",
          "type": "bytes"
        }
      ],
      "name": "safeTransferFrom",
      "outputs": [],
      "stateMutability": "nonpayable",
      "type": "function"
    },
    {
      "inputs": [
        {
          "internalType": "address",
          "name": "operator",
          "type": "address"
        },
        {
          "internalType": "bool",
          "name": "approved",
          "type": "bool"
        }
      ],
      "name": "setApprovalForAll",
      "outputs": [],
      "stateMutability": "nonpayable",
      "type": "function"
    },
    {
      "inputs": [
        {
          "internalType": "address",
          "name": "_attacker",
          "type": "address"
        }
      ],
      "name": "success",
      "outputs": [
        {
          "internalType": "bool",
          "name": "",
          "type": "bool"
        }
      ],
      "stateMutability": "view",
      "type": "function"
    },
    {
      "inputs": [
        {
          "internalType": "bytes4",
          "name": "interfaceId",
          "type": "bytes4"
        }
      ],
      "name": "supportsInterface",
      "outputs": [
        {
          "internalType": "bool",
          "name": "",
          "type": "bool"
        }
      ],
      "stateMutability": "view",
      "type": "function"
    },
    {
      "inputs": [],
      "name": "symbol",
      "outputs": [
        {
          "internalType": "string",
          "name": "",
          "type": "string"
        }
      ],
      "stateMutability": "view",
      "type": "function"
    },
    {
      "inputs": [
        {
          "internalType": "uint256",
          "name": "tokenId",
          "type": "uint256"
        }
      ],
      "name": "tokenURI",
      "outputs": [
        {
          "internalType": "string",
          "name": "",
          "type": "string"
        }
      ],
      "stateMutability": "view",
      "type": "function"
    },
    {
      "inputs": [],
      "name": "totalSupply",
      "outputs": [
        {
          "internalType": "uint256",
          "name": "",
          "type": "uint256"
        }
      ],
      "stateMutability": "view",
      "type": "function"
    },
    {
      "inputs": [
        {
          "internalType": "address",
          "name": "from",
          "type": "address"
        },
        {
          "internalType": "address",
          "name": "to",
          "type": "address"
        },
        {
          "internalType": "uint256",
          "name": "tokenId",
          "type": "uint256"
        }
      ],
      "name": "transferFrom",
      "outputs": [],
      "stateMutability": "nonpayable",
      "type": "function"
    }
  ],
  "bytecode": "0x608060405234801561001057600080fd5b506040518060400160405280600981526020017f4f7665726d696e743100000000000000000000000000000000000000000000008152506040518060400160405280600281526020017f4154000000000000000000000000000000000000000000000000000000000000815250816000908161008c91906102f4565b50806001908161009c91906102f4565b5050506103c6565b600081519050919050565b7f4e487b7100000000000000000000000000000000000000000000000000000000600052604160045260246000fd5b7f4e487b7100000000000000000000000000000000000000000000000000000000600052602260045260246000fd5b6000600282049050600182168061012557607f821691505b602082108103610138576101376100de565b5b50919050565b60008190508160005260206000209050919050565b60006020601f8301049050919050565b600082821b905092915050565b6000600883026101a07fffffffffffffffffffffffffffffffffffffffffffffffffffffffffffffffff82610163565b6101aa8683610163565b95508019841693508086168417925050509392505050565b6000819050919050565b6000819050919050565b60006101f16101ec6101e7846101c2565b6101cc565b6101c2565b9050919050565b6000819050919050565b61020b836101d6565b61021f610217826101f8565b848454610170565b825550505050565b600090565b610234610227565b61023f818484610202565b505050565b5b818110156102635761025860008261022c565b600181019050610245565b5050565b601f8211156102a8576102798161013e565b61028284610153565b81016020851015610291578190505b6102a561029d85610153565b830182610244565b50505b505050565b600082821c905092915050565b60006102cb600019846008026102ad565b1980831691505092915050565b60006102e483836102ba565b9150826002028217905092915050565b6102fd826100a4565b67ffffffffffffffff811115610316576103156100af565b5b610320825461010d565b61032b828285610267565b600060209050601f83116001811461035e576000841561034c578287015190505b61035685826102d8565b8655506103be565b601f19841661036c8661013e565b60005b828110156103945784890151825560018201915060208501945060208101905061036f565b868310156103b157848901516103ad601f8916826102ba565b8355505b6001600288020188555050505b505050505050565b612766806103d56000396000f3fe608060405234801561001057600080fd5b506004361061010b5760003560e01c806342842e0e116100a257806395d89b411161007157806395d89b41146102ca578063a22cb465146102e8578063b88d4fde14610304578063c87b56dd14610320578063e985e9c5146103505761010b565b806342842e0e1461021e578063438a67e71461023a5780636352211e1461026a57806370a082311461029a5761010b565b80631249c58b116100de5780631249c58b146101aa57806318160ddd146101b457806323b872dd146101d257806326e4baae146101ee5761010b565b806301ffc9a71461011057806306fdde0314610140578063081812fc1461015e578063095ea7b31461018e575b600080fd5b61012a6004803603810190610125919061197f565b610380565b60405161013791906119c7565b60405180910390f35b610148610462565b6040516101559190611a72565b60405180910390f35b61017860048036038101906101739190611aca565b6104f4565b6040516101859190611b38565b60405180910390f35b6101a860048036038101906101a39190611b7f565b61053a565b005b6101b2610651565b005b6101bc61074f565b6040516101c99190611bce565b60405180910390f35b6101ec60048036038101906101e79190611be9565b610755565b005b61020860048036038101906102039190611c3c565b6107b5565b60405161021591906119c7565b60405180910390f35b61023860048036038101906102339190611be9565b6107ca565b005b610254600480360381019061024f9190611c3c565b6107ea565b6040516102619190611bce565b60405180910390f35b610284600480360381019061027f9190611aca565b610802565b6040516102919190611b38565b60405180910390f35b6102b460048036038101906102af9190611c3c565b610888565b6040516102c19190611bce565b60405180910390f35b6102d261093f565b6040516102df9190611a72565b60405180910390f35b61030260048036038101906102fd9190611c95565b6109d1565b005b61031e60048036038101906103199190611e0a565b6109e7565b005b61033a60048036038101906103359190611aca565b610a49565b6040516103479190611a72565b60405180910390f35b61036a60048036038101906103659190611e8d565b610ab1565b60405161037791906119c7565b60405180910390f35b60007f80ac58cd000000000000000000000000000000000000000000000000000000007bffffffffffffffffffffffffffffffffffffffffffffffffffffffff1916827bffffffffffffffffffffffffffffffffffffffffffffffffffffffff1916148061044b57507f5b5e139f000000000000000000000000000000000000000000000000000000007bffffffffffffffffffffffffffffffffffffffffffffffffffffffff1916827bffffffffffffffffffffffffffffffffffffffffffffffffffffffff1916145b8061045b575061045a82610b45565b5b9050919050565b60606000805461047190611efc565b80601f016020809104026020016040519081016040528092919081815260200182805461049d90611efc565b80156104ea5780601f106104bf576101008083540402835291602001916104ea565b820191906000526020600020905b8154815290600101906020018083116104cd57829003601f168201915b5050505050905090565b60006104ff82610baf565b6004600083815260200190815260200160002060009054906101000a900473ffffffffffffffffffffffffffffffffffffffff169050919050565b600061054582610802565b90508073ffffffffffffffffffffffffffffffffffffffff168373ffffffffffffffffffffffffffffffffffffffff16036105b5576040517f08c379a00000000000000000000000000000000000000000000000000000000081526004016105ac90611f9f565b60405180910390fd5b8073ffffffffffffffffffffffffffffffffffffffff166105d4610bfa565b73ffffffffffffffffffffffffffffffffffffffff1614806106035750610602816105fd610bfa565b610ab1565b5b610642576040517f08c379a000000000000000000000000000000000000000000000000000000000815260040161063990612031565b60405180910390fd5b61064c8383610c02565b505050565b6003600660003373ffffffffffffffffffffffffffffffffffffffff1673ffffffffffffffffffffffffffffffffffffffff1681526020019081526020016000205411156106d4576040517f08c379a00000000000000000000000000000000000000000000000000000000081526004016106cb9061209d565b60405180910390fd5b600760008154809291906106e7906120ec565b91905055506106f833600754610cbb565b600660003373ffffffffffffffffffffffffffffffffffffffff1673ffffffffffffffffffffffffffffffffffffffff1681526020019081526020016000206000815480929190610748906120ec565b9190505550565b60075481565b610766610760610bfa565b82610cd9565b6107a5576040517f08c379a000000000000000000000000000000000000000000000000000000000815260040161079c906121a6565b60405180910390fd5b6107b0838383610d6e565b505050565b600060056107c283610888565b149050919050565b6107e5838383604051806020016040528060008152506109e7565b505050565b60066020528060005260406000206000915090505481565b60008061080e83611067565b9050600073ffffffffffffffffffffffffffffffffffffffff168173ffffffffffffffffffffffffffffffffffffffff160361087f576040517f08c379a000000000000000000000000000000000000000000000000000000000815260040161087690612212565b60405180910390fd5b80915050919050565b60008073ffffffffffffffffffffffffffffffffffffffff168273ffffffffffffffffffffffffffffffffffffffff16036108f8576040517f08c379a00000000000000000000000000000000000000000000000000000000081526004016108ef906122a4565b60405180910390fd5b600360008373ffffffffffffffffffffffffffffffffffffffff1673ffffffffffffffffffffffffffffffffffffffff168152602001908152602001600020549050919050565b60606001805461094e90611efc565b80601f016020809104026020016040519081016040528092919081815260200182805461097a90611efc565b80156109c75780601f1061099c576101008083540402835291602001916109c7565b820191906000526020600020905b8154815290600101906020018083116109aa57829003601f168201915b5050505050905090565b6109e36109dc610bfa565b83836110a4565b5050565b6109f86109f2610bfa565b83610cd9565b610a37576040517f08c379a0000000000000000000000000000000000000000000000000000000008152600401610a2e906121a6565b60405180910390fd5b610a4384848484611210565b50505050565b6060610a5482610baf565b6000610a5e61126c565b90506000815111610a7e5760405180602001604052806000815250610aa9565b80610a8884611283565b604051602001610a99929190612300565b6040516020818303038152906040525b915050919050565b6000600560008473ffffffffffffffffffffffffffffffffffffffff1673ffffffffffffffffffffffffffffffffffffffff16815260200190815260200160002060008373ffffffffffffffffffffffffffffffffffffffff1673ffffffffffffffffffffffffffffffffffffffff16815260200190815260200160002060009054906101000a900460ff16905092915050565b60007f01ffc9a7000000000000000000000000000000000000000000000000000000007bffffffffffffffffffffffffffffffffffffffffffffffffffffffff1916827bffffffffffffffffffffffffffffffffffffffffffffffffffffffff1916149050919050565b610bb881611351565b610bf7576040517f08c379a0000000000000000000000000000000000000000000000000000000008152600401610bee90612212565b60405180910390fd5b50565b600033905090565b816004600083815260200190815260200160002060006101000a81548173ffffffffffffffffffffffffffffffffffffffff021916908373ffffffffffffffffffffffffffffffffffffffff160217905550808273ffffffffffffffffffffffffffffffffffffffff16610c7583610802565b73ffffffffffffffffffffffffffffffffffffffff167f8c5be1e5ebec7d5bd14f71427d1e84f3dd0314c0f7b2291e5b200ac8c7c3b92560405160405180910390a45050565b610cd5828260405180602001604052806000815250611392565b5050565b600080610ce583610802565b90508073ffffffffffffffffffffffffffffffffffffffff168473ffffffffffffffffffffffffffffffffffffffff161480610d275750610d268185610ab1565b5b80610d6557508373ffffffffffffffffffffffffffffffffffffffff16610d4d846104f4565b73ffffffffffffffffffffffffffffffffffffffff16145b91505092915050565b8273ffffffffffffffffffffffffffffffffffffffff16610d8e82610802565b73ffffffffffffffffffffffffffffffffffffffff1614610de4576040517f08c379a0000000000000000000000000000000000000000000000000000000008152600401610ddb90612396565b60405180910390fd5b600073ffffffffffffffffffffffffffffffffffffffff168273ffffffffffffffffffffffffffffffffffffffff1603610e53576040517f08c379a0000000000000000000000000000000000000000000000000000000008152600401610e4a90612428565b60405180910390fd5b610e6083838360016113ed565b8273ffffffffffffffffffffffffffffffffffffffff16610e8082610802565b73ffffffffffffffffffffffffffffffffffffffff1614610ed6576040517f08c379a0000000000000000000000000000000000000000000000000000000008152600401610ecd90612396565b60405180910390fd5b6004600082815260200190815260200160002060006101000a81549073ffffffffffffffffffffffffffffffffffffffff02191690556001600360008573ffffffffffffffffffffffffffffffffffffffff1673ffffffffffffffffffffffffffffffffffffffff168152602001908152602001600020600082825403925050819055506001600360008473ffffffffffffffffffffffffffffffffffffffff1673ffffffffffffffffffffffffffffffffffffffff16815260200190815260200160002060008282540192505081905550816002600083815260200190815260200160002060006101000a81548173ffffffffffffffffffffffffffffffffffffffff021916908373ffffffffffffffffffffffffffffffffffffffff160217905550808273ffffffffffffffffffffffffffffffffffffffff168473ffffffffffffffffffffffffffffffffffffffff167fddf252ad1be2c89b69c2b068fc378daa952ba7f163c4a11628f55a4df523b3ef60405160405180910390a461106283838360016113f3565b505050565b60006002600083815260200190815260200160002060009054906101000a900473ffffffffffffffffffffffffffffffffffffffff169050919050565b8173ffffffffffffffffffffffffffffffffffffffff168373ffffffffffffffffffffffffffffffffffffffff1603611112576040517f08c379a000000000000000000000000000000000000000000000000000000000815260040161110990612494565b60405180910390fd5b80600560008573ffffffffffffffffffffffffffffffffffffffff1673ffffffffffffffffffffffffffffffffffffffff16815260200190815260200160002060008473ffffffffffffffffffffffffffffffffffffffff1673ffffffffffffffffffffffffffffffffffffffff16815260200190815260200160002060006101000a81548160ff0219169083151502179055508173ffffffffffffffffffffffffffffffffffffffff168373ffffffffffffffffffffffffffffffffffffffff167f17307eab39ab6107e8899845ad3d59bd9653f200f220920489ca2b5937696c318360405161120391906119c7565b60405180910390a3505050565b61121b848484610d6e565b611227848484846113f9565b611266576040517f08c379a000000000000000000000000000000000000000000000000000000000815260040161125d90612526565b60405180910390fd5b50505050565b606060405180602001604052806000815250905090565b60606000600161129284611580565b01905060008167ffffffffffffffff8111156112b1576112b0611cdf565b5b6040519080825280601f01601f1916602001820160405280156112e35781602001600182028036833780820191505090505b509050600082602001820190505b600115611346578080600190039150507f3031323334353637383961626364656600000000000000000000000000000000600a86061a8153600a858161133a57611339612546565b5b049450600085036112f1575b819350505050919050565b60008073ffffffffffffffffffffffffffffffffffffffff1661137383611067565b73ffffffffffffffffffffffffffffffffffffffff1614159050919050565b61139c83836116d3565b6113a960008484846113f9565b6113e8576040517f08c379a00000000000000000000000000000000000000000000000000000000081526004016113df90612526565b60405180910390fd5b505050565b50505050565b50505050565b600061141a8473ffffffffffffffffffffffffffffffffffffffff166118f0565b15611573578373ffffffffffffffffffffffffffffffffffffffff1663150b7a02611443610bfa565b8786866040518563ffffffff1660e01b815260040161146594939291906125ca565b6020604051808303816000875af19250505080156114a157506040513d601f19601f8201168201806040525081019061149e919061262b565b60015b611523573d80600081146114d1576040519150601f19603f3d011682016040523d82523d6000602084013e6114d6565b606091505b50600081510361151b576040517f08c379a000000000000000000000000000000000000000000000000000000000815260040161151290612526565b60405180910390fd5b805181602001fd5b63150b7a0260e01b7bffffffffffffffffffffffffffffffffffffffffffffffffffffffff1916817bffffffffffffffffffffffffffffffffffffffffffffffffffffffff191614915050611578565b600190505b949350505050565b600080600090507a184f03e93ff9f4daa797ed6e38ed64bf6a1f01000000000000000083106115de577a184f03e93ff9f4daa797ed6e38ed64bf6a1f01000000000000000083816115d4576115d3612546565b5b0492506040810190505b6d04ee2d6d415b85acef8100000000831061161b576d04ee2d6d415b85acef8100000000838161161157611610612546565b5b0492506020810190505b662386f26fc10000831061164a57662386f26fc1000083816116405761163f612546565b5b0492506010810190505b6305f5e1008310611673576305f5e100838161166957611668612546565b5b0492506008810190505b612710831061169857612710838161168e5761168d612546565b5b0492506004810190505b606483106116bb57606483816116b1576116b0612546565b5b0492506002810190505b600a83106116ca576001810190505b80915050919050565b600073ffffffffffffffffffffffffffffffffffffffff168273ffffffffffffffffffffffffffffffffffffffff1603611742576040517f08c379a0000000000000000000000000000000000000000000000000000000008152600401611739906126a4565b60405180910390fd5b61174b81611351565b1561178b576040517f08c379a000000000000000000000000000000000000000000000000000000000815260040161178290612710565b60405180910390fd5b6117996000838360016113ed565b6117a281611351565b156117e2576040517f08c379a00000000000000000000000000000000000000000000000000000000081526004016117d990612710565b60405180910390fd5b6001600360008473ffffffffffffffffffffffffffffffffffffffff1673ffffffffffffffffffffffffffffffffffffffff16815260200190815260200160002060008282540192505081905550816002600083815260200190815260200160002060006101000a81548173ffffffffffffffffffffffffffffffffffffffff021916908373ffffffffffffffffffffffffffffffffffffffff160217905550808273ffffffffffffffffffffffffffffffffffffffff16600073ffffffffffffffffffffffffffffffffffffffff167fddf252ad1be2c89b69c2b068fc378daa952ba7f163c4a11628f55a4df523b3ef60405160405180910390a46118ec6000838360016113f3565b5050565b6000808273ffffffffffffffffffffffffffffffffffffffff163b119050919050565b6000604051905090565b600080fd5b600080fd5b60007fffffffff0000000000000000000000000000000000000000000000000000000082169050919050565b61195c81611927565b811461196757600080fd5b50565b60008135905061197981611953565b92915050565b6000602082840312156119955761199461191d565b5b60006119a38482850161196a565b91505092915050565b60008115159050919050565b6119c1816119ac565b82525050565b60006020820190506119dc60008301846119b8565b92915050565b600081519050919050565b600082825260208201905092915050565b60005b83811015611a1c578082015181840152602081019050611a01565b60008484015250505050565b6000601f19601f8301169050919050565b6000611a44826119e2565b611a4e81856119ed565b9350611a5e8185602086016119fe565b611a6781611a28565b840191505092915050565b60006020820190508181036000830152611a8c8184611a39565b905092915050565b6000819050919050565b611aa781611a94565b8114611ab257600080fd5b50565b600081359050611ac481611a9e565b92915050565b600060208284031215611ae057611adf61191d565b5b6000611aee84828501611ab5565b91505092915050565b600073ffffffffffffffffffffffffffffffffffffffff82169050919050565b6000611b2282611af7565b9050919050565b611b3281611b17565b82525050565b6000602082019050611b4d6000830184611b29565b92915050565b611b5c81611b17565b8114611b6757600080fd5b50565b600081359050611b7981611b53565b92915050565b60008060408385031215611b9657611b9561191d565b5b6000611ba485828601611b6a565b9250506020611bb585828601611ab5565b9150509250929050565b611bc881611a94565b82525050565b6000602082019050611be36000830184611bbf565b92915050565b600080600060608486031215611c0257611c0161191d565b5b6000611c1086828701611b6a565b9350506020611c2186828701611b6a565b9250506040611c3286828701611ab5565b9150509250925092565b600060208284031215611c5257611c5161191d565b5b6000611c6084828501611b6a565b91505092915050565b611c72816119ac565b8114611c7d57600080fd5b50565b600081359050611c8f81611c69565b92915050565b60008060408385031215611cac57611cab61191d565b5b6000611cba85828601611b6a565b9250506020611ccb85828601611c80565b9150509250929050565b600080fd5b600080fd5b7f4e487b7100000000000000000000000000000000000000000000000000000000600052604160045260246000fd5b611d1782611a28565b810181811067ffffffffffffffff82111715611d3657611d35611cdf565b5b80604052505050565b6000611d49611913565b9050611d558282611d0e565b919050565b600067ffffffffffffffff821115611d7557611d74611cdf565b5b611d7e82611a28565b9050602081019050919050565b82818337600083830152505050565b6000611dad611da884611d5a565b611d3f565b905082815260208101848484011115611dc957611dc8611cda565b5b611dd4848285611d8b565b509392505050565b600082601f830112611df157611df0611cd5565b5b8135611e01848260208601611d9a565b91505092915050565b60008060008060808587031215611e2457611e2361191d565b5b6000611e3287828801611b6a565b9450506020611e4387828801611b6a565b9350506040611e5487828801611ab5565b925050606085013567ffffffffffffffff811115611e7557611e74611922565b5b611e8187828801611ddc565b91505092959194509250565b60008060408385031215611ea457611ea361191d565b5b6000611eb285828601611b6a565b9250506020611ec385828601611b6a565b9150509250929050565b7f4e487b7100000000000000000000000000000000000000000000000000000000600052602260045260246000fd5b60006002820490506001821680611f1457607f821691505b602082108103611f2757611f26611ecd565b5b50919050565b7f4552433732313a20617070726f76616c20746f2063757272656e74206f776e6560008201527f7200000000000000000000000000000000000000000000000000000000000000602082015250565b6000611f896021836119ed565b9150611f9482611f2d565b604082019050919050565b60006020820190508181036000830152611fb881611f7c565b9050919050565b7f4552433732313a20617070726f76652063616c6c6572206973206e6f7420746f60008201527f6b656e206f776e6572206f7220617070726f76656420666f7220616c6c000000602082015250565b600061201b603d836119ed565b915061202682611fbf565b604082019050919050565b6000602082019050818103600083015261204a8161200e565b9050919050565b7f6d61782033204e46547300000000000000000000000000000000000000000000600082015250565b6000612087600a836119ed565b915061209282612051565b602082019050919050565b600060208201905081810360008301526120b68161207a565b9050919050565b7f4e487b7100000000000000000000000000000000000000000000000000000000600052601160045260246000fd5b60006120f782611a94565b91507fffffffffffffffffffffffffffffffffffffffffffffffffffffffffffffffff8203612129576121286120bd565b5b600182019050919050565b7f4552433732313a2063616c6c6572206973206e6f7420746f6b656e206f776e6560008201527f72206f7220617070726f76656400000000000000000000000000000000000000602082015250565b6000612190602d836119ed565b915061219b82612134565b604082019050919050565b600060208201905081810360008301526121bf81612183565b9050919050565b7f4552433732313a20696e76616c696420746f6b656e2049440000000000000000600082015250565b60006121fc6018836119ed565b9150612207826121c6565b602082019050919050565b6000602082019050818103600083015261222b816121ef565b9050919050565b7f4552433732313a2061646472657373207a65726f206973206e6f74206120766160008201527f6c6964206f776e65720000000000000000000000000000000000000000000000602082015250565b600061228e6029836119ed565b915061229982612232565b604082019050919050565b600060208201905081810360008301526122bd81612281565b9050919050565b600081905092915050565b60006122da826119e2565b6122e481856122c4565b93506122f48185602086016119fe565b80840191505092915050565b600061230c82856122cf565b915061231882846122cf565b91508190509392505050565b7f4552433732313a207472616e736665722066726f6d20696e636f72726563742060008201527f6f776e6572000000000000000000000000000000000000000000000000000000602082015250565b60006123806025836119ed565b915061238b82612324565b604082019050919050565b600060208201905081810360008301526123af81612373565b9050919050565b7f4552433732313a207472616e7366657220746f20746865207a65726f2061646460008201527f7265737300000000000000000000000000000000000000000000000000000000602082015250565b60006124126024836119ed565b915061241d826123b6565b604082019050919050565b6000602082019050818103600083015261244181612405565b9050919050565b7f4552433732313a20617070726f766520746f2063616c6c657200000000000000600082015250565b600061247e6019836119ed565b915061248982612448565b602082019050919050565b600060208201905081810360008301526124ad81612471565b9050919050565b7f4552433732313a207472616e7366657220746f206e6f6e20455243373231526560008201527f63656976657220696d706c656d656e7465720000000000000000000000000000602082015250565b60006125106032836119ed565b915061251b826124b4565b604082019050919050565b6000602082019050818103600083015261253f81612503565b9050919050565b7f4e487b7100000000000000000000000000000000000000000000000000000000600052601260045260246000fd5b600081519050919050565b600082825260208201905092915050565b600061259c82612575565b6125a68185612580565b93506125b68185602086016119fe565b6125bf81611a28565b840191505092915050565b60006080820190506125df6000830187611b29565b6125ec6020830186611b29565b6125f96040830185611bbf565b818103606083015261260b8184612591565b905095945050505050565b60008151905061262581611953565b92915050565b6000602082840312156126415761264061191d565b5b600061264f84828501612616565b91505092915050565b7f4552433732313a206d696e7420746f20746865207a65726f2061646472657373600082015250565b600061268e6020836119ed565b915061269982612658565b602082019050919050565b600060208201905081810360008301526126bd81612681565b9050919050565b7f4552433732313a20746f6b656e20616c7265616479206d696e74656400000000600082015250565b60006126fa601c836119ed565b9150612705826126c4565b602082019050919050565b60006020820190508181036000830152612729816126ed565b905091905056fea2646970667358221220e12193281bedb2a0e3b2907d249ab48377817abbb9a4bcdfde9e2eb9de8be3e664736f6c634300081b0033",
  "linkReferences": {},
  "deployedLinkReferences": {}
}