{"contracts/Staking.sol":{"Staking":{"abi":[{"inputs":[{"internalType":"address","name":"nft_","type":"address"},{"internalType":"address","name":"rewardToken_","type":"address"}],"stateMutability":"nonpayable","type":"constructor"},{"anonymous":false,"inputs":[{"indexed":true,"internalType":"address","name":"owner","type":"address"},{"indexed":true,"internalType":"uint256","name":"tokenId","type":"uint256"},{"indexed":false,"internalType":"uint256","name":"timestamp","type":"uint256"}],"name":"NFTStaked","type":"event"},{"anonymous":false,"inputs":[{"indexed":true,"internalType":"address","name":"owner","type":"address"},{"indexed":true,"internalType":"uint256","name":"tokenId","type":"uint256"}],"name":"NFTWithdrawn","type":"event"},{"anonymous":false,"inputs":[{"indexed":true,"internalType":"address","name":"owner","type":"address"},{"indexed":false,"internalType":"uint256","name":"amount","type":"uint256"},{"indexed":true,"internalType":"uint256","name":"tokenId","type":"uint256"}],"name":"RewardsMinted","type":"event"},{"inputs":[{"internalType":"uint256","name":"id","type":"uint256"}],"name":"getStakeOwner","outputs":[{"internalType":"address","name":"","type":"address"}],"stateMutability":"view","type":"function"},{"inputs":[{"internalType":"uint256","name":"id","type":"uint256"}],"name":"getStakeTimestamp","outputs":[{"internalType":"uint256","name":"","type":"uint256"}],"stateMutability":"view","type":"function"},{"inputs":[],"name":"nft","outputs":[{"internalType":"address","name":"","type":"address"}],"stateMutability":"view","type":"function"},{"inputs":[{"internalType":"address","name":"","type":"address"},{"internalType":"address","name":"from","type":"address"},{"internalType":"uint256","name":"id","type":"uint256"},{"internalType":"bytes","name":"","type":"bytes"}],"name":"onERC721Received","outputs":[{"internalType":"bytes4","name":"","type":"bytes4"}],"stateMutability":"nonpayable","type":"function"},{"inputs":[],"name":"rewardToken","outputs":[{"internalType":"address","name":"","type":"address"}],"stateMutability":"view","type":"function"},{"inputs":[{"internalType":"uint256","name":"","type":"uint256"}],"name":"stakes","outputs":[{"internalType":"uint256","name":"timestamp","type":"uint256"},{"internalType":"address","name":"originalOwner","type":"address"}],"stateMutability":"view","type":"function"},{"inputs":[{"internalType":"uint256","name":"id","type":"uint256"}],"name":"withdrawNft","outputs":[],"stateMutability":"nonpayable","type":"function"},{"inputs":[{"internalType":"uint256","name":"id","type":"uint256"}],"name":"withdrawRewards","outputs":[],"stateMutability":"nonpayable","type":"function"}],"devdoc":{"details":"Allows users to stake their NFTs and withdraw them later. Implements IERC721Receiver to receive NFTs.","kind":"dev","methods":{"constructor":{"params":{"nft_":"The address of the ERC721 NFT contract that will be used for staking."}},"onERC721Received(address,address,uint256,bytes)":{"details":"This function is called whenever an ERC721 token is transferred to this contract via `safeTransferFrom`. It will store the stake information in the `stakes` mapping.","params":{"from":"The previous owner of the NFT (the address that staked the NFT).","id":"The token ID of the NFT being staked."},"returns":{"_0":"The selector to confirm that the NFT has been received."}},"withdrawNft(uint256)":{"details":"Only the original owner of the NFT can withdraw it. The stake is deleted upon withdrawal.","params":{"id":"The token ID of the staked NFT."}},"withdrawRewards(uint256)":{"details":"Rewards are minted based on the duration the NFT was staked.","params":{"id":"The token ID of the staked NFT."}}},"title":"Staking Contract for ERC721 Tokens","version":1},"evm":{"bytecode":{"linkReferences":{},"object":"60c060405234801561001057600080fd5b50604051610faa380380610faa83398181016040528101906100329190610104565b8173ffffffffffffffffffffffffffffffffffffffff1660808173ffffffffffffffffffffffffffffffffffffffff16815250508073ffffffffffffffffffffffffffffffffffffffff1660a08173ffffffffffffffffffffffffffffffffffffffff16815250505050610144565b600080fd5b600073ffffffffffffffffffffffffffffffffffffffff82169050919050565b60006100d1826100a6565b9050919050565b6100e1816100c6565b81146100ec57600080fd5b50565b6000815190506100fe816100d8565b92915050565b6000806040838503121561011b5761011a6100a1565b5b6000610129858286016100ef565b925050602061013a858286016100ef565b9150509250929050565b60805160a051610e2c61017e600039600081816106fa01526108b80152600081816101c60152818161033901526104d80152610e2c6000f3fe608060405234801561001057600080fd5b50600436106100885760003560e01c80639342c8f41161005b5780639342c8f4146101275780639ee0bcbc14610143578063d5a44f8614610173578063f7c618c1146101a457610088565b8063150b7a021461008d57806347ccca02146100bd5780635108f256146100db578063910efae81461010b575b600080fd5b6100a760048036038101906100a291906109dd565b6101c2565b6040516100b49190610aa0565b60405180910390f35b6100c5610337565b6040516100d29190610aca565b60405180910390f35b6100f560048036038101906100f09190610ae5565b61035b565b6040516101029190610aca565b60405180910390f35b61012560048036038101906101209190610ae5565b6103ea565b005b610141600480360381019061013c9190610ae5565b6105ad565b005b61015d60048036038101906101589190610ae5565b6107e3565b60405161016a9190610b21565b60405180910390f35b61018d60048036038101906101889190610ae5565b610872565b60405161019b929190610b3c565b60405180910390f35b6101ac6108b6565b6040516101b99190610aca565b60405180910390f35b60007f000000000000000000000000000000000000000000000000000000000000000073ffffffffffffffffffffffffffffffffffffffff163373ffffffffffffffffffffffffffffffffffffffff1614610252576040517f08c379a000000000000000000000000000000000000000000000000000000000815260040161024990610bc2565b60405180910390fd5b8460008086815260200190815260200160002060010160006101000a81548173ffffffffffffffffffffffffffffffffffffffff021916908373ffffffffffffffffffffffffffffffffffffffff1602179055504260008086815260200190815260200160002060000181905550838573ffffffffffffffffffffffffffffffffffffffff167f36b3725f1783bad4ff05b7f4c077c3aa68eeb23a4d054ba189db4d01ac278d396000808881526020019081526020016000206000015460405161031c9190610b21565b60405180910390a363150b7a0260e01b905095945050505050565b7f000000000000000000000000000000000000000000000000000000000000000081565b600080600080848152602001908152602001600020604051806040016040529081600082015481526020016001820160009054906101000a900473ffffffffffffffffffffffffffffffffffffffff1673ffffffffffffffffffffffffffffffffffffffff1673ffffffffffffffffffffffffffffffffffffffff168152505090508060200151915050919050565b600080600083815260200190815260200160002090503373ffffffffffffffffffffffffffffffffffffffff168160010160009054906101000a900473ffffffffffffffffffffffffffffffffffffffff1673ffffffffffffffffffffffffffffffffffffffff1614610492576040517f08c379a000000000000000000000000000000000000000000000000000000000815260040161048990610c2e565b60405180910390fd5b6000808381526020019081526020016000206000808201600090556001820160006101000a81549073ffffffffffffffffffffffffffffffffffffffff021916905550507f000000000000000000000000000000000000000000000000000000000000000073ffffffffffffffffffffffffffffffffffffffff166323b872dd3033856040518463ffffffff1660e01b815260040161053393929190610c4e565b600060405180830381600087803b15801561054d57600080fd5b505af1158015610561573d6000803e3d6000fd5b50505050813373ffffffffffffffffffffffffffffffffffffffff167f2aa1b4c95f3b2da9c955947fca584743ea0d457708fadf209c093061e98c4ccb60405160405180910390a35050565b600080600083815260200190815260200160002090503373ffffffffffffffffffffffffffffffffffffffff168160010160009054906101000a900473ffffffffffffffffffffffffffffffffffffffff1673ffffffffffffffffffffffffffffffffffffffff1614610655576040517f08c379a000000000000000000000000000000000000000000000000000000000815260040161064c90610c2e565b60405180910390fd5b600081600001540361069c576040517f08c379a000000000000000000000000000000000000000000000000000000000815260040161069390610cd1565b60405180910390fd5b60008160000154426106ae9190610d20565b905060006018603c80846106c29190610d83565b6106cc9190610d83565b6106d69190610d83565b9050600181106107dd576000678ac7230489e80000826106f69190610db4565b90507f000000000000000000000000000000000000000000000000000000000000000073ffffffffffffffffffffffffffffffffffffffff1663a0712d68826040518263ffffffff1660e01b81526004016107519190610b21565b600060405180830381600087803b15801561076b57600080fd5b505af115801561077f573d6000803e3d6000fd5b50505050843373ffffffffffffffffffffffffffffffffffffffff167fb981442338311d47912aead4f8d309ff0d9f814fca5087277f319a56741dd450836040516107ca9190610b21565b60405180910390a3428460000181905550505b50505050565b600080600080848152602001908152602001600020604051806040016040529081600082015481526020016001820160009054906101000a900473ffffffffffffffffffffffffffffffffffffffff1673ffffffffffffffffffffffffffffffffffffffff1673ffffffffffffffffffffffffffffffffffffffff168152505090508060000151915050919050565b60006020528060005260406000206000915090508060000154908060010160009054906101000a900473ffffffffffffffffffffffffffffffffffffffff16905082565b7f000000000000000000000000000000000000000000000000000000000000000081565b600080fd5b600080fd5b600073ffffffffffffffffffffffffffffffffffffffff82169050919050565b600061090f826108e4565b9050919050565b61091f81610904565b811461092a57600080fd5b50565b60008135905061093c81610916565b92915050565b6000819050919050565b61095581610942565b811461096057600080fd5b50565b6000813590506109728161094c565b92915050565b600080fd5b600080fd5b600080fd5b60008083601f84011261099d5761099c610978565b5b8235905067ffffffffffffffff8111156109ba576109b961097d565b5b6020830191508360018202830111156109d6576109d5610982565b5b9250929050565b6000806000806000608086880312156109f9576109f86108da565b5b6000610a078882890161092d565b9550506020610a188882890161092d565b9450506040610a2988828901610963565b935050606086013567ffffffffffffffff811115610a4a57610a496108df565b5b610a5688828901610987565b92509250509295509295909350565b60007fffffffff0000000000000000000000000000000000000000000000000000000082169050919050565b610a9a81610a65565b82525050565b6000602082019050610ab56000830184610a91565b92915050565b610ac481610904565b82525050565b6000602082019050610adf6000830184610abb565b92915050565b600060208284031215610afb57610afa6108da565b5b6000610b0984828501610963565b91505092915050565b610b1b81610942565b82525050565b6000602082019050610b366000830184610b12565b92915050565b6000604082019050610b516000830185610b12565b610b5e6020830184610abb565b9392505050565b600082825260208201905092915050565b7f5374616b696e673a20496e636f7272656374204e465420636f6e747261637400600082015250565b6000610bac601f83610b65565b9150610bb782610b76565b602082019050919050565b60006020820190508181036000830152610bdb81610b9f565b9050919050565b7f5374616b696e673a204e6f7420746865206f726967696e616c206f776e657200600082015250565b6000610c18601f83610b65565b9150610c2382610be2565b602082019050919050565b60006020820190508181036000830152610c4781610c0b565b9050919050565b6000606082019050610c636000830186610abb565b610c706020830185610abb565b610c7d6040830184610b12565b949350505050565b7f4e4654206973206e6f74207374616b6564000000000000000000000000000000600082015250565b6000610cbb601183610b65565b9150610cc682610c85565b602082019050919050565b60006020820190508181036000830152610cea81610cae565b9050919050565b7f4e487b7100000000000000000000000000000000000000000000000000000000600052601160045260246000fd5b6000610d2b82610942565b9150610d3683610942565b9250828203905081811115610d4e57610d4d610cf1565b5b92915050565b7f4e487b7100000000000000000000000000000000000000000000000000000000600052601260045260246000fd5b6000610d8e82610942565b9150610d9983610942565b925082610da957610da8610d54565b5b828204905092915050565b6000610dbf82610942565b9150610dca83610942565b9250828202610dd881610942565b91508282048414831517610def57610dee610cf1565b5b509291505056fea26469706673582212200d5c92b3116d5a2a766742583b0f67a6b97d2009a9ad843788d291435bba815664736f6c634300081b0033","opcodes":"PUSH1 0xC0 PUSH1 0x40 MSTORE CALLVALUE DUP1 ISZERO PUSH2 0x10 JUMPI PUSH1 0x0 DUP1 REVERT JUMPDEST POP PUSH1 0x40 MLOAD PUSH2 0xFAA CODESIZE SUB DUP1 PUSH2 0xFAA DUP4 CODECOPY DUP2 DUP2 ADD PUSH1 0x40 MSTORE DUP2 ADD SWAP1 PUSH2 0x32 SWAP2 SWAP1 PUSH2 0x104 JUMP JUMPDEST DUP2 PUSH20 0xFFFFFFFFFFFFFFFFFFFFFFFFFFFFFFFFFFFFFFFF AND PUSH1 0x80 DUP2 PUSH20 0xFFFFFFFFFFFFFFFFFFFFFFFFFFFFFFFFFFFFFFFF AND DUP2 MSTORE POP POP DUP1 PUSH20 0xFFFFFFFFFFFFFFFFFFFFFFFFFFFFFFFFFFFFFFFF AND PUSH1 0xA0 DUP2 PUSH20 0xFFFFFFFFFFFFFFFFFFFFFFFFFFFFFFFFFFFFFFFF AND DUP2 MSTORE POP POP POP POP PUSH2 0x144 JUMP JUMPDEST PUSH1 0x0 DUP1 REVERT JUMPDEST PUSH1 0x0 PUSH20 0xFFFFFFFFFFFFFFFFFFFFFFFFFFFFFFFFFFFFFFFF DUP3 AND SWAP1 POP SWAP2 SWAP1 POP JUMP JUMPDEST PUSH1 0x0 PUSH2 0xD1 DUP3 PUSH2 0xA6 JUMP JUMPDEST SWAP1 POP SWAP2 SWAP1 POP JUMP JUMPDEST PUSH2 0xE1 DUP2 PUSH2 0xC6 JUMP JUMPDEST DUP2 EQ PUSH2 0xEC JUMPI PUSH1 0x0 DUP1 REVERT JUMPDEST POP JUMP JUMPDEST PUSH1 0x0 DUP2 MLOAD SWAP1 POP PUSH2 0xFE DUP2 PUSH2 0xD8 JUMP JUMPDEST SWAP3 SWAP2 POP POP JUMP JUMPDEST PUSH1 0x0 DUP1 PUSH1 0x40 DUP4 DUP6 SUB SLT ISZERO PUSH2 0x11B JUMPI PUSH2 0x11A PUSH2 0xA1 JUMP JUMPDEST JUMPDEST PUSH1 0x0 PUSH2 0x129 DUP6 DUP3 DUP7 ADD PUSH2 0xEF JUMP JUMPDEST SWAP3 POP POP PUSH1 0x20 PUSH2 0x13A DUP6 DUP3 DUP7 ADD PUSH2 0xEF JUMP JUMPDEST SWAP2 POP POP SWAP3 POP SWAP3 SWAP1 POP JUMP JUMPDEST PUSH1 0x80 MLOAD PUSH1 0xA0 MLOAD PUSH2 0xE2C PUSH2 0x17E PUSH1 0x0 CODECOPY PUSH1 0x0 DUP2 DUP2 PUSH2 0x6FA ADD MSTORE PUSH2 0x8B8 ADD MSTORE PUSH1 0x0 DUP2 DUP2 PUSH2 0x1C6 ADD MSTORE DUP2 DUP2 PUSH2 0x339 ADD MSTORE PUSH2 0x4D8 ADD MSTORE PUSH2 0xE2C PUSH1 0x0 RETURN INVALID PUSH1 0x80 PUSH1 0x40 MSTORE CALLVALUE DUP1 ISZERO PUSH2 0x10 JUMPI PUSH1 0x0 DUP1 REVERT JUMPDEST POP PUSH1 0x4 CALLDATASIZE LT PUSH2 0x88 JUMPI PUSH1 0x0 CALLDATALOAD PUSH1 0xE0 SHR DUP1 PUSH4 0x9342C8F4 GT PUSH2 0x5B JUMPI DUP1 PUSH4 0x9342C8F4 EQ PUSH2 0x127 JUMPI DUP1 PUSH4 0x9EE0BCBC EQ PUSH2 0x143 JUMPI DUP1 PUSH4 0xD5A44F86 EQ PUSH2 0x173 JUMPI DUP1 PUSH4 0xF7C618C1 EQ PUSH2 0x1A4 JUMPI PUSH2 0x88 JUMP JUMPDEST DUP1 PUSH4 0x150B7A02 EQ PUSH2 0x8D JUMPI DUP1 PUSH4 0x47CCCA02 EQ PUSH2 0xBD JUMPI DUP1 PUSH4 0x5108F256 EQ PUSH2 0xDB JUMPI DUP1 PUSH4 0x910EFAE8 EQ PUSH2 0x10B JUMPI JUMPDEST PUSH1 0x0 DUP1 REVERT JUMPDEST PUSH2 0xA7 PUSH1 0x4 DUP1 CALLDATASIZE SUB DUP2 ADD SWAP1 PUSH2 0xA2 SWAP2 SWAP1 PUSH2 0x9DD JUMP JUMPDEST PUSH2 0x1C2 JUMP JUMPDEST PUSH1 0x40 MLOAD PUSH2 0xB4 SWAP2 SWAP1 PUSH2 0xAA0 JUMP JUMPDEST PUSH1 0x40 MLOAD DUP1 SWAP2 SUB SWAP1 RETURN JUMPDEST PUSH2 0xC5 PUSH2 0x337 JUMP JUMPDEST PUSH1 0x40 MLOAD PUSH2 0xD2 SWAP2 SWAP1 PUSH2 0xACA JUMP JUMPDEST PUSH1 0x40 MLOAD DUP1 SWAP2 SUB SWAP1 RETURN JUMPDEST PUSH2 0xF5 PUSH1 0x4 DUP1 CALLDATASIZE SUB DUP2 ADD SWAP1 PUSH2 0xF0 SWAP2 SWAP1 PUSH2 0xAE5 JUMP JUMPDEST PUSH2 0x35B JUMP JUMPDEST PUSH1 0x40 MLOAD PUSH2 0x102 SWAP2 SWAP1 PUSH2 0xACA JUMP JUMPDEST PUSH1 0x40 MLOAD DUP1 SWAP2 SUB SWAP1 RETURN JUMPDEST PUSH2 0x125 PUSH1 0x4 DUP1 CALLDATASIZE SUB DUP2 ADD SWAP1 PUSH2 0x120 SWAP2 SWAP1 PUSH2 0xAE5 JUMP JUMPDEST PUSH2 0x3EA JUMP JUMPDEST STOP JUMPDEST PUSH2 0x141 PUSH1 0x4 DUP1 CALLDATASIZE SUB DUP2 ADD SWAP1 PUSH2 0x13C SWAP2 SWAP1 PUSH2 0xAE5 JUMP JUMPDEST PUSH2 0x5AD JUMP JUMPDEST STOP JUMPDEST PUSH2 0x15D PUSH1 0x4 DUP1 CALLDATASIZE SUB DUP2 ADD SWAP1 PUSH2 0x158 SWAP2 SWAP1 PUSH2 0xAE5 JUMP JUMPDEST PUSH2 0x7E3 JUMP JUMPDEST PUSH1 0x40 MLOAD PUSH2 0x16A SWAP2 SWAP1 PUSH2 0xB21 JUMP JUMPDEST PUSH1 0x40 MLOAD DUP1 SWAP2 SUB SWAP1 RETURN JUMPDEST PUSH2 0x18D PUSH1 0x4 DUP1 CALLDATASIZE SUB DUP2 ADD SWAP1 PUSH2 0x188 SWAP2 SWAP1 PUSH2 0xAE5 JUMP JUMPDEST PUSH2 0x872 JUMP JUMPDEST PUSH1 0x40 MLOAD PUSH2 0x19B SWAP3 SWAP2 SWAP1 PUSH2 0xB3C JUMP JUMPDEST PUSH1 0x40 MLOAD DUP1 SWAP2 SUB SWAP1 RETURN JUMPDEST PUSH2 0x1AC PUSH2 0x8B6 JUMP JUMPDEST PUSH1 0x40 MLOAD PUSH2 0x1B9 SWAP2 SWAP1 PUSH2 0xACA JUMP JUMPDEST PUSH1 0x40 MLOAD DUP1 SWAP2 SUB SWAP1 RETURN JUMPDEST PUSH1 0x0 PUSH32 0x0 PUSH20 0xFFFFFFFFFFFFFFFFFFFFFFFFFFFFFFFFFFFFFFFF AND CALLER PUSH20 0xFFFFFFFFFFFFFFFFFFFFFFFFFFFFFFFFFFFFFFFF AND EQ PUSH2 0x252 JUMPI PUSH1 0x40 MLOAD PUSH32 0x8C379A000000000000000000000000000000000000000000000000000000000 DUP2 MSTORE PUSH1 0x4 ADD PUSH2 0x249 SWAP1 PUSH2 0xBC2 JUMP JUMPDEST PUSH1 0x40 MLOAD DUP1 SWAP2 SUB SWAP1 REVERT JUMPDEST DUP5 PUSH1 0x0 DUP1 DUP7 DUP2 MSTORE PUSH1 0x20 ADD SWAP1 DUP2 MSTORE PUSH1 0x20 ADD PUSH1 0x0 KECCAK256 PUSH1 0x1 ADD PUSH1 0x0 PUSH2 0x100 EXP DUP2 SLOAD DUP2 PUSH20 0xFFFFFFFFFFFFFFFFFFFFFFFFFFFFFFFFFFFFFFFF MUL NOT AND SWAP1 DUP4 PUSH20 0xFFFFFFFFFFFFFFFFFFFFFFFFFFFFFFFFFFFFFFFF AND MUL OR SWAP1 SSTORE POP TIMESTAMP PUSH1 0x0 DUP1 DUP7 DUP2 MSTORE PUSH1 0x20 ADD SWAP1 DUP2 MSTORE PUSH1 0x20 ADD PUSH1 0x0 KECCAK256 PUSH1 0x0 ADD DUP2 SWAP1 SSTORE POP DUP4 DUP6 PUSH20 0xFFFFFFFFFFFFFFFFFFFFFFFFFFFFFFFFFFFFFFFF AND PUSH32 0x36B3725F1783BAD4FF05B7F4C077C3AA68EEB23A4D054BA189DB4D01AC278D39 PUSH1 0x0 DUP1 DUP9 DUP2 MSTORE PUSH1 0x20 ADD SWAP1 DUP2 MSTORE PUSH1 0x20 ADD PUSH1 0x0 KECCAK256 PUSH1 0x0 ADD SLOAD PUSH1 0x40 MLOAD PUSH2 0x31C SWAP2 SWAP1 PUSH2 0xB21 JUMP JUMPDEST PUSH1 0x40 MLOAD DUP1 SWAP2 SUB SWAP1 LOG3 PUSH4 0x150B7A02 PUSH1 0xE0 SHL SWAP1 POP SWAP6 SWAP5 POP POP POP POP POP JUMP JUMPDEST PUSH32 0x0 DUP2 JUMP JUMPDEST PUSH1 0x0 DUP1 PUSH1 0x0 DUP1 DUP5 DUP2 MSTORE PUSH1 0x20 ADD SWAP1 DUP2 MSTORE PUSH1 0x20 ADD PUSH1 0x0 KECCAK256 PUSH1 0x40 MLOAD DUP1 PUSH1 0x40 ADD PUSH1 0x40 MSTORE SWAP1 DUP2 PUSH1 0x0 DUP3 ADD SLOAD DUP2 MSTORE PUSH1 0x20 ADD PUSH1 0x1 DUP3 ADD PUSH1 0x0 SWAP1 SLOAD SWAP1 PUSH2 0x100 EXP SWAP1 DIV PUSH20 0xFFFFFFFFFFFFFFFFFFFFFFFFFFFFFFFFFFFFFFFF AND PUSH20 0xFFFFFFFFFFFFFFFFFFFFFFFFFFFFFFFFFFFFFFFF AND PUSH20 0xFFFFFFFFFFFFFFFFFFFFFFFFFFFFFFFFFFFFFFFF AND DUP2 MSTORE POP POP SWAP1 POP DUP1 PUSH1 0x20 ADD MLOAD SWAP2 POP POP SWAP2 SWAP1 POP JUMP JUMPDEST PUSH1 0x0 DUP1 PUSH1 0x0 DUP4 DUP2 MSTORE PUSH1 0x20 ADD SWAP1 DUP2 MSTORE PUSH1 0x20 ADD PUSH1 0x0 KECCAK256 SWAP1 POP CALLER PUSH20 0xFFFFFFFFFFFFFFFFFFFFFFFFFFFFFFFFFFFFFFFF AND DUP2 PUSH1 0x1 ADD PUSH1 0x0 SWAP1 SLOAD SWAP1 PUSH2 0x100 EXP SWAP1 DIV PUSH20 0xFFFFFFFFFFFFFFFFFFFFFFFFFFFFFFFFFFFFFFFF AND PUSH20 0xFFFFFFFFFFFFFFFFFFFFFFFFFFFFFFFFFFFFFFFF AND EQ PUSH2 0x492 JUMPI PUSH1 0x40 MLOAD PUSH32 0x8C379A000000000000000000000000000000000000000000000000000000000 DUP2 MSTORE PUSH1 0x4 ADD PUSH2 0x489 SWAP1 PUSH2 0xC2E JUMP JUMPDEST PUSH1 0x40 MLOAD DUP1 SWAP2 SUB SWAP1 REVERT JUMPDEST PUSH1 0x0 DUP1 DUP4 DUP2 MSTORE PUSH1 0x20 ADD SWAP1 DUP2 MSTORE PUSH1 0x20 ADD PUSH1 0x0 KECCAK256 PUSH1 0x0 DUP1 DUP3 ADD PUSH1 0x0 SWAP1 SSTORE PUSH1 0x1 DUP3 ADD PUSH1 0x0 PUSH2 0x100 EXP DUP2 SLOAD SWAP1 PUSH20 0xFFFFFFFFFFFFFFFFFFFFFFFFFFFFFFFFFFFFFFFF MUL NOT AND SWAP1 SSTORE POP POP PUSH32 0x0 PUSH20 0xFFFFFFFFFFFFFFFFFFFFFFFFFFFFFFFFFFFFFFFF AND PUSH4 0x23B872DD ADDRESS CALLER DUP6 PUSH1 0x40 MLOAD DUP5 PUSH4 0xFFFFFFFF AND PUSH1 0xE0 SHL DUP2 MSTORE PUSH1 0x4 ADD PUSH2 0x533 SWAP4 SWAP3 SWAP2 SWAP1 PUSH2 0xC4E JUMP JUMPDEST PUSH1 0x0 PUSH1 0x40 MLOAD DUP1 DUP4 SUB DUP2 PUSH1 0x0 DUP8 DUP1 EXTCODESIZE ISZERO DUP1 ISZERO PUSH2 0x54D JUMPI PUSH1 0x0 DUP1 REVERT JUMPDEST POP GAS CALL ISZERO DUP1 ISZERO PUSH2 0x561 JUMPI RETURNDATASIZE PUSH1 0x0 DUP1 RETURNDATACOPY RETURNDATASIZE PUSH1 0x0 REVERT JUMPDEST POP POP POP POP DUP2 CALLER PUSH20 0xFFFFFFFFFFFFFFFFFFFFFFFFFFFFFFFFFFFFFFFF AND PUSH32 0x2AA1B4C95F3B2DA9C955947FCA584743EA0D457708FADF209C093061E98C4CCB PUSH1 0x40 MLOAD PUSH1 0x40 MLOAD DUP1 SWAP2 SUB SWAP1 LOG3 POP POP JUMP JUMPDEST PUSH1 0x0 DUP1 PUSH1 0x0 DUP4 DUP2 MSTORE PUSH1 0x20 ADD SWAP1 DUP2 MSTORE PUSH1 0x20 ADD PUSH1 0x0 KECCAK256 SWAP1 POP CALLER PUSH20 0xFFFFFFFFFFFFFFFFFFFFFFFFFFFFFFFFFFFFFFFF AND DUP2 PUSH1 0x1 ADD PUSH1 0x0 SWAP1 SLOAD SWAP1 PUSH2 0x100 EXP SWAP1 DIV PUSH20 0xFFFFFFFFFFFFFFFFFFFFFFFFFFFFFFFFFFFFFFFF AND PUSH20 0xFFFFFFFFFFFFFFFFFFFFFFFFFFFFFFFFFFFFFFFF AND EQ PUSH2 0x655 JUMPI PUSH1 0x40 MLOAD PUSH32 0x8C379A000000000000000000000000000000000000000000000000000000000 DUP2 MSTORE PUSH1 0x4 ADD PUSH2 0x64C SWAP1 PUSH2 0xC2E JUMP JUMPDEST PUSH1 0x40 MLOAD DUP1 SWAP2 SUB SWAP1 REVERT JUMPDEST PUSH1 0x0 DUP2 PUSH1 0x0 ADD SLOAD SUB PUSH2 0x69C JUMPI PUSH1 0x40 MLOAD PUSH32 0x8C379A000000000000000000000000000000000000000000000000000000000 DUP2 MSTORE PUSH1 0x4 ADD PUSH2 0x693 SWAP1 PUSH2 0xCD1 JUMP JUMPDEST PUSH1 0x40 MLOAD DUP1 SWAP2 SUB SWAP1 REVERT JUMPDEST PUSH1 0x0 DUP2 PUSH1 0x0 ADD SLOAD TIMESTAMP PUSH2 0x6AE SWAP2 SWAP1 PUSH2 0xD20 JUMP JUMPDEST SWAP1 POP PUSH1 0x0 PUSH1 0x18 PUSH1 0x3C DUP1 DUP5 PUSH2 0x6C2 SWAP2 SWAP1 PUSH2 0xD83 JUMP JUMPDEST PUSH2 0x6CC SWAP2 SWAP1 PUSH2 0xD83 JUMP JUMPDEST PUSH2 0x6D6 SWAP2 SWAP1 PUSH2 0xD83 JUMP JUMPDEST SWAP1 POP PUSH1 0x1 DUP2 LT PUSH2 0x7DD JUMPI PUSH1 0x0 PUSH8 0x8AC7230489E80000 DUP3 PUSH2 0x6F6 SWAP2 SWAP1 PUSH2 0xDB4 JUMP JUMPDEST SWAP1 POP PUSH32 0x0 PUSH20 0xFFFFFFFFFFFFFFFFFFFFFFFFFFFFFFFFFFFFFFFF AND PUSH4 0xA0712D68 DUP3 PUSH1 0x40 MLOAD DUP3 PUSH4 0xFFFFFFFF AND PUSH1 0xE0 SHL DUP2 MSTORE PUSH1 0x4 ADD PUSH2 0x751 SWAP2 SWAP1 PUSH2 0xB21 JUMP JUMPDEST PUSH1 0x0 PUSH1 0x40 MLOAD DUP1 DUP4 SUB DUP2 PUSH1 0x0 DUP8 DUP1 EXTCODESIZE ISZERO DUP1 ISZERO PUSH2 0x76B JUMPI PUSH1 0x0 DUP1 REVERT JUMPDEST POP GAS CALL ISZERO DUP1 ISZERO PUSH2 0x77F JUMPI RETURNDATASIZE PUSH1 0x0 DUP1 RETURNDATACOPY RETURNDATASIZE PUSH1 0x0 REVERT JUMPDEST POP POP POP POP DUP5 CALLER PUSH20 0xFFFFFFFFFFFFFFFFFFFFFFFFFFFFFFFFFFFFFFFF AND PUSH32 0xB981442338311D47912AEAD4F8D309FF0D9F814FCA5087277F319A56741DD450 DUP4 PUSH1 0x40 MLOAD PUSH2 0x7CA SWAP2 SWAP1 PUSH2 0xB21 JUMP JUMPDEST PUSH1 0x40 MLOAD DUP1 SWAP2 SUB SWAP1 LOG3 TIMESTAMP DUP5 PUSH1 0x0 ADD DUP2 SWAP1 SSTORE POP POP JUMPDEST POP POP POP POP JUMP JUMPDEST PUSH1 0x0 DUP1 PUSH1 0x0 DUP1 DUP5 DUP2 MSTORE PUSH1 0x20 ADD SWAP1 DUP2 MSTORE PUSH1 0x20 ADD PUSH1 0x0 KECCAK256 PUSH1 0x40 MLOAD DUP1 PUSH1 0x40 ADD PUSH1 0x40 MSTORE SWAP1 DUP2 PUSH1 0x0 DUP3 ADD SLOAD DUP2 MSTORE PUSH1 0x20 ADD PUSH1 0x1 DUP3 ADD PUSH1 0x0 SWAP1 SLOAD SWAP1 PUSH2 0x100 EXP SWAP1 DIV PUSH20 0xFFFFFFFFFFFFFFFFFFFFFFFFFFFFFFFFFFFFFFFF AND PUSH20 0xFFFFFFFFFFFFFFFFFFFFFFFFFFFFFFFFFFFFFFFF AND PUSH20 0xFFFFFFFFFFFFFFFFFFFFFFFFFFFFFFFFFFFFFFFF AND DUP2 MSTORE POP POP SWAP1 POP DUP1 PUSH1 0x0 ADD MLOAD SWAP2 POP POP SWAP2 SWAP1 POP JUMP JUMPDEST PUSH1 0x0 PUSH1 0x20 MSTORE DUP1 PUSH1 0x0 MSTORE PUSH1 0x40 PUSH1 0x0 KECCAK256 PUSH1 0x0 SWAP2 POP SWAP1 POP DUP1 PUSH1 0x0 ADD SLOAD SWAP1 DUP1 PUSH1 0x1 ADD PUSH1 0x0 SWAP1 SLOAD SWAP1 PUSH2 0x100 EXP SWAP1 DIV PUSH20 0xFFFFFFFFFFFFFFFFFFFFFFFFFFFFFFFFFFFFFFFF AND SWAP1 POP DUP3 JUMP JUMPDEST PUSH32 0x0 DUP2 JUMP JUMPDEST PUSH1 0x0 DUP1 REVERT JUMPDEST PUSH1 0x0 DUP1 REVERT JUMPDEST PUSH1 0x0 PUSH20 0xFFFFFFFFFFFFFFFFFFFFFFFFFFFFFFFFFFFFFFFF DUP3 AND SWAP1 POP SWAP2 SWAP1 POP JUMP JUMPDEST PUSH1 0x0 PUSH2 0x90F DUP3 PUSH2 0x8E4 JUMP JUMPDEST SWAP1 POP SWAP2 SWAP1 POP JUMP JUMPDEST PUSH2 0x91F DUP2 PUSH2 0x904 JUMP JUMPDEST DUP2 EQ PUSH2 0x92A JUMPI PUSH1 0x0 DUP1 REVERT JUMPDEST POP JUMP JUMPDEST PUSH1 0x0 DUP2 CALLDATALOAD SWAP1 POP PUSH2 0x93C DUP2 PUSH2 0x916 JUMP JUMPDEST SWAP3 SWAP2 POP POP JUMP JUMPDEST PUSH1 0x0 DUP2 SWAP1 POP SWAP2 SWAP1 POP JUMP JUMPDEST PUSH2 0x955 DUP2 PUSH2 0x942 JUMP JUMPDEST DUP2 EQ PUSH2 0x960 JUMPI PUSH1 0x0 DUP1 REVERT JUMPDEST POP JUMP JUMPDEST PUSH1 0x0 DUP2 CALLDATALOAD SWAP1 POP PUSH2 0x972 DUP2 PUSH2 0x94C JUMP JUMPDEST SWAP3 SWAP2 POP POP JUMP JUMPDEST PUSH1 0x0 DUP1 REVERT JUMPDEST PUSH1 0x0 DUP1 REVERT JUMPDEST PUSH1 0x0 DUP1 REVERT JUMPDEST PUSH1 0x0 DUP1 DUP4 PUSH1 0x1F DUP5 ADD SLT PUSH2 0x99D JUMPI PUSH2 0x99C PUSH2 0x978 JUMP JUMPDEST JUMPDEST DUP3 CALLDATALOAD SWAP1 POP PUSH8 0xFFFFFFFFFFFFFFFF DUP2 GT ISZERO PUSH2 0x9BA JUMPI PUSH2 0x9B9 PUSH2 0x97D JUMP JUMPDEST JUMPDEST PUSH1 0x20 DUP4 ADD SWAP2 POP DUP4 PUSH1 0x1 DUP3 MUL DUP4 ADD GT ISZERO PUSH2 0x9D6 JUMPI PUSH2 0x9D5 PUSH2 0x982 JUMP JUMPDEST JUMPDEST SWAP3 POP SWAP3 SWAP1 POP JUMP JUMPDEST PUSH1 0x0 DUP1 PUSH1 0x0 DUP1 PUSH1 0x0 PUSH1 0x80 DUP7 DUP9 SUB SLT ISZERO PUSH2 0x9F9 JUMPI PUSH2 0x9F8 PUSH2 0x8DA JUMP JUMPDEST JUMPDEST PUSH1 0x0 PUSH2 0xA07 DUP9 DUP3 DUP10 ADD PUSH2 0x92D JUMP JUMPDEST SWAP6 POP POP PUSH1 0x20 PUSH2 0xA18 DUP9 DUP3 DUP10 ADD PUSH2 0x92D JUMP JUMPDEST SWAP5 POP POP PUSH1 0x40 PUSH2 0xA29 DUP9 DUP3 DUP10 ADD PUSH2 0x963 JUMP JUMPDEST SWAP4 POP POP PUSH1 0x60 DUP7 ADD CALLDATALOAD PUSH8 0xFFFFFFFFFFFFFFFF DUP2 GT ISZERO PUSH2 0xA4A JUMPI PUSH2 0xA49 PUSH2 0x8DF JUMP JUMPDEST JUMPDEST PUSH2 0xA56 DUP9 DUP3 DUP10 ADD PUSH2 0x987 JUMP JUMPDEST SWAP3 POP SWAP3 POP POP SWAP3 SWAP6 POP SWAP3 SWAP6 SWAP1 SWAP4 POP JUMP JUMPDEST PUSH1 0x0 PUSH32 0xFFFFFFFF00000000000000000000000000000000000000000000000000000000 DUP3 AND SWAP1 POP SWAP2 SWAP1 POP JUMP JUMPDEST PUSH2 0xA9A DUP2 PUSH2 0xA65 JUMP JUMPDEST DUP3 MSTORE POP POP JUMP JUMPDEST PUSH1 0x0 PUSH1 0x20 DUP3 ADD SWAP1 POP PUSH2 0xAB5 PUSH1 0x0 DUP4 ADD DUP5 PUSH2 0xA91 JUMP JUMPDEST SWAP3 SWAP2 POP POP JUMP JUMPDEST PUSH2 0xAC4 DUP2 PUSH2 0x904 JUMP JUMPDEST DUP3 MSTORE POP POP JUMP JUMPDEST PUSH1 0x0 PUSH1 0x20 DUP3 ADD SWAP1 POP PUSH2 0xADF PUSH1 0x0 DUP4 ADD DUP5 PUSH2 0xABB JUMP JUMPDEST SWAP3 SWAP2 POP POP JUMP JUMPDEST PUSH1 0x0 PUSH1 0x20 DUP3 DUP5 SUB SLT ISZERO PUSH2 0xAFB JUMPI PUSH2 0xAFA PUSH2 0x8DA JUMP JUMPDEST JUMPDEST PUSH1 0x0 PUSH2 0xB09 DUP5 DUP3 DUP6 ADD PUSH2 0x963 JUMP JUMPDEST SWAP2 POP POP SWAP3 SWAP2 POP POP JUMP JUMPDEST PUSH2 0xB1B DUP2 PUSH2 0x942 JUMP JUMPDEST DUP3 MSTORE POP POP JUMP JUMPDEST PUSH1 0x0 PUSH1 0x20 DUP3 ADD SWAP1 POP PUSH2 0xB36 PUSH1 0x0 DUP4 ADD DUP5 PUSH2 0xB12 JUMP JUMPDEST SWAP3 SWAP2 POP POP JUMP JUMPDEST PUSH1 0x0 PUSH1 0x40 DUP3 ADD SWAP1 POP PUSH2 0xB51 PUSH1 0x0 DUP4 ADD DUP6 PUSH2 0xB12 JUMP JUMPDEST PUSH2 0xB5E PUSH1 0x20 DUP4 ADD DUP5 PUSH2 0xABB JUMP JUMPDEST SWAP4 SWAP3 POP POP POP JUMP JUMPDEST PUSH1 0x0 DUP3 DUP3 MSTORE PUSH1 0x20 DUP3 ADD SWAP1 POP SWAP3 SWAP2 POP POP JUMP JUMPDEST PUSH32 0x5374616B696E673A20496E636F7272656374204E465420636F6E747261637400 PUSH1 0x0 DUP3 ADD MSTORE POP JUMP JUMPDEST PUSH1 0x0 PUSH2 0xBAC PUSH1 0x1F DUP4 PUSH2 0xB65 JUMP JUMPDEST SWAP2 POP PUSH2 0xBB7 DUP3 PUSH2 0xB76 JUMP JUMPDEST PUSH1 0x20 DUP3 ADD SWAP1 POP SWAP2 SWAP1 POP JUMP JUMPDEST PUSH1 0x0 PUSH1 0x20 DUP3 ADD SWAP1 POP DUP2 DUP2 SUB PUSH1 0x0 DUP4 ADD MSTORE PUSH2 0xBDB DUP2 PUSH2 0xB9F JUMP JUMPDEST SWAP1 POP SWAP2 SWAP1 POP JUMP JUMPDEST PUSH32 0x5374616B696E673A204E6F7420746865206F726967696E616C206F776E657200 PUSH1 0x0 DUP3 ADD MSTORE POP JUMP JUMPDEST PUSH1 0x0 PUSH2 0xC18 PUSH1 0x1F DUP4 PUSH2 0xB65 JUMP JUMPDEST SWAP2 POP PUSH2 0xC23 DUP3 PUSH2 0xBE2 JUMP JUMPDEST PUSH1 0x20 DUP3 ADD SWAP1 POP SWAP2 SWAP1 POP JUMP JUMPDEST PUSH1 0x0 PUSH1 0x20 DUP3 ADD SWAP1 POP DUP2 DUP2 SUB PUSH1 0x0 DUP4 ADD MSTORE PUSH2 0xC47 DUP2 PUSH2 0xC0B JUMP JUMPDEST SWAP1 POP SWAP2 SWAP1 POP JUMP JUMPDEST PUSH1 0x0 PUSH1 0x60 DUP3 ADD SWAP1 POP PUSH2 0xC63 PUSH1 0x0 DUP4 ADD DUP7 PUSH2 0xABB JUMP JUMPDEST PUSH2 0xC70 PUSH1 0x20 DUP4 ADD DUP6 PUSH2 0xABB JUMP JUMPDEST PUSH2 0xC7D PUSH1 0x40 DUP4 ADD DUP5 PUSH2 0xB12 JUMP JUMPDEST SWAP5 SWAP4 POP POP POP POP JUMP JUMPDEST PUSH32 0x4E4654206973206E6F74207374616B6564000000000000000000000000000000 PUSH1 0x0 DUP3 ADD MSTORE POP JUMP JUMPDEST PUSH1 0x0 PUSH2 0xCBB PUSH1 0x11 DUP4 PUSH2 0xB65 JUMP JUMPDEST SWAP2 POP PUSH2 0xCC6 DUP3 PUSH2 0xC85 JUMP JUMPDEST PUSH1 0x20 DUP3 ADD SWAP1 POP SWAP2 SWAP1 POP JUMP JUMPDEST PUSH1 0x0 PUSH1 0x20 DUP3 ADD SWAP1 POP DUP2 DUP2 SUB PUSH1 0x0 DUP4 ADD MSTORE PUSH2 0xCEA DUP2 PUSH2 0xCAE JUMP JUMPDEST SWAP1 POP SWAP2 SWAP1 POP JUMP JUMPDEST PUSH32 0x4E487B7100000000000000000000000000000000000000000000000000000000 PUSH1 0x0 MSTORE PUSH1 0x11 PUSH1 0x4 MSTORE PUSH1 0x24 PUSH1 0x0 REVERT JUMPDEST PUSH1 0x0 PUSH2 0xD2B DUP3 PUSH2 0x942 JUMP JUMPDEST SWAP2 POP PUSH2 0xD36 DUP4 PUSH2 0x942 JUMP JUMPDEST SWAP3 POP DUP3 DUP3 SUB SWAP1 POP DUP2 DUP2 GT ISZERO PUSH2 0xD4E JUMPI PUSH2 0xD4D PUSH2 0xCF1 JUMP JUMPDEST JUMPDEST SWAP3 SWAP2 POP POP JUMP JUMPDEST PUSH32 0x4E487B7100000000000000000000000000000000000000000000000000000000 PUSH1 0x0 MSTORE PUSH1 0x12 PUSH1 0x4 MSTORE PUSH1 0x24 PUSH1 0x0 REVERT JUMPDEST PUSH1 0x0 PUSH2 0xD8E DUP3 PUSH2 0x942 JUMP JUMPDEST SWAP2 POP PUSH2 0xD99 DUP4 PUSH2 0x942 JUMP JUMPDEST SWAP3 POP DUP3 PUSH2 0xDA9 JUMPI PUSH2 0xDA8 PUSH2 0xD54 JUMP JUMPDEST JUMPDEST DUP3 DUP3 DIV SWAP1 POP SWAP3 SWAP2 POP POP JUMP JUMPDEST PUSH1 0x0 PUSH2 0xDBF DUP3 PUSH2 0x942 JUMP JUMPDEST SWAP2 POP PUSH2 0xDCA DUP4 PUSH2 0x942 JUMP JUMPDEST SWAP3 POP DUP3 DUP3 MUL PUSH2 0xDD8 DUP2 PUSH2 0x942 JUMP JUMPDEST SWAP2 POP DUP3 DUP3 DIV DUP5 EQ DUP4 ISZERO OR PUSH2 0xDEF JUMPI PUSH2 0xDEE PUSH2 0xCF1 JUMP JUMPDEST JUMPDEST POP SWAP3 SWAP2 POP POP JUMP INVALID LOG2 PUSH5 0x6970667358 0x22 SLT KECCAK256 0xD TLOAD SWAP3 0xB3 GT PUSH14 0x5A2A766742583B0F67A6B97D2009 0xA9 0xAD DUP5 CALLDATACOPY DUP9 0xD2 SWAP2 NUMBER JUMPDEST 0xBA DUP2 JUMP PUSH5 0x736F6C6343 STOP ADDMOD SHL STOP CALLER "},"gasEstimates":{"creation":{"codeDepositCost":"725600","executionCost":"infinite","totalCost":"infinite"},"external":{"getStakeOwner(uint256)":"5117","getStakeTimestamp(uint256)":"infinite","nft()":"infinite","onERC721Received(address,address,uint256,bytes)":"infinite","rewardToken()":"infinite","stakes(uint256)":"infinite","withdrawNft(uint256)":"infinite","withdrawRewards(uint256)":"infinite"}},"methodIdentifiers":{"getStakeOwner(uint256)":"5108f256","getStakeTimestamp(uint256)":"9ee0bcbc","nft()":"47ccca02","onERC721Received(address,address,uint256,bytes)":"150b7a02","rewardToken()":"f7c618c1","stakes(uint256)":"d5a44f86","withdrawNft(uint256)":"910efae8","withdrawRewards(uint256)":"9342c8f4"}},"storageLayout":{"storage":[{"astId":182,"contract":"contracts/Staking.sol:Staking","label":"stakes","offset":0,"slot":"0","type":"t_mapping(t_uint256,t_struct(Stake)173_storage)"}],"types":{"t_address":{"encoding":"inplace","label":"address","numberOfBytes":"20"},"t_mapping(t_uint256,t_struct(Stake)173_storage)":{"encoding":"mapping","key":"t_uint256","label":"mapping(uint256 => struct Staking.Stake)","numberOfBytes":"32","value":"t_struct(Stake)173_storage"},"t_struct(Stake)173_storage":{"encoding":"inplace","label":"struct Staking.Stake","members":[{"astId":170,"contract":"contracts/Staking.sol:Staking","label":"timestamp","offset":0,"slot":"0","type":"t_uint256"},{"astId":172,"contract":"contracts/Staking.sol:Staking","label":"originalOwner","offset":0,"slot":"1","type":"t_address"}],"numberOfBytes":"64"},"t_uint256":{"encoding":"inplace","label":"uint256","numberOfBytes":"32"}}},"userdoc":{"kind":"user","methods":{"constructor":{"notice":"Constructor to set the NFT contract address."},"onERC721Received(address,address,uint256,bytes)":{"notice":"Handles the receipt of an ERC721 token."},"withdrawNft(uint256)":{"notice":"Allows the original owner to withdraw their staked NFT."},"withdrawRewards(uint256)":{"notice":"Allows the original owner to withdraw their staking rewards."}},"version":1}}}}