{"contracts/NFT1.sol":{"NFT1":{"abi":[{"inputs":[{"internalType":"string","name":"baseURI","type":"string"},{"internalType":"bytes32","name":"merkleRoot_","type":"bytes32"}],"stateMutability":"nonpayable","type":"constructor"},{"anonymous":false,"inputs":[{"indexed":true,"internalType":"address","name":"owner","type":"address"},{"indexed":true,"internalType":"address","name":"approved","type":"address"},{"indexed":true,"internalType":"uint256","name":"tokenId","type":"uint256"}],"name":"Approval","type":"event"},{"anonymous":false,"inputs":[{"indexed":true,"internalType":"address","name":"owner","type":"address"},{"indexed":true,"internalType":"address","name":"operator","type":"address"},{"indexed":false,"internalType":"bool","name":"approved","type":"bool"}],"name":"ApprovalForAll","type":"event"},{"anonymous":false,"inputs":[{"indexed":true,"internalType":"address","name":"owner","type":"address"},{"indexed":false,"internalType":"uint256","name":"amount","type":"uint256"}],"name":"FundsWithdrawn","type":"event"},{"anonymous":false,"inputs":[{"indexed":true,"internalType":"address","name":"nftOwner","type":"address"}],"name":"Minted","type":"event"},{"anonymous":false,"inputs":[{"indexed":true,"internalType":"address","name":"previousOwner","type":"address"},{"indexed":true,"internalType":"address","name":"newOwner","type":"address"}],"name":"OwnershipTransferStarted","type":"event"},{"anonymous":false,"inputs":[{"indexed":true,"internalType":"address","name":"previousOwner","type":"address"},{"indexed":true,"internalType":"address","name":"newOwner","type":"address"}],"name":"OwnershipTransferred","type":"event"},{"anonymous":false,"inputs":[{"indexed":true,"internalType":"address","name":"from","type":"address"},{"indexed":true,"internalType":"address","name":"to","type":"address"},{"indexed":true,"internalType":"uint256","name":"tokenId","type":"uint256"}],"name":"Transfer","type":"event"},{"inputs":[],"name":"DISCOUNTED_MINTING_PRICE","outputs":[{"internalType":"uint256","name":"","type":"uint256"}],"stateMutability":"view","type":"function"},{"inputs":[],"name":"MAX_SUPPLY","outputs":[{"internalType":"uint256","name":"","type":"uint256"}],"stateMutability":"view","type":"function"},{"inputs":[],"name":"MINTING_PRICE","outputs":[{"internalType":"uint256","name":"","type":"uint256"}],"stateMutability":"view","type":"function"},{"inputs":[],"name":"ROYALTY_FEE_NUMERATOR","outputs":[{"internalType":"uint96","name":"","type":"uint96"}],"stateMutability":"view","type":"function"},{"inputs":[],"name":"acceptOwnership","outputs":[],"stateMutability":"nonpayable","type":"function"},{"inputs":[{"internalType":"address","name":"to","type":"address"},{"internalType":"uint256","name":"tokenId","type":"uint256"}],"name":"approve","outputs":[],"stateMutability":"nonpayable","type":"function"},{"inputs":[{"internalType":"address","name":"owner","type":"address"}],"name":"balanceOf","outputs":[{"internalType":"uint256","name":"","type":"uint256"}],"stateMutability":"view","type":"function"},{"inputs":[{"internalType":"uint256","name":"tokenId","type":"uint256"}],"name":"getApproved","outputs":[{"internalType":"address","name":"","type":"address"}],"stateMutability":"view","type":"function"},{"inputs":[{"internalType":"address","name":"owner","type":"address"},{"internalType":"address","name":"operator","type":"address"}],"name":"isApprovedForAll","outputs":[{"internalType":"bool","name":"","type":"bool"}],"stateMutability":"view","type":"function"},{"inputs":[],"name":"merkleRoot","outputs":[{"internalType":"bytes32","name":"","type":"bytes32"}],"stateMutability":"view","type":"function"},{"inputs":[],"name":"mint","outputs":[],"stateMutability":"payable","type":"function"},{"inputs":[{"internalType":"bytes32[]","name":"proof","type":"bytes32[]"},{"internalType":"uint256","name":"index","type":"uint256"},{"internalType":"uint256","name":"amount","type":"uint256"}],"name":"mintWithDiscount","outputs":[],"stateMutability":"payable","type":"function"},{"inputs":[],"name":"name","outputs":[{"internalType":"string","name":"","type":"string"}],"stateMutability":"view","type":"function"},{"inputs":[],"name":"owner","outputs":[{"internalType":"address","name":"","type":"address"}],"stateMutability":"view","type":"function"},{"inputs":[{"internalType":"uint256","name":"tokenId","type":"uint256"}],"name":"ownerOf","outputs":[{"internalType":"address","name":"","type":"address"}],"stateMutability":"view","type":"function"},{"inputs":[],"name":"pendingOwner","outputs":[{"internalType":"address","name":"","type":"address"}],"stateMutability":"view","type":"function"},{"inputs":[],"name":"renounceOwnership","outputs":[],"stateMutability":"nonpayable","type":"function"},{"inputs":[{"internalType":"uint256","name":"_tokenId","type":"uint256"},{"internalType":"uint256","name":"_salePrice","type":"uint256"}],"name":"royaltyInfo","outputs":[{"internalType":"address","name":"","type":"address"},{"internalType":"uint256","name":"","type":"uint256"}],"stateMutability":"view","type":"function"},{"inputs":[{"internalType":"address","name":"from","type":"address"},{"internalType":"address","name":"to","type":"address"},{"internalType":"uint256","name":"tokenId","type":"uint256"}],"name":"safeTransferFrom","outputs":[],"stateMutability":"nonpayable","type":"function"},{"inputs":[{"internalType":"address","name":"from","type":"address"},{"internalType":"address","name":"to","type":"address"},{"internalType":"uint256","name":"tokenId","type":"uint256"},{"internalType":"bytes","name":"data","type":"bytes"}],"name":"safeTransferFrom","outputs":[],"stateMutability":"nonpayable","type":"function"},{"inputs":[{"internalType":"address","name":"operator","type":"address"},{"internalType":"bool","name":"approved","type":"bool"}],"name":"setApprovalForAll","outputs":[],"stateMutability":"nonpayable","type":"function"},{"inputs":[{"internalType":"string","name":"baseURI","type":"string"}],"name":"setBaseURI","outputs":[],"stateMutability":"nonpayable","type":"function"},{"inputs":[{"internalType":"uint256","name":"tokenId","type":"uint256"},{"internalType":"address","name":"receiver","type":"address"},{"internalType":"uint96","name":"feeNumerator","type":"uint96"}],"name":"setTokenRoyalty","outputs":[],"stateMutability":"nonpayable","type":"function"},{"inputs":[{"internalType":"bytes4","name":"interfaceId","type":"bytes4"}],"name":"supportsInterface","outputs":[{"internalType":"bool","name":"","type":"bool"}],"stateMutability":"view","type":"function"},{"inputs":[],"name":"symbol","outputs":[{"internalType":"string","name":"","type":"string"}],"stateMutability":"view","type":"function"},{"inputs":[],"name":"tokenIdCounter","outputs":[{"internalType":"uint256","name":"","type":"uint256"}],"stateMutability":"view","type":"function"},{"inputs":[{"internalType":"uint256","name":"tokenId","type":"uint256"}],"name":"tokenURI","outputs":[{"internalType":"string","name":"","type":"string"}],"stateMutability":"view","type":"function"},{"inputs":[],"name":"totalSupply","outputs":[{"internalType":"uint256","name":"","type":"uint256"}],"stateMutability":"view","type":"function"},{"inputs":[{"internalType":"address","name":"from","type":"address"},{"internalType":"address","name":"to","type":"address"},{"internalType":"uint256","name":"tokenId","type":"uint256"}],"name":"transferFrom","outputs":[],"stateMutability":"nonpayable","type":"function"},{"inputs":[{"internalType":"address","name":"from","type":"address"},{"internalType":"address","name":"to","type":"address"},{"internalType":"uint256","name":"tokenId","type":"uint256"},{"internalType":"uint256","name":"salesPrice","type":"uint256"}],"name":"transferFromWithRoyalties","outputs":[],"stateMutability":"payable","type":"function"},{"inputs":[{"internalType":"address","name":"newOwner","type":"address"}],"name":"transferOwnership","outputs":[],"stateMutability":"nonpayable","type":"function"},{"inputs":[],"name":"withdrawFunds","outputs":[],"stateMutability":"nonpayable","type":"function"}],"devdoc":{"details":"An ERC721 contract with added functionality for minting, discounts using Merkle proofs, and royalties (ERC2981).      Includes features like time-limited discounts, withdrawal of funds, and token transfers with royalty payments.      Based on OpenZeppelin's ERC721, Ownable2Step, and ERC2981 standards.","events":{"Approval(address,address,uint256)":{"details":"Emitted when `owner` enables `approved` to manage the `tokenId` token."},"ApprovalForAll(address,address,bool)":{"details":"Emitted when `owner` enables or disables (`approved`) `operator` to manage all of its assets."},"Transfer(address,address,uint256)":{"details":"Emitted when `tokenId` token is transferred from `from` to `to`."}},"kind":"dev","methods":{"acceptOwnership()":{"details":"The new owner accepts the ownership transfer."},"approve(address,uint256)":{"details":"See {IERC721-approve}."},"balanceOf(address)":{"details":"See {IERC721-balanceOf}."},"constructor":{"params":{"baseURI":"The base URI for token metadata.","merkleRoot_":"The Merkle root used for airdrop/discount verification."}},"getApproved(uint256)":{"details":"See {IERC721-getApproved}."},"isApprovedForAll(address,address)":{"details":"See {IERC721-isApprovedForAll}."},"mint()":{"details":"Requires sending 0.1 ETH. Only mints if the supply limit hasn't been reached."},"mintWithDiscount(bytes32[],uint256,uint256)":{"details":"Requires sending 0.05 ETH for the discounted mint price.","params":{"amount":"The number of tokens to mint.","index":"The index in the Merkle tree.","proof":"The Merkle proof of eligibility for the discount."}},"name()":{"details":"See {IERC721Metadata-name}."},"owner()":{"details":"Returns the address of the current owner."},"ownerOf(uint256)":{"details":"See {IERC721-ownerOf}."},"pendingOwner()":{"details":"Returns the address of the pending owner."},"renounceOwnership()":{"details":"Leaves the contract without owner. It will not be possible to call `onlyOwner` functions anymore. Can only be called by the current owner. NOTE: Renouncing ownership will leave the contract without an owner, thereby removing any functionality that is only available to the owner."},"royaltyInfo(uint256,uint256)":{"details":"Returns how much royalty is owed and to whom, based on a sale price that may be denominated in any unit of exchange. The royalty amount is denominated and should be paid in that same unit of exchange."},"safeTransferFrom(address,address,uint256)":{"details":"See {IERC721-safeTransferFrom}."},"safeTransferFrom(address,address,uint256,bytes)":{"details":"See {IERC721-safeTransferFrom}."},"setApprovalForAll(address,bool)":{"details":"See {IERC721-setApprovalForAll}."},"setBaseURI(string)":{"params":{"baseURI":"The new base URI."}},"setTokenRoyalty(uint256,address,uint96)":{"params":{"feeNumerator":"The royalty percentage, represented as a numerator out of 10,000.","receiver":"The address that should receive the royalty.","tokenId":"The ID of the token."}},"supportsInterface(bytes4)":{"params":{"interfaceId":"The interface identifier."},"returns":{"_0":"Whether the contract supports the specified interface."}},"symbol()":{"details":"See {IERC721Metadata-symbol}."},"tokenURI(uint256)":{"details":"See {IERC721Metadata-tokenURI}."},"totalSupply()":{"returns":{"_0":"The total supply of tokens."}},"transferFrom(address,address,uint256)":{"details":"See {IERC721-transferFrom}."},"transferFromWithRoyalties(address,address,uint256,uint256)":{"details":"Ensures that the royalty payment is made before the transfer.","params":{"from":"The address sending the NFT.","salesPrice":"The sale price of the NFT.","to":"The address receiving the NFT.","tokenId":"The ID of the token being transferred."}},"transferOwnership(address)":{"details":"Starts the ownership transfer of the contract to a new account. Replaces the pending transfer if there is one. Can only be called by the current owner."},"withdrawFunds()":{"details":"Only callable by the owner of the contract. Emits a FundsWithdrawn event."}},"title":"NFT1","version":1},"evm":{"bytecode":{"linkReferences":{},"object":"60a060405234801561001057600080fd5b5060405161523c38038061523c8339818101604052810190610032919061058c565b6040518060400160405280600481526020017f4e465431000000000000000000000000000000000000000000000000000000008152506040518060400160405280600481526020017f4e4654310000000000000000000000000000000000000000000000000000000081525081600090816100ad9190610809565b5080600190816100bd9190610809565b5050506100dc6100d161011460201b60201c565b61011c60201b60201c565b81600b90816100eb9190610809565b5080608081815250506000600a8190555061010d3360fa61013f60201b60201c565b50506109ea565b600033905090565b61012b816102da60201b60201c565b61013c8160fa61013f60201b60201c565b50565b61014d61031160201b60201c565b6bffffffffffffffffffffffff16816bffffffffffffffffffffffff1611156101ab576040517f08c379a00000000000000000000000000000000000000000000000000000000081526004016101a29061095e565b60405180910390fd5b600073ffffffffffffffffffffffffffffffffffffffff168273ffffffffffffffffffffffffffffffffffffffff160361021a576040517f08c379a0000000000000000000000000000000000000000000000000000000008152600401610211906109ca565b60405180910390fd5b60405180604001604052808373ffffffffffffffffffffffffffffffffffffffff168152602001826bffffffffffffffffffffffff16815250600860008201518160000160006101000a81548173ffffffffffffffffffffffffffffffffffffffff021916908373ffffffffffffffffffffffffffffffffffffffff16021790555060208201518160000160146101000a8154816bffffffffffffffffffffffff02191690836bffffffffffffffffffffffff1602179055509050505050565b600760006101000a81549073ffffffffffffffffffffffffffffffffffffffff021916905561030e8161031b60201b60201c565b50565b6000612710905090565b6000600660009054906101000a900473ffffffffffffffffffffffffffffffffffffffff16905081600660006101000a81548173ffffffffffffffffffffffffffffffffffffffff021916908373ffffffffffffffffffffffffffffffffffffffff1602179055508173ffffffffffffffffffffffffffffffffffffffff168173ffffffffffffffffffffffffffffffffffffffff167f8be0079c531659141344cd1fd0a4f28419497f9722a3daafe3b4186f6b6457e060405160405180910390a35050565b6000604051905090565b600080fd5b600080fd5b600080fd5b600080fd5b6000601f19601f8301169050919050565b7f4e487b7100000000000000000000000000000000000000000000000000000000600052604160045260246000fd5b610448826103ff565b810181811067ffffffffffffffff8211171561046757610466610410565b5b80604052505050565b600061047a6103e1565b9050610486828261043f565b919050565b600067ffffffffffffffff8211156104a6576104a5610410565b5b6104af826103ff565b9050602081019050919050565b60005b838110156104da5780820151818401526020810190506104bf565b60008484015250505050565b60006104f96104f48461048b565b610470565b905082815260208101848484011115610515576105146103fa565b5b6105208482856104bc565b509392505050565b600082601f83011261053d5761053c6103f5565b5b815161054d8482602086016104e6565b91505092915050565b6000819050919050565b61056981610556565b811461057457600080fd5b50565b60008151905061058681610560565b92915050565b600080604083850312156105a3576105a26103eb565b5b600083015167ffffffffffffffff8111156105c1576105c06103f0565b5b6105cd85828601610528565b92505060206105de85828601610577565b9150509250929050565b600081519050919050565b7f4e487b7100000000000000000000000000000000000000000000000000000000600052602260045260246000fd5b6000600282049050600182168061063a57607f821691505b60208210810361064d5761064c6105f3565b5b50919050565b60008190508160005260206000209050919050565b60006020601f8301049050919050565b600082821b905092915050565b6000600883026106b57fffffffffffffffffffffffffffffffffffffffffffffffffffffffffffffffff82610678565b6106bf8683610678565b95508019841693508086168417925050509392505050565b6000819050919050565b6000819050919050565b60006107066107016106fc846106d7565b6106e1565b6106d7565b9050919050565b6000819050919050565b610720836106eb565b61073461072c8261070d565b848454610685565b825550505050565b600090565b61074961073c565b610754818484610717565b505050565b5b818110156107785761076d600082610741565b60018101905061075a565b5050565b601f8211156107bd5761078e81610653565b61079784610668565b810160208510156107a6578190505b6107ba6107b285610668565b830182610759565b50505b505050565b600082821c905092915050565b60006107e0600019846008026107c2565b1980831691505092915050565b60006107f983836107cf565b9150826002028217905092915050565b610812826105e8565b67ffffffffffffffff81111561082b5761082a610410565b5b6108358254610622565b61084082828561077c565b600060209050601f8311600181146108735760008415610861578287015190505b61086b85826107ed565b8655506108d3565b601f19841661088186610653565b60005b828110156108a957848901518255600182019150602085019450602081019050610884565b868310156108c657848901516108c2601f8916826107cf565b8355505b6001600288020188555050505b505050505050565b600082825260208201905092915050565b7f455243323938313a20726f79616c7479206665652077696c6c2065786365656460008201527f2073616c65507269636500000000000000000000000000000000000000000000602082015250565b6000610948602a836108db565b9150610953826108ec565b604082019050919050565b600060208201905081810360008301526109778161093b565b9050919050565b7f455243323938313a20696e76616c696420726563656976657200000000000000600082015250565b60006109b46019836108db565b91506109bf8261097e565b602082019050919050565b600060208201905081810360008301526109e3816109a7565b9050919050565b608051614830610a0c60003960008181610e610152611be201526148306000f3fe6080604052600436106101e35760003560e01c80635944c7531161010257806398bdf6f511610095578063c87b56dd11610064578063c87b56dd1461066e578063e30c3978146106ab578063e985e9c5146106d6578063f2fde38b14610713576101e3565b806398bdf6f5146105c6578063a22cb465146105f1578063b88d4fde1461061a578063c749934814610643576101e3565b8063715018a6116100d1578063715018a61461054257806379ba5097146105595780638da5cb5b1461057057806395d89b411461059b576101e3565b80635944c753146104745780636352211e1461049d57806363d9d166146104da57806370a0823114610505576101e3565b806324600fc31161017a57806342842e0e1161014957806342842e0e146103db57806347b13d8a1461040457806355850fe61461042057806355f804b31461044b576101e3565b806324600fc3146103305780632a55205a146103475780632eb4a7ab1461038557806332cb6b0c146103b0576101e3565b80630ab7039e116101b65780630ab7039e146102b65780631249c58b146102d257806318160ddd146102dc57806323b872dd14610307576101e3565b806301ffc9a7146101e857806306fdde0314610225578063081812fc14610250578063095ea7b31461028d575b600080fd5b3480156101f457600080fd5b5061020f600480360381019061020a9190612cdf565b61073c565b60405161021c9190612d27565b60405180910390f35b34801561023157600080fd5b5061023a61074e565b6040516102479190612dd2565b60405180910390f35b34801561025c57600080fd5b5061027760048036038101906102729190612e2a565b6107e0565b6040516102849190612e98565b60405180910390f35b34801561029957600080fd5b506102b460048036038101906102af9190612edf565b610826565b005b6102d060048036038101906102cb9190612f1f565b61093d565b005b6102da610a69565b005b3480156102e857600080fd5b506102f1610abd565b6040516102fe9190612f95565b60405180910390f35b34801561031357600080fd5b5061032e60048036038101906103299190612fb0565b610ac7565b005b34801561033c57600080fd5b50610345610b27565b005b34801561035357600080fd5b5061036e60048036038101906103699190613003565b610c75565b60405161037c929190613043565b60405180910390f35b34801561039157600080fd5b5061039a610e5f565b6040516103a79190613085565b60405180910390f35b3480156103bc57600080fd5b506103c5610e83565b6040516103d29190612f95565b60405180910390f35b3480156103e757600080fd5b5061040260048036038101906103fd9190612fb0565b610e89565b005b61041e60048036038101906104199190613105565b610ea9565b005b34801561042c57600080fd5b50610435610fbe565b60405161044291906131a0565b60405180910390f35b34801561045757600080fd5b50610472600480360381019061046d91906132eb565b610fc3565b005b34801561048057600080fd5b5061049b60048036038101906104969190613360565b610fde565b005b3480156104a957600080fd5b506104c460048036038101906104bf9190612e2a565b610ff6565b6040516104d19190612e98565b60405180910390f35b3480156104e657600080fd5b506104ef61107c565b6040516104fc9190612f95565b60405180910390f35b34801561051157600080fd5b5061052c600480360381019061052791906133b3565b611088565b6040516105399190612f95565b60405180910390f35b34801561054e57600080fd5b5061055761113f565b005b34801561056557600080fd5b5061056e611153565b005b34801561057c57600080fd5b506105856111e0565b6040516105929190612e98565b60405180910390f35b3480156105a757600080fd5b506105b061120a565b6040516105bd9190612dd2565b60405180910390f35b3480156105d257600080fd5b506105db61129c565b6040516105e89190612f95565b60405180910390f35b3480156105fd57600080fd5b506106186004803603810190610613919061340c565b6112a2565b005b34801561062657600080fd5b50610641600480360381019061063c91906134ed565b6112b8565b005b34801561064f57600080fd5b5061065861131a565b6040516106659190612f95565b60405180910390f35b34801561067a57600080fd5b5061069560048036038101906106909190612e2a565b611325565b6040516106a29190612dd2565b60405180910390f35b3480156106b757600080fd5b506106c061138d565b6040516106cd9190612e98565b60405180910390f35b3480156106e257600080fd5b506106fd60048036038101906106f89190613570565b6113b7565b60405161070a9190612d27565b60405180910390f35b34801561071f57600080fd5b5061073a600480360381019061073591906133b3565b61144b565b005b6000610747826114f8565b9050919050565b60606000805461075d906135df565b80601f0160208091040260200160405190810160405280929190818152602001828054610789906135df565b80156107d65780601f106107ab576101008083540402835291602001916107d6565b820191906000526020600020905b8154815290600101906020018083116107b957829003601f168201915b5050505050905090565b60006107eb82611572565b6004600083815260200190815260200160002060009054906101000a900473ffffffffffffffffffffffffffffffffffffffff169050919050565b600061083182610ff6565b90508073ffffffffffffffffffffffffffffffffffffffff168373ffffffffffffffffffffffffffffffffffffffff16036108a1576040517f08c379a000000000000000000000000000000000000000000000000000000000815260040161089890613682565b60405180910390fd5b8073ffffffffffffffffffffffffffffffffffffffff166108c06115bd565b73ffffffffffffffffffffffffffffffffffffffff1614806108ef57506108ee816108e96115bd565b6113b7565b5b61092e576040517f08c379a000000000000000000000000000000000000000000000000000000000815260040161092590613714565b60405180910390fd5b61093883836115c5565b505050565b60006109498383610c75565b9150508034101561098f576040517f08c379a000000000000000000000000000000000000000000000000000000000815260040161098690613780565b60405180910390fd5b61099a858585610ac7565b600081346109a891906137cf565b90506000811115610a615760003373ffffffffffffffffffffffffffffffffffffffff16826040516109d990613834565b60006040518083038185875af1925050503d8060008114610a16576040519150601f19603f3d011682016040523d82523d6000602084013e610a1b565b606091505b5050905080610a5f576040517f08c379a0000000000000000000000000000000000000000000000000000000008152600401610a5690613895565b60405180910390fd5b505b505050505050565b67016345785d8a00003414610ab3576040517f08c379a0000000000000000000000000000000000000000000000000000000008152600401610aaa90613901565b60405180910390fd5b610abb61167e565b565b6000600a54905090565b610ad8610ad26115bd565b82611735565b610b17576040517f08c379a0000000000000000000000000000000000000000000000000000000008152600401610b0e90613993565b60405180910390fd5b610b228383836117ca565b505050565b610b2f611ac3565b600047905060008111610b77576040517f08c379a0000000000000000000000000000000000000000000000000000000008152600401610b6e906139ff565b60405180910390fd5b60003373ffffffffffffffffffffffffffffffffffffffff1682604051610b9d90613834565b60006040518083038185875af1925050503d8060008114610bda576040519150601f19603f3d011682016040523d82523d6000602084013e610bdf565b606091505b5050905080610c23576040517f08c379a0000000000000000000000000000000000000000000000000000000008152600401610c1a90613a6b565b60405180910390fd5b3373ffffffffffffffffffffffffffffffffffffffff167feaff4b37086828766ad3268786972c0cd24259d4c87a80f9d3963a3c3d999b0d83604051610c699190612f95565b60405180910390a25050565b6000806000600960008681526020019081526020016000206040518060400160405290816000820160009054906101000a900473ffffffffffffffffffffffffffffffffffffffff1673ffffffffffffffffffffffffffffffffffffffff1673ffffffffffffffffffffffffffffffffffffffff1681526020016000820160149054906101000a90046bffffffffffffffffffffffff166bffffffffffffffffffffffff166bffffffffffffffffffffffff16815250509050600073ffffffffffffffffffffffffffffffffffffffff16816000015173ffffffffffffffffffffffffffffffffffffffff1603610e0a5760086040518060400160405290816000820160009054906101000a900473ffffffffffffffffffffffffffffffffffffffff1673ffffffffffffffffffffffffffffffffffffffff1673ffffffffffffffffffffffffffffffffffffffff1681526020016000820160149054906101000a90046bffffffffffffffffffffffff166bffffffffffffffffffffffff166bffffffffffffffffffffffff168152505090505b6000610e14611b41565b6bffffffffffffffffffffffff1682602001516bffffffffffffffffffffffff1686610e409190613a8b565b610e4a9190613afc565b90508160000151819350935050509250929050565b7f000000000000000000000000000000000000000000000000000000000000000081565b6103e881565b610ea4838383604051806020016040528060008152506112b8565b505050565b66b1a2bc2ec500003414610ef2576040517f08c379a0000000000000000000000000000000000000000000000000000000008152600401610ee990613b79565b60405180910390fd5b610efd600c83611b4b565b15610f3d576040517f08c379a0000000000000000000000000000000000000000000000000000000008152600401610f3490613be5565b60405180910390fd5b610f8a848480806020026020016040519081016040528093929190818152602001838360200280828437600081840152601f19601f82011690508083019250505050505050838333611b87565b610f97600c836001611c4d565b60005b81811015610fb757610faa61167e565b8080600101915050610f9a565b5050505050565b60fa81565b610fcb611ac3565b80600b9081610fda9190613db1565b5050565b610fe6611ac3565b610ff1838383611c72565b505050565b60008061100283611e19565b9050600073ffffffffffffffffffffffffffffffffffffffff168173ffffffffffffffffffffffffffffffffffffffff1603611073576040517f08c379a000000000000000000000000000000000000000000000000000000000815260040161106a90613ecf565b60405180910390fd5b80915050919050565b67016345785d8a000081565b60008073ffffffffffffffffffffffffffffffffffffffff168273ffffffffffffffffffffffffffffffffffffffff16036110f8576040517f08c379a00000000000000000000000000000000000000000000000000000000081526004016110ef90613f61565b60405180910390fd5b600360008373ffffffffffffffffffffffffffffffffffffffff1673ffffffffffffffffffffffffffffffffffffffff168152602001908152602001600020549050919050565b611147611ac3565b6111516000611e56565b565b600061115d6115bd565b90508073ffffffffffffffffffffffffffffffffffffffff1661117e61138d565b73ffffffffffffffffffffffffffffffffffffffff16146111d4576040517f08c379a00000000000000000000000000000000000000000000000000000000081526004016111cb90613ff3565b60405180910390fd5b6111dd81611e56565b50565b6000600660009054906101000a900473ffffffffffffffffffffffffffffffffffffffff16905090565b606060018054611219906135df565b80601f0160208091040260200160405190810160405280929190818152602001828054611245906135df565b80156112925780601f1061126757610100808354040283529160200191611292565b820191906000526020600020905b81548152906001019060200180831161127557829003601f168201915b5050505050905090565b600a5481565b6112b46112ad6115bd565b8383611e6d565b5050565b6112c96112c36115bd565b83611735565b611308576040517f08c379a00000000000000000000000000000000000000000000000000000000081526004016112ff90613993565b60405180910390fd5b61131484848484611fd9565b50505050565b66b1a2bc2ec5000081565b606061133082611572565b600061133a612035565b9050600081511161135a5760405180602001604052806000815250611385565b80611364846120c7565b60405160200161137592919061404f565b6040516020818303038152906040525b915050919050565b6000600760009054906101000a900473ffffffffffffffffffffffffffffffffffffffff16905090565b6000600560008473ffffffffffffffffffffffffffffffffffffffff1673ffffffffffffffffffffffffffffffffffffffff16815260200190815260200160002060008373ffffffffffffffffffffffffffffffffffffffff1673ffffffffffffffffffffffffffffffffffffffff16815260200190815260200160002060009054906101000a900460ff16905092915050565b611453611ac3565b80600760006101000a81548173ffffffffffffffffffffffffffffffffffffffff021916908373ffffffffffffffffffffffffffffffffffffffff1602179055508073ffffffffffffffffffffffffffffffffffffffff166114b36111e0565b73ffffffffffffffffffffffffffffffffffffffff167f38d16b8cac22d99fc7c124b9cd0de2d3fa1faef420bfe791d8c362d765e2270060405160405180910390a350565b60007f2a55205a000000000000000000000000000000000000000000000000000000007bffffffffffffffffffffffffffffffffffffffffffffffffffffffff1916827bffffffffffffffffffffffffffffffffffffffffffffffffffffffff1916148061156b575061156a82612195565b5b9050919050565b61157b81612277565b6115ba576040517f08c379a00000000000000000000000000000000000000000000000000000000081526004016115b190613ecf565b60405180910390fd5b50565b600033905090565b816004600083815260200190815260200160002060006101000a81548173ffffffffffffffffffffffffffffffffffffffff021916908373ffffffffffffffffffffffffffffffffffffffff160217905550808273ffffffffffffffffffffffffffffffffffffffff1661163883610ff6565b73ffffffffffffffffffffffffffffffffffffffff167f8c5be1e5ebec7d5bd14f71427d1e84f3dd0314c0f7b2291e5b200ac8c7c3b92560405160405180910390a45050565b6103e8600a54106116c4576040517f08c379a00000000000000000000000000000000000000000000000000000000081526004016116bb906140e5565b60405180910390fd5b6000600a5490506001600a60008282546116de9190614105565b925050819055506116ef33826122b8565b3373ffffffffffffffffffffffffffffffffffffffff167f90ddedd5a25821bba11fbb98de02ec1f75c1be90ae147d6450ce873e7b78b5d860405160405180910390a250565b60008061174183610ff6565b90508073ffffffffffffffffffffffffffffffffffffffff168473ffffffffffffffffffffffffffffffffffffffff161480611783575061178281856113b7565b5b806117c157508373ffffffffffffffffffffffffffffffffffffffff166117a9846107e0565b73ffffffffffffffffffffffffffffffffffffffff16145b91505092915050565b8273ffffffffffffffffffffffffffffffffffffffff166117ea82610ff6565b73ffffffffffffffffffffffffffffffffffffffff1614611840576040517f08c379a0000000000000000000000000000000000000000000000000000000008152600401611837906141ab565b60405180910390fd5b600073ffffffffffffffffffffffffffffffffffffffff168273ffffffffffffffffffffffffffffffffffffffff16036118af576040517f08c379a00000000000000000000000000000000000000000000000000000000081526004016118a69061423d565b60405180910390fd5b6118bc83838360016122d6565b8273ffffffffffffffffffffffffffffffffffffffff166118dc82610ff6565b73ffffffffffffffffffffffffffffffffffffffff1614611932576040517f08c379a0000000000000000000000000000000000000000000000000000000008152600401611929906141ab565b60405180910390fd5b6004600082815260200190815260200160002060006101000a81549073ffffffffffffffffffffffffffffffffffffffff02191690556001600360008573ffffffffffffffffffffffffffffffffffffffff1673ffffffffffffffffffffffffffffffffffffffff168152602001908152602001600020600082825403925050819055506001600360008473ffffffffffffffffffffffffffffffffffffffff1673ffffffffffffffffffffffffffffffffffffffff16815260200190815260200160002060008282540192505081905550816002600083815260200190815260200160002060006101000a81548173ffffffffffffffffffffffffffffffffffffffff021916908373ffffffffffffffffffffffffffffffffffffffff160217905550808273ffffffffffffffffffffffffffffffffffffffff168473ffffffffffffffffffffffffffffffffffffffff167fddf252ad1be2c89b69c2b068fc378daa952ba7f163c4a11628f55a4df523b3ef60405160405180910390a4611abe83838360016122dc565b505050565b611acb6115bd565b73ffffffffffffffffffffffffffffffffffffffff16611ae96111e0565b73ffffffffffffffffffffffffffffffffffffffff1614611b3f576040517f08c379a0000000000000000000000000000000000000000000000000000000008152600401611b36906142a9565b60405180910390fd5b565b6000612710905090565b600080600883901c9050600060ff84166001901b9050600081866000016000858152602001908152602001600020541614159250505092915050565b6000818484604051602001611b9e939291906142c9565b60405160208183030381529060405280519060200120604051602001611bc49190614321565b604051602081830303815290604052805190602001209050611c07857f0000000000000000000000000000000000000000000000000000000000000000836122e2565b611c46576040517f08c379a0000000000000000000000000000000000000000000000000000000008152600401611c3d90614388565b60405180910390fd5b5050505050565b8015611c6257611c5d83836122f9565b611c6d565b611c6c8383612337565b5b505050565b611c7a611b41565b6bffffffffffffffffffffffff16816bffffffffffffffffffffffff161115611cd8576040517f08c379a0000000000000000000000000000000000000000000000000000000008152600401611ccf9061441a565b60405180910390fd5b600073ffffffffffffffffffffffffffffffffffffffff168273ffffffffffffffffffffffffffffffffffffffff1603611d47576040517f08c379a0000000000000000000000000000000000000000000000000000000008152600401611d3e90614486565b60405180910390fd5b60405180604001604052808373ffffffffffffffffffffffffffffffffffffffff168152602001826bffffffffffffffffffffffff168152506009600085815260200190815260200160002060008201518160000160006101000a81548173ffffffffffffffffffffffffffffffffffffffff021916908373ffffffffffffffffffffffffffffffffffffffff16021790555060208201518160000160146101000a8154816bffffffffffffffffffffffff02191690836bffffffffffffffffffffffff160217905550905050505050565b60006002600083815260200190815260200160002060009054906101000a900473ffffffffffffffffffffffffffffffffffffffff169050919050565b611e5f81612376565b611e6a8160fa6123a7565b50565b8173ffffffffffffffffffffffffffffffffffffffff168373ffffffffffffffffffffffffffffffffffffffff1603611edb576040517f08c379a0000000000000000000000000000000000000000000000000000000008152600401611ed2906144f2565b60405180910390fd5b80600560008573ffffffffffffffffffffffffffffffffffffffff1673ffffffffffffffffffffffffffffffffffffffff16815260200190815260200160002060008473ffffffffffffffffffffffffffffffffffffffff1673ffffffffffffffffffffffffffffffffffffffff16815260200190815260200160002060006101000a81548160ff0219169083151502179055508173ffffffffffffffffffffffffffffffffffffffff168373ffffffffffffffffffffffffffffffffffffffff167f17307eab39ab6107e8899845ad3d59bd9653f200f220920489ca2b5937696c3183604051611fcc9190612d27565b60405180910390a3505050565b611fe48484846117ca565b611ff08484848461253c565b61202f576040517f08c379a000000000000000000000000000000000000000000000000000000000815260040161202690614584565b60405180910390fd5b50505050565b6060600b8054612044906135df565b80601f0160208091040260200160405190810160405280929190818152602001828054612070906135df565b80156120bd5780601f10612092576101008083540402835291602001916120bd565b820191906000526020600020905b8154815290600101906020018083116120a057829003601f168201915b5050505050905090565b6060600060016120d6846126c3565b01905060008167ffffffffffffffff8111156120f5576120f46131c0565b5b6040519080825280601f01601f1916602001820160405280156121275781602001600182028036833780820191505090505b509050600082602001820190505b60011561218a578080600190039150507f3031323334353637383961626364656600000000000000000000000000000000600a86061a8153600a858161217e5761217d613acd565b5b04945060008503612135575b819350505050919050565b60007f80ac58cd000000000000000000000000000000000000000000000000000000007bffffffffffffffffffffffffffffffffffffffffffffffffffffffff1916827bffffffffffffffffffffffffffffffffffffffffffffffffffffffff1916148061226057507f5b5e139f000000000000000000000000000000000000000000000000000000007bffffffffffffffffffffffffffffffffffffffffffffffffffffffff1916827bffffffffffffffffffffffffffffffffffffffffffffffffffffffff1916145b80612270575061226f82612816565b5b9050919050565b60008073ffffffffffffffffffffffffffffffffffffffff1661229983611e19565b73ffffffffffffffffffffffffffffffffffffffff1614159050919050565b6122d2828260405180602001604052806000815250612880565b5050565b50505050565b50505050565b6000826122ef85846128db565b1490509392505050565b6000600882901c9050600060ff83166001901b9050808460000160008481526020019081526020016000206000828254179250508190555050505050565b6000600882901c9050600060ff83166001901b905080198460000160008481526020019081526020016000206000828254169250508190555050505050565b600760006101000a81549073ffffffffffffffffffffffffffffffffffffffff02191690556123a48161292b565b50565b6123af611b41565b6bffffffffffffffffffffffff16816bffffffffffffffffffffffff16111561240d576040517f08c379a00000000000000000000000000000000000000000000000000000000081526004016124049061441a565b60405180910390fd5b600073ffffffffffffffffffffffffffffffffffffffff168273ffffffffffffffffffffffffffffffffffffffff160361247c576040517f08c379a0000000000000000000000000000000000000000000000000000000008152600401612473906145f0565b60405180910390fd5b60405180604001604052808373ffffffffffffffffffffffffffffffffffffffff168152602001826bffffffffffffffffffffffff16815250600860008201518160000160006101000a81548173ffffffffffffffffffffffffffffffffffffffff021916908373ffffffffffffffffffffffffffffffffffffffff16021790555060208201518160000160146101000a8154816bffffffffffffffffffffffff02191690836bffffffffffffffffffffffff1602179055509050505050565b600061255d8473ffffffffffffffffffffffffffffffffffffffff166129f1565b156126b6578373ffffffffffffffffffffffffffffffffffffffff1663150b7a026125866115bd565b8786866040518563ffffffff1660e01b81526004016125a89493929190614665565b6020604051808303816000875af19250505080156125e457506040513d601f19601f820116820180604052508101906125e191906146c6565b60015b612666573d8060008114612614576040519150601f19603f3d011682016040523d82523d6000602084013e612619565b606091505b50600081510361265e576040517f08c379a000000000000000000000000000000000000000000000000000000000815260040161265590614584565b60405180910390fd5b805181602001fd5b63150b7a0260e01b7bffffffffffffffffffffffffffffffffffffffffffffffffffffffff1916817bffffffffffffffffffffffffffffffffffffffffffffffffffffffff1916149150506126bb565b600190505b949350505050565b600080600090507a184f03e93ff9f4daa797ed6e38ed64bf6a1f0100000000000000008310612721577a184f03e93ff9f4daa797ed6e38ed64bf6a1f010000000000000000838161271757612716613acd565b5b0492506040810190505b6d04ee2d6d415b85acef8100000000831061275e576d04ee2d6d415b85acef8100000000838161275457612753613acd565b5b0492506020810190505b662386f26fc10000831061278d57662386f26fc10000838161278357612782613acd565b5b0492506010810190505b6305f5e10083106127b6576305f5e10083816127ac576127ab613acd565b5b0492506008810190505b61271083106127db5761271083816127d1576127d0613acd565b5b0492506004810190505b606483106127fe57606483816127f4576127f3613acd565b5b0492506002810190505b600a831061280d576001810190505b80915050919050565b60007f01ffc9a7000000000000000000000000000000000000000000000000000000007bffffffffffffffffffffffffffffffffffffffffffffffffffffffff1916827bffffffffffffffffffffffffffffffffffffffffffffffffffffffff1916149050919050565b61288a8383612a14565b612897600084848461253c565b6128d6576040517f08c379a00000000000000000000000000000000000000000000000000000000081526004016128cd90614584565b60405180910390fd5b505050565b60008082905060005b84518110156129205761291182868381518110612904576129036146f3565b5b6020026020010151612c31565b915080806001019150506128e4565b508091505092915050565b6000600660009054906101000a900473ffffffffffffffffffffffffffffffffffffffff16905081600660006101000a81548173ffffffffffffffffffffffffffffffffffffffff021916908373ffffffffffffffffffffffffffffffffffffffff1602179055508173ffffffffffffffffffffffffffffffffffffffff168173ffffffffffffffffffffffffffffffffffffffff167f8be0079c531659141344cd1fd0a4f28419497f9722a3daafe3b4186f6b6457e060405160405180910390a35050565b6000808273ffffffffffffffffffffffffffffffffffffffff163b119050919050565b600073ffffffffffffffffffffffffffffffffffffffff168273ffffffffffffffffffffffffffffffffffffffff1603612a83576040517f08c379a0000000000000000000000000000000000000000000000000000000008152600401612a7a9061476e565b60405180910390fd5b612a8c81612277565b15612acc576040517f08c379a0000000000000000000000000000000000000000000000000000000008152600401612ac3906147da565b60405180910390fd5b612ada6000838360016122d6565b612ae381612277565b15612b23576040517f08c379a0000000000000000000000000000000000000000000000000000000008152600401612b1a906147da565b60405180910390fd5b6001600360008473ffffffffffffffffffffffffffffffffffffffff1673ffffffffffffffffffffffffffffffffffffffff16815260200190815260200160002060008282540192505081905550816002600083815260200190815260200160002060006101000a81548173ffffffffffffffffffffffffffffffffffffffff021916908373ffffffffffffffffffffffffffffffffffffffff160217905550808273ffffffffffffffffffffffffffffffffffffffff16600073ffffffffffffffffffffffffffffffffffffffff167fddf252ad1be2c89b69c2b068fc378daa952ba7f163c4a11628f55a4df523b3ef60405160405180910390a4612c2d6000838360016122dc565b5050565b6000818310612c4957612c448284612c5c565b612c54565b612c538383612c5c565b5b905092915050565b600082600052816020526040600020905092915050565b6000604051905090565b600080fd5b600080fd5b60007fffffffff0000000000000000000000000000000000000000000000000000000082169050919050565b612cbc81612c87565b8114612cc757600080fd5b50565b600081359050612cd981612cb3565b92915050565b600060208284031215612cf557612cf4612c7d565b5b6000612d0384828501612cca565b91505092915050565b60008115159050919050565b612d2181612d0c565b82525050565b6000602082019050612d3c6000830184612d18565b92915050565b600081519050919050565b600082825260208201905092915050565b60005b83811015612d7c578082015181840152602081019050612d61565b60008484015250505050565b6000601f19601f8301169050919050565b6000612da482612d42565b612dae8185612d4d565b9350612dbe818560208601612d5e565b612dc781612d88565b840191505092915050565b60006020820190508181036000830152612dec8184612d99565b905092915050565b6000819050919050565b612e0781612df4565b8114612e1257600080fd5b50565b600081359050612e2481612dfe565b92915050565b600060208284031215612e4057612e3f612c7d565b5b6000612e4e84828501612e15565b91505092915050565b600073ffffffffffffffffffffffffffffffffffffffff82169050919050565b6000612e8282612e57565b9050919050565b612e9281612e77565b82525050565b6000602082019050612ead6000830184612e89565b92915050565b612ebc81612e77565b8114612ec757600080fd5b50565b600081359050612ed981612eb3565b92915050565b60008060408385031215612ef657612ef5612c7d565b5b6000612f0485828601612eca565b9250506020612f1585828601612e15565b9150509250929050565b60008060008060808587031215612f3957612f38612c7d565b5b6000612f4787828801612eca565b9450506020612f5887828801612eca565b9350506040612f6987828801612e15565b9250506060612f7a87828801612e15565b91505092959194509250565b612f8f81612df4565b82525050565b6000602082019050612faa6000830184612f86565b92915050565b600080600060608486031215612fc957612fc8612c7d565b5b6000612fd786828701612eca565b9350506020612fe886828701612eca565b9250506040612ff986828701612e15565b9150509250925092565b6000806040838503121561301a57613019612c7d565b5b600061302885828601612e15565b925050602061303985828601612e15565b9150509250929050565b60006040820190506130586000830185612e89565b6130656020830184612f86565b9392505050565b6000819050919050565b61307f8161306c565b82525050565b600060208201905061309a6000830184613076565b92915050565b600080fd5b600080fd5b600080fd5b60008083601f8401126130c5576130c46130a0565b5b8235905067ffffffffffffffff8111156130e2576130e16130a5565b5b6020830191508360208202830111156130fe576130fd6130aa565b5b9250929050565b6000806000806060858703121561311f5761311e612c7d565b5b600085013567ffffffffffffffff81111561313d5761313c612c82565b5b613149878288016130af565b9450945050602061315c87828801612e15565b925050604061316d87828801612e15565b91505092959194509250565b60006bffffffffffffffffffffffff82169050919050565b61319a81613179565b82525050565b60006020820190506131b56000830184613191565b92915050565b600080fd5b7f4e487b7100000000000000000000000000000000000000000000000000000000600052604160045260246000fd5b6131f882612d88565b810181811067ffffffffffffffff82111715613217576132166131c0565b5b80604052505050565b600061322a612c73565b905061323682826131ef565b919050565b600067ffffffffffffffff821115613256576132556131c0565b5b61325f82612d88565b9050602081019050919050565b82818337600083830152505050565b600061328e6132898461323b565b613220565b9050828152602081018484840111156132aa576132a96131bb565b5b6132b584828561326c565b509392505050565b600082601f8301126132d2576132d16130a0565b5b81356132e284826020860161327b565b91505092915050565b60006020828403121561330157613300612c7d565b5b600082013567ffffffffffffffff81111561331f5761331e612c82565b5b61332b848285016132bd565b91505092915050565b61333d81613179565b811461334857600080fd5b50565b60008135905061335a81613334565b92915050565b60008060006060848603121561337957613378612c7d565b5b600061338786828701612e15565b935050602061339886828701612eca565b92505060406133a98682870161334b565b9150509250925092565b6000602082840312156133c9576133c8612c7d565b5b60006133d784828501612eca565b91505092915050565b6133e981612d0c565b81146133f457600080fd5b50565b600081359050613406816133e0565b92915050565b6000806040838503121561342357613422612c7d565b5b600061343185828601612eca565b9250506020613442858286016133f7565b9150509250929050565b600067ffffffffffffffff821115613467576134666131c0565b5b61347082612d88565b9050602081019050919050565b600061349061348b8461344c565b613220565b9050828152602081018484840111156134ac576134ab6131bb565b5b6134b784828561326c565b509392505050565b600082601f8301126134d4576134d36130a0565b5b81356134e484826020860161347d565b91505092915050565b6000806000806080858703121561350757613506612c7d565b5b600061351587828801612eca565b945050602061352687828801612eca565b935050604061353787828801612e15565b925050606085013567ffffffffffffffff81111561355857613557612c82565b5b613564878288016134bf565b91505092959194509250565b6000806040838503121561358757613586612c7d565b5b600061359585828601612eca565b92505060206135a685828601612eca565b9150509250929050565b7f4e487b7100000000000000000000000000000000000000000000000000000000600052602260045260246000fd5b600060028204905060018216806135f757607f821691505b60208210810361360a576136096135b0565b5b50919050565b7f4552433732313a20617070726f76616c20746f2063757272656e74206f776e6560008201527f7200000000000000000000000000000000000000000000000000000000000000602082015250565b600061366c602183612d4d565b915061367782613610565b604082019050919050565b6000602082019050818103600083015261369b8161365f565b9050919050565b7f4552433732313a20617070726f76652063616c6c6572206973206e6f7420746f60008201527f6b656e206f776e6572206f7220617070726f76656420666f7220616c6c000000602082015250565b60006136fe603d83612d4d565b9150613709826136a2565b604082019050919050565b6000602082019050818103600083015261372d816136f1565b9050919050565b7f496e73756666696369656e7420726f79616c747920616d6f756e740000000000600082015250565b600061376a601b83612d4d565b915061377582613734565b602082019050919050565b600060208201905081810360008301526137998161375d565b9050919050565b7f4e487b7100000000000000000000000000000000000000000000000000000000600052601160045260246000fd5b60006137da82612df4565b91506137e583612df4565b92508282039050818111156137fd576137fc6137a0565b5b92915050565b600081905092915050565b50565b600061381e600083613803565b91506138298261380e565b600082019050919050565b600061383f82613811565b9150819050919050565b7f526566756e64206661696c656400000000000000000000000000000000000000600082015250565b600061387f600d83612d4d565b915061388a82613849565b602082019050919050565b600060208201905081810360008301526138ae81613872565b9050919050565b7f77726f6e6720616d6f756e742c2073656e6420302e3120455448000000000000600082015250565b60006138eb601a83612d4d565b91506138f6826138b5565b602082019050919050565b6000602082019050818103600083015261391a816138de565b9050919050565b7f4552433732313a2063616c6c6572206973206e6f7420746f6b656e206f776e6560008201527f72206f7220617070726f76656400000000000000000000000000000000000000602082015250565b600061397d602d83612d4d565b915061398882613921565b604082019050919050565b600060208201905081810360008301526139ac81613970565b9050919050565b7f6e6f2066756e647320746f207769746864726177000000000000000000000000600082015250565b60006139e9601483612d4d565b91506139f4826139b3565b602082019050919050565b60006020820190508181036000830152613a18816139dc565b9050919050565b7f66756e64207472616e73666572206661696c6564000000000000000000000000600082015250565b6000613a55601483612d4d565b9150613a6082613a1f565b602082019050919050565b60006020820190508181036000830152613a8481613a48565b9050919050565b6000613a9682612df4565b9150613aa183612df4565b9250828202613aaf81612df4565b91508282048414831517613ac657613ac56137a0565b5b5092915050565b7f4e487b7100000000000000000000000000000000000000000000000000000000600052601260045260246000fd5b6000613b0782612df4565b9150613b1283612df4565b925082613b2257613b21613acd565b5b828204905092915050565b7f77726f6e6720616d6f756e742c2073656e6420302e3035204554480000000000600082015250565b6000613b63601b83612d4d565b9150613b6e82613b2d565b602082019050919050565b60006020820190508181036000830152613b9281613b56565b9050919050565b7f446973636f756e7420616c726561647920636c61696d65640000000000000000600082015250565b6000613bcf601883612d4d565b9150613bda82613b99565b602082019050919050565b60006020820190508181036000830152613bfe81613bc2565b9050919050565b60008190508160005260206000209050919050565b60006020601f8301049050919050565b600082821b905092915050565b600060088302613c677fffffffffffffffffffffffffffffffffffffffffffffffffffffffffffffffff82613c2a565b613c718683613c2a565b95508019841693508086168417925050509392505050565b6000819050919050565b6000613cae613ca9613ca484612df4565b613c89565b612df4565b9050919050565b6000819050919050565b613cc883613c93565b613cdc613cd482613cb5565b848454613c37565b825550505050565b600090565b613cf1613ce4565b613cfc818484613cbf565b505050565b5b81811015613d2057613d15600082613ce9565b600181019050613d02565b5050565b601f821115613d6557613d3681613c05565b613d3f84613c1a565b81016020851015613d4e578190505b613d62613d5a85613c1a565b830182613d01565b50505b505050565b600082821c905092915050565b6000613d8860001984600802613d6a565b1980831691505092915050565b6000613da18383613d77565b9150826002028217905092915050565b613dba82612d42565b67ffffffffffffffff811115613dd357613dd26131c0565b5b613ddd82546135df565b613de8828285613d24565b600060209050601f831160018114613e1b5760008415613e09578287015190505b613e138582613d95565b865550613e7b565b601f198416613e2986613c05565b60005b82811015613e5157848901518255600182019150602085019450602081019050613e2c565b86831015613e6e5784890151613e6a601f891682613d77565b8355505b6001600288020188555050505b505050505050565b7f4552433732313a20696e76616c696420746f6b656e2049440000000000000000600082015250565b6000613eb9601883612d4d565b9150613ec482613e83565b602082019050919050565b60006020820190508181036000830152613ee881613eac565b9050919050565b7f4552433732313a2061646472657373207a65726f206973206e6f74206120766160008201527f6c6964206f776e65720000000000000000000000000000000000000000000000602082015250565b6000613f4b602983612d4d565b9150613f5682613eef565b604082019050919050565b60006020820190508181036000830152613f7a81613f3e565b9050919050565b7f4f776e61626c6532537465703a2063616c6c6572206973206e6f74207468652060008201527f6e6577206f776e65720000000000000000000000000000000000000000000000602082015250565b6000613fdd602983612d4d565b9150613fe882613f81565b604082019050919050565b6000602082019050818103600083015261400c81613fd0565b9050919050565b600081905092915050565b600061402982612d42565b6140338185614013565b9350614043818560208601612d5e565b80840191505092915050565b600061405b828561401e565b9150614067828461401e565b91508190509392505050565b7f74686520737570706c79206c696d6974206f662031303030206973207265616360008201527f6865640000000000000000000000000000000000000000000000000000000000602082015250565b60006140cf602383612d4d565b91506140da82614073565b604082019050919050565b600060208201905081810360008301526140fe816140c2565b9050919050565b600061411082612df4565b915061411b83612df4565b9250828201905080821115614133576141326137a0565b5b92915050565b7f4552433732313a207472616e736665722066726f6d20696e636f72726563742060008201527f6f776e6572000000000000000000000000000000000000000000000000000000602082015250565b6000614195602583612d4d565b91506141a082614139565b604082019050919050565b600060208201905081810360008301526141c481614188565b9050919050565b7f4552433732313a207472616e7366657220746f20746865207a65726f2061646460008201527f7265737300000000000000000000000000000000000000000000000000000000602082015250565b6000614227602483612d4d565b9150614232826141cb565b604082019050919050565b600060208201905081810360008301526142568161421a565b9050919050565b7f4f776e61626c653a2063616c6c6572206973206e6f7420746865206f776e6572600082015250565b6000614293602083612d4d565b915061429e8261425d565b602082019050919050565b600060208201905081810360008301526142c281614286565b9050919050565b60006060820190506142de6000830186612e89565b6142eb6020830185612f86565b6142f86040830184612f86565b949350505050565b6000819050919050565b61431b6143168261306c565b614300565b82525050565b600061432d828461430a565b60208201915081905092915050565b7f496e76616c69642070726f6f6600000000000000000000000000000000000000600082015250565b6000614372600d83612d4d565b915061437d8261433c565b602082019050919050565b600060208201905081810360008301526143a181614365565b9050919050565b7f455243323938313a20726f79616c7479206665652077696c6c2065786365656460008201527f2073616c65507269636500000000000000000000000000000000000000000000602082015250565b6000614404602a83612d4d565b915061440f826143a8565b604082019050919050565b60006020820190508181036000830152614433816143f7565b9050919050565b7f455243323938313a20496e76616c696420706172616d65746572730000000000600082015250565b6000614470601b83612d4d565b915061447b8261443a565b602082019050919050565b6000602082019050818103600083015261449f81614463565b9050919050565b7f4552433732313a20617070726f766520746f2063616c6c657200000000000000600082015250565b60006144dc601983612d4d565b91506144e7826144a6565b602082019050919050565b6000602082019050818103600083015261450b816144cf565b9050919050565b7f4552433732313a207472616e7366657220746f206e6f6e20455243373231526560008201527f63656976657220696d706c656d656e7465720000000000000000000000000000602082015250565b600061456e603283612d4d565b915061457982614512565b604082019050919050565b6000602082019050818103600083015261459d81614561565b9050919050565b7f455243323938313a20696e76616c696420726563656976657200000000000000600082015250565b60006145da601983612d4d565b91506145e5826145a4565b602082019050919050565b60006020820190508181036000830152614609816145cd565b9050919050565b600081519050919050565b600082825260208201905092915050565b600061463782614610565b614641818561461b565b9350614651818560208601612d5e565b61465a81612d88565b840191505092915050565b600060808201905061467a6000830187612e89565b6146876020830186612e89565b6146946040830185612f86565b81810360608301526146a6818461462c565b905095945050505050565b6000815190506146c081612cb3565b92915050565b6000602082840312156146dc576146db612c7d565b5b60006146ea848285016146b1565b91505092915050565b7f4e487b7100000000000000000000000000000000000000000000000000000000600052603260045260246000fd5b7f4552433732313a206d696e7420746f20746865207a65726f2061646472657373600082015250565b6000614758602083612d4d565b915061476382614722565b602082019050919050565b600060208201905081810360008301526147878161474b565b9050919050565b7f4552433732313a20746f6b656e20616c7265616479206d696e74656400000000600082015250565b60006147c4601c83612d4d565b91506147cf8261478e565b602082019050919050565b600060208201905081810360008301526147f3816147b7565b905091905056fea264697066735822122028378d43be0a2c68a65d7b7001c390d78c504e5b42ec3ce9785e6ed0e12e862964736f6c634300081b0033","opcodes":"PUSH1 0xA0 PUSH1 0x40 MSTORE CALLVALUE DUP1 ISZERO PUSH2 0x10 JUMPI PUSH1 0x0 DUP1 REVERT JUMPDEST POP PUSH1 0x40 MLOAD PUSH2 0x523C CODESIZE SUB DUP1 PUSH2 0x523C DUP4 CODECOPY DUP2 DUP2 ADD PUSH1 0x40 MSTORE DUP2 ADD SWAP1 PUSH2 0x32 SWAP2 SWAP1 PUSH2 0x58C JUMP JUMPDEST PUSH1 0x40 MLOAD DUP1 PUSH1 0x40 ADD PUSH1 0x40 MSTORE DUP1 PUSH1 0x4 DUP2 MSTORE PUSH1 0x20 ADD PUSH32 0x4E46543100000000000000000000000000000000000000000000000000000000 DUP2 MSTORE POP PUSH1 0x40 MLOAD DUP1 PUSH1 0x40 ADD PUSH1 0x40 MSTORE DUP1 PUSH1 0x4 DUP2 MSTORE PUSH1 0x20 ADD PUSH32 0x4E46543100000000000000000000000000000000000000000000000000000000 DUP2 MSTORE POP DUP2 PUSH1 0x0 SWAP1 DUP2 PUSH2 0xAD SWAP2 SWAP1 PUSH2 0x809 JUMP JUMPDEST POP DUP1 PUSH1 0x1 SWAP1 DUP2 PUSH2 0xBD SWAP2 SWAP1 PUSH2 0x809 JUMP JUMPDEST POP POP POP PUSH2 0xDC PUSH2 0xD1 PUSH2 0x114 PUSH1 0x20 SHL PUSH1 0x20 SHR JUMP JUMPDEST PUSH2 0x11C PUSH1 0x20 SHL PUSH1 0x20 SHR JUMP JUMPDEST DUP2 PUSH1 0xB SWAP1 DUP2 PUSH2 0xEB SWAP2 SWAP1 PUSH2 0x809 JUMP JUMPDEST POP DUP1 PUSH1 0x80 DUP2 DUP2 MSTORE POP POP PUSH1 0x0 PUSH1 0xA DUP2 SWAP1 SSTORE POP PUSH2 0x10D CALLER PUSH1 0xFA PUSH2 0x13F PUSH1 0x20 SHL PUSH1 0x20 SHR JUMP JUMPDEST POP POP PUSH2 0x9EA JUMP JUMPDEST PUSH1 0x0 CALLER SWAP1 POP SWAP1 JUMP JUMPDEST PUSH2 0x12B DUP2 PUSH2 0x2DA PUSH1 0x20 SHL PUSH1 0x20 SHR JUMP JUMPDEST PUSH2 0x13C DUP2 PUSH1 0xFA PUSH2 0x13F PUSH1 0x20 SHL PUSH1 0x20 SHR JUMP JUMPDEST POP JUMP JUMPDEST PUSH2 0x14D PUSH2 0x311 PUSH1 0x20 SHL PUSH1 0x20 SHR JUMP JUMPDEST PUSH12 0xFFFFFFFFFFFFFFFFFFFFFFFF AND DUP2 PUSH12 0xFFFFFFFFFFFFFFFFFFFFFFFF AND GT ISZERO PUSH2 0x1AB JUMPI PUSH1 0x40 MLOAD PUSH32 0x8C379A000000000000000000000000000000000000000000000000000000000 DUP2 MSTORE PUSH1 0x4 ADD PUSH2 0x1A2 SWAP1 PUSH2 0x95E JUMP JUMPDEST PUSH1 0x40 MLOAD DUP1 SWAP2 SUB SWAP1 REVERT JUMPDEST PUSH1 0x0 PUSH20 0xFFFFFFFFFFFFFFFFFFFFFFFFFFFFFFFFFFFFFFFF AND DUP3 PUSH20 0xFFFFFFFFFFFFFFFFFFFFFFFFFFFFFFFFFFFFFFFF AND SUB PUSH2 0x21A JUMPI PUSH1 0x40 MLOAD PUSH32 0x8C379A000000000000000000000000000000000000000000000000000000000 DUP2 MSTORE PUSH1 0x4 ADD PUSH2 0x211 SWAP1 PUSH2 0x9CA JUMP JUMPDEST PUSH1 0x40 MLOAD DUP1 SWAP2 SUB SWAP1 REVERT JUMPDEST PUSH1 0x40 MLOAD DUP1 PUSH1 0x40 ADD PUSH1 0x40 MSTORE DUP1 DUP4 PUSH20 0xFFFFFFFFFFFFFFFFFFFFFFFFFFFFFFFFFFFFFFFF AND DUP2 MSTORE PUSH1 0x20 ADD DUP3 PUSH12 0xFFFFFFFFFFFFFFFFFFFFFFFF AND DUP2 MSTORE POP PUSH1 0x8 PUSH1 0x0 DUP3 ADD MLOAD DUP2 PUSH1 0x0 ADD PUSH1 0x0 PUSH2 0x100 EXP DUP2 SLOAD DUP2 PUSH20 0xFFFFFFFFFFFFFFFFFFFFFFFFFFFFFFFFFFFFFFFF MUL NOT AND SWAP1 DUP4 PUSH20 0xFFFFFFFFFFFFFFFFFFFFFFFFFFFFFFFFFFFFFFFF AND MUL OR SWAP1 SSTORE POP PUSH1 0x20 DUP3 ADD MLOAD DUP2 PUSH1 0x0 ADD PUSH1 0x14 PUSH2 0x100 EXP DUP2 SLOAD DUP2 PUSH12 0xFFFFFFFFFFFFFFFFFFFFFFFF MUL NOT AND SWAP1 DUP4 PUSH12 0xFFFFFFFFFFFFFFFFFFFFFFFF AND MUL OR SWAP1 SSTORE POP SWAP1 POP POP POP POP JUMP JUMPDEST PUSH1 0x7 PUSH1 0x0 PUSH2 0x100 EXP DUP2 SLOAD SWAP1 PUSH20 0xFFFFFFFFFFFFFFFFFFFFFFFFFFFFFFFFFFFFFFFF MUL NOT AND SWAP1 SSTORE PUSH2 0x30E DUP2 PUSH2 0x31B PUSH1 0x20 SHL PUSH1 0x20 SHR JUMP JUMPDEST POP JUMP JUMPDEST PUSH1 0x0 PUSH2 0x2710 SWAP1 POP SWAP1 JUMP JUMPDEST PUSH1 0x0 PUSH1 0x6 PUSH1 0x0 SWAP1 SLOAD SWAP1 PUSH2 0x100 EXP SWAP1 DIV PUSH20 0xFFFFFFFFFFFFFFFFFFFFFFFFFFFFFFFFFFFFFFFF AND SWAP1 POP DUP2 PUSH1 0x6 PUSH1 0x0 PUSH2 0x100 EXP DUP2 SLOAD DUP2 PUSH20 0xFFFFFFFFFFFFFFFFFFFFFFFFFFFFFFFFFFFFFFFF MUL NOT AND SWAP1 DUP4 PUSH20 0xFFFFFFFFFFFFFFFFFFFFFFFFFFFFFFFFFFFFFFFF AND MUL OR SWAP1 SSTORE POP DUP2 PUSH20 0xFFFFFFFFFFFFFFFFFFFFFFFFFFFFFFFFFFFFFFFF AND DUP2 PUSH20 0xFFFFFFFFFFFFFFFFFFFFFFFFFFFFFFFFFFFFFFFF AND PUSH32 0x8BE0079C531659141344CD1FD0A4F28419497F9722A3DAAFE3B4186F6B6457E0 PUSH1 0x40 MLOAD PUSH1 0x40 MLOAD DUP1 SWAP2 SUB SWAP1 LOG3 POP POP JUMP JUMPDEST PUSH1 0x0 PUSH1 0x40 MLOAD SWAP1 POP SWAP1 JUMP JUMPDEST PUSH1 0x0 DUP1 REVERT JUMPDEST PUSH1 0x0 DUP1 REVERT JUMPDEST PUSH1 0x0 DUP1 REVERT JUMPDEST PUSH1 0x0 DUP1 REVERT JUMPDEST PUSH1 0x0 PUSH1 0x1F NOT PUSH1 0x1F DUP4 ADD AND SWAP1 POP SWAP2 SWAP1 POP JUMP JUMPDEST PUSH32 0x4E487B7100000000000000000000000000000000000000000000000000000000 PUSH1 0x0 MSTORE PUSH1 0x41 PUSH1 0x4 MSTORE PUSH1 0x24 PUSH1 0x0 REVERT JUMPDEST PUSH2 0x448 DUP3 PUSH2 0x3FF JUMP JUMPDEST DUP2 ADD DUP2 DUP2 LT PUSH8 0xFFFFFFFFFFFFFFFF DUP3 GT OR ISZERO PUSH2 0x467 JUMPI PUSH2 0x466 PUSH2 0x410 JUMP JUMPDEST JUMPDEST DUP1 PUSH1 0x40 MSTORE POP POP POP JUMP JUMPDEST PUSH1 0x0 PUSH2 0x47A PUSH2 0x3E1 JUMP JUMPDEST SWAP1 POP PUSH2 0x486 DUP3 DUP3 PUSH2 0x43F JUMP JUMPDEST SWAP2 SWAP1 POP JUMP JUMPDEST PUSH1 0x0 PUSH8 0xFFFFFFFFFFFFFFFF DUP3 GT ISZERO PUSH2 0x4A6 JUMPI PUSH2 0x4A5 PUSH2 0x410 JUMP JUMPDEST JUMPDEST PUSH2 0x4AF DUP3 PUSH2 0x3FF JUMP JUMPDEST SWAP1 POP PUSH1 0x20 DUP2 ADD SWAP1 POP SWAP2 SWAP1 POP JUMP JUMPDEST PUSH1 0x0 JUMPDEST DUP4 DUP2 LT ISZERO PUSH2 0x4DA JUMPI DUP1 DUP3 ADD MLOAD DUP2 DUP5 ADD MSTORE PUSH1 0x20 DUP2 ADD SWAP1 POP PUSH2 0x4BF JUMP JUMPDEST PUSH1 0x0 DUP5 DUP5 ADD MSTORE POP POP POP POP JUMP JUMPDEST PUSH1 0x0 PUSH2 0x4F9 PUSH2 0x4F4 DUP5 PUSH2 0x48B JUMP JUMPDEST PUSH2 0x470 JUMP JUMPDEST SWAP1 POP DUP3 DUP2 MSTORE PUSH1 0x20 DUP2 ADD DUP5 DUP5 DUP5 ADD GT ISZERO PUSH2 0x515 JUMPI PUSH2 0x514 PUSH2 0x3FA JUMP JUMPDEST JUMPDEST PUSH2 0x520 DUP5 DUP3 DUP6 PUSH2 0x4BC JUMP JUMPDEST POP SWAP4 SWAP3 POP POP POP JUMP JUMPDEST PUSH1 0x0 DUP3 PUSH1 0x1F DUP4 ADD SLT PUSH2 0x53D JUMPI PUSH2 0x53C PUSH2 0x3F5 JUMP JUMPDEST JUMPDEST DUP2 MLOAD PUSH2 0x54D DUP5 DUP3 PUSH1 0x20 DUP7 ADD PUSH2 0x4E6 JUMP JUMPDEST SWAP2 POP POP SWAP3 SWAP2 POP POP JUMP JUMPDEST PUSH1 0x0 DUP2 SWAP1 POP SWAP2 SWAP1 POP JUMP JUMPDEST PUSH2 0x569 DUP2 PUSH2 0x556 JUMP JUMPDEST DUP2 EQ PUSH2 0x574 JUMPI PUSH1 0x0 DUP1 REVERT JUMPDEST POP JUMP JUMPDEST PUSH1 0x0 DUP2 MLOAD SWAP1 POP PUSH2 0x586 DUP2 PUSH2 0x560 JUMP JUMPDEST SWAP3 SWAP2 POP POP JUMP JUMPDEST PUSH1 0x0 DUP1 PUSH1 0x40 DUP4 DUP6 SUB SLT ISZERO PUSH2 0x5A3 JUMPI PUSH2 0x5A2 PUSH2 0x3EB JUMP JUMPDEST JUMPDEST PUSH1 0x0 DUP4 ADD MLOAD PUSH8 0xFFFFFFFFFFFFFFFF DUP2 GT ISZERO PUSH2 0x5C1 JUMPI PUSH2 0x5C0 PUSH2 0x3F0 JUMP JUMPDEST JUMPDEST PUSH2 0x5CD DUP6 DUP3 DUP7 ADD PUSH2 0x528 JUMP JUMPDEST SWAP3 POP POP PUSH1 0x20 PUSH2 0x5DE DUP6 DUP3 DUP7 ADD PUSH2 0x577 JUMP JUMPDEST SWAP2 POP POP SWAP3 POP SWAP3 SWAP1 POP JUMP JUMPDEST PUSH1 0x0 DUP2 MLOAD SWAP1 POP SWAP2 SWAP1 POP JUMP JUMPDEST PUSH32 0x4E487B7100000000000000000000000000000000000000000000000000000000 PUSH1 0x0 MSTORE PUSH1 0x22 PUSH1 0x4 MSTORE PUSH1 0x24 PUSH1 0x0 REVERT JUMPDEST PUSH1 0x0 PUSH1 0x2 DUP3 DIV SWAP1 POP PUSH1 0x1 DUP3 AND DUP1 PUSH2 0x63A JUMPI PUSH1 0x7F DUP3 AND SWAP2 POP JUMPDEST PUSH1 0x20 DUP3 LT DUP2 SUB PUSH2 0x64D JUMPI PUSH2 0x64C PUSH2 0x5F3 JUMP JUMPDEST JUMPDEST POP SWAP2 SWAP1 POP JUMP JUMPDEST PUSH1 0x0 DUP2 SWAP1 POP DUP2 PUSH1 0x0 MSTORE PUSH1 0x20 PUSH1 0x0 KECCAK256 SWAP1 POP SWAP2 SWAP1 POP JUMP JUMPDEST PUSH1 0x0 PUSH1 0x20 PUSH1 0x1F DUP4 ADD DIV SWAP1 POP SWAP2 SWAP1 POP JUMP JUMPDEST PUSH1 0x0 DUP3 DUP3 SHL SWAP1 POP SWAP3 SWAP2 POP POP JUMP JUMPDEST PUSH1 0x0 PUSH1 0x8 DUP4 MUL PUSH2 0x6B5 PUSH32 0xFFFFFFFFFFFFFFFFFFFFFFFFFFFFFFFFFFFFFFFFFFFFFFFFFFFFFFFFFFFFFFFF DUP3 PUSH2 0x678 JUMP JUMPDEST PUSH2 0x6BF DUP7 DUP4 PUSH2 0x678 JUMP JUMPDEST SWAP6 POP DUP1 NOT DUP5 AND SWAP4 POP DUP1 DUP7 AND DUP5 OR SWAP3 POP POP POP SWAP4 SWAP3 POP POP POP JUMP JUMPDEST PUSH1 0x0 DUP2 SWAP1 POP SWAP2 SWAP1 POP JUMP JUMPDEST PUSH1 0x0 DUP2 SWAP1 POP SWAP2 SWAP1 POP JUMP JUMPDEST PUSH1 0x0 PUSH2 0x706 PUSH2 0x701 PUSH2 0x6FC DUP5 PUSH2 0x6D7 JUMP JUMPDEST PUSH2 0x6E1 JUMP JUMPDEST PUSH2 0x6D7 JUMP JUMPDEST SWAP1 POP SWAP2 SWAP1 POP JUMP JUMPDEST PUSH1 0x0 DUP2 SWAP1 POP SWAP2 SWAP1 POP JUMP JUMPDEST PUSH2 0x720 DUP4 PUSH2 0x6EB JUMP JUMPDEST PUSH2 0x734 PUSH2 0x72C DUP3 PUSH2 0x70D JUMP JUMPDEST DUP5 DUP5 SLOAD PUSH2 0x685 JUMP JUMPDEST DUP3 SSTORE POP POP POP POP JUMP JUMPDEST PUSH1 0x0 SWAP1 JUMP JUMPDEST PUSH2 0x749 PUSH2 0x73C JUMP JUMPDEST PUSH2 0x754 DUP2 DUP5 DUP5 PUSH2 0x717 JUMP JUMPDEST POP POP POP JUMP JUMPDEST JUMPDEST DUP2 DUP2 LT ISZERO PUSH2 0x778 JUMPI PUSH2 0x76D PUSH1 0x0 DUP3 PUSH2 0x741 JUMP JUMPDEST PUSH1 0x1 DUP2 ADD SWAP1 POP PUSH2 0x75A JUMP JUMPDEST POP POP JUMP JUMPDEST PUSH1 0x1F DUP3 GT ISZERO PUSH2 0x7BD JUMPI PUSH2 0x78E DUP2 PUSH2 0x653 JUMP JUMPDEST PUSH2 0x797 DUP5 PUSH2 0x668 JUMP JUMPDEST DUP2 ADD PUSH1 0x20 DUP6 LT ISZERO PUSH2 0x7A6 JUMPI DUP2 SWAP1 POP JUMPDEST PUSH2 0x7BA PUSH2 0x7B2 DUP6 PUSH2 0x668 JUMP JUMPDEST DUP4 ADD DUP3 PUSH2 0x759 JUMP JUMPDEST POP POP JUMPDEST POP POP POP JUMP JUMPDEST PUSH1 0x0 DUP3 DUP3 SHR SWAP1 POP SWAP3 SWAP2 POP POP JUMP JUMPDEST PUSH1 0x0 PUSH2 0x7E0 PUSH1 0x0 NOT DUP5 PUSH1 0x8 MUL PUSH2 0x7C2 JUMP JUMPDEST NOT DUP1 DUP4 AND SWAP2 POP POP SWAP3 SWAP2 POP POP JUMP JUMPDEST PUSH1 0x0 PUSH2 0x7F9 DUP4 DUP4 PUSH2 0x7CF JUMP JUMPDEST SWAP2 POP DUP3 PUSH1 0x2 MUL DUP3 OR SWAP1 POP SWAP3 SWAP2 POP POP JUMP JUMPDEST PUSH2 0x812 DUP3 PUSH2 0x5E8 JUMP JUMPDEST PUSH8 0xFFFFFFFFFFFFFFFF DUP2 GT ISZERO PUSH2 0x82B JUMPI PUSH2 0x82A PUSH2 0x410 JUMP JUMPDEST JUMPDEST PUSH2 0x835 DUP3 SLOAD PUSH2 0x622 JUMP JUMPDEST PUSH2 0x840 DUP3 DUP3 DUP6 PUSH2 0x77C JUMP JUMPDEST PUSH1 0x0 PUSH1 0x20 SWAP1 POP PUSH1 0x1F DUP4 GT PUSH1 0x1 DUP2 EQ PUSH2 0x873 JUMPI PUSH1 0x0 DUP5 ISZERO PUSH2 0x861 JUMPI DUP3 DUP8 ADD MLOAD SWAP1 POP JUMPDEST PUSH2 0x86B DUP6 DUP3 PUSH2 0x7ED JUMP JUMPDEST DUP7 SSTORE POP PUSH2 0x8D3 JUMP JUMPDEST PUSH1 0x1F NOT DUP5 AND PUSH2 0x881 DUP7 PUSH2 0x653 JUMP JUMPDEST PUSH1 0x0 JUMPDEST DUP3 DUP2 LT ISZERO PUSH2 0x8A9 JUMPI DUP5 DUP10 ADD MLOAD DUP3 SSTORE PUSH1 0x1 DUP3 ADD SWAP2 POP PUSH1 0x20 DUP6 ADD SWAP5 POP PUSH1 0x20 DUP2 ADD SWAP1 POP PUSH2 0x884 JUMP JUMPDEST DUP7 DUP4 LT ISZERO PUSH2 0x8C6 JUMPI DUP5 DUP10 ADD MLOAD PUSH2 0x8C2 PUSH1 0x1F DUP10 AND DUP3 PUSH2 0x7CF JUMP JUMPDEST DUP4 SSTORE POP JUMPDEST PUSH1 0x1 PUSH1 0x2 DUP9 MUL ADD DUP9 SSTORE POP POP POP JUMPDEST POP POP POP POP POP POP JUMP JUMPDEST PUSH1 0x0 DUP3 DUP3 MSTORE PUSH1 0x20 DUP3 ADD SWAP1 POP SWAP3 SWAP2 POP POP JUMP JUMPDEST PUSH32 0x455243323938313A20726F79616C7479206665652077696C6C20657863656564 PUSH1 0x0 DUP3 ADD MSTORE PUSH32 0x2073616C65507269636500000000000000000000000000000000000000000000 PUSH1 0x20 DUP3 ADD MSTORE POP JUMP JUMPDEST PUSH1 0x0 PUSH2 0x948 PUSH1 0x2A DUP4 PUSH2 0x8DB JUMP JUMPDEST SWAP2 POP PUSH2 0x953 DUP3 PUSH2 0x8EC JUMP JUMPDEST PUSH1 0x40 DUP3 ADD SWAP1 POP SWAP2 SWAP1 POP JUMP JUMPDEST PUSH1 0x0 PUSH1 0x20 DUP3 ADD SWAP1 POP DUP2 DUP2 SUB PUSH1 0x0 DUP4 ADD MSTORE PUSH2 0x977 DUP2 PUSH2 0x93B JUMP JUMPDEST SWAP1 POP SWAP2 SWAP1 POP JUMP JUMPDEST PUSH32 0x455243323938313A20696E76616C696420726563656976657200000000000000 PUSH1 0x0 DUP3 ADD MSTORE POP JUMP JUMPDEST PUSH1 0x0 PUSH2 0x9B4 PUSH1 0x19 DUP4 PUSH2 0x8DB JUMP JUMPDEST SWAP2 POP PUSH2 0x9BF DUP3 PUSH2 0x97E JUMP JUMPDEST PUSH1 0x20 DUP3 ADD SWAP1 POP SWAP2 SWAP1 POP JUMP JUMPDEST PUSH1 0x0 PUSH1 0x20 DUP3 ADD SWAP1 POP DUP2 DUP2 SUB PUSH1 0x0 DUP4 ADD MSTORE PUSH2 0x9E3 DUP2 PUSH2 0x9A7 JUMP JUMPDEST SWAP1 POP SWAP2 SWAP1 POP JUMP JUMPDEST PUSH1 0x80 MLOAD PUSH2 0x4830 PUSH2 0xA0C PUSH1 0x0 CODECOPY PUSH1 0x0 DUP2 DUP2 PUSH2 0xE61 ADD MSTORE PUSH2 0x1BE2 ADD MSTORE PUSH2 0x4830 PUSH1 0x0 RETURN INVALID PUSH1 0x80 PUSH1 0x40 MSTORE PUSH1 0x4 CALLDATASIZE LT PUSH2 0x1E3 JUMPI PUSH1 0x0 CALLDATALOAD PUSH1 0xE0 SHR DUP1 PUSH4 0x5944C753 GT PUSH2 0x102 JUMPI DUP1 PUSH4 0x98BDF6F5 GT PUSH2 0x95 JUMPI DUP1 PUSH4 0xC87B56DD GT PUSH2 0x64 JUMPI DUP1 PUSH4 0xC87B56DD EQ PUSH2 0x66E JUMPI DUP1 PUSH4 0xE30C3978 EQ PUSH2 0x6AB JUMPI DUP1 PUSH4 0xE985E9C5 EQ PUSH2 0x6D6 JUMPI DUP1 PUSH4 0xF2FDE38B EQ PUSH2 0x713 JUMPI PUSH2 0x1E3 JUMP JUMPDEST DUP1 PUSH4 0x98BDF6F5 EQ PUSH2 0x5C6 JUMPI DUP1 PUSH4 0xA22CB465 EQ PUSH2 0x5F1 JUMPI DUP1 PUSH4 0xB88D4FDE EQ PUSH2 0x61A JUMPI DUP1 PUSH4 0xC7499348 EQ PUSH2 0x643 JUMPI PUSH2 0x1E3 JUMP JUMPDEST DUP1 PUSH4 0x715018A6 GT PUSH2 0xD1 JUMPI DUP1 PUSH4 0x715018A6 EQ PUSH2 0x542 JUMPI DUP1 PUSH4 0x79BA5097 EQ PUSH2 0x559 JUMPI DUP1 PUSH4 0x8DA5CB5B EQ PUSH2 0x570 JUMPI DUP1 PUSH4 0x95D89B41 EQ PUSH2 0x59B JUMPI PUSH2 0x1E3 JUMP JUMPDEST DUP1 PUSH4 0x5944C753 EQ PUSH2 0x474 JUMPI DUP1 PUSH4 0x6352211E EQ PUSH2 0x49D JUMPI DUP1 PUSH4 0x63D9D166 EQ PUSH2 0x4DA JUMPI DUP1 PUSH4 0x70A08231 EQ PUSH2 0x505 JUMPI PUSH2 0x1E3 JUMP JUMPDEST DUP1 PUSH4 0x24600FC3 GT PUSH2 0x17A JUMPI DUP1 PUSH4 0x42842E0E GT PUSH2 0x149 JUMPI DUP1 PUSH4 0x42842E0E EQ PUSH2 0x3DB JUMPI DUP1 PUSH4 0x47B13D8A EQ PUSH2 0x404 JUMPI DUP1 PUSH4 0x55850FE6 EQ PUSH2 0x420 JUMPI DUP1 PUSH4 0x55F804B3 EQ PUSH2 0x44B JUMPI PUSH2 0x1E3 JUMP JUMPDEST DUP1 PUSH4 0x24600FC3 EQ PUSH2 0x330 JUMPI DUP1 PUSH4 0x2A55205A EQ PUSH2 0x347 JUMPI DUP1 PUSH4 0x2EB4A7AB EQ PUSH2 0x385 JUMPI DUP1 PUSH4 0x32CB6B0C EQ PUSH2 0x3B0 JUMPI PUSH2 0x1E3 JUMP JUMPDEST DUP1 PUSH4 0xAB7039E GT PUSH2 0x1B6 JUMPI DUP1 PUSH4 0xAB7039E EQ PUSH2 0x2B6 JUMPI DUP1 PUSH4 0x1249C58B EQ PUSH2 0x2D2 JUMPI DUP1 PUSH4 0x18160DDD EQ PUSH2 0x2DC JUMPI DUP1 PUSH4 0x23B872DD EQ PUSH2 0x307 JUMPI PUSH2 0x1E3 JUMP JUMPDEST DUP1 PUSH4 0x1FFC9A7 EQ PUSH2 0x1E8 JUMPI DUP1 PUSH4 0x6FDDE03 EQ PUSH2 0x225 JUMPI DUP1 PUSH4 0x81812FC EQ PUSH2 0x250 JUMPI DUP1 PUSH4 0x95EA7B3 EQ PUSH2 0x28D JUMPI JUMPDEST PUSH1 0x0 DUP1 REVERT JUMPDEST CALLVALUE DUP1 ISZERO PUSH2 0x1F4 JUMPI PUSH1 0x0 DUP1 REVERT JUMPDEST POP PUSH2 0x20F PUSH1 0x4 DUP1 CALLDATASIZE SUB DUP2 ADD SWAP1 PUSH2 0x20A SWAP2 SWAP1 PUSH2 0x2CDF JUMP JUMPDEST PUSH2 0x73C JUMP JUMPDEST PUSH1 0x40 MLOAD PUSH2 0x21C SWAP2 SWAP1 PUSH2 0x2D27 JUMP JUMPDEST PUSH1 0x40 MLOAD DUP1 SWAP2 SUB SWAP1 RETURN JUMPDEST CALLVALUE DUP1 ISZERO PUSH2 0x231 JUMPI PUSH1 0x0 DUP1 REVERT JUMPDEST POP PUSH2 0x23A PUSH2 0x74E JUMP JUMPDEST PUSH1 0x40 MLOAD PUSH2 0x247 SWAP2 SWAP1 PUSH2 0x2DD2 JUMP JUMPDEST PUSH1 0x40 MLOAD DUP1 SWAP2 SUB SWAP1 RETURN JUMPDEST CALLVALUE DUP1 ISZERO PUSH2 0x25C JUMPI PUSH1 0x0 DUP1 REVERT JUMPDEST POP PUSH2 0x277 PUSH1 0x4 DUP1 CALLDATASIZE SUB DUP2 ADD SWAP1 PUSH2 0x272 SWAP2 SWAP1 PUSH2 0x2E2A JUMP JUMPDEST PUSH2 0x7E0 JUMP JUMPDEST PUSH1 0x40 MLOAD PUSH2 0x284 SWAP2 SWAP1 PUSH2 0x2E98 JUMP JUMPDEST PUSH1 0x40 MLOAD DUP1 SWAP2 SUB SWAP1 RETURN JUMPDEST CALLVALUE DUP1 ISZERO PUSH2 0x299 JUMPI PUSH1 0x0 DUP1 REVERT JUMPDEST POP PUSH2 0x2B4 PUSH1 0x4 DUP1 CALLDATASIZE SUB DUP2 ADD SWAP1 PUSH2 0x2AF SWAP2 SWAP1 PUSH2 0x2EDF JUMP JUMPDEST PUSH2 0x826 JUMP JUMPDEST STOP JUMPDEST PUSH2 0x2D0 PUSH1 0x4 DUP1 CALLDATASIZE SUB DUP2 ADD SWAP1 PUSH2 0x2CB SWAP2 SWAP1 PUSH2 0x2F1F JUMP JUMPDEST PUSH2 0x93D JUMP JUMPDEST STOP JUMPDEST PUSH2 0x2DA PUSH2 0xA69 JUMP JUMPDEST STOP JUMPDEST CALLVALUE DUP1 ISZERO PUSH2 0x2E8 JUMPI PUSH1 0x0 DUP1 REVERT JUMPDEST POP PUSH2 0x2F1 PUSH2 0xABD JUMP JUMPDEST PUSH1 0x40 MLOAD PUSH2 0x2FE SWAP2 SWAP1 PUSH2 0x2F95 JUMP JUMPDEST PUSH1 0x40 MLOAD DUP1 SWAP2 SUB SWAP1 RETURN JUMPDEST CALLVALUE DUP1 ISZERO PUSH2 0x313 JUMPI PUSH1 0x0 DUP1 REVERT JUMPDEST POP PUSH2 0x32E PUSH1 0x4 DUP1 CALLDATASIZE SUB DUP2 ADD SWAP1 PUSH2 0x329 SWAP2 SWAP1 PUSH2 0x2FB0 JUMP JUMPDEST PUSH2 0xAC7 JUMP JUMPDEST STOP JUMPDEST CALLVALUE DUP1 ISZERO PUSH2 0x33C JUMPI PUSH1 0x0 DUP1 REVERT JUMPDEST POP PUSH2 0x345 PUSH2 0xB27 JUMP JUMPDEST STOP JUMPDEST CALLVALUE DUP1 ISZERO PUSH2 0x353 JUMPI PUSH1 0x0 DUP1 REVERT JUMPDEST POP PUSH2 0x36E PUSH1 0x4 DUP1 CALLDATASIZE SUB DUP2 ADD SWAP1 PUSH2 0x369 SWAP2 SWAP1 PUSH2 0x3003 JUMP JUMPDEST PUSH2 0xC75 JUMP JUMPDEST PUSH1 0x40 MLOAD PUSH2 0x37C SWAP3 SWAP2 SWAP1 PUSH2 0x3043 JUMP JUMPDEST PUSH1 0x40 MLOAD DUP1 SWAP2 SUB SWAP1 RETURN JUMPDEST CALLVALUE DUP1 ISZERO PUSH2 0x391 JUMPI PUSH1 0x0 DUP1 REVERT JUMPDEST POP PUSH2 0x39A PUSH2 0xE5F JUMP JUMPDEST PUSH1 0x40 MLOAD PUSH2 0x3A7 SWAP2 SWAP1 PUSH2 0x3085 JUMP JUMPDEST PUSH1 0x40 MLOAD DUP1 SWAP2 SUB SWAP1 RETURN JUMPDEST CALLVALUE DUP1 ISZERO PUSH2 0x3BC JUMPI PUSH1 0x0 DUP1 REVERT JUMPDEST POP PUSH2 0x3C5 PUSH2 0xE83 JUMP JUMPDEST PUSH1 0x40 MLOAD PUSH2 0x3D2 SWAP2 SWAP1 PUSH2 0x2F95 JUMP JUMPDEST PUSH1 0x40 MLOAD DUP1 SWAP2 SUB SWAP1 RETURN JUMPDEST CALLVALUE DUP1 ISZERO PUSH2 0x3E7 JUMPI PUSH1 0x0 DUP1 REVERT JUMPDEST POP PUSH2 0x402 PUSH1 0x4 DUP1 CALLDATASIZE SUB DUP2 ADD SWAP1 PUSH2 0x3FD SWAP2 SWAP1 PUSH2 0x2FB0 JUMP JUMPDEST PUSH2 0xE89 JUMP JUMPDEST STOP JUMPDEST PUSH2 0x41E PUSH1 0x4 DUP1 CALLDATASIZE SUB DUP2 ADD SWAP1 PUSH2 0x419 SWAP2 SWAP1 PUSH2 0x3105 JUMP JUMPDEST PUSH2 0xEA9 JUMP JUMPDEST STOP JUMPDEST CALLVALUE DUP1 ISZERO PUSH2 0x42C JUMPI PUSH1 0x0 DUP1 REVERT JUMPDEST POP PUSH2 0x435 PUSH2 0xFBE JUMP JUMPDEST PUSH1 0x40 MLOAD PUSH2 0x442 SWAP2 SWAP1 PUSH2 0x31A0 JUMP JUMPDEST PUSH1 0x40 MLOAD DUP1 SWAP2 SUB SWAP1 RETURN JUMPDEST CALLVALUE DUP1 ISZERO PUSH2 0x457 JUMPI PUSH1 0x0 DUP1 REVERT JUMPDEST POP PUSH2 0x472 PUSH1 0x4 DUP1 CALLDATASIZE SUB DUP2 ADD SWAP1 PUSH2 0x46D SWAP2 SWAP1 PUSH2 0x32EB JUMP JUMPDEST PUSH2 0xFC3 JUMP JUMPDEST STOP JUMPDEST CALLVALUE DUP1 ISZERO PUSH2 0x480 JUMPI PUSH1 0x0 DUP1 REVERT JUMPDEST POP PUSH2 0x49B PUSH1 0x4 DUP1 CALLDATASIZE SUB DUP2 ADD SWAP1 PUSH2 0x496 SWAP2 SWAP1 PUSH2 0x3360 JUMP JUMPDEST PUSH2 0xFDE JUMP JUMPDEST STOP JUMPDEST CALLVALUE DUP1 ISZERO PUSH2 0x4A9 JUMPI PUSH1 0x0 DUP1 REVERT JUMPDEST POP PUSH2 0x4C4 PUSH1 0x4 DUP1 CALLDATASIZE SUB DUP2 ADD SWAP1 PUSH2 0x4BF SWAP2 SWAP1 PUSH2 0x2E2A JUMP JUMPDEST PUSH2 0xFF6 JUMP JUMPDEST PUSH1 0x40 MLOAD PUSH2 0x4D1 SWAP2 SWAP1 PUSH2 0x2E98 JUMP JUMPDEST PUSH1 0x40 MLOAD DUP1 SWAP2 SUB SWAP1 RETURN JUMPDEST CALLVALUE DUP1 ISZERO PUSH2 0x4E6 JUMPI PUSH1 0x0 DUP1 REVERT JUMPDEST POP PUSH2 0x4EF PUSH2 0x107C JUMP JUMPDEST PUSH1 0x40 MLOAD PUSH2 0x4FC SWAP2 SWAP1 PUSH2 0x2F95 JUMP JUMPDEST PUSH1 0x40 MLOAD DUP1 SWAP2 SUB SWAP1 RETURN JUMPDEST CALLVALUE DUP1 ISZERO PUSH2 0x511 JUMPI PUSH1 0x0 DUP1 REVERT JUMPDEST POP PUSH2 0x52C PUSH1 0x4 DUP1 CALLDATASIZE SUB DUP2 ADD SWAP1 PUSH2 0x527 SWAP2 SWAP1 PUSH2 0x33B3 JUMP JUMPDEST PUSH2 0x1088 JUMP JUMPDEST PUSH1 0x40 MLOAD PUSH2 0x539 SWAP2 SWAP1 PUSH2 0x2F95 JUMP JUMPDEST PUSH1 0x40 MLOAD DUP1 SWAP2 SUB SWAP1 RETURN JUMPDEST CALLVALUE DUP1 ISZERO PUSH2 0x54E JUMPI PUSH1 0x0 DUP1 REVERT JUMPDEST POP PUSH2 0x557 PUSH2 0x113F JUMP JUMPDEST STOP JUMPDEST CALLVALUE DUP1 ISZERO PUSH2 0x565 JUMPI PUSH1 0x0 DUP1 REVERT JUMPDEST POP PUSH2 0x56E PUSH2 0x1153 JUMP JUMPDEST STOP JUMPDEST CALLVALUE DUP1 ISZERO PUSH2 0x57C JUMPI PUSH1 0x0 DUP1 REVERT JUMPDEST POP PUSH2 0x585 PUSH2 0x11E0 JUMP JUMPDEST PUSH1 0x40 MLOAD PUSH2 0x592 SWAP2 SWAP1 PUSH2 0x2E98 JUMP JUMPDEST PUSH1 0x40 MLOAD DUP1 SWAP2 SUB SWAP1 RETURN JUMPDEST CALLVALUE DUP1 ISZERO PUSH2 0x5A7 JUMPI PUSH1 0x0 DUP1 REVERT JUMPDEST POP PUSH2 0x5B0 PUSH2 0x120A JUMP JUMPDEST PUSH1 0x40 MLOAD PUSH2 0x5BD SWAP2 SWAP1 PUSH2 0x2DD2 JUMP JUMPDEST PUSH1 0x40 MLOAD DUP1 SWAP2 SUB SWAP1 RETURN JUMPDEST CALLVALUE DUP1 ISZERO PUSH2 0x5D2 JUMPI PUSH1 0x0 DUP1 REVERT JUMPDEST POP PUSH2 0x5DB PUSH2 0x129C JUMP JUMPDEST PUSH1 0x40 MLOAD PUSH2 0x5E8 SWAP2 SWAP1 PUSH2 0x2F95 JUMP JUMPDEST PUSH1 0x40 MLOAD DUP1 SWAP2 SUB SWAP1 RETURN JUMPDEST CALLVALUE DUP1 ISZERO PUSH2 0x5FD JUMPI PUSH1 0x0 DUP1 REVERT JUMPDEST POP PUSH2 0x618 PUSH1 0x4 DUP1 CALLDATASIZE SUB DUP2 ADD SWAP1 PUSH2 0x613 SWAP2 SWAP1 PUSH2 0x340C JUMP JUMPDEST PUSH2 0x12A2 JUMP JUMPDEST STOP JUMPDEST CALLVALUE DUP1 ISZERO PUSH2 0x626 JUMPI PUSH1 0x0 DUP1 REVERT JUMPDEST POP PUSH2 0x641 PUSH1 0x4 DUP1 CALLDATASIZE SUB DUP2 ADD SWAP1 PUSH2 0x63C SWAP2 SWAP1 PUSH2 0x34ED JUMP JUMPDEST PUSH2 0x12B8 JUMP JUMPDEST STOP JUMPDEST CALLVALUE DUP1 ISZERO PUSH2 0x64F JUMPI PUSH1 0x0 DUP1 REVERT JUMPDEST POP PUSH2 0x658 PUSH2 0x131A JUMP JUMPDEST PUSH1 0x40 MLOAD PUSH2 0x665 SWAP2 SWAP1 PUSH2 0x2F95 JUMP JUMPDEST PUSH1 0x40 MLOAD DUP1 SWAP2 SUB SWAP1 RETURN JUMPDEST CALLVALUE DUP1 ISZERO PUSH2 0x67A JUMPI PUSH1 0x0 DUP1 REVERT JUMPDEST POP PUSH2 0x695 PUSH1 0x4 DUP1 CALLDATASIZE SUB DUP2 ADD SWAP1 PUSH2 0x690 SWAP2 SWAP1 PUSH2 0x2E2A JUMP JUMPDEST PUSH2 0x1325 JUMP JUMPDEST PUSH1 0x40 MLOAD PUSH2 0x6A2 SWAP2 SWAP1 PUSH2 0x2DD2 JUMP JUMPDEST PUSH1 0x40 MLOAD DUP1 SWAP2 SUB SWAP1 RETURN JUMPDEST CALLVALUE DUP1 ISZERO PUSH2 0x6B7 JUMPI PUSH1 0x0 DUP1 REVERT JUMPDEST POP PUSH2 0x6C0 PUSH2 0x138D JUMP JUMPDEST PUSH1 0x40 MLOAD PUSH2 0x6CD SWAP2 SWAP1 PUSH2 0x2E98 JUMP JUMPDEST PUSH1 0x40 MLOAD DUP1 SWAP2 SUB SWAP1 RETURN JUMPDEST CALLVALUE DUP1 ISZERO PUSH2 0x6E2 JUMPI PUSH1 0x0 DUP1 REVERT JUMPDEST POP PUSH2 0x6FD PUSH1 0x4 DUP1 CALLDATASIZE SUB DUP2 ADD SWAP1 PUSH2 0x6F8 SWAP2 SWAP1 PUSH2 0x3570 JUMP JUMPDEST PUSH2 0x13B7 JUMP JUMPDEST PUSH1 0x40 MLOAD PUSH2 0x70A SWAP2 SWAP1 PUSH2 0x2D27 JUMP JUMPDEST PUSH1 0x40 MLOAD DUP1 SWAP2 SUB SWAP1 RETURN JUMPDEST CALLVALUE DUP1 ISZERO PUSH2 0x71F JUMPI PUSH1 0x0 DUP1 REVERT JUMPDEST POP PUSH2 0x73A PUSH1 0x4 DUP1 CALLDATASIZE SUB DUP2 ADD SWAP1 PUSH2 0x735 SWAP2 SWAP1 PUSH2 0x33B3 JUMP JUMPDEST PUSH2 0x144B JUMP JUMPDEST STOP JUMPDEST PUSH1 0x0 PUSH2 0x747 DUP3 PUSH2 0x14F8 JUMP JUMPDEST SWAP1 POP SWAP2 SWAP1 POP JUMP JUMPDEST PUSH1 0x60 PUSH1 0x0 DUP1 SLOAD PUSH2 0x75D SWAP1 PUSH2 0x35DF JUMP JUMPDEST DUP1 PUSH1 0x1F ADD PUSH1 0x20 DUP1 SWAP2 DIV MUL PUSH1 0x20 ADD PUSH1 0x40 MLOAD SWAP1 DUP2 ADD PUSH1 0x40 MSTORE DUP1 SWAP3 SWAP2 SWAP1 DUP2 DUP2 MSTORE PUSH1 0x20 ADD DUP3 DUP1 SLOAD PUSH2 0x789 SWAP1 PUSH2 0x35DF JUMP JUMPDEST DUP1 ISZERO PUSH2 0x7D6 JUMPI DUP1 PUSH1 0x1F LT PUSH2 0x7AB JUMPI PUSH2 0x100 DUP1 DUP4 SLOAD DIV MUL DUP4 MSTORE SWAP2 PUSH1 0x20 ADD SWAP2 PUSH2 0x7D6 JUMP JUMPDEST DUP3 ADD SWAP2 SWAP1 PUSH1 0x0 MSTORE PUSH1 0x20 PUSH1 0x0 KECCAK256 SWAP1 JUMPDEST DUP2 SLOAD DUP2 MSTORE SWAP1 PUSH1 0x1 ADD SWAP1 PUSH1 0x20 ADD DUP1 DUP4 GT PUSH2 0x7B9 JUMPI DUP3 SWAP1 SUB PUSH1 0x1F AND DUP3 ADD SWAP2 JUMPDEST POP POP POP POP POP SWAP1 POP SWAP1 JUMP JUMPDEST PUSH1 0x0 PUSH2 0x7EB DUP3 PUSH2 0x1572 JUMP JUMPDEST PUSH1 0x4 PUSH1 0x0 DUP4 DUP2 MSTORE PUSH1 0x20 ADD SWAP1 DUP2 MSTORE PUSH1 0x20 ADD PUSH1 0x0 KECCAK256 PUSH1 0x0 SWAP1 SLOAD SWAP1 PUSH2 0x100 EXP SWAP1 DIV PUSH20 0xFFFFFFFFFFFFFFFFFFFFFFFFFFFFFFFFFFFFFFFF AND SWAP1 POP SWAP2 SWAP1 POP JUMP JUMPDEST PUSH1 0x0 PUSH2 0x831 DUP3 PUSH2 0xFF6 JUMP JUMPDEST SWAP1 POP DUP1 PUSH20 0xFFFFFFFFFFFFFFFFFFFFFFFFFFFFFFFFFFFFFFFF AND DUP4 PUSH20 0xFFFFFFFFFFFFFFFFFFFFFFFFFFFFFFFFFFFFFFFF AND SUB PUSH2 0x8A1 JUMPI PUSH1 0x40 MLOAD PUSH32 0x8C379A000000000000000000000000000000000000000000000000000000000 DUP2 MSTORE PUSH1 0x4 ADD PUSH2 0x898 SWAP1 PUSH2 0x3682 JUMP JUMPDEST PUSH1 0x40 MLOAD DUP1 SWAP2 SUB SWAP1 REVERT JUMPDEST DUP1 PUSH20 0xFFFFFFFFFFFFFFFFFFFFFFFFFFFFFFFFFFFFFFFF AND PUSH2 0x8C0 PUSH2 0x15BD JUMP JUMPDEST PUSH20 0xFFFFFFFFFFFFFFFFFFFFFFFFFFFFFFFFFFFFFFFF AND EQ DUP1 PUSH2 0x8EF JUMPI POP PUSH2 0x8EE DUP2 PUSH2 0x8E9 PUSH2 0x15BD JUMP JUMPDEST PUSH2 0x13B7 JUMP JUMPDEST JUMPDEST PUSH2 0x92E JUMPI PUSH1 0x40 MLOAD PUSH32 0x8C379A000000000000000000000000000000000000000000000000000000000 DUP2 MSTORE PUSH1 0x4 ADD PUSH2 0x925 SWAP1 PUSH2 0x3714 JUMP JUMPDEST PUSH1 0x40 MLOAD DUP1 SWAP2 SUB SWAP1 REVERT JUMPDEST PUSH2 0x938 DUP4 DUP4 PUSH2 0x15C5 JUMP JUMPDEST POP POP POP JUMP JUMPDEST PUSH1 0x0 PUSH2 0x949 DUP4 DUP4 PUSH2 0xC75 JUMP JUMPDEST SWAP2 POP POP DUP1 CALLVALUE LT ISZERO PUSH2 0x98F JUMPI PUSH1 0x40 MLOAD PUSH32 0x8C379A000000000000000000000000000000000000000000000000000000000 DUP2 MSTORE PUSH1 0x4 ADD PUSH2 0x986 SWAP1 PUSH2 0x3780 JUMP JUMPDEST PUSH1 0x40 MLOAD DUP1 SWAP2 SUB SWAP1 REVERT JUMPDEST PUSH2 0x99A DUP6 DUP6 DUP6 PUSH2 0xAC7 JUMP JUMPDEST PUSH1 0x0 DUP2 CALLVALUE PUSH2 0x9A8 SWAP2 SWAP1 PUSH2 0x37CF JUMP JUMPDEST SWAP1 POP PUSH1 0x0 DUP2 GT ISZERO PUSH2 0xA61 JUMPI PUSH1 0x0 CALLER PUSH20 0xFFFFFFFFFFFFFFFFFFFFFFFFFFFFFFFFFFFFFFFF AND DUP3 PUSH1 0x40 MLOAD PUSH2 0x9D9 SWAP1 PUSH2 0x3834 JUMP JUMPDEST PUSH1 0x0 PUSH1 0x40 MLOAD DUP1 DUP4 SUB DUP2 DUP6 DUP8 GAS CALL SWAP3 POP POP POP RETURNDATASIZE DUP1 PUSH1 0x0 DUP2 EQ PUSH2 0xA16 JUMPI PUSH1 0x40 MLOAD SWAP2 POP PUSH1 0x1F NOT PUSH1 0x3F RETURNDATASIZE ADD AND DUP3 ADD PUSH1 0x40 MSTORE RETURNDATASIZE DUP3 MSTORE RETURNDATASIZE PUSH1 0x0 PUSH1 0x20 DUP5 ADD RETURNDATACOPY PUSH2 0xA1B JUMP JUMPDEST PUSH1 0x60 SWAP2 POP JUMPDEST POP POP SWAP1 POP DUP1 PUSH2 0xA5F JUMPI PUSH1 0x40 MLOAD PUSH32 0x8C379A000000000000000000000000000000000000000000000000000000000 DUP2 MSTORE PUSH1 0x4 ADD PUSH2 0xA56 SWAP1 PUSH2 0x3895 JUMP JUMPDEST PUSH1 0x40 MLOAD DUP1 SWAP2 SUB SWAP1 REVERT JUMPDEST POP JUMPDEST POP POP POP POP POP POP JUMP JUMPDEST PUSH8 0x16345785D8A0000 CALLVALUE EQ PUSH2 0xAB3 JUMPI PUSH1 0x40 MLOAD PUSH32 0x8C379A000000000000000000000000000000000000000000000000000000000 DUP2 MSTORE PUSH1 0x4 ADD PUSH2 0xAAA SWAP1 PUSH2 0x3901 JUMP JUMPDEST PUSH1 0x40 MLOAD DUP1 SWAP2 SUB SWAP1 REVERT JUMPDEST PUSH2 0xABB PUSH2 0x167E JUMP JUMPDEST JUMP JUMPDEST PUSH1 0x0 PUSH1 0xA SLOAD SWAP1 POP SWAP1 JUMP JUMPDEST PUSH2 0xAD8 PUSH2 0xAD2 PUSH2 0x15BD JUMP JUMPDEST DUP3 PUSH2 0x1735 JUMP JUMPDEST PUSH2 0xB17 JUMPI PUSH1 0x40 MLOAD PUSH32 0x8C379A000000000000000000000000000000000000000000000000000000000 DUP2 MSTORE PUSH1 0x4 ADD PUSH2 0xB0E SWAP1 PUSH2 0x3993 JUMP JUMPDEST PUSH1 0x40 MLOAD DUP1 SWAP2 SUB SWAP1 REVERT JUMPDEST PUSH2 0xB22 DUP4 DUP4 DUP4 PUSH2 0x17CA JUMP JUMPDEST POP POP POP JUMP JUMPDEST PUSH2 0xB2F PUSH2 0x1AC3 JUMP JUMPDEST PUSH1 0x0 SELFBALANCE SWAP1 POP PUSH1 0x0 DUP2 GT PUSH2 0xB77 JUMPI PUSH1 0x40 MLOAD PUSH32 0x8C379A000000000000000000000000000000000000000000000000000000000 DUP2 MSTORE PUSH1 0x4 ADD PUSH2 0xB6E SWAP1 PUSH2 0x39FF JUMP JUMPDEST PUSH1 0x40 MLOAD DUP1 SWAP2 SUB SWAP1 REVERT JUMPDEST PUSH1 0x0 CALLER PUSH20 0xFFFFFFFFFFFFFFFFFFFFFFFFFFFFFFFFFFFFFFFF AND DUP3 PUSH1 0x40 MLOAD PUSH2 0xB9D SWAP1 PUSH2 0x3834 JUMP JUMPDEST PUSH1 0x0 PUSH1 0x40 MLOAD DUP1 DUP4 SUB DUP2 DUP6 DUP8 GAS CALL SWAP3 POP POP POP RETURNDATASIZE DUP1 PUSH1 0x0 DUP2 EQ PUSH2 0xBDA JUMPI PUSH1 0x40 MLOAD SWAP2 POP PUSH1 0x1F NOT PUSH1 0x3F RETURNDATASIZE ADD AND DUP3 ADD PUSH1 0x40 MSTORE RETURNDATASIZE DUP3 MSTORE RETURNDATASIZE PUSH1 0x0 PUSH1 0x20 DUP5 ADD RETURNDATACOPY PUSH2 0xBDF JUMP JUMPDEST PUSH1 0x60 SWAP2 POP JUMPDEST POP POP SWAP1 POP DUP1 PUSH2 0xC23 JUMPI PUSH1 0x40 MLOAD PUSH32 0x8C379A000000000000000000000000000000000000000000000000000000000 DUP2 MSTORE PUSH1 0x4 ADD PUSH2 0xC1A SWAP1 PUSH2 0x3A6B JUMP JUMPDEST PUSH1 0x40 MLOAD DUP1 SWAP2 SUB SWAP1 REVERT JUMPDEST CALLER PUSH20 0xFFFFFFFFFFFFFFFFFFFFFFFFFFFFFFFFFFFFFFFF AND PUSH32 0xEAFF4B37086828766AD3268786972C0CD24259D4C87A80F9D3963A3C3D999B0D DUP4 PUSH1 0x40 MLOAD PUSH2 0xC69 SWAP2 SWAP1 PUSH2 0x2F95 JUMP JUMPDEST PUSH1 0x40 MLOAD DUP1 SWAP2 SUB SWAP1 LOG2 POP POP JUMP JUMPDEST PUSH1 0x0 DUP1 PUSH1 0x0 PUSH1 0x9 PUSH1 0x0 DUP7 DUP2 MSTORE PUSH1 0x20 ADD SWAP1 DUP2 MSTORE PUSH1 0x20 ADD PUSH1 0x0 KECCAK256 PUSH1 0x40 MLOAD DUP1 PUSH1 0x40 ADD PUSH1 0x40 MSTORE SWAP1 DUP2 PUSH1 0x0 DUP3 ADD PUSH1 0x0 SWAP1 SLOAD SWAP1 PUSH2 0x100 EXP SWAP1 DIV PUSH20 0xFFFFFFFFFFFFFFFFFFFFFFFFFFFFFFFFFFFFFFFF AND PUSH20 0xFFFFFFFFFFFFFFFFFFFFFFFFFFFFFFFFFFFFFFFF AND PUSH20 0xFFFFFFFFFFFFFFFFFFFFFFFFFFFFFFFFFFFFFFFF AND DUP2 MSTORE PUSH1 0x20 ADD PUSH1 0x0 DUP3 ADD PUSH1 0x14 SWAP1 SLOAD SWAP1 PUSH2 0x100 EXP SWAP1 DIV PUSH12 0xFFFFFFFFFFFFFFFFFFFFFFFF AND PUSH12 0xFFFFFFFFFFFFFFFFFFFFFFFF AND PUSH12 0xFFFFFFFFFFFFFFFFFFFFFFFF AND DUP2 MSTORE POP POP SWAP1 POP PUSH1 0x0 PUSH20 0xFFFFFFFFFFFFFFFFFFFFFFFFFFFFFFFFFFFFFFFF AND DUP2 PUSH1 0x0 ADD MLOAD PUSH20 0xFFFFFFFFFFFFFFFFFFFFFFFFFFFFFFFFFFFFFFFF AND SUB PUSH2 0xE0A JUMPI PUSH1 0x8 PUSH1 0x40 MLOAD DUP1 PUSH1 0x40 ADD PUSH1 0x40 MSTORE SWAP1 DUP2 PUSH1 0x0 DUP3 ADD PUSH1 0x0 SWAP1 SLOAD SWAP1 PUSH2 0x100 EXP SWAP1 DIV PUSH20 0xFFFFFFFFFFFFFFFFFFFFFFFFFFFFFFFFFFFFFFFF AND PUSH20 0xFFFFFFFFFFFFFFFFFFFFFFFFFFFFFFFFFFFFFFFF AND PUSH20 0xFFFFFFFFFFFFFFFFFFFFFFFFFFFFFFFFFFFFFFFF AND DUP2 MSTORE PUSH1 0x20 ADD PUSH1 0x0 DUP3 ADD PUSH1 0x14 SWAP1 SLOAD SWAP1 PUSH2 0x100 EXP SWAP1 DIV PUSH12 0xFFFFFFFFFFFFFFFFFFFFFFFF AND PUSH12 0xFFFFFFFFFFFFFFFFFFFFFFFF AND PUSH12 0xFFFFFFFFFFFFFFFFFFFFFFFF AND DUP2 MSTORE POP POP SWAP1 POP JUMPDEST PUSH1 0x0 PUSH2 0xE14 PUSH2 0x1B41 JUMP JUMPDEST PUSH12 0xFFFFFFFFFFFFFFFFFFFFFFFF AND DUP3 PUSH1 0x20 ADD MLOAD PUSH12 0xFFFFFFFFFFFFFFFFFFFFFFFF AND DUP7 PUSH2 0xE40 SWAP2 SWAP1 PUSH2 0x3A8B JUMP JUMPDEST PUSH2 0xE4A SWAP2 SWAP1 PUSH2 0x3AFC JUMP JUMPDEST SWAP1 POP DUP2 PUSH1 0x0 ADD MLOAD DUP2 SWAP4 POP SWAP4 POP POP POP SWAP3 POP SWAP3 SWAP1 POP JUMP JUMPDEST PUSH32 0x0 DUP2 JUMP JUMPDEST PUSH2 0x3E8 DUP2 JUMP JUMPDEST PUSH2 0xEA4 DUP4 DUP4 DUP4 PUSH1 0x40 MLOAD DUP1 PUSH1 0x20 ADD PUSH1 0x40 MSTORE DUP1 PUSH1 0x0 DUP2 MSTORE POP PUSH2 0x12B8 JUMP JUMPDEST POP POP POP JUMP JUMPDEST PUSH7 0xB1A2BC2EC50000 CALLVALUE EQ PUSH2 0xEF2 JUMPI PUSH1 0x40 MLOAD PUSH32 0x8C379A000000000000000000000000000000000000000000000000000000000 DUP2 MSTORE PUSH1 0x4 ADD PUSH2 0xEE9 SWAP1 PUSH2 0x3B79 JUMP JUMPDEST PUSH1 0x40 MLOAD DUP1 SWAP2 SUB SWAP1 REVERT JUMPDEST PUSH2 0xEFD PUSH1 0xC DUP4 PUSH2 0x1B4B JUMP JUMPDEST ISZERO PUSH2 0xF3D JUMPI PUSH1 0x40 MLOAD PUSH32 0x8C379A000000000000000000000000000000000000000000000000000000000 DUP2 MSTORE PUSH1 0x4 ADD PUSH2 0xF34 SWAP1 PUSH2 0x3BE5 JUMP JUMPDEST PUSH1 0x40 MLOAD DUP1 SWAP2 SUB SWAP1 REVERT JUMPDEST PUSH2 0xF8A DUP5 DUP5 DUP1 DUP1 PUSH1 0x20 MUL PUSH1 0x20 ADD PUSH1 0x40 MLOAD SWAP1 DUP2 ADD PUSH1 0x40 MSTORE DUP1 SWAP4 SWAP3 SWAP2 SWAP1 DUP2 DUP2 MSTORE PUSH1 0x20 ADD DUP4 DUP4 PUSH1 0x20 MUL DUP1 DUP3 DUP5 CALLDATACOPY PUSH1 0x0 DUP2 DUP5 ADD MSTORE PUSH1 0x1F NOT PUSH1 0x1F DUP3 ADD AND SWAP1 POP DUP1 DUP4 ADD SWAP3 POP POP POP POP POP POP POP DUP4 DUP4 CALLER PUSH2 0x1B87 JUMP JUMPDEST PUSH2 0xF97 PUSH1 0xC DUP4 PUSH1 0x1 PUSH2 0x1C4D JUMP JUMPDEST PUSH1 0x0 JUMPDEST DUP2 DUP2 LT ISZERO PUSH2 0xFB7 JUMPI PUSH2 0xFAA PUSH2 0x167E JUMP JUMPDEST DUP1 DUP1 PUSH1 0x1 ADD SWAP2 POP POP PUSH2 0xF9A JUMP JUMPDEST POP POP POP POP POP JUMP JUMPDEST PUSH1 0xFA DUP2 JUMP JUMPDEST PUSH2 0xFCB PUSH2 0x1AC3 JUMP JUMPDEST DUP1 PUSH1 0xB SWAP1 DUP2 PUSH2 0xFDA SWAP2 SWAP1 PUSH2 0x3DB1 JUMP JUMPDEST POP POP JUMP JUMPDEST PUSH2 0xFE6 PUSH2 0x1AC3 JUMP JUMPDEST PUSH2 0xFF1 DUP4 DUP4 DUP4 PUSH2 0x1C72 JUMP JUMPDEST POP POP POP JUMP JUMPDEST PUSH1 0x0 DUP1 PUSH2 0x1002 DUP4 PUSH2 0x1E19 JUMP JUMPDEST SWAP1 POP PUSH1 0x0 PUSH20 0xFFFFFFFFFFFFFFFFFFFFFFFFFFFFFFFFFFFFFFFF AND DUP2 PUSH20 0xFFFFFFFFFFFFFFFFFFFFFFFFFFFFFFFFFFFFFFFF AND SUB PUSH2 0x1073 JUMPI PUSH1 0x40 MLOAD PUSH32 0x8C379A000000000000000000000000000000000000000000000000000000000 DUP2 MSTORE PUSH1 0x4 ADD PUSH2 0x106A SWAP1 PUSH2 0x3ECF JUMP JUMPDEST PUSH1 0x40 MLOAD DUP1 SWAP2 SUB SWAP1 REVERT JUMPDEST DUP1 SWAP2 POP POP SWAP2 SWAP1 POP JUMP JUMPDEST PUSH8 0x16345785D8A0000 DUP2 JUMP JUMPDEST PUSH1 0x0 DUP1 PUSH20 0xFFFFFFFFFFFFFFFFFFFFFFFFFFFFFFFFFFFFFFFF AND DUP3 PUSH20 0xFFFFFFFFFFFFFFFFFFFFFFFFFFFFFFFFFFFFFFFF AND SUB PUSH2 0x10F8 JUMPI PUSH1 0x40 MLOAD PUSH32 0x8C379A000000000000000000000000000000000000000000000000000000000 DUP2 MSTORE PUSH1 0x4 ADD PUSH2 0x10EF SWAP1 PUSH2 0x3F61 JUMP JUMPDEST PUSH1 0x40 MLOAD DUP1 SWAP2 SUB SWAP1 REVERT JUMPDEST PUSH1 0x3 PUSH1 0x0 DUP4 PUSH20 0xFFFFFFFFFFFFFFFFFFFFFFFFFFFFFFFFFFFFFFFF AND PUSH20 0xFFFFFFFFFFFFFFFFFFFFFFFFFFFFFFFFFFFFFFFF AND DUP2 MSTORE PUSH1 0x20 ADD SWAP1 DUP2 MSTORE PUSH1 0x20 ADD PUSH1 0x0 KECCAK256 SLOAD SWAP1 POP SWAP2 SWAP1 POP JUMP JUMPDEST PUSH2 0x1147 PUSH2 0x1AC3 JUMP JUMPDEST PUSH2 0x1151 PUSH1 0x0 PUSH2 0x1E56 JUMP JUMPDEST JUMP JUMPDEST PUSH1 0x0 PUSH2 0x115D PUSH2 0x15BD JUMP JUMPDEST SWAP1 POP DUP1 PUSH20 0xFFFFFFFFFFFFFFFFFFFFFFFFFFFFFFFFFFFFFFFF AND PUSH2 0x117E PUSH2 0x138D JUMP JUMPDEST PUSH20 0xFFFFFFFFFFFFFFFFFFFFFFFFFFFFFFFFFFFFFFFF AND EQ PUSH2 0x11D4 JUMPI PUSH1 0x40 MLOAD PUSH32 0x8C379A000000000000000000000000000000000000000000000000000000000 DUP2 MSTORE PUSH1 0x4 ADD PUSH2 0x11CB SWAP1 PUSH2 0x3FF3 JUMP JUMPDEST PUSH1 0x40 MLOAD DUP1 SWAP2 SUB SWAP1 REVERT JUMPDEST PUSH2 0x11DD DUP2 PUSH2 0x1E56 JUMP JUMPDEST POP JUMP JUMPDEST PUSH1 0x0 PUSH1 0x6 PUSH1 0x0 SWAP1 SLOAD SWAP1 PUSH2 0x100 EXP SWAP1 DIV PUSH20 0xFFFFFFFFFFFFFFFFFFFFFFFFFFFFFFFFFFFFFFFF AND SWAP1 POP SWAP1 JUMP JUMPDEST PUSH1 0x60 PUSH1 0x1 DUP1 SLOAD PUSH2 0x1219 SWAP1 PUSH2 0x35DF JUMP JUMPDEST DUP1 PUSH1 0x1F ADD PUSH1 0x20 DUP1 SWAP2 DIV MUL PUSH1 0x20 ADD PUSH1 0x40 MLOAD SWAP1 DUP2 ADD PUSH1 0x40 MSTORE DUP1 SWAP3 SWAP2 SWAP1 DUP2 DUP2 MSTORE PUSH1 0x20 ADD DUP3 DUP1 SLOAD PUSH2 0x1245 SWAP1 PUSH2 0x35DF JUMP JUMPDEST DUP1 ISZERO PUSH2 0x1292 JUMPI DUP1 PUSH1 0x1F LT PUSH2 0x1267 JUMPI PUSH2 0x100 DUP1 DUP4 SLOAD DIV MUL DUP4 MSTORE SWAP2 PUSH1 0x20 ADD SWAP2 PUSH2 0x1292 JUMP JUMPDEST DUP3 ADD SWAP2 SWAP1 PUSH1 0x0 MSTORE PUSH1 0x20 PUSH1 0x0 KECCAK256 SWAP1 JUMPDEST DUP2 SLOAD DUP2 MSTORE SWAP1 PUSH1 0x1 ADD SWAP1 PUSH1 0x20 ADD DUP1 DUP4 GT PUSH2 0x1275 JUMPI DUP3 SWAP1 SUB PUSH1 0x1F AND DUP3 ADD SWAP2 JUMPDEST POP POP POP POP POP SWAP1 POP SWAP1 JUMP JUMPDEST PUSH1 0xA SLOAD DUP2 JUMP JUMPDEST PUSH2 0x12B4 PUSH2 0x12AD PUSH2 0x15BD JUMP JUMPDEST DUP4 DUP4 PUSH2 0x1E6D JUMP JUMPDEST POP POP JUMP JUMPDEST PUSH2 0x12C9 PUSH2 0x12C3 PUSH2 0x15BD JUMP JUMPDEST DUP4 PUSH2 0x1735 JUMP JUMPDEST PUSH2 0x1308 JUMPI PUSH1 0x40 MLOAD PUSH32 0x8C379A000000000000000000000000000000000000000000000000000000000 DUP2 MSTORE PUSH1 0x4 ADD PUSH2 0x12FF SWAP1 PUSH2 0x3993 JUMP JUMPDEST PUSH1 0x40 MLOAD DUP1 SWAP2 SUB SWAP1 REVERT JUMPDEST PUSH2 0x1314 DUP5 DUP5 DUP5 DUP5 PUSH2 0x1FD9 JUMP JUMPDEST POP POP POP POP JUMP JUMPDEST PUSH7 0xB1A2BC2EC50000 DUP2 JUMP JUMPDEST PUSH1 0x60 PUSH2 0x1330 DUP3 PUSH2 0x1572 JUMP JUMPDEST PUSH1 0x0 PUSH2 0x133A PUSH2 0x2035 JUMP JUMPDEST SWAP1 POP PUSH1 0x0 DUP2 MLOAD GT PUSH2 0x135A JUMPI PUSH1 0x40 MLOAD DUP1 PUSH1 0x20 ADD PUSH1 0x40 MSTORE DUP1 PUSH1 0x0 DUP2 MSTORE POP PUSH2 0x1385 JUMP JUMPDEST DUP1 PUSH2 0x1364 DUP5 PUSH2 0x20C7 JUMP JUMPDEST PUSH1 0x40 MLOAD PUSH1 0x20 ADD PUSH2 0x1375 SWAP3 SWAP2 SWAP1 PUSH2 0x404F JUMP JUMPDEST PUSH1 0x40 MLOAD PUSH1 0x20 DUP2 DUP4 SUB SUB DUP2 MSTORE SWAP1 PUSH1 0x40 MSTORE JUMPDEST SWAP2 POP POP SWAP2 SWAP1 POP JUMP JUMPDEST PUSH1 0x0 PUSH1 0x7 PUSH1 0x0 SWAP1 SLOAD SWAP1 PUSH2 0x100 EXP SWAP1 DIV PUSH20 0xFFFFFFFFFFFFFFFFFFFFFFFFFFFFFFFFFFFFFFFF AND SWAP1 POP SWAP1 JUMP JUMPDEST PUSH1 0x0 PUSH1 0x5 PUSH1 0x0 DUP5 PUSH20 0xFFFFFFFFFFFFFFFFFFFFFFFFFFFFFFFFFFFFFFFF AND PUSH20 0xFFFFFFFFFFFFFFFFFFFFFFFFFFFFFFFFFFFFFFFF AND DUP2 MSTORE PUSH1 0x20 ADD SWAP1 DUP2 MSTORE PUSH1 0x20 ADD PUSH1 0x0 KECCAK256 PUSH1 0x0 DUP4 PUSH20 0xFFFFFFFFFFFFFFFFFFFFFFFFFFFFFFFFFFFFFFFF AND PUSH20 0xFFFFFFFFFFFFFFFFFFFFFFFFFFFFFFFFFFFFFFFF AND DUP2 MSTORE PUSH1 0x20 ADD SWAP1 DUP2 MSTORE PUSH1 0x20 ADD PUSH1 0x0 KECCAK256 PUSH1 0x0 SWAP1 SLOAD SWAP1 PUSH2 0x100 EXP SWAP1 DIV PUSH1 0xFF AND SWAP1 POP SWAP3 SWAP2 POP POP JUMP JUMPDEST PUSH2 0x1453 PUSH2 0x1AC3 JUMP JUMPDEST DUP1 PUSH1 0x7 PUSH1 0x0 PUSH2 0x100 EXP DUP2 SLOAD DUP2 PUSH20 0xFFFFFFFFFFFFFFFFFFFFFFFFFFFFFFFFFFFFFFFF MUL NOT AND SWAP1 DUP4 PUSH20 0xFFFFFFFFFFFFFFFFFFFFFFFFFFFFFFFFFFFFFFFF AND MUL OR SWAP1 SSTORE POP DUP1 PUSH20 0xFFFFFFFFFFFFFFFFFFFFFFFFFFFFFFFFFFFFFFFF AND PUSH2 0x14B3 PUSH2 0x11E0 JUMP JUMPDEST PUSH20 0xFFFFFFFFFFFFFFFFFFFFFFFFFFFFFFFFFFFFFFFF AND PUSH32 0x38D16B8CAC22D99FC7C124B9CD0DE2D3FA1FAEF420BFE791D8C362D765E22700 PUSH1 0x40 MLOAD PUSH1 0x40 MLOAD DUP1 SWAP2 SUB SWAP1 LOG3 POP JUMP JUMPDEST PUSH1 0x0 PUSH32 0x2A55205A00000000000000000000000000000000000000000000000000000000 PUSH28 0xFFFFFFFFFFFFFFFFFFFFFFFFFFFFFFFFFFFFFFFFFFFFFFFFFFFFFFFF NOT AND DUP3 PUSH28 0xFFFFFFFFFFFFFFFFFFFFFFFFFFFFFFFFFFFFFFFFFFFFFFFFFFFFFFFF NOT AND EQ DUP1 PUSH2 0x156B JUMPI POP PUSH2 0x156A DUP3 PUSH2 0x2195 JUMP JUMPDEST JUMPDEST SWAP1 POP SWAP2 SWAP1 POP JUMP JUMPDEST PUSH2 0x157B DUP2 PUSH2 0x2277 JUMP JUMPDEST PUSH2 0x15BA JUMPI PUSH1 0x40 MLOAD PUSH32 0x8C379A000000000000000000000000000000000000000000000000000000000 DUP2 MSTORE PUSH1 0x4 ADD PUSH2 0x15B1 SWAP1 PUSH2 0x3ECF JUMP JUMPDEST PUSH1 0x40 MLOAD DUP1 SWAP2 SUB SWAP1 REVERT JUMPDEST POP JUMP JUMPDEST PUSH1 0x0 CALLER SWAP1 POP SWAP1 JUMP JUMPDEST DUP2 PUSH1 0x4 PUSH1 0x0 DUP4 DUP2 MSTORE PUSH1 0x20 ADD SWAP1 DUP2 MSTORE PUSH1 0x20 ADD PUSH1 0x0 KECCAK256 PUSH1 0x0 PUSH2 0x100 EXP DUP2 SLOAD DUP2 PUSH20 0xFFFFFFFFFFFFFFFFFFFFFFFFFFFFFFFFFFFFFFFF MUL NOT AND SWAP1 DUP4 PUSH20 0xFFFFFFFFFFFFFFFFFFFFFFFFFFFFFFFFFFFFFFFF AND MUL OR SWAP1 SSTORE POP DUP1 DUP3 PUSH20 0xFFFFFFFFFFFFFFFFFFFFFFFFFFFFFFFFFFFFFFFF AND PUSH2 0x1638 DUP4 PUSH2 0xFF6 JUMP JUMPDEST PUSH20 0xFFFFFFFFFFFFFFFFFFFFFFFFFFFFFFFFFFFFFFFF AND PUSH32 0x8C5BE1E5EBEC7D5BD14F71427D1E84F3DD0314C0F7B2291E5B200AC8C7C3B925 PUSH1 0x40 MLOAD PUSH1 0x40 MLOAD DUP1 SWAP2 SUB SWAP1 LOG4 POP POP JUMP JUMPDEST PUSH2 0x3E8 PUSH1 0xA SLOAD LT PUSH2 0x16C4 JUMPI PUSH1 0x40 MLOAD PUSH32 0x8C379A000000000000000000000000000000000000000000000000000000000 DUP2 MSTORE PUSH1 0x4 ADD PUSH2 0x16BB SWAP1 PUSH2 0x40E5 JUMP JUMPDEST PUSH1 0x40 MLOAD DUP1 SWAP2 SUB SWAP1 REVERT JUMPDEST PUSH1 0x0 PUSH1 0xA SLOAD SWAP1 POP PUSH1 0x1 PUSH1 0xA PUSH1 0x0 DUP3 DUP3 SLOAD PUSH2 0x16DE SWAP2 SWAP1 PUSH2 0x4105 JUMP JUMPDEST SWAP3 POP POP DUP2 SWAP1 SSTORE POP PUSH2 0x16EF CALLER DUP3 PUSH2 0x22B8 JUMP JUMPDEST CALLER PUSH20 0xFFFFFFFFFFFFFFFFFFFFFFFFFFFFFFFFFFFFFFFF AND PUSH32 0x90DDEDD5A25821BBA11FBB98DE02EC1F75C1BE90AE147D6450CE873E7B78B5D8 PUSH1 0x40 MLOAD PUSH1 0x40 MLOAD DUP1 SWAP2 SUB SWAP1 LOG2 POP JUMP JUMPDEST PUSH1 0x0 DUP1 PUSH2 0x1741 DUP4 PUSH2 0xFF6 JUMP JUMPDEST SWAP1 POP DUP1 PUSH20 0xFFFFFFFFFFFFFFFFFFFFFFFFFFFFFFFFFFFFFFFF AND DUP5 PUSH20 0xFFFFFFFFFFFFFFFFFFFFFFFFFFFFFFFFFFFFFFFF AND EQ DUP1 PUSH2 0x1783 JUMPI POP PUSH2 0x1782 DUP2 DUP6 PUSH2 0x13B7 JUMP JUMPDEST JUMPDEST DUP1 PUSH2 0x17C1 JUMPI POP DUP4 PUSH20 0xFFFFFFFFFFFFFFFFFFFFFFFFFFFFFFFFFFFFFFFF AND PUSH2 0x17A9 DUP5 PUSH2 0x7E0 JUMP JUMPDEST PUSH20 0xFFFFFFFFFFFFFFFFFFFFFFFFFFFFFFFFFFFFFFFF AND EQ JUMPDEST SWAP2 POP POP SWAP3 SWAP2 POP POP JUMP JUMPDEST DUP3 PUSH20 0xFFFFFFFFFFFFFFFFFFFFFFFFFFFFFFFFFFFFFFFF AND PUSH2 0x17EA DUP3 PUSH2 0xFF6 JUMP JUMPDEST PUSH20 0xFFFFFFFFFFFFFFFFFFFFFFFFFFFFFFFFFFFFFFFF AND EQ PUSH2 0x1840 JUMPI PUSH1 0x40 MLOAD PUSH32 0x8C379A000000000000000000000000000000000000000000000000000000000 DUP2 MSTORE PUSH1 0x4 ADD PUSH2 0x1837 SWAP1 PUSH2 0x41AB JUMP JUMPDEST PUSH1 0x40 MLOAD DUP1 SWAP2 SUB SWAP1 REVERT JUMPDEST PUSH1 0x0 PUSH20 0xFFFFFFFFFFFFFFFFFFFFFFFFFFFFFFFFFFFFFFFF AND DUP3 PUSH20 0xFFFFFFFFFFFFFFFFFFFFFFFFFFFFFFFFFFFFFFFF AND SUB PUSH2 0x18AF JUMPI PUSH1 0x40 MLOAD PUSH32 0x8C379A000000000000000000000000000000000000000000000000000000000 DUP2 MSTORE PUSH1 0x4 ADD PUSH2 0x18A6 SWAP1 PUSH2 0x423D JUMP JUMPDEST PUSH1 0x40 MLOAD DUP1 SWAP2 SUB SWAP1 REVERT JUMPDEST PUSH2 0x18BC DUP4 DUP4 DUP4 PUSH1 0x1 PUSH2 0x22D6 JUMP JUMPDEST DUP3 PUSH20 0xFFFFFFFFFFFFFFFFFFFFFFFFFFFFFFFFFFFFFFFF AND PUSH2 0x18DC DUP3 PUSH2 0xFF6 JUMP JUMPDEST PUSH20 0xFFFFFFFFFFFFFFFFFFFFFFFFFFFFFFFFFFFFFFFF AND EQ PUSH2 0x1932 JUMPI PUSH1 0x40 MLOAD PUSH32 0x8C379A000000000000000000000000000000000000000000000000000000000 DUP2 MSTORE PUSH1 0x4 ADD PUSH2 0x1929 SWAP1 PUSH2 0x41AB JUMP JUMPDEST PUSH1 0x40 MLOAD DUP1 SWAP2 SUB SWAP1 REVERT JUMPDEST PUSH1 0x4 PUSH1 0x0 DUP3 DUP2 MSTORE PUSH1 0x20 ADD SWAP1 DUP2 MSTORE PUSH1 0x20 ADD PUSH1 0x0 KECCAK256 PUSH1 0x0 PUSH2 0x100 EXP DUP2 SLOAD SWAP1 PUSH20 0xFFFFFFFFFFFFFFFFFFFFFFFFFFFFFFFFFFFFFFFF MUL NOT AND SWAP1 SSTORE PUSH1 0x1 PUSH1 0x3 PUSH1 0x0 DUP6 PUSH20 0xFFFFFFFFFFFFFFFFFFFFFFFFFFFFFFFFFFFFFFFF AND PUSH20 0xFFFFFFFFFFFFFFFFFFFFFFFFFFFFFFFFFFFFFFFF AND DUP2 MSTORE PUSH1 0x20 ADD SWAP1 DUP2 MSTORE PUSH1 0x20 ADD PUSH1 0x0 KECCAK256 PUSH1 0x0 DUP3 DUP3 SLOAD SUB SWAP3 POP POP DUP2 SWAP1 SSTORE POP PUSH1 0x1 PUSH1 0x3 PUSH1 0x0 DUP5 PUSH20 0xFFFFFFFFFFFFFFFFFFFFFFFFFFFFFFFFFFFFFFFF AND PUSH20 0xFFFFFFFFFFFFFFFFFFFFFFFFFFFFFFFFFFFFFFFF AND DUP2 MSTORE PUSH1 0x20 ADD SWAP1 DUP2 MSTORE PUSH1 0x20 ADD PUSH1 0x0 KECCAK256 PUSH1 0x0 DUP3 DUP3 SLOAD ADD SWAP3 POP POP DUP2 SWAP1 SSTORE POP DUP2 PUSH1 0x2 PUSH1 0x0 DUP4 DUP2 MSTORE PUSH1 0x20 ADD SWAP1 DUP2 MSTORE PUSH1 0x20 ADD PUSH1 0x0 KECCAK256 PUSH1 0x0 PUSH2 0x100 EXP DUP2 SLOAD DUP2 PUSH20 0xFFFFFFFFFFFFFFFFFFFFFFFFFFFFFFFFFFFFFFFF MUL NOT AND SWAP1 DUP4 PUSH20 0xFFFFFFFFFFFFFFFFFFFFFFFFFFFFFFFFFFFFFFFF AND MUL OR SWAP1 SSTORE POP DUP1 DUP3 PUSH20 0xFFFFFFFFFFFFFFFFFFFFFFFFFFFFFFFFFFFFFFFF AND DUP5 PUSH20 0xFFFFFFFFFFFFFFFFFFFFFFFFFFFFFFFFFFFFFFFF AND PUSH32 0xDDF252AD1BE2C89B69C2B068FC378DAA952BA7F163C4A11628F55A4DF523B3EF PUSH1 0x40 MLOAD PUSH1 0x40 MLOAD DUP1 SWAP2 SUB SWAP1 LOG4 PUSH2 0x1ABE DUP4 DUP4 DUP4 PUSH1 0x1 PUSH2 0x22DC JUMP JUMPDEST POP POP POP JUMP JUMPDEST PUSH2 0x1ACB PUSH2 0x15BD JUMP JUMPDEST PUSH20 0xFFFFFFFFFFFFFFFFFFFFFFFFFFFFFFFFFFFFFFFF AND PUSH2 0x1AE9 PUSH2 0x11E0 JUMP JUMPDEST PUSH20 0xFFFFFFFFFFFFFFFFFFFFFFFFFFFFFFFFFFFFFFFF AND EQ PUSH2 0x1B3F JUMPI PUSH1 0x40 MLOAD PUSH32 0x8C379A000000000000000000000000000000000000000000000000000000000 DUP2 MSTORE PUSH1 0x4 ADD PUSH2 0x1B36 SWAP1 PUSH2 0x42A9 JUMP JUMPDEST PUSH1 0x40 MLOAD DUP1 SWAP2 SUB SWAP1 REVERT JUMPDEST JUMP JUMPDEST PUSH1 0x0 PUSH2 0x2710 SWAP1 POP SWAP1 JUMP JUMPDEST PUSH1 0x0 DUP1 PUSH1 0x8 DUP4 SWAP1 SHR SWAP1 POP PUSH1 0x0 PUSH1 0xFF DUP5 AND PUSH1 0x1 SWAP1 SHL SWAP1 POP PUSH1 0x0 DUP2 DUP7 PUSH1 0x0 ADD PUSH1 0x0 DUP6 DUP2 MSTORE PUSH1 0x20 ADD SWAP1 DUP2 MSTORE PUSH1 0x20 ADD PUSH1 0x0 KECCAK256 SLOAD AND EQ ISZERO SWAP3 POP POP POP SWAP3 SWAP2 POP POP JUMP JUMPDEST PUSH1 0x0 DUP2 DUP5 DUP5 PUSH1 0x40 MLOAD PUSH1 0x20 ADD PUSH2 0x1B9E SWAP4 SWAP3 SWAP2 SWAP1 PUSH2 0x42C9 JUMP JUMPDEST PUSH1 0x40 MLOAD PUSH1 0x20 DUP2 DUP4 SUB SUB DUP2 MSTORE SWAP1 PUSH1 0x40 MSTORE DUP1 MLOAD SWAP1 PUSH1 0x20 ADD KECCAK256 PUSH1 0x40 MLOAD PUSH1 0x20 ADD PUSH2 0x1BC4 SWAP2 SWAP1 PUSH2 0x4321 JUMP JUMPDEST PUSH1 0x40 MLOAD PUSH1 0x20 DUP2 DUP4 SUB SUB DUP2 MSTORE SWAP1 PUSH1 0x40 MSTORE DUP1 MLOAD SWAP1 PUSH1 0x20 ADD KECCAK256 SWAP1 POP PUSH2 0x1C07 DUP6 PUSH32 0x0 DUP4 PUSH2 0x22E2 JUMP JUMPDEST PUSH2 0x1C46 JUMPI PUSH1 0x40 MLOAD PUSH32 0x8C379A000000000000000000000000000000000000000000000000000000000 DUP2 MSTORE PUSH1 0x4 ADD PUSH2 0x1C3D SWAP1 PUSH2 0x4388 JUMP JUMPDEST PUSH1 0x40 MLOAD DUP1 SWAP2 SUB SWAP1 REVERT JUMPDEST POP POP POP POP POP JUMP JUMPDEST DUP1 ISZERO PUSH2 0x1C62 JUMPI PUSH2 0x1C5D DUP4 DUP4 PUSH2 0x22F9 JUMP JUMPDEST PUSH2 0x1C6D JUMP JUMPDEST PUSH2 0x1C6C DUP4 DUP4 PUSH2 0x2337 JUMP JUMPDEST JUMPDEST POP POP POP JUMP JUMPDEST PUSH2 0x1C7A PUSH2 0x1B41 JUMP JUMPDEST PUSH12 0xFFFFFFFFFFFFFFFFFFFFFFFF AND DUP2 PUSH12 0xFFFFFFFFFFFFFFFFFFFFFFFF AND GT ISZERO PUSH2 0x1CD8 JUMPI PUSH1 0x40 MLOAD PUSH32 0x8C379A000000000000000000000000000000000000000000000000000000000 DUP2 MSTORE PUSH1 0x4 ADD PUSH2 0x1CCF SWAP1 PUSH2 0x441A JUMP JUMPDEST PUSH1 0x40 MLOAD DUP1 SWAP2 SUB SWAP1 REVERT JUMPDEST PUSH1 0x0 PUSH20 0xFFFFFFFFFFFFFFFFFFFFFFFFFFFFFFFFFFFFFFFF AND DUP3 PUSH20 0xFFFFFFFFFFFFFFFFFFFFFFFFFFFFFFFFFFFFFFFF AND SUB PUSH2 0x1D47 JUMPI PUSH1 0x40 MLOAD PUSH32 0x8C379A000000000000000000000000000000000000000000000000000000000 DUP2 MSTORE PUSH1 0x4 ADD PUSH2 0x1D3E SWAP1 PUSH2 0x4486 JUMP JUMPDEST PUSH1 0x40 MLOAD DUP1 SWAP2 SUB SWAP1 REVERT JUMPDEST PUSH1 0x40 MLOAD DUP1 PUSH1 0x40 ADD PUSH1 0x40 MSTORE DUP1 DUP4 PUSH20 0xFFFFFFFFFFFFFFFFFFFFFFFFFFFFFFFFFFFFFFFF AND DUP2 MSTORE PUSH1 0x20 ADD DUP3 PUSH12 0xFFFFFFFFFFFFFFFFFFFFFFFF AND DUP2 MSTORE POP PUSH1 0x9 PUSH1 0x0 DUP6 DUP2 MSTORE PUSH1 0x20 ADD SWAP1 DUP2 MSTORE PUSH1 0x20 ADD PUSH1 0x0 KECCAK256 PUSH1 0x0 DUP3 ADD MLOAD DUP2 PUSH1 0x0 ADD PUSH1 0x0 PUSH2 0x100 EXP DUP2 SLOAD DUP2 PUSH20 0xFFFFFFFFFFFFFFFFFFFFFFFFFFFFFFFFFFFFFFFF MUL NOT AND SWAP1 DUP4 PUSH20 0xFFFFFFFFFFFFFFFFFFFFFFFFFFFFFFFFFFFFFFFF AND MUL OR SWAP1 SSTORE POP PUSH1 0x20 DUP3 ADD MLOAD DUP2 PUSH1 0x0 ADD PUSH1 0x14 PUSH2 0x100 EXP DUP2 SLOAD DUP2 PUSH12 0xFFFFFFFFFFFFFFFFFFFFFFFF MUL NOT AND SWAP1 DUP4 PUSH12 0xFFFFFFFFFFFFFFFFFFFFFFFF AND MUL OR SWAP1 SSTORE POP SWAP1 POP POP POP POP POP JUMP JUMPDEST PUSH1 0x0 PUSH1 0x2 PUSH1 0x0 DUP4 DUP2 MSTORE PUSH1 0x20 ADD SWAP1 DUP2 MSTORE PUSH1 0x20 ADD PUSH1 0x0 KECCAK256 PUSH1 0x0 SWAP1 SLOAD SWAP1 PUSH2 0x100 EXP SWAP1 DIV PUSH20 0xFFFFFFFFFFFFFFFFFFFFFFFFFFFFFFFFFFFFFFFF AND SWAP1 POP SWAP2 SWAP1 POP JUMP JUMPDEST PUSH2 0x1E5F DUP2 PUSH2 0x2376 JUMP JUMPDEST PUSH2 0x1E6A DUP2 PUSH1 0xFA PUSH2 0x23A7 JUMP JUMPDEST POP JUMP JUMPDEST DUP2 PUSH20 0xFFFFFFFFFFFFFFFFFFFFFFFFFFFFFFFFFFFFFFFF AND DUP4 PUSH20 0xFFFFFFFFFFFFFFFFFFFFFFFFFFFFFFFFFFFFFFFF AND SUB PUSH2 0x1EDB JUMPI PUSH1 0x40 MLOAD PUSH32 0x8C379A000000000000000000000000000000000000000000000000000000000 DUP2 MSTORE PUSH1 0x4 ADD PUSH2 0x1ED2 SWAP1 PUSH2 0x44F2 JUMP JUMPDEST PUSH1 0x40 MLOAD DUP1 SWAP2 SUB SWAP1 REVERT JUMPDEST DUP1 PUSH1 0x5 PUSH1 0x0 DUP6 PUSH20 0xFFFFFFFFFFFFFFFFFFFFFFFFFFFFFFFFFFFFFFFF AND PUSH20 0xFFFFFFFFFFFFFFFFFFFFFFFFFFFFFFFFFFFFFFFF AND DUP2 MSTORE PUSH1 0x20 ADD SWAP1 DUP2 MSTORE PUSH1 0x20 ADD PUSH1 0x0 KECCAK256 PUSH1 0x0 DUP5 PUSH20 0xFFFFFFFFFFFFFFFFFFFFFFFFFFFFFFFFFFFFFFFF AND PUSH20 0xFFFFFFFFFFFFFFFFFFFFFFFFFFFFFFFFFFFFFFFF AND DUP2 MSTORE PUSH1 0x20 ADD SWAP1 DUP2 MSTORE PUSH1 0x20 ADD PUSH1 0x0 KECCAK256 PUSH1 0x0 PUSH2 0x100 EXP DUP2 SLOAD DUP2 PUSH1 0xFF MUL NOT AND SWAP1 DUP4 ISZERO ISZERO MUL OR SWAP1 SSTORE POP DUP2 PUSH20 0xFFFFFFFFFFFFFFFFFFFFFFFFFFFFFFFFFFFFFFFF AND DUP4 PUSH20 0xFFFFFFFFFFFFFFFFFFFFFFFFFFFFFFFFFFFFFFFF AND PUSH32 0x17307EAB39AB6107E8899845AD3D59BD9653F200F220920489CA2B5937696C31 DUP4 PUSH1 0x40 MLOAD PUSH2 0x1FCC SWAP2 SWAP1 PUSH2 0x2D27 JUMP JUMPDEST PUSH1 0x40 MLOAD DUP1 SWAP2 SUB SWAP1 LOG3 POP POP POP JUMP JUMPDEST PUSH2 0x1FE4 DUP5 DUP5 DUP5 PUSH2 0x17CA JUMP JUMPDEST PUSH2 0x1FF0 DUP5 DUP5 DUP5 DUP5 PUSH2 0x253C JUMP JUMPDEST PUSH2 0x202F JUMPI PUSH1 0x40 MLOAD PUSH32 0x8C379A000000000000000000000000000000000000000000000000000000000 DUP2 MSTORE PUSH1 0x4 ADD PUSH2 0x2026 SWAP1 PUSH2 0x4584 JUMP JUMPDEST PUSH1 0x40 MLOAD DUP1 SWAP2 SUB SWAP1 REVERT JUMPDEST POP POP POP POP JUMP JUMPDEST PUSH1 0x60 PUSH1 0xB DUP1 SLOAD PUSH2 0x2044 SWAP1 PUSH2 0x35DF JUMP JUMPDEST DUP1 PUSH1 0x1F ADD PUSH1 0x20 DUP1 SWAP2 DIV MUL PUSH1 0x20 ADD PUSH1 0x40 MLOAD SWAP1 DUP2 ADD PUSH1 0x40 MSTORE DUP1 SWAP3 SWAP2 SWAP1 DUP2 DUP2 MSTORE PUSH1 0x20 ADD DUP3 DUP1 SLOAD PUSH2 0x2070 SWAP1 PUSH2 0x35DF JUMP JUMPDEST DUP1 ISZERO PUSH2 0x20BD JUMPI DUP1 PUSH1 0x1F LT PUSH2 0x2092 JUMPI PUSH2 0x100 DUP1 DUP4 SLOAD DIV MUL DUP4 MSTORE SWAP2 PUSH1 0x20 ADD SWAP2 PUSH2 0x20BD JUMP JUMPDEST DUP3 ADD SWAP2 SWAP1 PUSH1 0x0 MSTORE PUSH1 0x20 PUSH1 0x0 KECCAK256 SWAP1 JUMPDEST DUP2 SLOAD DUP2 MSTORE SWAP1 PUSH1 0x1 ADD SWAP1 PUSH1 0x20 ADD DUP1 DUP4 GT PUSH2 0x20A0 JUMPI DUP3 SWAP1 SUB PUSH1 0x1F AND DUP3 ADD SWAP2 JUMPDEST POP POP POP POP POP SWAP1 POP SWAP1 JUMP JUMPDEST PUSH1 0x60 PUSH1 0x0 PUSH1 0x1 PUSH2 0x20D6 DUP5 PUSH2 0x26C3 JUMP JUMPDEST ADD SWAP1 POP PUSH1 0x0 DUP2 PUSH8 0xFFFFFFFFFFFFFFFF DUP2 GT ISZERO PUSH2 0x20F5 JUMPI PUSH2 0x20F4 PUSH2 0x31C0 JUMP JUMPDEST JUMPDEST PUSH1 0x40 MLOAD SWAP1 DUP1 DUP3 MSTORE DUP1 PUSH1 0x1F ADD PUSH1 0x1F NOT AND PUSH1 0x20 ADD DUP3 ADD PUSH1 0x40 MSTORE DUP1 ISZERO PUSH2 0x2127 JUMPI DUP2 PUSH1 0x20 ADD PUSH1 0x1 DUP3 MUL DUP1 CALLDATASIZE DUP4 CALLDATACOPY DUP1 DUP3 ADD SWAP2 POP POP SWAP1 POP JUMPDEST POP SWAP1 POP PUSH1 0x0 DUP3 PUSH1 0x20 ADD DUP3 ADD SWAP1 POP JUMPDEST PUSH1 0x1 ISZERO PUSH2 0x218A JUMPI DUP1 DUP1 PUSH1 0x1 SWAP1 SUB SWAP2 POP POP PUSH32 0x3031323334353637383961626364656600000000000000000000000000000000 PUSH1 0xA DUP7 MOD BYTE DUP2 MSTORE8 PUSH1 0xA DUP6 DUP2 PUSH2 0x217E JUMPI PUSH2 0x217D PUSH2 0x3ACD JUMP JUMPDEST JUMPDEST DIV SWAP5 POP PUSH1 0x0 DUP6 SUB PUSH2 0x2135 JUMPI JUMPDEST DUP2 SWAP4 POP POP POP POP SWAP2 SWAP1 POP JUMP JUMPDEST PUSH1 0x0 PUSH32 0x80AC58CD00000000000000000000000000000000000000000000000000000000 PUSH28 0xFFFFFFFFFFFFFFFFFFFFFFFFFFFFFFFFFFFFFFFFFFFFFFFFFFFFFFFF NOT AND DUP3 PUSH28 0xFFFFFFFFFFFFFFFFFFFFFFFFFFFFFFFFFFFFFFFFFFFFFFFFFFFFFFFF NOT AND EQ DUP1 PUSH2 0x2260 JUMPI POP PUSH32 0x5B5E139F00000000000000000000000000000000000000000000000000000000 PUSH28 0xFFFFFFFFFFFFFFFFFFFFFFFFFFFFFFFFFFFFFFFFFFFFFFFFFFFFFFFF NOT AND DUP3 PUSH28 0xFFFFFFFFFFFFFFFFFFFFFFFFFFFFFFFFFFFFFFFFFFFFFFFFFFFFFFFF NOT AND EQ JUMPDEST DUP1 PUSH2 0x2270 JUMPI POP PUSH2 0x226F DUP3 PUSH2 0x2816 JUMP JUMPDEST JUMPDEST SWAP1 POP SWAP2 SWAP1 POP JUMP JUMPDEST PUSH1 0x0 DUP1 PUSH20 0xFFFFFFFFFFFFFFFFFFFFFFFFFFFFFFFFFFFFFFFF AND PUSH2 0x2299 DUP4 PUSH2 0x1E19 JUMP JUMPDEST PUSH20 0xFFFFFFFFFFFFFFFFFFFFFFFFFFFFFFFFFFFFFFFF AND EQ ISZERO SWAP1 POP SWAP2 SWAP1 POP JUMP JUMPDEST PUSH2 0x22D2 DUP3 DUP3 PUSH1 0x40 MLOAD DUP1 PUSH1 0x20 ADD PUSH1 0x40 MSTORE DUP1 PUSH1 0x0 DUP2 MSTORE POP PUSH2 0x2880 JUMP JUMPDEST POP POP JUMP JUMPDEST POP POP POP POP JUMP JUMPDEST POP POP POP POP JUMP JUMPDEST PUSH1 0x0 DUP3 PUSH2 0x22EF DUP6 DUP5 PUSH2 0x28DB JUMP JUMPDEST EQ SWAP1 POP SWAP4 SWAP3 POP POP POP JUMP JUMPDEST PUSH1 0x0 PUSH1 0x8 DUP3 SWAP1 SHR SWAP1 POP PUSH1 0x0 PUSH1 0xFF DUP4 AND PUSH1 0x1 SWAP1 SHL SWAP1 POP DUP1 DUP5 PUSH1 0x0 ADD PUSH1 0x0 DUP5 DUP2 MSTORE PUSH1 0x20 ADD SWAP1 DUP2 MSTORE PUSH1 0x20 ADD PUSH1 0x0 KECCAK256 PUSH1 0x0 DUP3 DUP3 SLOAD OR SWAP3 POP POP DUP2 SWAP1 SSTORE POP POP POP POP POP JUMP JUMPDEST PUSH1 0x0 PUSH1 0x8 DUP3 SWAP1 SHR SWAP1 POP PUSH1 0x0 PUSH1 0xFF DUP4 AND PUSH1 0x1 SWAP1 SHL SWAP1 POP DUP1 NOT DUP5 PUSH1 0x0 ADD PUSH1 0x0 DUP5 DUP2 MSTORE PUSH1 0x20 ADD SWAP1 DUP2 MSTORE PUSH1 0x20 ADD PUSH1 0x0 KECCAK256 PUSH1 0x0 DUP3 DUP3 SLOAD AND SWAP3 POP POP DUP2 SWAP1 SSTORE POP POP POP POP POP JUMP JUMPDEST PUSH1 0x7 PUSH1 0x0 PUSH2 0x100 EXP DUP2 SLOAD SWAP1 PUSH20 0xFFFFFFFFFFFFFFFFFFFFFFFFFFFFFFFFFFFFFFFF MUL NOT AND SWAP1 SSTORE PUSH2 0x23A4 DUP2 PUSH2 0x292B JUMP JUMPDEST POP JUMP JUMPDEST PUSH2 0x23AF PUSH2 0x1B41 JUMP JUMPDEST PUSH12 0xFFFFFFFFFFFFFFFFFFFFFFFF AND DUP2 PUSH12 0xFFFFFFFFFFFFFFFFFFFFFFFF AND GT ISZERO PUSH2 0x240D JUMPI PUSH1 0x40 MLOAD PUSH32 0x8C379A000000000000000000000000000000000000000000000000000000000 DUP2 MSTORE PUSH1 0x4 ADD PUSH2 0x2404 SWAP1 PUSH2 0x441A JUMP JUMPDEST PUSH1 0x40 MLOAD DUP1 SWAP2 SUB SWAP1 REVERT JUMPDEST PUSH1 0x0 PUSH20 0xFFFFFFFFFFFFFFFFFFFFFFFFFFFFFFFFFFFFFFFF AND DUP3 PUSH20 0xFFFFFFFFFFFFFFFFFFFFFFFFFFFFFFFFFFFFFFFF AND SUB PUSH2 0x247C JUMPI PUSH1 0x40 MLOAD PUSH32 0x8C379A000000000000000000000000000000000000000000000000000000000 DUP2 MSTORE PUSH1 0x4 ADD PUSH2 0x2473 SWAP1 PUSH2 0x45F0 JUMP JUMPDEST PUSH1 0x40 MLOAD DUP1 SWAP2 SUB SWAP1 REVERT JUMPDEST PUSH1 0x40 MLOAD DUP1 PUSH1 0x40 ADD PUSH1 0x40 MSTORE DUP1 DUP4 PUSH20 0xFFFFFFFFFFFFFFFFFFFFFFFFFFFFFFFFFFFFFFFF AND DUP2 MSTORE PUSH1 0x20 ADD DUP3 PUSH12 0xFFFFFFFFFFFFFFFFFFFFFFFF AND DUP2 MSTORE POP PUSH1 0x8 PUSH1 0x0 DUP3 ADD MLOAD DUP2 PUSH1 0x0 ADD PUSH1 0x0 PUSH2 0x100 EXP DUP2 SLOAD DUP2 PUSH20 0xFFFFFFFFFFFFFFFFFFFFFFFFFFFFFFFFFFFFFFFF MUL NOT AND SWAP1 DUP4 PUSH20 0xFFFFFFFFFFFFFFFFFFFFFFFFFFFFFFFFFFFFFFFF AND MUL OR SWAP1 SSTORE POP PUSH1 0x20 DUP3 ADD MLOAD DUP2 PUSH1 0x0 ADD PUSH1 0x14 PUSH2 0x100 EXP DUP2 SLOAD DUP2 PUSH12 0xFFFFFFFFFFFFFFFFFFFFFFFF MUL NOT AND SWAP1 DUP4 PUSH12 0xFFFFFFFFFFFFFFFFFFFFFFFF AND MUL OR SWAP1 SSTORE POP SWAP1 POP POP POP POP JUMP JUMPDEST PUSH1 0x0 PUSH2 0x255D DUP5 PUSH20 0xFFFFFFFFFFFFFFFFFFFFFFFFFFFFFFFFFFFFFFFF AND PUSH2 0x29F1 JUMP JUMPDEST ISZERO PUSH2 0x26B6 JUMPI DUP4 PUSH20 0xFFFFFFFFFFFFFFFFFFFFFFFFFFFFFFFFFFFFFFFF AND PUSH4 0x150B7A02 PUSH2 0x2586 PUSH2 0x15BD JUMP JUMPDEST DUP8 DUP7 DUP7 PUSH1 0x40 MLOAD DUP6 PUSH4 0xFFFFFFFF AND PUSH1 0xE0 SHL DUP2 MSTORE PUSH1 0x4 ADD PUSH2 0x25A8 SWAP5 SWAP4 SWAP3 SWAP2 SWAP1 PUSH2 0x4665 JUMP JUMPDEST PUSH1 0x20 PUSH1 0x40 MLOAD DUP1 DUP4 SUB DUP2 PUSH1 0x0 DUP8 GAS CALL SWAP3 POP POP POP DUP1 ISZERO PUSH2 0x25E4 JUMPI POP PUSH1 0x40 MLOAD RETURNDATASIZE PUSH1 0x1F NOT PUSH1 0x1F DUP3 ADD AND DUP3 ADD DUP1 PUSH1 0x40 MSTORE POP DUP2 ADD SWAP1 PUSH2 0x25E1 SWAP2 SWAP1 PUSH2 0x46C6 JUMP JUMPDEST PUSH1 0x1 JUMPDEST PUSH2 0x2666 JUMPI RETURNDATASIZE DUP1 PUSH1 0x0 DUP2 EQ PUSH2 0x2614 JUMPI PUSH1 0x40 MLOAD SWAP2 POP PUSH1 0x1F NOT PUSH1 0x3F RETURNDATASIZE ADD AND DUP3 ADD PUSH1 0x40 MSTORE RETURNDATASIZE DUP3 MSTORE RETURNDATASIZE PUSH1 0x0 PUSH1 0x20 DUP5 ADD RETURNDATACOPY PUSH2 0x2619 JUMP JUMPDEST PUSH1 0x60 SWAP2 POP JUMPDEST POP PUSH1 0x0 DUP2 MLOAD SUB PUSH2 0x265E JUMPI PUSH1 0x40 MLOAD PUSH32 0x8C379A000000000000000000000000000000000000000000000000000000000 DUP2 MSTORE PUSH1 0x4 ADD PUSH2 0x2655 SWAP1 PUSH2 0x4584 JUMP JUMPDEST PUSH1 0x40 MLOAD DUP1 SWAP2 SUB SWAP1 REVERT JUMPDEST DUP1 MLOAD DUP2 PUSH1 0x20 ADD REVERT JUMPDEST PUSH4 0x150B7A02 PUSH1 0xE0 SHL PUSH28 0xFFFFFFFFFFFFFFFFFFFFFFFFFFFFFFFFFFFFFFFFFFFFFFFFFFFFFFFF NOT AND DUP2 PUSH28 0xFFFFFFFFFFFFFFFFFFFFFFFFFFFFFFFFFFFFFFFFFFFFFFFFFFFFFFFF NOT AND EQ SWAP2 POP POP PUSH2 0x26BB JUMP JUMPDEST PUSH1 0x1 SWAP1 POP JUMPDEST SWAP5 SWAP4 POP POP POP POP JUMP JUMPDEST PUSH1 0x0 DUP1 PUSH1 0x0 SWAP1 POP PUSH27 0x184F03E93FF9F4DAA797ED6E38ED64BF6A1F010000000000000000 DUP4 LT PUSH2 0x2721 JUMPI PUSH27 0x184F03E93FF9F4DAA797ED6E38ED64BF6A1F010000000000000000 DUP4 DUP2 PUSH2 0x2717 JUMPI PUSH2 0x2716 PUSH2 0x3ACD JUMP JUMPDEST JUMPDEST DIV SWAP3 POP PUSH1 0x40 DUP2 ADD SWAP1 POP JUMPDEST PUSH14 0x4EE2D6D415B85ACEF8100000000 DUP4 LT PUSH2 0x275E JUMPI PUSH14 0x4EE2D6D415B85ACEF8100000000 DUP4 DUP2 PUSH2 0x2754 JUMPI PUSH2 0x2753 PUSH2 0x3ACD JUMP JUMPDEST JUMPDEST DIV SWAP3 POP PUSH1 0x20 DUP2 ADD SWAP1 POP JUMPDEST PUSH7 0x2386F26FC10000 DUP4 LT PUSH2 0x278D JUMPI PUSH7 0x2386F26FC10000 DUP4 DUP2 PUSH2 0x2783 JUMPI PUSH2 0x2782 PUSH2 0x3ACD JUMP JUMPDEST JUMPDEST DIV SWAP3 POP PUSH1 0x10 DUP2 ADD SWAP1 POP JUMPDEST PUSH4 0x5F5E100 DUP4 LT PUSH2 0x27B6 JUMPI PUSH4 0x5F5E100 DUP4 DUP2 PUSH2 0x27AC JUMPI PUSH2 0x27AB PUSH2 0x3ACD JUMP JUMPDEST JUMPDEST DIV SWAP3 POP PUSH1 0x8 DUP2 ADD SWAP1 POP JUMPDEST PUSH2 0x2710 DUP4 LT PUSH2 0x27DB JUMPI PUSH2 0x2710 DUP4 DUP2 PUSH2 0x27D1 JUMPI PUSH2 0x27D0 PUSH2 0x3ACD JUMP JUMPDEST JUMPDEST DIV SWAP3 POP PUSH1 0x4 DUP2 ADD SWAP1 POP JUMPDEST PUSH1 0x64 DUP4 LT PUSH2 0x27FE JUMPI PUSH1 0x64 DUP4 DUP2 PUSH2 0x27F4 JUMPI PUSH2 0x27F3 PUSH2 0x3ACD JUMP JUMPDEST JUMPDEST DIV SWAP3 POP PUSH1 0x2 DUP2 ADD SWAP1 POP JUMPDEST PUSH1 0xA DUP4 LT PUSH2 0x280D JUMPI PUSH1 0x1 DUP2 ADD SWAP1 POP JUMPDEST DUP1 SWAP2 POP POP SWAP2 SWAP1 POP JUMP JUMPDEST PUSH1 0x0 PUSH32 0x1FFC9A700000000000000000000000000000000000000000000000000000000 PUSH28 0xFFFFFFFFFFFFFFFFFFFFFFFFFFFFFFFFFFFFFFFFFFFFFFFFFFFFFFFF NOT AND DUP3 PUSH28 0xFFFFFFFFFFFFFFFFFFFFFFFFFFFFFFFFFFFFFFFFFFFFFFFFFFFFFFFF NOT AND EQ SWAP1 POP SWAP2 SWAP1 POP JUMP JUMPDEST PUSH2 0x288A DUP4 DUP4 PUSH2 0x2A14 JUMP JUMPDEST PUSH2 0x2897 PUSH1 0x0 DUP5 DUP5 DUP5 PUSH2 0x253C JUMP JUMPDEST PUSH2 0x28D6 JUMPI PUSH1 0x40 MLOAD PUSH32 0x8C379A000000000000000000000000000000000000000000000000000000000 DUP2 MSTORE PUSH1 0x4 ADD PUSH2 0x28CD SWAP1 PUSH2 0x4584 JUMP JUMPDEST PUSH1 0x40 MLOAD DUP1 SWAP2 SUB SWAP1 REVERT JUMPDEST POP POP POP JUMP JUMPDEST PUSH1 0x0 DUP1 DUP3 SWAP1 POP PUSH1 0x0 JUMPDEST DUP5 MLOAD DUP2 LT ISZERO PUSH2 0x2920 JUMPI PUSH2 0x2911 DUP3 DUP7 DUP4 DUP2 MLOAD DUP2 LT PUSH2 0x2904 JUMPI PUSH2 0x2903 PUSH2 0x46F3 JUMP JUMPDEST JUMPDEST PUSH1 0x20 MUL PUSH1 0x20 ADD ADD MLOAD PUSH2 0x2C31 JUMP JUMPDEST SWAP2 POP DUP1 DUP1 PUSH1 0x1 ADD SWAP2 POP POP PUSH2 0x28E4 JUMP JUMPDEST POP DUP1 SWAP2 POP POP SWAP3 SWAP2 POP POP JUMP JUMPDEST PUSH1 0x0 PUSH1 0x6 PUSH1 0x0 SWAP1 SLOAD SWAP1 PUSH2 0x100 EXP SWAP1 DIV PUSH20 0xFFFFFFFFFFFFFFFFFFFFFFFFFFFFFFFFFFFFFFFF AND SWAP1 POP DUP2 PUSH1 0x6 PUSH1 0x0 PUSH2 0x100 EXP DUP2 SLOAD DUP2 PUSH20 0xFFFFFFFFFFFFFFFFFFFFFFFFFFFFFFFFFFFFFFFF MUL NOT AND SWAP1 DUP4 PUSH20 0xFFFFFFFFFFFFFFFFFFFFFFFFFFFFFFFFFFFFFFFF AND MUL OR SWAP1 SSTORE POP DUP2 PUSH20 0xFFFFFFFFFFFFFFFFFFFFFFFFFFFFFFFFFFFFFFFF AND DUP2 PUSH20 0xFFFFFFFFFFFFFFFFFFFFFFFFFFFFFFFFFFFFFFFF AND PUSH32 0x8BE0079C531659141344CD1FD0A4F28419497F9722A3DAAFE3B4186F6B6457E0 PUSH1 0x40 MLOAD PUSH1 0x40 MLOAD DUP1 SWAP2 SUB SWAP1 LOG3 POP POP JUMP JUMPDEST PUSH1 0x0 DUP1 DUP3 PUSH20 0xFFFFFFFFFFFFFFFFFFFFFFFFFFFFFFFFFFFFFFFF AND EXTCODESIZE GT SWAP1 POP SWAP2 SWAP1 POP JUMP JUMPDEST PUSH1 0x0 PUSH20 0xFFFFFFFFFFFFFFFFFFFFFFFFFFFFFFFFFFFFFFFF AND DUP3 PUSH20 0xFFFFFFFFFFFFFFFFFFFFFFFFFFFFFFFFFFFFFFFF AND SUB PUSH2 0x2A83 JUMPI PUSH1 0x40 MLOAD PUSH32 0x8C379A000000000000000000000000000000000000000000000000000000000 DUP2 MSTORE PUSH1 0x4 ADD PUSH2 0x2A7A SWAP1 PUSH2 0x476E JUMP JUMPDEST PUSH1 0x40 MLOAD DUP1 SWAP2 SUB SWAP1 REVERT JUMPDEST PUSH2 0x2A8C DUP2 PUSH2 0x2277 JUMP JUMPDEST ISZERO PUSH2 0x2ACC JUMPI PUSH1 0x40 MLOAD PUSH32 0x8C379A000000000000000000000000000000000000000000000000000000000 DUP2 MSTORE PUSH1 0x4 ADD PUSH2 0x2AC3 SWAP1 PUSH2 0x47DA JUMP JUMPDEST PUSH1 0x40 MLOAD DUP1 SWAP2 SUB SWAP1 REVERT JUMPDEST PUSH2 0x2ADA PUSH1 0x0 DUP4 DUP4 PUSH1 0x1 PUSH2 0x22D6 JUMP JUMPDEST PUSH2 0x2AE3 DUP2 PUSH2 0x2277 JUMP JUMPDEST ISZERO PUSH2 0x2B23 JUMPI PUSH1 0x40 MLOAD PUSH32 0x8C379A000000000000000000000000000000000000000000000000000000000 DUP2 MSTORE PUSH1 0x4 ADD PUSH2 0x2B1A SWAP1 PUSH2 0x47DA JUMP JUMPDEST PUSH1 0x40 MLOAD DUP1 SWAP2 SUB SWAP1 REVERT JUMPDEST PUSH1 0x1 PUSH1 0x3 PUSH1 0x0 DUP5 PUSH20 0xFFFFFFFFFFFFFFFFFFFFFFFFFFFFFFFFFFFFFFFF AND PUSH20 0xFFFFFFFFFFFFFFFFFFFFFFFFFFFFFFFFFFFFFFFF AND DUP2 MSTORE PUSH1 0x20 ADD SWAP1 DUP2 MSTORE PUSH1 0x20 ADD PUSH1 0x0 KECCAK256 PUSH1 0x0 DUP3 DUP3 SLOAD ADD SWAP3 POP POP DUP2 SWAP1 SSTORE POP DUP2 PUSH1 0x2 PUSH1 0x0 DUP4 DUP2 MSTORE PUSH1 0x20 ADD SWAP1 DUP2 MSTORE PUSH1 0x20 ADD PUSH1 0x0 KECCAK256 PUSH1 0x0 PUSH2 0x100 EXP DUP2 SLOAD DUP2 PUSH20 0xFFFFFFFFFFFFFFFFFFFFFFFFFFFFFFFFFFFFFFFF MUL NOT AND SWAP1 DUP4 PUSH20 0xFFFFFFFFFFFFFFFFFFFFFFFFFFFFFFFFFFFFFFFF AND MUL OR SWAP1 SSTORE POP DUP1 DUP3 PUSH20 0xFFFFFFFFFFFFFFFFFFFFFFFFFFFFFFFFFFFFFFFF AND PUSH1 0x0 PUSH20 0xFFFFFFFFFFFFFFFFFFFFFFFFFFFFFFFFFFFFFFFF AND PUSH32 0xDDF252AD1BE2C89B69C2B068FC378DAA952BA7F163C4A11628F55A4DF523B3EF PUSH1 0x40 MLOAD PUSH1 0x40 MLOAD DUP1 SWAP2 SUB SWAP1 LOG4 PUSH2 0x2C2D PUSH1 0x0 DUP4 DUP4 PUSH1 0x1 PUSH2 0x22DC JUMP JUMPDEST POP POP JUMP JUMPDEST PUSH1 0x0 DUP2 DUP4 LT PUSH2 0x2C49 JUMPI PUSH2 0x2C44 DUP3 DUP5 PUSH2 0x2C5C JUMP JUMPDEST PUSH2 0x2C54 JUMP JUMPDEST PUSH2 0x2C53 DUP4 DUP4 PUSH2 0x2C5C JUMP JUMPDEST JUMPDEST SWAP1 POP SWAP3 SWAP2 POP POP JUMP JUMPDEST PUSH1 0x0 DUP3 PUSH1 0x0 MSTORE DUP2 PUSH1 0x20 MSTORE PUSH1 0x40 PUSH1 0x0 KECCAK256 SWAP1 POP SWAP3 SWAP2 POP POP JUMP JUMPDEST PUSH1 0x0 PUSH1 0x40 MLOAD SWAP1 POP SWAP1 JUMP JUMPDEST PUSH1 0x0 DUP1 REVERT JUMPDEST PUSH1 0x0 DUP1 REVERT JUMPDEST PUSH1 0x0 PUSH32 0xFFFFFFFF00000000000000000000000000000000000000000000000000000000 DUP3 AND SWAP1 POP SWAP2 SWAP1 POP JUMP JUMPDEST PUSH2 0x2CBC DUP2 PUSH2 0x2C87 JUMP JUMPDEST DUP2 EQ PUSH2 0x2CC7 JUMPI PUSH1 0x0 DUP1 REVERT JUMPDEST POP JUMP JUMPDEST PUSH1 0x0 DUP2 CALLDATALOAD SWAP1 POP PUSH2 0x2CD9 DUP2 PUSH2 0x2CB3 JUMP JUMPDEST SWAP3 SWAP2 POP POP JUMP JUMPDEST PUSH1 0x0 PUSH1 0x20 DUP3 DUP5 SUB SLT ISZERO PUSH2 0x2CF5 JUMPI PUSH2 0x2CF4 PUSH2 0x2C7D JUMP JUMPDEST JUMPDEST PUSH1 0x0 PUSH2 0x2D03 DUP5 DUP3 DUP6 ADD PUSH2 0x2CCA JUMP JUMPDEST SWAP2 POP POP SWAP3 SWAP2 POP POP JUMP JUMPDEST PUSH1 0x0 DUP2 ISZERO ISZERO SWAP1 POP SWAP2 SWAP1 POP JUMP JUMPDEST PUSH2 0x2D21 DUP2 PUSH2 0x2D0C JUMP JUMPDEST DUP3 MSTORE POP POP JUMP JUMPDEST PUSH1 0x0 PUSH1 0x20 DUP3 ADD SWAP1 POP PUSH2 0x2D3C PUSH1 0x0 DUP4 ADD DUP5 PUSH2 0x2D18 JUMP JUMPDEST SWAP3 SWAP2 POP POP JUMP JUMPDEST PUSH1 0x0 DUP2 MLOAD SWAP1 POP SWAP2 SWAP1 POP JUMP JUMPDEST PUSH1 0x0 DUP3 DUP3 MSTORE PUSH1 0x20 DUP3 ADD SWAP1 POP SWAP3 SWAP2 POP POP JUMP JUMPDEST PUSH1 0x0 JUMPDEST DUP4 DUP2 LT ISZERO PUSH2 0x2D7C JUMPI DUP1 DUP3 ADD MLOAD DUP2 DUP5 ADD MSTORE PUSH1 0x20 DUP2 ADD SWAP1 POP PUSH2 0x2D61 JUMP JUMPDEST PUSH1 0x0 DUP5 DUP5 ADD MSTORE POP POP POP POP JUMP JUMPDEST PUSH1 0x0 PUSH1 0x1F NOT PUSH1 0x1F DUP4 ADD AND SWAP1 POP SWAP2 SWAP1 POP JUMP JUMPDEST PUSH1 0x0 PUSH2 0x2DA4 DUP3 PUSH2 0x2D42 JUMP JUMPDEST PUSH2 0x2DAE DUP2 DUP6 PUSH2 0x2D4D JUMP JUMPDEST SWAP4 POP PUSH2 0x2DBE DUP2 DUP6 PUSH1 0x20 DUP7 ADD PUSH2 0x2D5E JUMP JUMPDEST PUSH2 0x2DC7 DUP2 PUSH2 0x2D88 JUMP JUMPDEST DUP5 ADD SWAP2 POP POP SWAP3 SWAP2 POP POP JUMP JUMPDEST PUSH1 0x0 PUSH1 0x20 DUP3 ADD SWAP1 POP DUP2 DUP2 SUB PUSH1 0x0 DUP4 ADD MSTORE PUSH2 0x2DEC DUP2 DUP5 PUSH2 0x2D99 JUMP JUMPDEST SWAP1 POP SWAP3 SWAP2 POP POP JUMP JUMPDEST PUSH1 0x0 DUP2 SWAP1 POP SWAP2 SWAP1 POP JUMP JUMPDEST PUSH2 0x2E07 DUP2 PUSH2 0x2DF4 JUMP JUMPDEST DUP2 EQ PUSH2 0x2E12 JUMPI PUSH1 0x0 DUP1 REVERT JUMPDEST POP JUMP JUMPDEST PUSH1 0x0 DUP2 CALLDATALOAD SWAP1 POP PUSH2 0x2E24 DUP2 PUSH2 0x2DFE JUMP JUMPDEST SWAP3 SWAP2 POP POP JUMP JUMPDEST PUSH1 0x0 PUSH1 0x20 DUP3 DUP5 SUB SLT ISZERO PUSH2 0x2E40 JUMPI PUSH2 0x2E3F PUSH2 0x2C7D JUMP JUMPDEST JUMPDEST PUSH1 0x0 PUSH2 0x2E4E DUP5 DUP3 DUP6 ADD PUSH2 0x2E15 JUMP JUMPDEST SWAP2 POP POP SWAP3 SWAP2 POP POP JUMP JUMPDEST PUSH1 0x0 PUSH20 0xFFFFFFFFFFFFFFFFFFFFFFFFFFFFFFFFFFFFFFFF DUP3 AND SWAP1 POP SWAP2 SWAP1 POP JUMP JUMPDEST PUSH1 0x0 PUSH2 0x2E82 DUP3 PUSH2 0x2E57 JUMP JUMPDEST SWAP1 POP SWAP2 SWAP1 POP JUMP JUMPDEST PUSH2 0x2E92 DUP2 PUSH2 0x2E77 JUMP JUMPDEST DUP3 MSTORE POP POP JUMP JUMPDEST PUSH1 0x0 PUSH1 0x20 DUP3 ADD SWAP1 POP PUSH2 0x2EAD PUSH1 0x0 DUP4 ADD DUP5 PUSH2 0x2E89 JUMP JUMPDEST SWAP3 SWAP2 POP POP JUMP JUMPDEST PUSH2 0x2EBC DUP2 PUSH2 0x2E77 JUMP JUMPDEST DUP2 EQ PUSH2 0x2EC7 JUMPI PUSH1 0x0 DUP1 REVERT JUMPDEST POP JUMP JUMPDEST PUSH1 0x0 DUP2 CALLDATALOAD SWAP1 POP PUSH2 0x2ED9 DUP2 PUSH2 0x2EB3 JUMP JUMPDEST SWAP3 SWAP2 POP POP JUMP JUMPDEST PUSH1 0x0 DUP1 PUSH1 0x40 DUP4 DUP6 SUB SLT ISZERO PUSH2 0x2EF6 JUMPI PUSH2 0x2EF5 PUSH2 0x2C7D JUMP JUMPDEST JUMPDEST PUSH1 0x0 PUSH2 0x2F04 DUP6 DUP3 DUP7 ADD PUSH2 0x2ECA JUMP JUMPDEST SWAP3 POP POP PUSH1 0x20 PUSH2 0x2F15 DUP6 DUP3 DUP7 ADD PUSH2 0x2E15 JUMP JUMPDEST SWAP2 POP POP SWAP3 POP SWAP3 SWAP1 POP JUMP JUMPDEST PUSH1 0x0 DUP1 PUSH1 0x0 DUP1 PUSH1 0x80 DUP6 DUP8 SUB SLT ISZERO PUSH2 0x2F39 JUMPI PUSH2 0x2F38 PUSH2 0x2C7D JUMP JUMPDEST JUMPDEST PUSH1 0x0 PUSH2 0x2F47 DUP8 DUP3 DUP9 ADD PUSH2 0x2ECA JUMP JUMPDEST SWAP5 POP POP PUSH1 0x20 PUSH2 0x2F58 DUP8 DUP3 DUP9 ADD PUSH2 0x2ECA JUMP JUMPDEST SWAP4 POP POP PUSH1 0x40 PUSH2 0x2F69 DUP8 DUP3 DUP9 ADD PUSH2 0x2E15 JUMP JUMPDEST SWAP3 POP POP PUSH1 0x60 PUSH2 0x2F7A DUP8 DUP3 DUP9 ADD PUSH2 0x2E15 JUMP JUMPDEST SWAP2 POP POP SWAP3 SWAP6 SWAP2 SWAP5 POP SWAP3 POP JUMP JUMPDEST PUSH2 0x2F8F DUP2 PUSH2 0x2DF4 JUMP JUMPDEST DUP3 MSTORE POP POP JUMP JUMPDEST PUSH1 0x0 PUSH1 0x20 DUP3 ADD SWAP1 POP PUSH2 0x2FAA PUSH1 0x0 DUP4 ADD DUP5 PUSH2 0x2F86 JUMP JUMPDEST SWAP3 SWAP2 POP POP JUMP JUMPDEST PUSH1 0x0 DUP1 PUSH1 0x0 PUSH1 0x60 DUP5 DUP7 SUB SLT ISZERO PUSH2 0x2FC9 JUMPI PUSH2 0x2FC8 PUSH2 0x2C7D JUMP JUMPDEST JUMPDEST PUSH1 0x0 PUSH2 0x2FD7 DUP7 DUP3 DUP8 ADD PUSH2 0x2ECA JUMP JUMPDEST SWAP4 POP POP PUSH1 0x20 PUSH2 0x2FE8 DUP7 DUP3 DUP8 ADD PUSH2 0x2ECA JUMP JUMPDEST SWAP3 POP POP PUSH1 0x40 PUSH2 0x2FF9 DUP7 DUP3 DUP8 ADD PUSH2 0x2E15 JUMP JUMPDEST SWAP2 POP POP SWAP3 POP SWAP3 POP SWAP3 JUMP JUMPDEST PUSH1 0x0 DUP1 PUSH1 0x40 DUP4 DUP6 SUB SLT ISZERO PUSH2 0x301A JUMPI PUSH2 0x3019 PUSH2 0x2C7D JUMP JUMPDEST JUMPDEST PUSH1 0x0 PUSH2 0x3028 DUP6 DUP3 DUP7 ADD PUSH2 0x2E15 JUMP JUMPDEST SWAP3 POP POP PUSH1 0x20 PUSH2 0x3039 DUP6 DUP3 DUP7 ADD PUSH2 0x2E15 JUMP JUMPDEST SWAP2 POP POP SWAP3 POP SWAP3 SWAP1 POP JUMP JUMPDEST PUSH1 0x0 PUSH1 0x40 DUP3 ADD SWAP1 POP PUSH2 0x3058 PUSH1 0x0 DUP4 ADD DUP6 PUSH2 0x2E89 JUMP JUMPDEST PUSH2 0x3065 PUSH1 0x20 DUP4 ADD DUP5 PUSH2 0x2F86 JUMP JUMPDEST SWAP4 SWAP3 POP POP POP JUMP JUMPDEST PUSH1 0x0 DUP2 SWAP1 POP SWAP2 SWAP1 POP JUMP JUMPDEST PUSH2 0x307F DUP2 PUSH2 0x306C JUMP JUMPDEST DUP3 MSTORE POP POP JUMP JUMPDEST PUSH1 0x0 PUSH1 0x20 DUP3 ADD SWAP1 POP PUSH2 0x309A PUSH1 0x0 DUP4 ADD DUP5 PUSH2 0x3076 JUMP JUMPDEST SWAP3 SWAP2 POP POP JUMP JUMPDEST PUSH1 0x0 DUP1 REVERT JUMPDEST PUSH1 0x0 DUP1 REVERT JUMPDEST PUSH1 0x0 DUP1 REVERT JUMPDEST PUSH1 0x0 DUP1 DUP4 PUSH1 0x1F DUP5 ADD SLT PUSH2 0x30C5 JUMPI PUSH2 0x30C4 PUSH2 0x30A0 JUMP JUMPDEST JUMPDEST DUP3 CALLDATALOAD SWAP1 POP PUSH8 0xFFFFFFFFFFFFFFFF DUP2 GT ISZERO PUSH2 0x30E2 JUMPI PUSH2 0x30E1 PUSH2 0x30A5 JUMP JUMPDEST JUMPDEST PUSH1 0x20 DUP4 ADD SWAP2 POP DUP4 PUSH1 0x20 DUP3 MUL DUP4 ADD GT ISZERO PUSH2 0x30FE JUMPI PUSH2 0x30FD PUSH2 0x30AA JUMP JUMPDEST JUMPDEST SWAP3 POP SWAP3 SWAP1 POP JUMP JUMPDEST PUSH1 0x0 DUP1 PUSH1 0x0 DUP1 PUSH1 0x60 DUP6 DUP8 SUB SLT ISZERO PUSH2 0x311F JUMPI PUSH2 0x311E PUSH2 0x2C7D JUMP JUMPDEST JUMPDEST PUSH1 0x0 DUP6 ADD CALLDATALOAD PUSH8 0xFFFFFFFFFFFFFFFF DUP2 GT ISZERO PUSH2 0x313D JUMPI PUSH2 0x313C PUSH2 0x2C82 JUMP JUMPDEST JUMPDEST PUSH2 0x3149 DUP8 DUP3 DUP9 ADD PUSH2 0x30AF JUMP JUMPDEST SWAP5 POP SWAP5 POP POP PUSH1 0x20 PUSH2 0x315C DUP8 DUP3 DUP9 ADD PUSH2 0x2E15 JUMP JUMPDEST SWAP3 POP POP PUSH1 0x40 PUSH2 0x316D DUP8 DUP3 DUP9 ADD PUSH2 0x2E15 JUMP JUMPDEST SWAP2 POP POP SWAP3 SWAP6 SWAP2 SWAP5 POP SWAP3 POP JUMP JUMPDEST PUSH1 0x0 PUSH12 0xFFFFFFFFFFFFFFFFFFFFFFFF DUP3 AND SWAP1 POP SWAP2 SWAP1 POP JUMP JUMPDEST PUSH2 0x319A DUP2 PUSH2 0x3179 JUMP JUMPDEST DUP3 MSTORE POP POP JUMP JUMPDEST PUSH1 0x0 PUSH1 0x20 DUP3 ADD SWAP1 POP PUSH2 0x31B5 PUSH1 0x0 DUP4 ADD DUP5 PUSH2 0x3191 JUMP JUMPDEST SWAP3 SWAP2 POP POP JUMP JUMPDEST PUSH1 0x0 DUP1 REVERT JUMPDEST PUSH32 0x4E487B7100000000000000000000000000000000000000000000000000000000 PUSH1 0x0 MSTORE PUSH1 0x41 PUSH1 0x4 MSTORE PUSH1 0x24 PUSH1 0x0 REVERT JUMPDEST PUSH2 0x31F8 DUP3 PUSH2 0x2D88 JUMP JUMPDEST DUP2 ADD DUP2 DUP2 LT PUSH8 0xFFFFFFFFFFFFFFFF DUP3 GT OR ISZERO PUSH2 0x3217 JUMPI PUSH2 0x3216 PUSH2 0x31C0 JUMP JUMPDEST JUMPDEST DUP1 PUSH1 0x40 MSTORE POP POP POP JUMP JUMPDEST PUSH1 0x0 PUSH2 0x322A PUSH2 0x2C73 JUMP JUMPDEST SWAP1 POP PUSH2 0x3236 DUP3 DUP3 PUSH2 0x31EF JUMP JUMPDEST SWAP2 SWAP1 POP JUMP JUMPDEST PUSH1 0x0 PUSH8 0xFFFFFFFFFFFFFFFF DUP3 GT ISZERO PUSH2 0x3256 JUMPI PUSH2 0x3255 PUSH2 0x31C0 JUMP JUMPDEST JUMPDEST PUSH2 0x325F DUP3 PUSH2 0x2D88 JUMP JUMPDEST SWAP1 POP PUSH1 0x20 DUP2 ADD SWAP1 POP SWAP2 SWAP1 POP JUMP JUMPDEST DUP3 DUP2 DUP4 CALLDATACOPY PUSH1 0x0 DUP4 DUP4 ADD MSTORE POP POP POP JUMP JUMPDEST PUSH1 0x0 PUSH2 0x328E PUSH2 0x3289 DUP5 PUSH2 0x323B JUMP JUMPDEST PUSH2 0x3220 JUMP JUMPDEST SWAP1 POP DUP3 DUP2 MSTORE PUSH1 0x20 DUP2 ADD DUP5 DUP5 DUP5 ADD GT ISZERO PUSH2 0x32AA JUMPI PUSH2 0x32A9 PUSH2 0x31BB JUMP JUMPDEST JUMPDEST PUSH2 0x32B5 DUP5 DUP3 DUP6 PUSH2 0x326C JUMP JUMPDEST POP SWAP4 SWAP3 POP POP POP JUMP JUMPDEST PUSH1 0x0 DUP3 PUSH1 0x1F DUP4 ADD SLT PUSH2 0x32D2 JUMPI PUSH2 0x32D1 PUSH2 0x30A0 JUMP JUMPDEST JUMPDEST DUP2 CALLDATALOAD PUSH2 0x32E2 DUP5 DUP3 PUSH1 0x20 DUP7 ADD PUSH2 0x327B JUMP JUMPDEST SWAP2 POP POP SWAP3 SWAP2 POP POP JUMP JUMPDEST PUSH1 0x0 PUSH1 0x20 DUP3 DUP5 SUB SLT ISZERO PUSH2 0x3301 JUMPI PUSH2 0x3300 PUSH2 0x2C7D JUMP JUMPDEST JUMPDEST PUSH1 0x0 DUP3 ADD CALLDATALOAD PUSH8 0xFFFFFFFFFFFFFFFF DUP2 GT ISZERO PUSH2 0x331F JUMPI PUSH2 0x331E PUSH2 0x2C82 JUMP JUMPDEST JUMPDEST PUSH2 0x332B DUP5 DUP3 DUP6 ADD PUSH2 0x32BD JUMP JUMPDEST SWAP2 POP POP SWAP3 SWAP2 POP POP JUMP JUMPDEST PUSH2 0x333D DUP2 PUSH2 0x3179 JUMP JUMPDEST DUP2 EQ PUSH2 0x3348 JUMPI PUSH1 0x0 DUP1 REVERT JUMPDEST POP JUMP JUMPDEST PUSH1 0x0 DUP2 CALLDATALOAD SWAP1 POP PUSH2 0x335A DUP2 PUSH2 0x3334 JUMP JUMPDEST SWAP3 SWAP2 POP POP JUMP JUMPDEST PUSH1 0x0 DUP1 PUSH1 0x0 PUSH1 0x60 DUP5 DUP7 SUB SLT ISZERO PUSH2 0x3379 JUMPI PUSH2 0x3378 PUSH2 0x2C7D JUMP JUMPDEST JUMPDEST PUSH1 0x0 PUSH2 0x3387 DUP7 DUP3 DUP8 ADD PUSH2 0x2E15 JUMP JUMPDEST SWAP4 POP POP PUSH1 0x20 PUSH2 0x3398 DUP7 DUP3 DUP8 ADD PUSH2 0x2ECA JUMP JUMPDEST SWAP3 POP POP PUSH1 0x40 PUSH2 0x33A9 DUP7 DUP3 DUP8 ADD PUSH2 0x334B JUMP JUMPDEST SWAP2 POP POP SWAP3 POP SWAP3 POP SWAP3 JUMP JUMPDEST PUSH1 0x0 PUSH1 0x20 DUP3 DUP5 SUB SLT ISZERO PUSH2 0x33C9 JUMPI PUSH2 0x33C8 PUSH2 0x2C7D JUMP JUMPDEST JUMPDEST PUSH1 0x0 PUSH2 0x33D7 DUP5 DUP3 DUP6 ADD PUSH2 0x2ECA JUMP JUMPDEST SWAP2 POP POP SWAP3 SWAP2 POP POP JUMP JUMPDEST PUSH2 0x33E9 DUP2 PUSH2 0x2D0C JUMP JUMPDEST DUP2 EQ PUSH2 0x33F4 JUMPI PUSH1 0x0 DUP1 REVERT JUMPDEST POP JUMP JUMPDEST PUSH1 0x0 DUP2 CALLDATALOAD SWAP1 POP PUSH2 0x3406 DUP2 PUSH2 0x33E0 JUMP JUMPDEST SWAP3 SWAP2 POP POP JUMP JUMPDEST PUSH1 0x0 DUP1 PUSH1 0x40 DUP4 DUP6 SUB SLT ISZERO PUSH2 0x3423 JUMPI PUSH2 0x3422 PUSH2 0x2C7D JUMP JUMPDEST JUMPDEST PUSH1 0x0 PUSH2 0x3431 DUP6 DUP3 DUP7 ADD PUSH2 0x2ECA JUMP JUMPDEST SWAP3 POP POP PUSH1 0x20 PUSH2 0x3442 DUP6 DUP3 DUP7 ADD PUSH2 0x33F7 JUMP JUMPDEST SWAP2 POP POP SWAP3 POP SWAP3 SWAP1 POP JUMP JUMPDEST PUSH1 0x0 PUSH8 0xFFFFFFFFFFFFFFFF DUP3 GT ISZERO PUSH2 0x3467 JUMPI PUSH2 0x3466 PUSH2 0x31C0 JUMP JUMPDEST JUMPDEST PUSH2 0x3470 DUP3 PUSH2 0x2D88 JUMP JUMPDEST SWAP1 POP PUSH1 0x20 DUP2 ADD SWAP1 POP SWAP2 SWAP1 POP JUMP JUMPDEST PUSH1 0x0 PUSH2 0x3490 PUSH2 0x348B DUP5 PUSH2 0x344C JUMP JUMPDEST PUSH2 0x3220 JUMP JUMPDEST SWAP1 POP DUP3 DUP2 MSTORE PUSH1 0x20 DUP2 ADD DUP5 DUP5 DUP5 ADD GT ISZERO PUSH2 0x34AC JUMPI PUSH2 0x34AB PUSH2 0x31BB JUMP JUMPDEST JUMPDEST PUSH2 0x34B7 DUP5 DUP3 DUP6 PUSH2 0x326C JUMP JUMPDEST POP SWAP4 SWAP3 POP POP POP JUMP JUMPDEST PUSH1 0x0 DUP3 PUSH1 0x1F DUP4 ADD SLT PUSH2 0x34D4 JUMPI PUSH2 0x34D3 PUSH2 0x30A0 JUMP JUMPDEST JUMPDEST DUP2 CALLDATALOAD PUSH2 0x34E4 DUP5 DUP3 PUSH1 0x20 DUP7 ADD PUSH2 0x347D JUMP JUMPDEST SWAP2 POP POP SWAP3 SWAP2 POP POP JUMP JUMPDEST PUSH1 0x0 DUP1 PUSH1 0x0 DUP1 PUSH1 0x80 DUP6 DUP8 SUB SLT ISZERO PUSH2 0x3507 JUMPI PUSH2 0x3506 PUSH2 0x2C7D JUMP JUMPDEST JUMPDEST PUSH1 0x0 PUSH2 0x3515 DUP8 DUP3 DUP9 ADD PUSH2 0x2ECA JUMP JUMPDEST SWAP5 POP POP PUSH1 0x20 PUSH2 0x3526 DUP8 DUP3 DUP9 ADD PUSH2 0x2ECA JUMP JUMPDEST SWAP4 POP POP PUSH1 0x40 PUSH2 0x3537 DUP8 DUP3 DUP9 ADD PUSH2 0x2E15 JUMP JUMPDEST SWAP3 POP POP PUSH1 0x60 DUP6 ADD CALLDATALOAD PUSH8 0xFFFFFFFFFFFFFFFF DUP2 GT ISZERO PUSH2 0x3558 JUMPI PUSH2 0x3557 PUSH2 0x2C82 JUMP JUMPDEST JUMPDEST PUSH2 0x3564 DUP8 DUP3 DUP9 ADD PUSH2 0x34BF JUMP JUMPDEST SWAP2 POP POP SWAP3 SWAP6 SWAP2 SWAP5 POP SWAP3 POP JUMP JUMPDEST PUSH1 0x0 DUP1 PUSH1 0x40 DUP4 DUP6 SUB SLT ISZERO PUSH2 0x3587 JUMPI PUSH2 0x3586 PUSH2 0x2C7D JUMP JUMPDEST JUMPDEST PUSH1 0x0 PUSH2 0x3595 DUP6 DUP3 DUP7 ADD PUSH2 0x2ECA JUMP JUMPDEST SWAP3 POP POP PUSH1 0x20 PUSH2 0x35A6 DUP6 DUP3 DUP7 ADD PUSH2 0x2ECA JUMP JUMPDEST SWAP2 POP POP SWAP3 POP SWAP3 SWAP1 POP JUMP JUMPDEST PUSH32 0x4E487B7100000000000000000000000000000000000000000000000000000000 PUSH1 0x0 MSTORE PUSH1 0x22 PUSH1 0x4 MSTORE PUSH1 0x24 PUSH1 0x0 REVERT JUMPDEST PUSH1 0x0 PUSH1 0x2 DUP3 DIV SWAP1 POP PUSH1 0x1 DUP3 AND DUP1 PUSH2 0x35F7 JUMPI PUSH1 0x7F DUP3 AND SWAP2 POP JUMPDEST PUSH1 0x20 DUP3 LT DUP2 SUB PUSH2 0x360A JUMPI PUSH2 0x3609 PUSH2 0x35B0 JUMP JUMPDEST JUMPDEST POP SWAP2 SWAP1 POP JUMP JUMPDEST PUSH32 0x4552433732313A20617070726F76616C20746F2063757272656E74206F776E65 PUSH1 0x0 DUP3 ADD MSTORE PUSH32 0x7200000000000000000000000000000000000000000000000000000000000000 PUSH1 0x20 DUP3 ADD MSTORE POP JUMP JUMPDEST PUSH1 0x0 PUSH2 0x366C PUSH1 0x21 DUP4 PUSH2 0x2D4D JUMP JUMPDEST SWAP2 POP PUSH2 0x3677 DUP3 PUSH2 0x3610 JUMP JUMPDEST PUSH1 0x40 DUP3 ADD SWAP1 POP SWAP2 SWAP1 POP JUMP JUMPDEST PUSH1 0x0 PUSH1 0x20 DUP3 ADD SWAP1 POP DUP2 DUP2 SUB PUSH1 0x0 DUP4 ADD MSTORE PUSH2 0x369B DUP2 PUSH2 0x365F JUMP JUMPDEST SWAP1 POP SWAP2 SWAP1 POP JUMP JUMPDEST PUSH32 0x4552433732313A20617070726F76652063616C6C6572206973206E6F7420746F PUSH1 0x0 DUP3 ADD MSTORE PUSH32 0x6B656E206F776E6572206F7220617070726F76656420666F7220616C6C000000 PUSH1 0x20 DUP3 ADD MSTORE POP JUMP JUMPDEST PUSH1 0x0 PUSH2 0x36FE PUSH1 0x3D DUP4 PUSH2 0x2D4D JUMP JUMPDEST SWAP2 POP PUSH2 0x3709 DUP3 PUSH2 0x36A2 JUMP JUMPDEST PUSH1 0x40 DUP3 ADD SWAP1 POP SWAP2 SWAP1 POP JUMP JUMPDEST PUSH1 0x0 PUSH1 0x20 DUP3 ADD SWAP1 POP DUP2 DUP2 SUB PUSH1 0x0 DUP4 ADD MSTORE PUSH2 0x372D DUP2 PUSH2 0x36F1 JUMP JUMPDEST SWAP1 POP SWAP2 SWAP1 POP JUMP JUMPDEST PUSH32 0x496E73756666696369656E7420726F79616C747920616D6F756E740000000000 PUSH1 0x0 DUP3 ADD MSTORE POP JUMP JUMPDEST PUSH1 0x0 PUSH2 0x376A PUSH1 0x1B DUP4 PUSH2 0x2D4D JUMP JUMPDEST SWAP2 POP PUSH2 0x3775 DUP3 PUSH2 0x3734 JUMP JUMPDEST PUSH1 0x20 DUP3 ADD SWAP1 POP SWAP2 SWAP1 POP JUMP JUMPDEST PUSH1 0x0 PUSH1 0x20 DUP3 ADD SWAP1 POP DUP2 DUP2 SUB PUSH1 0x0 DUP4 ADD MSTORE PUSH2 0x3799 DUP2 PUSH2 0x375D JUMP JUMPDEST SWAP1 POP SWAP2 SWAP1 POP JUMP JUMPDEST PUSH32 0x4E487B7100000000000000000000000000000000000000000000000000000000 PUSH1 0x0 MSTORE PUSH1 0x11 PUSH1 0x4 MSTORE PUSH1 0x24 PUSH1 0x0 REVERT JUMPDEST PUSH1 0x0 PUSH2 0x37DA DUP3 PUSH2 0x2DF4 JUMP JUMPDEST SWAP2 POP PUSH2 0x37E5 DUP4 PUSH2 0x2DF4 JUMP JUMPDEST SWAP3 POP DUP3 DUP3 SUB SWAP1 POP DUP2 DUP2 GT ISZERO PUSH2 0x37FD JUMPI PUSH2 0x37FC PUSH2 0x37A0 JUMP JUMPDEST JUMPDEST SWAP3 SWAP2 POP POP JUMP JUMPDEST PUSH1 0x0 DUP2 SWAP1 POP SWAP3 SWAP2 POP POP JUMP JUMPDEST POP JUMP JUMPDEST PUSH1 0x0 PUSH2 0x381E PUSH1 0x0 DUP4 PUSH2 0x3803 JUMP JUMPDEST SWAP2 POP PUSH2 0x3829 DUP3 PUSH2 0x380E JUMP JUMPDEST PUSH1 0x0 DUP3 ADD SWAP1 POP SWAP2 SWAP1 POP JUMP JUMPDEST PUSH1 0x0 PUSH2 0x383F DUP3 PUSH2 0x3811 JUMP JUMPDEST SWAP2 POP DUP2 SWAP1 POP SWAP2 SWAP1 POP JUMP JUMPDEST PUSH32 0x526566756E64206661696C656400000000000000000000000000000000000000 PUSH1 0x0 DUP3 ADD MSTORE POP JUMP JUMPDEST PUSH1 0x0 PUSH2 0x387F PUSH1 0xD DUP4 PUSH2 0x2D4D JUMP JUMPDEST SWAP2 POP PUSH2 0x388A DUP3 PUSH2 0x3849 JUMP JUMPDEST PUSH1 0x20 DUP3 ADD SWAP1 POP SWAP2 SWAP1 POP JUMP JUMPDEST PUSH1 0x0 PUSH1 0x20 DUP3 ADD SWAP1 POP DUP2 DUP2 SUB PUSH1 0x0 DUP4 ADD MSTORE PUSH2 0x38AE DUP2 PUSH2 0x3872 JUMP JUMPDEST SWAP1 POP SWAP2 SWAP1 POP JUMP JUMPDEST PUSH32 0x77726F6E6720616D6F756E742C2073656E6420302E3120455448000000000000 PUSH1 0x0 DUP3 ADD MSTORE POP JUMP JUMPDEST PUSH1 0x0 PUSH2 0x38EB PUSH1 0x1A DUP4 PUSH2 0x2D4D JUMP JUMPDEST SWAP2 POP PUSH2 0x38F6 DUP3 PUSH2 0x38B5 JUMP JUMPDEST PUSH1 0x20 DUP3 ADD SWAP1 POP SWAP2 SWAP1 POP JUMP JUMPDEST PUSH1 0x0 PUSH1 0x20 DUP3 ADD SWAP1 POP DUP2 DUP2 SUB PUSH1 0x0 DUP4 ADD MSTORE PUSH2 0x391A DUP2 PUSH2 0x38DE JUMP JUMPDEST SWAP1 POP SWAP2 SWAP1 POP JUMP JUMPDEST PUSH32 0x4552433732313A2063616C6C6572206973206E6F7420746F6B656E206F776E65 PUSH1 0x0 DUP3 ADD MSTORE PUSH32 0x72206F7220617070726F76656400000000000000000000000000000000000000 PUSH1 0x20 DUP3 ADD MSTORE POP JUMP JUMPDEST PUSH1 0x0 PUSH2 0x397D PUSH1 0x2D DUP4 PUSH2 0x2D4D JUMP JUMPDEST SWAP2 POP PUSH2 0x3988 DUP3 PUSH2 0x3921 JUMP JUMPDEST PUSH1 0x40 DUP3 ADD SWAP1 POP SWAP2 SWAP1 POP JUMP JUMPDEST PUSH1 0x0 PUSH1 0x20 DUP3 ADD SWAP1 POP DUP2 DUP2 SUB PUSH1 0x0 DUP4 ADD MSTORE PUSH2 0x39AC DUP2 PUSH2 0x3970 JUMP JUMPDEST SWAP1 POP SWAP2 SWAP1 POP JUMP JUMPDEST PUSH32 0x6E6F2066756E647320746F207769746864726177000000000000000000000000 PUSH1 0x0 DUP3 ADD MSTORE POP JUMP JUMPDEST PUSH1 0x0 PUSH2 0x39E9 PUSH1 0x14 DUP4 PUSH2 0x2D4D JUMP JUMPDEST SWAP2 POP PUSH2 0x39F4 DUP3 PUSH2 0x39B3 JUMP JUMPDEST PUSH1 0x20 DUP3 ADD SWAP1 POP SWAP2 SWAP1 POP JUMP JUMPDEST PUSH1 0x0 PUSH1 0x20 DUP3 ADD SWAP1 POP DUP2 DUP2 SUB PUSH1 0x0 DUP4 ADD MSTORE PUSH2 0x3A18 DUP2 PUSH2 0x39DC JUMP JUMPDEST SWAP1 POP SWAP2 SWAP1 POP JUMP JUMPDEST PUSH32 0x66756E64207472616E73666572206661696C6564000000000000000000000000 PUSH1 0x0 DUP3 ADD MSTORE POP JUMP JUMPDEST PUSH1 0x0 PUSH2 0x3A55 PUSH1 0x14 DUP4 PUSH2 0x2D4D JUMP JUMPDEST SWAP2 POP PUSH2 0x3A60 DUP3 PUSH2 0x3A1F JUMP JUMPDEST PUSH1 0x20 DUP3 ADD SWAP1 POP SWAP2 SWAP1 POP JUMP JUMPDEST PUSH1 0x0 PUSH1 0x20 DUP3 ADD SWAP1 POP DUP2 DUP2 SUB PUSH1 0x0 DUP4 ADD MSTORE PUSH2 0x3A84 DUP2 PUSH2 0x3A48 JUMP JUMPDEST SWAP1 POP SWAP2 SWAP1 POP JUMP JUMPDEST PUSH1 0x0 PUSH2 0x3A96 DUP3 PUSH2 0x2DF4 JUMP JUMPDEST SWAP2 POP PUSH2 0x3AA1 DUP4 PUSH2 0x2DF4 JUMP JUMPDEST SWAP3 POP DUP3 DUP3 MUL PUSH2 0x3AAF DUP2 PUSH2 0x2DF4 JUMP JUMPDEST SWAP2 POP DUP3 DUP3 DIV DUP5 EQ DUP4 ISZERO OR PUSH2 0x3AC6 JUMPI PUSH2 0x3AC5 PUSH2 0x37A0 JUMP JUMPDEST JUMPDEST POP SWAP3 SWAP2 POP POP JUMP JUMPDEST PUSH32 0x4E487B7100000000000000000000000000000000000000000000000000000000 PUSH1 0x0 MSTORE PUSH1 0x12 PUSH1 0x4 MSTORE PUSH1 0x24 PUSH1 0x0 REVERT JUMPDEST PUSH1 0x0 PUSH2 0x3B07 DUP3 PUSH2 0x2DF4 JUMP JUMPDEST SWAP2 POP PUSH2 0x3B12 DUP4 PUSH2 0x2DF4 JUMP JUMPDEST SWAP3 POP DUP3 PUSH2 0x3B22 JUMPI PUSH2 0x3B21 PUSH2 0x3ACD JUMP JUMPDEST JUMPDEST DUP3 DUP3 DIV SWAP1 POP SWAP3 SWAP2 POP POP JUMP JUMPDEST PUSH32 0x77726F6E6720616D6F756E742C2073656E6420302E3035204554480000000000 PUSH1 0x0 DUP3 ADD MSTORE POP JUMP JUMPDEST PUSH1 0x0 PUSH2 0x3B63 PUSH1 0x1B DUP4 PUSH2 0x2D4D JUMP JUMPDEST SWAP2 POP PUSH2 0x3B6E DUP3 PUSH2 0x3B2D JUMP JUMPDEST PUSH1 0x20 DUP3 ADD SWAP1 POP SWAP2 SWAP1 POP JUMP JUMPDEST PUSH1 0x0 PUSH1 0x20 DUP3 ADD SWAP1 POP DUP2 DUP2 SUB PUSH1 0x0 DUP4 ADD MSTORE PUSH2 0x3B92 DUP2 PUSH2 0x3B56 JUMP JUMPDEST SWAP1 POP SWAP2 SWAP1 POP JUMP JUMPDEST PUSH32 0x446973636F756E7420616C726561647920636C61696D65640000000000000000 PUSH1 0x0 DUP3 ADD MSTORE POP JUMP JUMPDEST PUSH1 0x0 PUSH2 0x3BCF PUSH1 0x18 DUP4 PUSH2 0x2D4D JUMP JUMPDEST SWAP2 POP PUSH2 0x3BDA DUP3 PUSH2 0x3B99 JUMP JUMPDEST PUSH1 0x20 DUP3 ADD SWAP1 POP SWAP2 SWAP1 POP JUMP JUMPDEST PUSH1 0x0 PUSH1 0x20 DUP3 ADD SWAP1 POP DUP2 DUP2 SUB PUSH1 0x0 DUP4 ADD MSTORE PUSH2 0x3BFE DUP2 PUSH2 0x3BC2 JUMP JUMPDEST SWAP1 POP SWAP2 SWAP1 POP JUMP JUMPDEST PUSH1 0x0 DUP2 SWAP1 POP DUP2 PUSH1 0x0 MSTORE PUSH1 0x20 PUSH1 0x0 KECCAK256 SWAP1 POP SWAP2 SWAP1 POP JUMP JUMPDEST PUSH1 0x0 PUSH1 0x20 PUSH1 0x1F DUP4 ADD DIV SWAP1 POP SWAP2 SWAP1 POP JUMP JUMPDEST PUSH1 0x0 DUP3 DUP3 SHL SWAP1 POP SWAP3 SWAP2 POP POP JUMP JUMPDEST PUSH1 0x0 PUSH1 0x8 DUP4 MUL PUSH2 0x3C67 PUSH32 0xFFFFFFFFFFFFFFFFFFFFFFFFFFFFFFFFFFFFFFFFFFFFFFFFFFFFFFFFFFFFFFFF DUP3 PUSH2 0x3C2A JUMP JUMPDEST PUSH2 0x3C71 DUP7 DUP4 PUSH2 0x3C2A JUMP JUMPDEST SWAP6 POP DUP1 NOT DUP5 AND SWAP4 POP DUP1 DUP7 AND DUP5 OR SWAP3 POP POP POP SWAP4 SWAP3 POP POP POP JUMP JUMPDEST PUSH1 0x0 DUP2 SWAP1 POP SWAP2 SWAP1 POP JUMP JUMPDEST PUSH1 0x0 PUSH2 0x3CAE PUSH2 0x3CA9 PUSH2 0x3CA4 DUP5 PUSH2 0x2DF4 JUMP JUMPDEST PUSH2 0x3C89 JUMP JUMPDEST PUSH2 0x2DF4 JUMP JUMPDEST SWAP1 POP SWAP2 SWAP1 POP JUMP JUMPDEST PUSH1 0x0 DUP2 SWAP1 POP SWAP2 SWAP1 POP JUMP JUMPDEST PUSH2 0x3CC8 DUP4 PUSH2 0x3C93 JUMP JUMPDEST PUSH2 0x3CDC PUSH2 0x3CD4 DUP3 PUSH2 0x3CB5 JUMP JUMPDEST DUP5 DUP5 SLOAD PUSH2 0x3C37 JUMP JUMPDEST DUP3 SSTORE POP POP POP POP JUMP JUMPDEST PUSH1 0x0 SWAP1 JUMP JUMPDEST PUSH2 0x3CF1 PUSH2 0x3CE4 JUMP JUMPDEST PUSH2 0x3CFC DUP2 DUP5 DUP5 PUSH2 0x3CBF JUMP JUMPDEST POP POP POP JUMP JUMPDEST JUMPDEST DUP2 DUP2 LT ISZERO PUSH2 0x3D20 JUMPI PUSH2 0x3D15 PUSH1 0x0 DUP3 PUSH2 0x3CE9 JUMP JUMPDEST PUSH1 0x1 DUP2 ADD SWAP1 POP PUSH2 0x3D02 JUMP JUMPDEST POP POP JUMP JUMPDEST PUSH1 0x1F DUP3 GT ISZERO PUSH2 0x3D65 JUMPI PUSH2 0x3D36 DUP2 PUSH2 0x3C05 JUMP JUMPDEST PUSH2 0x3D3F DUP5 PUSH2 0x3C1A JUMP JUMPDEST DUP2 ADD PUSH1 0x20 DUP6 LT ISZERO PUSH2 0x3D4E JUMPI DUP2 SWAP1 POP JUMPDEST PUSH2 0x3D62 PUSH2 0x3D5A DUP6 PUSH2 0x3C1A JUMP JUMPDEST DUP4 ADD DUP3 PUSH2 0x3D01 JUMP JUMPDEST POP POP JUMPDEST POP POP POP JUMP JUMPDEST PUSH1 0x0 DUP3 DUP3 SHR SWAP1 POP SWAP3 SWAP2 POP POP JUMP JUMPDEST PUSH1 0x0 PUSH2 0x3D88 PUSH1 0x0 NOT DUP5 PUSH1 0x8 MUL PUSH2 0x3D6A JUMP JUMPDEST NOT DUP1 DUP4 AND SWAP2 POP POP SWAP3 SWAP2 POP POP JUMP JUMPDEST PUSH1 0x0 PUSH2 0x3DA1 DUP4 DUP4 PUSH2 0x3D77 JUMP JUMPDEST SWAP2 POP DUP3 PUSH1 0x2 MUL DUP3 OR SWAP1 POP SWAP3 SWAP2 POP POP JUMP JUMPDEST PUSH2 0x3DBA DUP3 PUSH2 0x2D42 JUMP JUMPDEST PUSH8 0xFFFFFFFFFFFFFFFF DUP2 GT ISZERO PUSH2 0x3DD3 JUMPI PUSH2 0x3DD2 PUSH2 0x31C0 JUMP JUMPDEST JUMPDEST PUSH2 0x3DDD DUP3 SLOAD PUSH2 0x35DF JUMP JUMPDEST PUSH2 0x3DE8 DUP3 DUP3 DUP6 PUSH2 0x3D24 JUMP JUMPDEST PUSH1 0x0 PUSH1 0x20 SWAP1 POP PUSH1 0x1F DUP4 GT PUSH1 0x1 DUP2 EQ PUSH2 0x3E1B JUMPI PUSH1 0x0 DUP5 ISZERO PUSH2 0x3E09 JUMPI DUP3 DUP8 ADD MLOAD SWAP1 POP JUMPDEST PUSH2 0x3E13 DUP6 DUP3 PUSH2 0x3D95 JUMP JUMPDEST DUP7 SSTORE POP PUSH2 0x3E7B JUMP JUMPDEST PUSH1 0x1F NOT DUP5 AND PUSH2 0x3E29 DUP7 PUSH2 0x3C05 JUMP JUMPDEST PUSH1 0x0 JUMPDEST DUP3 DUP2 LT ISZERO PUSH2 0x3E51 JUMPI DUP5 DUP10 ADD MLOAD DUP3 SSTORE PUSH1 0x1 DUP3 ADD SWAP2 POP PUSH1 0x20 DUP6 ADD SWAP5 POP PUSH1 0x20 DUP2 ADD SWAP1 POP PUSH2 0x3E2C JUMP JUMPDEST DUP7 DUP4 LT ISZERO PUSH2 0x3E6E JUMPI DUP5 DUP10 ADD MLOAD PUSH2 0x3E6A PUSH1 0x1F DUP10 AND DUP3 PUSH2 0x3D77 JUMP JUMPDEST DUP4 SSTORE POP JUMPDEST PUSH1 0x1 PUSH1 0x2 DUP9 MUL ADD DUP9 SSTORE POP POP POP JUMPDEST POP POP POP POP POP POP JUMP JUMPDEST PUSH32 0x4552433732313A20696E76616C696420746F6B656E2049440000000000000000 PUSH1 0x0 DUP3 ADD MSTORE POP JUMP JUMPDEST PUSH1 0x0 PUSH2 0x3EB9 PUSH1 0x18 DUP4 PUSH2 0x2D4D JUMP JUMPDEST SWAP2 POP PUSH2 0x3EC4 DUP3 PUSH2 0x3E83 JUMP JUMPDEST PUSH1 0x20 DUP3 ADD SWAP1 POP SWAP2 SWAP1 POP JUMP JUMPDEST PUSH1 0x0 PUSH1 0x20 DUP3 ADD SWAP1 POP DUP2 DUP2 SUB PUSH1 0x0 DUP4 ADD MSTORE PUSH2 0x3EE8 DUP2 PUSH2 0x3EAC JUMP JUMPDEST SWAP1 POP SWAP2 SWAP1 POP JUMP JUMPDEST PUSH32 0x4552433732313A2061646472657373207A65726F206973206E6F742061207661 PUSH1 0x0 DUP3 ADD MSTORE PUSH32 0x6C6964206F776E65720000000000000000000000000000000000000000000000 PUSH1 0x20 DUP3 ADD MSTORE POP JUMP JUMPDEST PUSH1 0x0 PUSH2 0x3F4B PUSH1 0x29 DUP4 PUSH2 0x2D4D JUMP JUMPDEST SWAP2 POP PUSH2 0x3F56 DUP3 PUSH2 0x3EEF JUMP JUMPDEST PUSH1 0x40 DUP3 ADD SWAP1 POP SWAP2 SWAP1 POP JUMP JUMPDEST PUSH1 0x0 PUSH1 0x20 DUP3 ADD SWAP1 POP DUP2 DUP2 SUB PUSH1 0x0 DUP4 ADD MSTORE PUSH2 0x3F7A DUP2 PUSH2 0x3F3E JUMP JUMPDEST SWAP1 POP SWAP2 SWAP1 POP JUMP JUMPDEST PUSH32 0x4F776E61626C6532537465703A2063616C6C6572206973206E6F742074686520 PUSH1 0x0 DUP3 ADD MSTORE PUSH32 0x6E6577206F776E65720000000000000000000000000000000000000000000000 PUSH1 0x20 DUP3 ADD MSTORE POP JUMP JUMPDEST PUSH1 0x0 PUSH2 0x3FDD PUSH1 0x29 DUP4 PUSH2 0x2D4D JUMP JUMPDEST SWAP2 POP PUSH2 0x3FE8 DUP3 PUSH2 0x3F81 JUMP JUMPDEST PUSH1 0x40 DUP3 ADD SWAP1 POP SWAP2 SWAP1 POP JUMP JUMPDEST PUSH1 0x0 PUSH1 0x20 DUP3 ADD SWAP1 POP DUP2 DUP2 SUB PUSH1 0x0 DUP4 ADD MSTORE PUSH2 0x400C DUP2 PUSH2 0x3FD0 JUMP JUMPDEST SWAP1 POP SWAP2 SWAP1 POP JUMP JUMPDEST PUSH1 0x0 DUP2 SWAP1 POP SWAP3 SWAP2 POP POP JUMP JUMPDEST PUSH1 0x0 PUSH2 0x4029 DUP3 PUSH2 0x2D42 JUMP JUMPDEST PUSH2 0x4033 DUP2 DUP6 PUSH2 0x4013 JUMP JUMPDEST SWAP4 POP PUSH2 0x4043 DUP2 DUP6 PUSH1 0x20 DUP7 ADD PUSH2 0x2D5E JUMP JUMPDEST DUP1 DUP5 ADD SWAP2 POP POP SWAP3 SWAP2 POP POP JUMP JUMPDEST PUSH1 0x0 PUSH2 0x405B DUP3 DUP6 PUSH2 0x401E JUMP JUMPDEST SWAP2 POP PUSH2 0x4067 DUP3 DUP5 PUSH2 0x401E JUMP JUMPDEST SWAP2 POP DUP2 SWAP1 POP SWAP4 SWAP3 POP POP POP JUMP JUMPDEST PUSH32 0x74686520737570706C79206C696D6974206F6620313030302069732072656163 PUSH1 0x0 DUP3 ADD MSTORE PUSH32 0x6865640000000000000000000000000000000000000000000000000000000000 PUSH1 0x20 DUP3 ADD MSTORE POP JUMP JUMPDEST PUSH1 0x0 PUSH2 0x40CF PUSH1 0x23 DUP4 PUSH2 0x2D4D JUMP JUMPDEST SWAP2 POP PUSH2 0x40DA DUP3 PUSH2 0x4073 JUMP JUMPDEST PUSH1 0x40 DUP3 ADD SWAP1 POP SWAP2 SWAP1 POP JUMP JUMPDEST PUSH1 0x0 PUSH1 0x20 DUP3 ADD SWAP1 POP DUP2 DUP2 SUB PUSH1 0x0 DUP4 ADD MSTORE PUSH2 0x40FE DUP2 PUSH2 0x40C2 JUMP JUMPDEST SWAP1 POP SWAP2 SWAP1 POP JUMP JUMPDEST PUSH1 0x0 PUSH2 0x4110 DUP3 PUSH2 0x2DF4 JUMP JUMPDEST SWAP2 POP PUSH2 0x411B DUP4 PUSH2 0x2DF4 JUMP JUMPDEST SWAP3 POP DUP3 DUP3 ADD SWAP1 POP DUP1 DUP3 GT ISZERO PUSH2 0x4133 JUMPI PUSH2 0x4132 PUSH2 0x37A0 JUMP JUMPDEST JUMPDEST SWAP3 SWAP2 POP POP JUMP JUMPDEST PUSH32 0x4552433732313A207472616E736665722066726F6D20696E636F727265637420 PUSH1 0x0 DUP3 ADD MSTORE PUSH32 0x6F776E6572000000000000000000000000000000000000000000000000000000 PUSH1 0x20 DUP3 ADD MSTORE POP JUMP JUMPDEST PUSH1 0x0 PUSH2 0x4195 PUSH1 0x25 DUP4 PUSH2 0x2D4D JUMP JUMPDEST SWAP2 POP PUSH2 0x41A0 DUP3 PUSH2 0x4139 JUMP JUMPDEST PUSH1 0x40 DUP3 ADD SWAP1 POP SWAP2 SWAP1 POP JUMP JUMPDEST PUSH1 0x0 PUSH1 0x20 DUP3 ADD SWAP1 POP DUP2 DUP2 SUB PUSH1 0x0 DUP4 ADD MSTORE PUSH2 0x41C4 DUP2 PUSH2 0x4188 JUMP JUMPDEST SWAP1 POP SWAP2 SWAP1 POP JUMP JUMPDEST PUSH32 0x4552433732313A207472616E7366657220746F20746865207A65726F20616464 PUSH1 0x0 DUP3 ADD MSTORE PUSH32 0x7265737300000000000000000000000000000000000000000000000000000000 PUSH1 0x20 DUP3 ADD MSTORE POP JUMP JUMPDEST PUSH1 0x0 PUSH2 0x4227 PUSH1 0x24 DUP4 PUSH2 0x2D4D JUMP JUMPDEST SWAP2 POP PUSH2 0x4232 DUP3 PUSH2 0x41CB JUMP JUMPDEST PUSH1 0x40 DUP3 ADD SWAP1 POP SWAP2 SWAP1 POP JUMP JUMPDEST PUSH1 0x0 PUSH1 0x20 DUP3 ADD SWAP1 POP DUP2 DUP2 SUB PUSH1 0x0 DUP4 ADD MSTORE PUSH2 0x4256 DUP2 PUSH2 0x421A JUMP JUMPDEST SWAP1 POP SWAP2 SWAP1 POP JUMP JUMPDEST PUSH32 0x4F776E61626C653A2063616C6C6572206973206E6F7420746865206F776E6572 PUSH1 0x0 DUP3 ADD MSTORE POP JUMP JUMPDEST PUSH1 0x0 PUSH2 0x4293 PUSH1 0x20 DUP4 PUSH2 0x2D4D JUMP JUMPDEST SWAP2 POP PUSH2 0x429E DUP3 PUSH2 0x425D JUMP JUMPDEST PUSH1 0x20 DUP3 ADD SWAP1 POP SWAP2 SWAP1 POP JUMP JUMPDEST PUSH1 0x0 PUSH1 0x20 DUP3 ADD SWAP1 POP DUP2 DUP2 SUB PUSH1 0x0 DUP4 ADD MSTORE PUSH2 0x42C2 DUP2 PUSH2 0x4286 JUMP JUMPDEST SWAP1 POP SWAP2 SWAP1 POP JUMP JUMPDEST PUSH1 0x0 PUSH1 0x60 DUP3 ADD SWAP1 POP PUSH2 0x42DE PUSH1 0x0 DUP4 ADD DUP7 PUSH2 0x2E89 JUMP JUMPDEST PUSH2 0x42EB PUSH1 0x20 DUP4 ADD DUP6 PUSH2 0x2F86 JUMP JUMPDEST PUSH2 0x42F8 PUSH1 0x40 DUP4 ADD DUP5 PUSH2 0x2F86 JUMP JUMPDEST SWAP5 SWAP4 POP POP POP POP JUMP JUMPDEST PUSH1 0x0 DUP2 SWAP1 POP SWAP2 SWAP1 POP JUMP JUMPDEST PUSH2 0x431B PUSH2 0x4316 DUP3 PUSH2 0x306C JUMP JUMPDEST PUSH2 0x4300 JUMP JUMPDEST DUP3 MSTORE POP POP JUMP JUMPDEST PUSH1 0x0 PUSH2 0x432D DUP3 DUP5 PUSH2 0x430A JUMP JUMPDEST PUSH1 0x20 DUP3 ADD SWAP2 POP DUP2 SWAP1 POP SWAP3 SWAP2 POP POP JUMP JUMPDEST PUSH32 0x496E76616C69642070726F6F6600000000000000000000000000000000000000 PUSH1 0x0 DUP3 ADD MSTORE POP JUMP JUMPDEST PUSH1 0x0 PUSH2 0x4372 PUSH1 0xD DUP4 PUSH2 0x2D4D JUMP JUMPDEST SWAP2 POP PUSH2 0x437D DUP3 PUSH2 0x433C JUMP JUMPDEST PUSH1 0x20 DUP3 ADD SWAP1 POP SWAP2 SWAP1 POP JUMP JUMPDEST PUSH1 0x0 PUSH1 0x20 DUP3 ADD SWAP1 POP DUP2 DUP2 SUB PUSH1 0x0 DUP4 ADD MSTORE PUSH2 0x43A1 DUP2 PUSH2 0x4365 JUMP JUMPDEST SWAP1 POP SWAP2 SWAP1 POP JUMP JUMPDEST PUSH32 0x455243323938313A20726F79616C7479206665652077696C6C20657863656564 PUSH1 0x0 DUP3 ADD MSTORE PUSH32 0x2073616C65507269636500000000000000000000000000000000000000000000 PUSH1 0x20 DUP3 ADD MSTORE POP JUMP JUMPDEST PUSH1 0x0 PUSH2 0x4404 PUSH1 0x2A DUP4 PUSH2 0x2D4D JUMP JUMPDEST SWAP2 POP PUSH2 0x440F DUP3 PUSH2 0x43A8 JUMP JUMPDEST PUSH1 0x40 DUP3 ADD SWAP1 POP SWAP2 SWAP1 POP JUMP JUMPDEST PUSH1 0x0 PUSH1 0x20 DUP3 ADD SWAP1 POP DUP2 DUP2 SUB PUSH1 0x0 DUP4 ADD MSTORE PUSH2 0x4433 DUP2 PUSH2 0x43F7 JUMP JUMPDEST SWAP1 POP SWAP2 SWAP1 POP JUMP JUMPDEST PUSH32 0x455243323938313A20496E76616C696420706172616D65746572730000000000 PUSH1 0x0 DUP3 ADD MSTORE POP JUMP JUMPDEST PUSH1 0x0 PUSH2 0x4470 PUSH1 0x1B DUP4 PUSH2 0x2D4D JUMP JUMPDEST SWAP2 POP PUSH2 0x447B DUP3 PUSH2 0x443A JUMP JUMPDEST PUSH1 0x20 DUP3 ADD SWAP1 POP SWAP2 SWAP1 POP JUMP JUMPDEST PUSH1 0x0 PUSH1 0x20 DUP3 ADD SWAP1 POP DUP2 DUP2 SUB PUSH1 0x0 DUP4 ADD MSTORE PUSH2 0x449F DUP2 PUSH2 0x4463 JUMP JUMPDEST SWAP1 POP SWAP2 SWAP1 POP JUMP JUMPDEST PUSH32 0x4552433732313A20617070726F766520746F2063616C6C657200000000000000 PUSH1 0x0 DUP3 ADD MSTORE POP JUMP JUMPDEST PUSH1 0x0 PUSH2 0x44DC PUSH1 0x19 DUP4 PUSH2 0x2D4D JUMP JUMPDEST SWAP2 POP PUSH2 0x44E7 DUP3 PUSH2 0x44A6 JUMP JUMPDEST PUSH1 0x20 DUP3 ADD SWAP1 POP SWAP2 SWAP1 POP JUMP JUMPDEST PUSH1 0x0 PUSH1 0x20 DUP3 ADD SWAP1 POP DUP2 DUP2 SUB PUSH1 0x0 DUP4 ADD MSTORE PUSH2 0x450B DUP2 PUSH2 0x44CF JUMP JUMPDEST SWAP1 POP SWAP2 SWAP1 POP JUMP JUMPDEST PUSH32 0x4552433732313A207472616E7366657220746F206E6F6E204552433732315265 PUSH1 0x0 DUP3 ADD MSTORE PUSH32 0x63656976657220696D706C656D656E7465720000000000000000000000000000 PUSH1 0x20 DUP3 ADD MSTORE POP JUMP JUMPDEST PUSH1 0x0 PUSH2 0x456E PUSH1 0x32 DUP4 PUSH2 0x2D4D JUMP JUMPDEST SWAP2 POP PUSH2 0x4579 DUP3 PUSH2 0x4512 JUMP JUMPDEST PUSH1 0x40 DUP3 ADD SWAP1 POP SWAP2 SWAP1 POP JUMP JUMPDEST PUSH1 0x0 PUSH1 0x20 DUP3 ADD SWAP1 POP DUP2 DUP2 SUB PUSH1 0x0 DUP4 ADD MSTORE PUSH2 0x459D DUP2 PUSH2 0x4561 JUMP JUMPDEST SWAP1 POP SWAP2 SWAP1 POP JUMP JUMPDEST PUSH32 0x455243323938313A20696E76616C696420726563656976657200000000000000 PUSH1 0x0 DUP3 ADD MSTORE POP JUMP JUMPDEST PUSH1 0x0 PUSH2 0x45DA PUSH1 0x19 DUP4 PUSH2 0x2D4D JUMP JUMPDEST SWAP2 POP PUSH2 0x45E5 DUP3 PUSH2 0x45A4 JUMP JUMPDEST PUSH1 0x20 DUP3 ADD SWAP1 POP SWAP2 SWAP1 POP JUMP JUMPDEST PUSH1 0x0 PUSH1 0x20 DUP3 ADD SWAP1 POP DUP2 DUP2 SUB PUSH1 0x0 DUP4 ADD MSTORE PUSH2 0x4609 DUP2 PUSH2 0x45CD JUMP JUMPDEST SWAP1 POP SWAP2 SWAP1 POP JUMP JUMPDEST PUSH1 0x0 DUP2 MLOAD SWAP1 POP SWAP2 SWAP1 POP JUMP JUMPDEST PUSH1 0x0 DUP3 DUP3 MSTORE PUSH1 0x20 DUP3 ADD SWAP1 POP SWAP3 SWAP2 POP POP JUMP JUMPDEST PUSH1 0x0 PUSH2 0x4637 DUP3 PUSH2 0x4610 JUMP JUMPDEST PUSH2 0x4641 DUP2 DUP6 PUSH2 0x461B JUMP JUMPDEST SWAP4 POP PUSH2 0x4651 DUP2 DUP6 PUSH1 0x20 DUP7 ADD PUSH2 0x2D5E JUMP JUMPDEST PUSH2 0x465A DUP2 PUSH2 0x2D88 JUMP JUMPDEST DUP5 ADD SWAP2 POP POP SWAP3 SWAP2 POP POP JUMP JUMPDEST PUSH1 0x0 PUSH1 0x80 DUP3 ADD SWAP1 POP PUSH2 0x467A PUSH1 0x0 DUP4 ADD DUP8 PUSH2 0x2E89 JUMP JUMPDEST PUSH2 0x4687 PUSH1 0x20 DUP4 ADD DUP7 PUSH2 0x2E89 JUMP JUMPDEST PUSH2 0x4694 PUSH1 0x40 DUP4 ADD DUP6 PUSH2 0x2F86 JUMP JUMPDEST DUP2 DUP2 SUB PUSH1 0x60 DUP4 ADD MSTORE PUSH2 0x46A6 DUP2 DUP5 PUSH2 0x462C JUMP JUMPDEST SWAP1 POP SWAP6 SWAP5 POP POP POP POP POP JUMP JUMPDEST PUSH1 0x0 DUP2 MLOAD SWAP1 POP PUSH2 0x46C0 DUP2 PUSH2 0x2CB3 JUMP JUMPDEST SWAP3 SWAP2 POP POP JUMP JUMPDEST PUSH1 0x0 PUSH1 0x20 DUP3 DUP5 SUB SLT ISZERO PUSH2 0x46DC JUMPI PUSH2 0x46DB PUSH2 0x2C7D JUMP JUMPDEST JUMPDEST PUSH1 0x0 PUSH2 0x46EA DUP5 DUP3 DUP6 ADD PUSH2 0x46B1 JUMP JUMPDEST SWAP2 POP POP SWAP3 SWAP2 POP POP JUMP JUMPDEST PUSH32 0x4E487B7100000000000000000000000000000000000000000000000000000000 PUSH1 0x0 MSTORE PUSH1 0x32 PUSH1 0x4 MSTORE PUSH1 0x24 PUSH1 0x0 REVERT JUMPDEST PUSH32 0x4552433732313A206D696E7420746F20746865207A65726F2061646472657373 PUSH1 0x0 DUP3 ADD MSTORE POP JUMP JUMPDEST PUSH1 0x0 PUSH2 0x4758 PUSH1 0x20 DUP4 PUSH2 0x2D4D JUMP JUMPDEST SWAP2 POP PUSH2 0x4763 DUP3 PUSH2 0x4722 JUMP JUMPDEST PUSH1 0x20 DUP3 ADD SWAP1 POP SWAP2 SWAP1 POP JUMP JUMPDEST PUSH1 0x0 PUSH1 0x20 DUP3 ADD SWAP1 POP DUP2 DUP2 SUB PUSH1 0x0 DUP4 ADD MSTORE PUSH2 0x4787 DUP2 PUSH2 0x474B JUMP JUMPDEST SWAP1 POP SWAP2 SWAP1 POP JUMP JUMPDEST PUSH32 0x4552433732313A20746F6B656E20616C7265616479206D696E74656400000000 PUSH1 0x0 DUP3 ADD MSTORE POP JUMP JUMPDEST PUSH1 0x0 PUSH2 0x47C4 PUSH1 0x1C DUP4 PUSH2 0x2D4D JUMP JUMPDEST SWAP2 POP PUSH2 0x47CF DUP3 PUSH2 0x478E JUMP JUMPDEST PUSH1 0x20 DUP3 ADD SWAP1 POP SWAP2 SWAP1 POP JUMP JUMPDEST PUSH1 0x0 PUSH1 0x20 DUP3 ADD SWAP1 POP DUP2 DUP2 SUB PUSH1 0x0 DUP4 ADD MSTORE PUSH2 0x47F3 DUP2 PUSH2 0x47B7 JUMP JUMPDEST SWAP1 POP SWAP2 SWAP1 POP JUMP INVALID LOG2 PUSH5 0x6970667358 0x22 SLT KECCAK256 0x28 CALLDATACOPY DUP14 NUMBER 0xBE EXP 0x2C PUSH9 0xA65D7B7001C390D78C POP 0x4E JUMPDEST TIMESTAMP 0xEC EXTCODECOPY 0xE9 PUSH25 0x5E6ED0E12E862964736F6C634300081B003300000000000000 "},"gasEstimates":{"creation":{"codeDepositCost":"3696000","executionCost":"infinite","totalCost":"infinite"},"external":{"DISCOUNTED_MINTING_PRICE()":"440","MAX_SUPPLY()":"441","MINTING_PRICE()":"419","ROYALTY_FEE_NUMERATOR()":"424","acceptOwnership()":"103591","approve(address,uint256)":"infinite","balanceOf(address)":"2988","getApproved(uint256)":"5323","isApprovedForAll(address,address)":"infinite","merkleRoot()":"infinite","mint()":"infinite","mintWithDiscount(bytes32[],uint256,uint256)":"infinite","name()":"infinite","owner()":"2611","ownerOf(uint256)":"3067","pendingOwner()":"2588","renounceOwnership()":"55150","royaltyInfo(uint256,uint256)":"infinite","safeTransferFrom(address,address,uint256)":"infinite","safeTransferFrom(address,address,uint256,bytes)":"infinite","setApprovalForAll(address,bool)":"infinite","setBaseURI(string)":"infinite","setTokenRoyalty(uint256,address,uint96)":"52034","supportsInterface(bytes4)":"952","symbol()":"infinite","tokenIdCounter()":"2474","tokenURI(uint256)":"infinite","totalSupply()":"2527","transferFrom(address,address,uint256)":"infinite","transferFromWithRoyalties(address,address,uint256,uint256)":"infinite","transferOwnership(address)":"infinite","withdrawFunds()":"infinite"},"internal":{"_baseURI()":"infinite","_mint()":"infinite","_transferOwnership(address)":"infinite","_verifyProof(bytes32[] memory,uint256,uint256,address)":"infinite"}},"methodIdentifiers":{"DISCOUNTED_MINTING_PRICE()":"c7499348","MAX_SUPPLY()":"32cb6b0c","MINTING_PRICE()":"63d9d166","ROYALTY_FEE_NUMERATOR()":"55850fe6","acceptOwnership()":"79ba5097","approve(address,uint256)":"095ea7b3","balanceOf(address)":"70a08231","getApproved(uint256)":"081812fc","isApprovedForAll(address,address)":"e985e9c5","merkleRoot()":"2eb4a7ab","mint()":"1249c58b","mintWithDiscount(bytes32[],uint256,uint256)":"47b13d8a","name()":"06fdde03","owner()":"8da5cb5b","ownerOf(uint256)":"6352211e","pendingOwner()":"e30c3978","renounceOwnership()":"715018a6","royaltyInfo(uint256,uint256)":"2a55205a","safeTransferFrom(address,address,uint256)":"42842e0e","safeTransferFrom(address,address,uint256,bytes)":"b88d4fde","setApprovalForAll(address,bool)":"a22cb465","setBaseURI(string)":"55f804b3","setTokenRoyalty(uint256,address,uint96)":"5944c753","supportsInterface(bytes4)":"01ffc9a7","symbol()":"95d89b41","tokenIdCounter()":"98bdf6f5","tokenURI(uint256)":"c87b56dd","totalSupply()":"18160ddd","transferFrom(address,address,uint256)":"23b872dd","transferFromWithRoyalties(address,address,uint256,uint256)":"0ab7039e","transferOwnership(address)":"f2fde38b","withdrawFunds()":"24600fc3"}},"storageLayout":{"storage":[{"astId":240,"contract":"contracts/NFT1.sol:NFT1","label":"_name","offset":0,"slot":"0","type":"t_string_storage"},{"astId":242,"contract":"contracts/NFT1.sol:NFT1","label":"_symbol","offset":0,"slot":"1","type":"t_string_storage"},{"astId":246,"contract":"contracts/NFT1.sol:NFT1","label":"_owners","offset":0,"slot":"2","type":"t_mapping(t_uint256,t_address)"},{"astId":250,"contract":"contracts/NFT1.sol:NFT1","label":"_balances","offset":0,"slot":"3","type":"t_mapping(t_address,t_uint256)"},{"astId":254,"contract":"contracts/NFT1.sol:NFT1","label":"_tokenApprovals","offset":0,"slot":"4","type":"t_mapping(t_uint256,t_address)"},{"astId":260,"contract":"contracts/NFT1.sol:NFT1","label":"_operatorApprovals","offset":0,"slot":"5","type":"t_mapping(t_address,t_mapping(t_address,t_bool))"},{"astId":7,"contract":"contracts/NFT1.sol:NFT1","label":"_owner","offset":0,"slot":"6","type":"t_address"},{"astId":120,"contract":"contracts/NFT1.sol:NFT1","label":"_pendingOwner","offset":0,"slot":"7","type":"t_address"},{"astId":1319,"contract":"contracts/NFT1.sol:NFT1","label":"_defaultRoyaltyInfo","offset":0,"slot":"8","type":"t_struct(RoyaltyInfo)1316_storage"},{"astId":1324,"contract":"contracts/NFT1.sol:NFT1","label":"_tokenRoyaltyInfo","offset":0,"slot":"9","type":"t_mapping(t_uint256,t_struct(RoyaltyInfo)1316_storage)"},{"astId":3601,"contract":"contracts/NFT1.sol:NFT1","label":"tokenIdCounter","offset":0,"slot":"10","type":"t_uint256"},{"astId":3605,"contract":"contracts/NFT1.sol:NFT1","label":"baseTokenURI","offset":0,"slot":"11","type":"t_string_storage"},{"astId":3608,"contract":"contracts/NFT1.sol:NFT1","label":"airdropList","offset":0,"slot":"12","type":"t_struct(BitMap)3438_storage"}],"types":{"t_address":{"encoding":"inplace","label":"address","numberOfBytes":"20"},"t_bool":{"encoding":"inplace","label":"bool","numberOfBytes":"1"},"t_mapping(t_address,t_bool)":{"encoding":"mapping","key":"t_address","label":"mapping(address => bool)","numberOfBytes":"32","value":"t_bool"},"t_mapping(t_address,t_mapping(t_address,t_bool))":{"encoding":"mapping","key":"t_address","label":"mapping(address => mapping(address => bool))","numberOfBytes":"32","value":"t_mapping(t_address,t_bool)"},"t_mapping(t_address,t_uint256)":{"encoding":"mapping","key":"t_address","label":"mapping(address => uint256)","numberOfBytes":"32","value":"t_uint256"},"t_mapping(t_uint256,t_address)":{"encoding":"mapping","key":"t_uint256","label":"mapping(uint256 => address)","numberOfBytes":"32","value":"t_address"},"t_mapping(t_uint256,t_struct(RoyaltyInfo)1316_storage)":{"encoding":"mapping","key":"t_uint256","label":"mapping(uint256 => struct ERC2981.RoyaltyInfo)","numberOfBytes":"32","value":"t_struct(RoyaltyInfo)1316_storage"},"t_mapping(t_uint256,t_uint256)":{"encoding":"mapping","key":"t_uint256","label":"mapping(uint256 => uint256)","numberOfBytes":"32","value":"t_uint256"},"t_string_storage":{"encoding":"bytes","label":"string","numberOfBytes":"32"},"t_struct(BitMap)3438_storage":{"encoding":"inplace","label":"struct BitMaps.BitMap","members":[{"astId":3437,"contract":"contracts/NFT1.sol:NFT1","label":"_data","offset":0,"slot":"0","type":"t_mapping(t_uint256,t_uint256)"}],"numberOfBytes":"32"},"t_struct(RoyaltyInfo)1316_storage":{"encoding":"inplace","label":"struct ERC2981.RoyaltyInfo","members":[{"astId":1313,"contract":"contracts/NFT1.sol:NFT1","label":"receiver","offset":0,"slot":"0","type":"t_address"},{"astId":1315,"contract":"contracts/NFT1.sol:NFT1","label":"royaltyFraction","offset":20,"slot":"0","type":"t_uint96"}],"numberOfBytes":"32"},"t_uint256":{"encoding":"inplace","label":"uint256","numberOfBytes":"32"},"t_uint96":{"encoding":"inplace","label":"uint96","numberOfBytes":"12"}}},"userdoc":{"kind":"user","methods":{"constructor":{"notice":"Constructor that initializes the NFT1 contract."},"mint()":{"notice":"Mint a new NFT."},"mintWithDiscount(bytes32[],uint256,uint256)":{"notice":"Mint an NFT with a discount using a valid Merkle proof."},"setBaseURI(string)":{"notice":"Set a new base URI for the token metadata."},"setTokenRoyalty(uint256,address,uint96)":{"notice":"Set a custom royalty for a specific token."},"supportsInterface(bytes4)":{"notice":"Override to include support for ERC2981 interface."},"totalSupply()":{"notice":"Get the total number of minted tokens."},"transferFromWithRoyalties(address,address,uint256,uint256)":{"notice":"Transfer an NFT along with royalty payment to the rightful receiver."},"withdrawFunds()":{"notice":"Withdraw all the funds from the contract to the owner's address."}},"version":1}}}}