{"contracts/riddles/Overmint1.sol":{"Overmint1":{"abi":[{"inputs":[],"stateMutability":"nonpayable","type":"constructor"},{"anonymous":false,"inputs":[{"indexed":true,"internalType":"address","name":"owner","type":"address"},{"indexed":true,"internalType":"address","name":"approved","type":"address"},{"indexed":true,"internalType":"uint256","name":"tokenId","type":"uint256"}],"name":"Approval","type":"event"},{"anonymous":false,"inputs":[{"indexed":true,"internalType":"address","name":"owner","type":"address"},{"indexed":true,"internalType":"address","name":"operator","type":"address"},{"indexed":false,"internalType":"bool","name":"approved","type":"bool"}],"name":"ApprovalForAll","type":"event"},{"anonymous":false,"inputs":[{"indexed":true,"internalType":"address","name":"from","type":"address"},{"indexed":true,"internalType":"address","name":"to","type":"address"},{"indexed":true,"internalType":"uint256","name":"tokenId","type":"uint256"}],"name":"Transfer","type":"event"},{"inputs":[{"internalType":"address","name":"","type":"address"}],"name":"amountMinted","outputs":[{"internalType":"uint256","name":"","type":"uint256"}],"stateMutability":"view","type":"function"},{"inputs":[{"internalType":"address","name":"to","type":"address"},{"internalType":"uint256","name":"tokenId","type":"uint256"}],"name":"approve","outputs":[],"stateMutability":"nonpayable","type":"function"},{"inputs":[{"internalType":"address","name":"owner","type":"address"}],"name":"balanceOf","outputs":[{"internalType":"uint256","name":"","type":"uint256"}],"stateMutability":"view","type":"function"},{"inputs":[{"internalType":"uint256","name":"tokenId","type":"uint256"}],"name":"getApproved","outputs":[{"internalType":"address","name":"","type":"address"}],"stateMutability":"view","type":"function"},{"inputs":[{"internalType":"address","name":"owner","type":"address"},{"internalType":"address","name":"operator","type":"address"}],"name":"isApprovedForAll","outputs":[{"internalType":"bool","name":"","type":"bool"}],"stateMutability":"view","type":"function"},{"inputs":[],"name":"mint","outputs":[],"stateMutability":"nonpayable","type":"function"},{"inputs":[],"name":"name","outputs":[{"internalType":"string","name":"","type":"string"}],"stateMutability":"view","type":"function"},{"inputs":[{"internalType":"uint256","name":"tokenId","type":"uint256"}],"name":"ownerOf","outputs":[{"internalType":"address","name":"","type":"address"}],"stateMutability":"view","type":"function"},{"inputs":[{"internalType":"address","name":"from","type":"address"},{"internalType":"address","name":"to","type":"address"},{"internalType":"uint256","name":"tokenId","type":"uint256"}],"name":"safeTransferFrom","outputs":[],"stateMutability":"nonpayable","type":"function"},{"inputs":[{"internalType":"address","name":"from","type":"address"},{"internalType":"address","name":"to","type":"address"},{"internalType":"uint256","name":"tokenId","type":"uint256"},{"internalType":"bytes","name":"data","type":"bytes"}],"name":"safeTransferFrom","outputs":[],"stateMutability":"nonpayable","type":"function"},{"inputs":[{"internalType":"address","name":"operator","type":"address"},{"internalType":"bool","name":"approved","type":"bool"}],"name":"setApprovalForAll","outputs":[],"stateMutability":"nonpayable","type":"function"},{"inputs":[{"internalType":"address","name":"_attacker","type":"address"}],"name":"success","outputs":[{"internalType":"bool","name":"","type":"bool"}],"stateMutability":"view","type":"function"},{"inputs":[{"internalType":"bytes4","name":"interfaceId","type":"bytes4"}],"name":"supportsInterface","outputs":[{"internalType":"bool","name":"","type":"bool"}],"stateMutability":"view","type":"function"},{"inputs":[],"name":"symbol","outputs":[{"internalType":"string","name":"","type":"string"}],"stateMutability":"view","type":"function"},{"inputs":[{"internalType":"uint256","name":"tokenId","type":"uint256"}],"name":"tokenURI","outputs":[{"internalType":"string","name":"","type":"string"}],"stateMutability":"view","type":"function"},{"inputs":[],"name":"totalSupply","outputs":[{"internalType":"uint256","name":"","type":"uint256"}],"stateMutability":"view","type":"function"},{"inputs":[{"internalType":"address","name":"from","type":"address"},{"internalType":"address","name":"to","type":"address"},{"internalType":"uint256","name":"tokenId","type":"uint256"}],"name":"transferFrom","outputs":[],"stateMutability":"nonpayable","type":"function"}],"devdoc":{"events":{"Approval(address,address,uint256)":{"details":"Emitted when `owner` enables `approved` to manage the `tokenId` token."},"ApprovalForAll(address,address,bool)":{"details":"Emitted when `owner` enables or disables (`approved`) `operator` to manage all of its assets."},"Transfer(address,address,uint256)":{"details":"Emitted when `tokenId` token is transferred from `from` to `to`."}},"kind":"dev","methods":{"approve(address,uint256)":{"details":"See {IERC721-approve}."},"balanceOf(address)":{"details":"See {IERC721-balanceOf}."},"getApproved(uint256)":{"details":"See {IERC721-getApproved}."},"isApprovedForAll(address,address)":{"details":"See {IERC721-isApprovedForAll}."},"name()":{"details":"See {IERC721Metadata-name}."},"ownerOf(uint256)":{"details":"See {IERC721-ownerOf}."},"safeTransferFrom(address,address,uint256)":{"details":"See {IERC721-safeTransferFrom}."},"safeTransferFrom(address,address,uint256,bytes)":{"details":"See {IERC721-safeTransferFrom}."},"setApprovalForAll(address,bool)":{"details":"See {IERC721-setApprovalForAll}."},"supportsInterface(bytes4)":{"details":"See {IERC165-supportsInterface}."},"symbol()":{"details":"See {IERC721Metadata-symbol}."},"tokenURI(uint256)":{"details":"See {IERC721Metadata-tokenURI}."},"transferFrom(address,address,uint256)":{"details":"See {IERC721-transferFrom}."}},"version":1},"evm":{"bytecode":{"linkReferences":{},"object":"608060405234801561001057600080fd5b506040518060400160405280600981526020017f4f7665726d696e743100000000000000000000000000000000000000000000008152506040518060400160405280600281526020017f4154000000000000000000000000000000000000000000000000000000000000815250816000908161008c91906102f4565b50806001908161009c91906102f4565b5050506103c6565b600081519050919050565b7f4e487b7100000000000000000000000000000000000000000000000000000000600052604160045260246000fd5b7f4e487b7100000000000000000000000000000000000000000000000000000000600052602260045260246000fd5b6000600282049050600182168061012557607f821691505b602082108103610138576101376100de565b5b50919050565b60008190508160005260206000209050919050565b60006020601f8301049050919050565b600082821b905092915050565b6000600883026101a07fffffffffffffffffffffffffffffffffffffffffffffffffffffffffffffffff82610163565b6101aa8683610163565b95508019841693508086168417925050509392505050565b6000819050919050565b6000819050919050565b60006101f16101ec6101e7846101c2565b6101cc565b6101c2565b9050919050565b6000819050919050565b61020b836101d6565b61021f610217826101f8565b848454610170565b825550505050565b600090565b610234610227565b61023f818484610202565b505050565b5b818110156102635761025860008261022c565b600181019050610245565b5050565b601f8211156102a8576102798161013e565b61028284610153565b81016020851015610291578190505b6102a561029d85610153565b830182610244565b50505b505050565b600082821c905092915050565b60006102cb600019846008026102ad565b1980831691505092915050565b60006102e483836102ba565b9150826002028217905092915050565b6102fd826100a4565b67ffffffffffffffff811115610316576103156100af565b5b610320825461010d565b61032b828285610267565b600060209050601f83116001811461035e576000841561034c578287015190505b61035685826102d8565b8655506103be565b601f19841661036c8661013e565b60005b828110156103945784890151825560018201915060208501945060208101905061036f565b868310156103b157848901516103ad601f8916826102ba565b8355505b6001600288020188555050505b505050505050565b612766806103d56000396000f3fe608060405234801561001057600080fd5b506004361061010b5760003560e01c806342842e0e116100a257806395d89b411161007157806395d89b41146102ca578063a22cb465146102e8578063b88d4fde14610304578063c87b56dd14610320578063e985e9c5146103505761010b565b806342842e0e1461021e578063438a67e71461023a5780636352211e1461026a57806370a082311461029a5761010b565b80631249c58b116100de5780631249c58b146101aa57806318160ddd146101b457806323b872dd146101d257806326e4baae146101ee5761010b565b806301ffc9a71461011057806306fdde0314610140578063081812fc1461015e578063095ea7b31461018e575b600080fd5b61012a6004803603810190610125919061197f565b610380565b60405161013791906119c7565b60405180910390f35b610148610462565b6040516101559190611a72565b60405180910390f35b61017860048036038101906101739190611aca565b6104f4565b6040516101859190611b38565b60405180910390f35b6101a860048036038101906101a39190611b7f565b61053a565b005b6101b2610651565b005b6101bc61074f565b6040516101c99190611bce565b60405180910390f35b6101ec60048036038101906101e79190611be9565b610755565b005b61020860048036038101906102039190611c3c565b6107b5565b60405161021591906119c7565b60405180910390f35b61023860048036038101906102339190611be9565b6107ca565b005b610254600480360381019061024f9190611c3c565b6107ea565b6040516102619190611bce565b60405180910390f35b610284600480360381019061027f9190611aca565b610802565b6040516102919190611b38565b60405180910390f35b6102b460048036038101906102af9190611c3c565b610888565b6040516102c19190611bce565b60405180910390f35b6102d261093f565b6040516102df9190611a72565b60405180910390f35b61030260048036038101906102fd9190611c95565b6109d1565b005b61031e60048036038101906103199190611e0a565b6109e7565b005b61033a60048036038101906103359190611aca565b610a49565b6040516103479190611a72565b60405180910390f35b61036a60048036038101906103659190611e8d565b610ab1565b60405161037791906119c7565b60405180910390f35b60007f80ac58cd000000000000000000000000000000000000000000000000000000007bffffffffffffffffffffffffffffffffffffffffffffffffffffffff1916827bffffffffffffffffffffffffffffffffffffffffffffffffffffffff1916148061044b57507f5b5e139f000000000000000000000000000000000000000000000000000000007bffffffffffffffffffffffffffffffffffffffffffffffffffffffff1916827bffffffffffffffffffffffffffffffffffffffffffffffffffffffff1916145b8061045b575061045a82610b45565b5b9050919050565b60606000805461047190611efc565b80601f016020809104026020016040519081016040528092919081815260200182805461049d90611efc565b80156104ea5780601f106104bf576101008083540402835291602001916104ea565b820191906000526020600020905b8154815290600101906020018083116104cd57829003601f168201915b5050505050905090565b60006104ff82610baf565b6004600083815260200190815260200160002060009054906101000a900473ffffffffffffffffffffffffffffffffffffffff169050919050565b600061054582610802565b90508073ffffffffffffffffffffffffffffffffffffffff168373ffffffffffffffffffffffffffffffffffffffff16036105b5576040517f08c379a00000000000000000000000000000000000000000000000000000000081526004016105ac90611f9f565b60405180910390fd5b8073ffffffffffffffffffffffffffffffffffffffff166105d4610bfa565b73ffffffffffffffffffffffffffffffffffffffff1614806106035750610602816105fd610bfa565b610ab1565b5b610642576040517f08c379a000000000000000000000000000000000000000000000000000000000815260040161063990612031565b60405180910390fd5b61064c8383610c02565b505050565b6003600660003373ffffffffffffffffffffffffffffffffffffffff1673ffffffffffffffffffffffffffffffffffffffff1681526020019081526020016000205411156106d4576040517f08c379a00000000000000000000000000000000000000000000000000000000081526004016106cb9061209d565b60405180910390fd5b600760008154809291906106e7906120ec565b91905055506106f833600754610cbb565b600660003373ffffffffffffffffffffffffffffffffffffffff1673ffffffffffffffffffffffffffffffffffffffff1681526020019081526020016000206000815480929190610748906120ec565b9190505550565b60075481565b610766610760610bfa565b82610cd9565b6107a5576040517f08c379a000000000000000000000000000000000000000000000000000000000815260040161079c906121a6565b60405180910390fd5b6107b0838383610d6e565b505050565b600060056107c283610888565b149050919050565b6107e5838383604051806020016040528060008152506109e7565b505050565b60066020528060005260406000206000915090505481565b60008061080e83611067565b9050600073ffffffffffffffffffffffffffffffffffffffff168173ffffffffffffffffffffffffffffffffffffffff160361087f576040517f08c379a000000000000000000000000000000000000000000000000000000000815260040161087690612212565b60405180910390fd5b80915050919050565b60008073ffffffffffffffffffffffffffffffffffffffff168273ffffffffffffffffffffffffffffffffffffffff16036108f8576040517f08c379a00000000000000000000000000000000000000000000000000000000081526004016108ef906122a4565b60405180910390fd5b600360008373ffffffffffffffffffffffffffffffffffffffff1673ffffffffffffffffffffffffffffffffffffffff168152602001908152602001600020549050919050565b60606001805461094e90611efc565b80601f016020809104026020016040519081016040528092919081815260200182805461097a90611efc565b80156109c75780601f1061099c576101008083540402835291602001916109c7565b820191906000526020600020905b8154815290600101906020018083116109aa57829003601f168201915b5050505050905090565b6109e36109dc610bfa565b83836110a4565b5050565b6109f86109f2610bfa565b83610cd9565b610a37576040517f08c379a0000000000000000000000000000000000000000000000000000000008152600401610a2e906121a6565b60405180910390fd5b610a4384848484611210565b50505050565b6060610a5482610baf565b6000610a5e61126c565b90506000815111610a7e5760405180602001604052806000815250610aa9565b80610a8884611283565b604051602001610a99929190612300565b6040516020818303038152906040525b915050919050565b6000600560008473ffffffffffffffffffffffffffffffffffffffff1673ffffffffffffffffffffffffffffffffffffffff16815260200190815260200160002060008373ffffffffffffffffffffffffffffffffffffffff1673ffffffffffffffffffffffffffffffffffffffff16815260200190815260200160002060009054906101000a900460ff16905092915050565b60007f01ffc9a7000000000000000000000000000000000000000000000000000000007bffffffffffffffffffffffffffffffffffffffffffffffffffffffff1916827bffffffffffffffffffffffffffffffffffffffffffffffffffffffff1916149050919050565b610bb881611351565b610bf7576040517f08c379a0000000000000000000000000000000000000000000000000000000008152600401610bee90612212565b60405180910390fd5b50565b600033905090565b816004600083815260200190815260200160002060006101000a81548173ffffffffffffffffffffffffffffffffffffffff021916908373ffffffffffffffffffffffffffffffffffffffff160217905550808273ffffffffffffffffffffffffffffffffffffffff16610c7583610802565b73ffffffffffffffffffffffffffffffffffffffff167f8c5be1e5ebec7d5bd14f71427d1e84f3dd0314c0f7b2291e5b200ac8c7c3b92560405160405180910390a45050565b610cd5828260405180602001604052806000815250611392565b5050565b600080610ce583610802565b90508073ffffffffffffffffffffffffffffffffffffffff168473ffffffffffffffffffffffffffffffffffffffff161480610d275750610d268185610ab1565b5b80610d6557508373ffffffffffffffffffffffffffffffffffffffff16610d4d846104f4565b73ffffffffffffffffffffffffffffffffffffffff16145b91505092915050565b8273ffffffffffffffffffffffffffffffffffffffff16610d8e82610802565b73ffffffffffffffffffffffffffffffffffffffff1614610de4576040517f08c379a0000000000000000000000000000000000000000000000000000000008152600401610ddb90612396565b60405180910390fd5b600073ffffffffffffffffffffffffffffffffffffffff168273ffffffffffffffffffffffffffffffffffffffff1603610e53576040517f08c379a0000000000000000000000000000000000000000000000000000000008152600401610e4a90612428565b60405180910390fd5b610e6083838360016113ed565b8273ffffffffffffffffffffffffffffffffffffffff16610e8082610802565b73ffffffffffffffffffffffffffffffffffffffff1614610ed6576040517f08c379a0000000000000000000000000000000000000000000000000000000008152600401610ecd90612396565b60405180910390fd5b6004600082815260200190815260200160002060006101000a81549073ffffffffffffffffffffffffffffffffffffffff02191690556001600360008573ffffffffffffffffffffffffffffffffffffffff1673ffffffffffffffffffffffffffffffffffffffff168152602001908152602001600020600082825403925050819055506001600360008473ffffffffffffffffffffffffffffffffffffffff1673ffffffffffffffffffffffffffffffffffffffff16815260200190815260200160002060008282540192505081905550816002600083815260200190815260200160002060006101000a81548173ffffffffffffffffffffffffffffffffffffffff021916908373ffffffffffffffffffffffffffffffffffffffff160217905550808273ffffffffffffffffffffffffffffffffffffffff168473ffffffffffffffffffffffffffffffffffffffff167fddf252ad1be2c89b69c2b068fc378daa952ba7f163c4a11628f55a4df523b3ef60405160405180910390a461106283838360016113f3565b505050565b60006002600083815260200190815260200160002060009054906101000a900473ffffffffffffffffffffffffffffffffffffffff169050919050565b8173ffffffffffffffffffffffffffffffffffffffff168373ffffffffffffffffffffffffffffffffffffffff1603611112576040517f08c379a000000000000000000000000000000000000000000000000000000000815260040161110990612494565b60405180910390fd5b80600560008573ffffffffffffffffffffffffffffffffffffffff1673ffffffffffffffffffffffffffffffffffffffff16815260200190815260200160002060008473ffffffffffffffffffffffffffffffffffffffff1673ffffffffffffffffffffffffffffffffffffffff16815260200190815260200160002060006101000a81548160ff0219169083151502179055508173ffffffffffffffffffffffffffffffffffffffff168373ffffffffffffffffffffffffffffffffffffffff167f17307eab39ab6107e8899845ad3d59bd9653f200f220920489ca2b5937696c318360405161120391906119c7565b60405180910390a3505050565b61121b848484610d6e565b611227848484846113f9565b611266576040517f08c379a000000000000000000000000000000000000000000000000000000000815260040161125d90612526565b60405180910390fd5b50505050565b606060405180602001604052806000815250905090565b60606000600161129284611580565b01905060008167ffffffffffffffff8111156112b1576112b0611cdf565b5b6040519080825280601f01601f1916602001820160405280156112e35781602001600182028036833780820191505090505b509050600082602001820190505b600115611346578080600190039150507f3031323334353637383961626364656600000000000000000000000000000000600a86061a8153600a858161133a57611339612546565b5b049450600085036112f1575b819350505050919050565b60008073ffffffffffffffffffffffffffffffffffffffff1661137383611067565b73ffffffffffffffffffffffffffffffffffffffff1614159050919050565b61139c83836116d3565b6113a960008484846113f9565b6113e8576040517f08c379a00000000000000000000000000000000000000000000000000000000081526004016113df90612526565b60405180910390fd5b505050565b50505050565b50505050565b600061141a8473ffffffffffffffffffffffffffffffffffffffff166118f0565b15611573578373ffffffffffffffffffffffffffffffffffffffff1663150b7a02611443610bfa565b8786866040518563ffffffff1660e01b815260040161146594939291906125ca565b6020604051808303816000875af19250505080156114a157506040513d601f19601f8201168201806040525081019061149e919061262b565b60015b611523573d80600081146114d1576040519150601f19603f3d011682016040523d82523d6000602084013e6114d6565b606091505b50600081510361151b576040517f08c379a000000000000000000000000000000000000000000000000000000000815260040161151290612526565b60405180910390fd5b805181602001fd5b63150b7a0260e01b7bffffffffffffffffffffffffffffffffffffffffffffffffffffffff1916817bffffffffffffffffffffffffffffffffffffffffffffffffffffffff191614915050611578565b600190505b949350505050565b600080600090507a184f03e93ff9f4daa797ed6e38ed64bf6a1f01000000000000000083106115de577a184f03e93ff9f4daa797ed6e38ed64bf6a1f01000000000000000083816115d4576115d3612546565b5b0492506040810190505b6d04ee2d6d415b85acef8100000000831061161b576d04ee2d6d415b85acef8100000000838161161157611610612546565b5b0492506020810190505b662386f26fc10000831061164a57662386f26fc1000083816116405761163f612546565b5b0492506010810190505b6305f5e1008310611673576305f5e100838161166957611668612546565b5b0492506008810190505b612710831061169857612710838161168e5761168d612546565b5b0492506004810190505b606483106116bb57606483816116b1576116b0612546565b5b0492506002810190505b600a83106116ca576001810190505b80915050919050565b600073ffffffffffffffffffffffffffffffffffffffff168273ffffffffffffffffffffffffffffffffffffffff1603611742576040517f08c379a0000000000000000000000000000000000000000000000000000000008152600401611739906126a4565b60405180910390fd5b61174b81611351565b1561178b576040517f08c379a000000000000000000000000000000000000000000000000000000000815260040161178290612710565b60405180910390fd5b6117996000838360016113ed565b6117a281611351565b156117e2576040517f08c379a00000000000000000000000000000000000000000000000000000000081526004016117d990612710565b60405180910390fd5b6001600360008473ffffffffffffffffffffffffffffffffffffffff1673ffffffffffffffffffffffffffffffffffffffff16815260200190815260200160002060008282540192505081905550816002600083815260200190815260200160002060006101000a81548173ffffffffffffffffffffffffffffffffffffffff021916908373ffffffffffffffffffffffffffffffffffffffff160217905550808273ffffffffffffffffffffffffffffffffffffffff16600073ffffffffffffffffffffffffffffffffffffffff167fddf252ad1be2c89b69c2b068fc378daa952ba7f163c4a11628f55a4df523b3ef60405160405180910390a46118ec6000838360016113f3565b5050565b6000808273ffffffffffffffffffffffffffffffffffffffff163b119050919050565b6000604051905090565b600080fd5b600080fd5b60007fffffffff0000000000000000000000000000000000000000000000000000000082169050919050565b61195c81611927565b811461196757600080fd5b50565b60008135905061197981611953565b92915050565b6000602082840312156119955761199461191d565b5b60006119a38482850161196a565b91505092915050565b60008115159050919050565b6119c1816119ac565b82525050565b60006020820190506119dc60008301846119b8565b92915050565b600081519050919050565b600082825260208201905092915050565b60005b83811015611a1c578082015181840152602081019050611a01565b60008484015250505050565b6000601f19601f8301169050919050565b6000611a44826119e2565b611a4e81856119ed565b9350611a5e8185602086016119fe565b611a6781611a28565b840191505092915050565b60006020820190508181036000830152611a8c8184611a39565b905092915050565b6000819050919050565b611aa781611a94565b8114611ab257600080fd5b50565b600081359050611ac481611a9e565b92915050565b600060208284031215611ae057611adf61191d565b5b6000611aee84828501611ab5565b91505092915050565b600073ffffffffffffffffffffffffffffffffffffffff82169050919050565b6000611b2282611af7565b9050919050565b611b3281611b17565b82525050565b6000602082019050611b4d6000830184611b29565b92915050565b611b5c81611b17565b8114611b6757600080fd5b50565b600081359050611b7981611b53565b92915050565b60008060408385031215611b9657611b9561191d565b5b6000611ba485828601611b6a565b9250506020611bb585828601611ab5565b9150509250929050565b611bc881611a94565b82525050565b6000602082019050611be36000830184611bbf565b92915050565b600080600060608486031215611c0257611c0161191d565b5b6000611c1086828701611b6a565b9350506020611c2186828701611b6a565b9250506040611c3286828701611ab5565b9150509250925092565b600060208284031215611c5257611c5161191d565b5b6000611c6084828501611b6a565b91505092915050565b611c72816119ac565b8114611c7d57600080fd5b50565b600081359050611c8f81611c69565b92915050565b60008060408385031215611cac57611cab61191d565b5b6000611cba85828601611b6a565b9250506020611ccb85828601611c80565b9150509250929050565b600080fd5b600080fd5b7f4e487b7100000000000000000000000000000000000000000000000000000000600052604160045260246000fd5b611d1782611a28565b810181811067ffffffffffffffff82111715611d3657611d35611cdf565b5b80604052505050565b6000611d49611913565b9050611d558282611d0e565b919050565b600067ffffffffffffffff821115611d7557611d74611cdf565b5b611d7e82611a28565b9050602081019050919050565b82818337600083830152505050565b6000611dad611da884611d5a565b611d3f565b905082815260208101848484011115611dc957611dc8611cda565b5b611dd4848285611d8b565b509392505050565b600082601f830112611df157611df0611cd5565b5b8135611e01848260208601611d9a565b91505092915050565b60008060008060808587031215611e2457611e2361191d565b5b6000611e3287828801611b6a565b9450506020611e4387828801611b6a565b9350506040611e5487828801611ab5565b925050606085013567ffffffffffffffff811115611e7557611e74611922565b5b611e8187828801611ddc565b91505092959194509250565b60008060408385031215611ea457611ea361191d565b5b6000611eb285828601611b6a565b9250506020611ec385828601611b6a565b9150509250929050565b7f4e487b7100000000000000000000000000000000000000000000000000000000600052602260045260246000fd5b60006002820490506001821680611f1457607f821691505b602082108103611f2757611f26611ecd565b5b50919050565b7f4552433732313a20617070726f76616c20746f2063757272656e74206f776e6560008201527f7200000000000000000000000000000000000000000000000000000000000000602082015250565b6000611f896021836119ed565b9150611f9482611f2d565b604082019050919050565b60006020820190508181036000830152611fb881611f7c565b9050919050565b7f4552433732313a20617070726f76652063616c6c6572206973206e6f7420746f60008201527f6b656e206f776e6572206f7220617070726f76656420666f7220616c6c000000602082015250565b600061201b603d836119ed565b915061202682611fbf565b604082019050919050565b6000602082019050818103600083015261204a8161200e565b9050919050565b7f6d61782033204e46547300000000000000000000000000000000000000000000600082015250565b6000612087600a836119ed565b915061209282612051565b602082019050919050565b600060208201905081810360008301526120b68161207a565b9050919050565b7f4e487b7100000000000000000000000000000000000000000000000000000000600052601160045260246000fd5b60006120f782611a94565b91507fffffffffffffffffffffffffffffffffffffffffffffffffffffffffffffffff8203612129576121286120bd565b5b600182019050919050565b7f4552433732313a2063616c6c6572206973206e6f7420746f6b656e206f776e6560008201527f72206f7220617070726f76656400000000000000000000000000000000000000602082015250565b6000612190602d836119ed565b915061219b82612134565b604082019050919050565b600060208201905081810360008301526121bf81612183565b9050919050565b7f4552433732313a20696e76616c696420746f6b656e2049440000000000000000600082015250565b60006121fc6018836119ed565b9150612207826121c6565b602082019050919050565b6000602082019050818103600083015261222b816121ef565b9050919050565b7f4552433732313a2061646472657373207a65726f206973206e6f74206120766160008201527f6c6964206f776e65720000000000000000000000000000000000000000000000602082015250565b600061228e6029836119ed565b915061229982612232565b604082019050919050565b600060208201905081810360008301526122bd81612281565b9050919050565b600081905092915050565b60006122da826119e2565b6122e481856122c4565b93506122f48185602086016119fe565b80840191505092915050565b600061230c82856122cf565b915061231882846122cf565b91508190509392505050565b7f4552433732313a207472616e736665722066726f6d20696e636f72726563742060008201527f6f776e6572000000000000000000000000000000000000000000000000000000602082015250565b60006123806025836119ed565b915061238b82612324565b604082019050919050565b600060208201905081810360008301526123af81612373565b9050919050565b7f4552433732313a207472616e7366657220746f20746865207a65726f2061646460008201527f7265737300000000000000000000000000000000000000000000000000000000602082015250565b60006124126024836119ed565b915061241d826123b6565b604082019050919050565b6000602082019050818103600083015261244181612405565b9050919050565b7f4552433732313a20617070726f766520746f2063616c6c657200000000000000600082015250565b600061247e6019836119ed565b915061248982612448565b602082019050919050565b600060208201905081810360008301526124ad81612471565b9050919050565b7f4552433732313a207472616e7366657220746f206e6f6e20455243373231526560008201527f63656976657220696d706c656d656e7465720000000000000000000000000000602082015250565b60006125106032836119ed565b915061251b826124b4565b604082019050919050565b6000602082019050818103600083015261253f81612503565b9050919050565b7f4e487b7100000000000000000000000000000000000000000000000000000000600052601260045260246000fd5b600081519050919050565b600082825260208201905092915050565b600061259c82612575565b6125a68185612580565b93506125b68185602086016119fe565b6125bf81611a28565b840191505092915050565b60006080820190506125df6000830187611b29565b6125ec6020830186611b29565b6125f96040830185611bbf565b818103606083015261260b8184612591565b905095945050505050565b60008151905061262581611953565b92915050565b6000602082840312156126415761264061191d565b5b600061264f84828501612616565b91505092915050565b7f4552433732313a206d696e7420746f20746865207a65726f2061646472657373600082015250565b600061268e6020836119ed565b915061269982612658565b602082019050919050565b600060208201905081810360008301526126bd81612681565b9050919050565b7f4552433732313a20746f6b656e20616c7265616479206d696e74656400000000600082015250565b60006126fa601c836119ed565b9150612705826126c4565b602082019050919050565b60006020820190508181036000830152612729816126ed565b905091905056fea2646970667358221220e12193281bedb2a0e3b2907d249ab48377817abbb9a4bcdfde9e2eb9de8be3e664736f6c634300081b0033","opcodes":"PUSH1 0x80 PUSH1 0x40 MSTORE CALLVALUE DUP1 ISZERO PUSH2 0x10 JUMPI PUSH1 0x0 DUP1 REVERT JUMPDEST POP PUSH1 0x40 MLOAD DUP1 PUSH1 0x40 ADD PUSH1 0x40 MSTORE DUP1 PUSH1 0x9 DUP2 MSTORE PUSH1 0x20 ADD PUSH32 0x4F7665726D696E74310000000000000000000000000000000000000000000000 DUP2 MSTORE POP PUSH1 0x40 MLOAD DUP1 PUSH1 0x40 ADD PUSH1 0x40 MSTORE DUP1 PUSH1 0x2 DUP2 MSTORE PUSH1 0x20 ADD PUSH32 0x4154000000000000000000000000000000000000000000000000000000000000 DUP2 MSTORE POP DUP2 PUSH1 0x0 SWAP1 DUP2 PUSH2 0x8C SWAP2 SWAP1 PUSH2 0x2F4 JUMP JUMPDEST POP DUP1 PUSH1 0x1 SWAP1 DUP2 PUSH2 0x9C SWAP2 SWAP1 PUSH2 0x2F4 JUMP JUMPDEST POP POP POP PUSH2 0x3C6 JUMP JUMPDEST PUSH1 0x0 DUP2 MLOAD SWAP1 POP SWAP2 SWAP1 POP JUMP JUMPDEST PUSH32 0x4E487B7100000000000000000000000000000000000000000000000000000000 PUSH1 0x0 MSTORE PUSH1 0x41 PUSH1 0x4 MSTORE PUSH1 0x24 PUSH1 0x0 REVERT JUMPDEST PUSH32 0x4E487B7100000000000000000000000000000000000000000000000000000000 PUSH1 0x0 MSTORE PUSH1 0x22 PUSH1 0x4 MSTORE PUSH1 0x24 PUSH1 0x0 REVERT JUMPDEST PUSH1 0x0 PUSH1 0x2 DUP3 DIV SWAP1 POP PUSH1 0x1 DUP3 AND DUP1 PUSH2 0x125 JUMPI PUSH1 0x7F DUP3 AND SWAP2 POP JUMPDEST PUSH1 0x20 DUP3 LT DUP2 SUB PUSH2 0x138 JUMPI PUSH2 0x137 PUSH2 0xDE JUMP JUMPDEST JUMPDEST POP SWAP2 SWAP1 POP JUMP JUMPDEST PUSH1 0x0 DUP2 SWAP1 POP DUP2 PUSH1 0x0 MSTORE PUSH1 0x20 PUSH1 0x0 KECCAK256 SWAP1 POP SWAP2 SWAP1 POP JUMP JUMPDEST PUSH1 0x0 PUSH1 0x20 PUSH1 0x1F DUP4 ADD DIV SWAP1 POP SWAP2 SWAP1 POP JUMP JUMPDEST PUSH1 0x0 DUP3 DUP3 SHL SWAP1 POP SWAP3 SWAP2 POP POP JUMP JUMPDEST PUSH1 0x0 PUSH1 0x8 DUP4 MUL PUSH2 0x1A0 PUSH32 0xFFFFFFFFFFFFFFFFFFFFFFFFFFFFFFFFFFFFFFFFFFFFFFFFFFFFFFFFFFFFFFFF DUP3 PUSH2 0x163 JUMP JUMPDEST PUSH2 0x1AA DUP7 DUP4 PUSH2 0x163 JUMP JUMPDEST SWAP6 POP DUP1 NOT DUP5 AND SWAP4 POP DUP1 DUP7 AND DUP5 OR SWAP3 POP POP POP SWAP4 SWAP3 POP POP POP JUMP JUMPDEST PUSH1 0x0 DUP2 SWAP1 POP SWAP2 SWAP1 POP JUMP JUMPDEST PUSH1 0x0 DUP2 SWAP1 POP SWAP2 SWAP1 POP JUMP JUMPDEST PUSH1 0x0 PUSH2 0x1F1 PUSH2 0x1EC PUSH2 0x1E7 DUP5 PUSH2 0x1C2 JUMP JUMPDEST PUSH2 0x1CC JUMP JUMPDEST PUSH2 0x1C2 JUMP JUMPDEST SWAP1 POP SWAP2 SWAP1 POP JUMP JUMPDEST PUSH1 0x0 DUP2 SWAP1 POP SWAP2 SWAP1 POP JUMP JUMPDEST PUSH2 0x20B DUP4 PUSH2 0x1D6 JUMP JUMPDEST PUSH2 0x21F PUSH2 0x217 DUP3 PUSH2 0x1F8 JUMP JUMPDEST DUP5 DUP5 SLOAD PUSH2 0x170 JUMP JUMPDEST DUP3 SSTORE POP POP POP POP JUMP JUMPDEST PUSH1 0x0 SWAP1 JUMP JUMPDEST PUSH2 0x234 PUSH2 0x227 JUMP JUMPDEST PUSH2 0x23F DUP2 DUP5 DUP5 PUSH2 0x202 JUMP JUMPDEST POP POP POP JUMP JUMPDEST JUMPDEST DUP2 DUP2 LT ISZERO PUSH2 0x263 JUMPI PUSH2 0x258 PUSH1 0x0 DUP3 PUSH2 0x22C JUMP JUMPDEST PUSH1 0x1 DUP2 ADD SWAP1 POP PUSH2 0x245 JUMP JUMPDEST POP POP JUMP JUMPDEST PUSH1 0x1F DUP3 GT ISZERO PUSH2 0x2A8 JUMPI PUSH2 0x279 DUP2 PUSH2 0x13E JUMP JUMPDEST PUSH2 0x282 DUP5 PUSH2 0x153 JUMP JUMPDEST DUP2 ADD PUSH1 0x20 DUP6 LT ISZERO PUSH2 0x291 JUMPI DUP2 SWAP1 POP JUMPDEST PUSH2 0x2A5 PUSH2 0x29D DUP6 PUSH2 0x153 JUMP JUMPDEST DUP4 ADD DUP3 PUSH2 0x244 JUMP JUMPDEST POP POP JUMPDEST POP POP POP JUMP JUMPDEST PUSH1 0x0 DUP3 DUP3 SHR SWAP1 POP SWAP3 SWAP2 POP POP JUMP JUMPDEST PUSH1 0x0 PUSH2 0x2CB PUSH1 0x0 NOT DUP5 PUSH1 0x8 MUL PUSH2 0x2AD JUMP JUMPDEST NOT DUP1 DUP4 AND SWAP2 POP POP SWAP3 SWAP2 POP POP JUMP JUMPDEST PUSH1 0x0 PUSH2 0x2E4 DUP4 DUP4 PUSH2 0x2BA JUMP JUMPDEST SWAP2 POP DUP3 PUSH1 0x2 MUL DUP3 OR SWAP1 POP SWAP3 SWAP2 POP POP JUMP JUMPDEST PUSH2 0x2FD DUP3 PUSH2 0xA4 JUMP JUMPDEST PUSH8 0xFFFFFFFFFFFFFFFF DUP2 GT ISZERO PUSH2 0x316 JUMPI PUSH2 0x315 PUSH2 0xAF JUMP JUMPDEST JUMPDEST PUSH2 0x320 DUP3 SLOAD PUSH2 0x10D JUMP JUMPDEST PUSH2 0x32B DUP3 DUP3 DUP6 PUSH2 0x267 JUMP JUMPDEST PUSH1 0x0 PUSH1 0x20 SWAP1 POP PUSH1 0x1F DUP4 GT PUSH1 0x1 DUP2 EQ PUSH2 0x35E JUMPI PUSH1 0x0 DUP5 ISZERO PUSH2 0x34C JUMPI DUP3 DUP8 ADD MLOAD SWAP1 POP JUMPDEST PUSH2 0x356 DUP6 DUP3 PUSH2 0x2D8 JUMP JUMPDEST DUP7 SSTORE POP PUSH2 0x3BE JUMP JUMPDEST PUSH1 0x1F NOT DUP5 AND PUSH2 0x36C DUP7 PUSH2 0x13E JUMP JUMPDEST PUSH1 0x0 JUMPDEST DUP3 DUP2 LT ISZERO PUSH2 0x394 JUMPI DUP5 DUP10 ADD MLOAD DUP3 SSTORE PUSH1 0x1 DUP3 ADD SWAP2 POP PUSH1 0x20 DUP6 ADD SWAP5 POP PUSH1 0x20 DUP2 ADD SWAP1 POP PUSH2 0x36F JUMP JUMPDEST DUP7 DUP4 LT ISZERO PUSH2 0x3B1 JUMPI DUP5 DUP10 ADD MLOAD PUSH2 0x3AD PUSH1 0x1F DUP10 AND DUP3 PUSH2 0x2BA JUMP JUMPDEST DUP4 SSTORE POP JUMPDEST PUSH1 0x1 PUSH1 0x2 DUP9 MUL ADD DUP9 SSTORE POP POP POP JUMPDEST POP POP POP POP POP POP JUMP JUMPDEST PUSH2 0x2766 DUP1 PUSH2 0x3D5 PUSH1 0x0 CODECOPY PUSH1 0x0 RETURN INVALID PUSH1 0x80 PUSH1 0x40 MSTORE CALLVALUE DUP1 ISZERO PUSH2 0x10 JUMPI PUSH1 0x0 DUP1 REVERT JUMPDEST POP PUSH1 0x4 CALLDATASIZE LT PUSH2 0x10B JUMPI PUSH1 0x0 CALLDATALOAD PUSH1 0xE0 SHR DUP1 PUSH4 0x42842E0E GT PUSH2 0xA2 JUMPI DUP1 PUSH4 0x95D89B41 GT PUSH2 0x71 JUMPI DUP1 PUSH4 0x95D89B41 EQ PUSH2 0x2CA JUMPI DUP1 PUSH4 0xA22CB465 EQ PUSH2 0x2E8 JUMPI DUP1 PUSH4 0xB88D4FDE EQ PUSH2 0x304 JUMPI DUP1 PUSH4 0xC87B56DD EQ PUSH2 0x320 JUMPI DUP1 PUSH4 0xE985E9C5 EQ PUSH2 0x350 JUMPI PUSH2 0x10B JUMP JUMPDEST DUP1 PUSH4 0x42842E0E EQ PUSH2 0x21E JUMPI DUP1 PUSH4 0x438A67E7 EQ PUSH2 0x23A JUMPI DUP1 PUSH4 0x6352211E EQ PUSH2 0x26A JUMPI DUP1 PUSH4 0x70A08231 EQ PUSH2 0x29A JUMPI PUSH2 0x10B JUMP JUMPDEST DUP1 PUSH4 0x1249C58B GT PUSH2 0xDE JUMPI DUP1 PUSH4 0x1249C58B EQ PUSH2 0x1AA JUMPI DUP1 PUSH4 0x18160DDD EQ PUSH2 0x1B4 JUMPI DUP1 PUSH4 0x23B872DD EQ PUSH2 0x1D2 JUMPI DUP1 PUSH4 0x26E4BAAE EQ PUSH2 0x1EE JUMPI PUSH2 0x10B JUMP JUMPDEST DUP1 PUSH4 0x1FFC9A7 EQ PUSH2 0x110 JUMPI DUP1 PUSH4 0x6FDDE03 EQ PUSH2 0x140 JUMPI DUP1 PUSH4 0x81812FC EQ PUSH2 0x15E JUMPI DUP1 PUSH4 0x95EA7B3 EQ PUSH2 0x18E JUMPI JUMPDEST PUSH1 0x0 DUP1 REVERT JUMPDEST PUSH2 0x12A PUSH1 0x4 DUP1 CALLDATASIZE SUB DUP2 ADD SWAP1 PUSH2 0x125 SWAP2 SWAP1 PUSH2 0x197F JUMP JUMPDEST PUSH2 0x380 JUMP JUMPDEST PUSH1 0x40 MLOAD PUSH2 0x137 SWAP2 SWAP1 PUSH2 0x19C7 JUMP JUMPDEST PUSH1 0x40 MLOAD DUP1 SWAP2 SUB SWAP1 RETURN JUMPDEST PUSH2 0x148 PUSH2 0x462 JUMP JUMPDEST PUSH1 0x40 MLOAD PUSH2 0x155 SWAP2 SWAP1 PUSH2 0x1A72 JUMP JUMPDEST PUSH1 0x40 MLOAD DUP1 SWAP2 SUB SWAP1 RETURN JUMPDEST PUSH2 0x178 PUSH1 0x4 DUP1 CALLDATASIZE SUB DUP2 ADD SWAP1 PUSH2 0x173 SWAP2 SWAP1 PUSH2 0x1ACA JUMP JUMPDEST PUSH2 0x4F4 JUMP JUMPDEST PUSH1 0x40 MLOAD PUSH2 0x185 SWAP2 SWAP1 PUSH2 0x1B38 JUMP JUMPDEST PUSH1 0x40 MLOAD DUP1 SWAP2 SUB SWAP1 RETURN JUMPDEST PUSH2 0x1A8 PUSH1 0x4 DUP1 CALLDATASIZE SUB DUP2 ADD SWAP1 PUSH2 0x1A3 SWAP2 SWAP1 PUSH2 0x1B7F JUMP JUMPDEST PUSH2 0x53A JUMP JUMPDEST STOP JUMPDEST PUSH2 0x1B2 PUSH2 0x651 JUMP JUMPDEST STOP JUMPDEST PUSH2 0x1BC PUSH2 0x74F JUMP JUMPDEST PUSH1 0x40 MLOAD PUSH2 0x1C9 SWAP2 SWAP1 PUSH2 0x1BCE JUMP JUMPDEST PUSH1 0x40 MLOAD DUP1 SWAP2 SUB SWAP1 RETURN JUMPDEST PUSH2 0x1EC PUSH1 0x4 DUP1 CALLDATASIZE SUB DUP2 ADD SWAP1 PUSH2 0x1E7 SWAP2 SWAP1 PUSH2 0x1BE9 JUMP JUMPDEST PUSH2 0x755 JUMP JUMPDEST STOP JUMPDEST PUSH2 0x208 PUSH1 0x4 DUP1 CALLDATASIZE SUB DUP2 ADD SWAP1 PUSH2 0x203 SWAP2 SWAP1 PUSH2 0x1C3C JUMP JUMPDEST PUSH2 0x7B5 JUMP JUMPDEST PUSH1 0x40 MLOAD PUSH2 0x215 SWAP2 SWAP1 PUSH2 0x19C7 JUMP JUMPDEST PUSH1 0x40 MLOAD DUP1 SWAP2 SUB SWAP1 RETURN JUMPDEST PUSH2 0x238 PUSH1 0x4 DUP1 CALLDATASIZE SUB DUP2 ADD SWAP1 PUSH2 0x233 SWAP2 SWAP1 PUSH2 0x1BE9 JUMP JUMPDEST PUSH2 0x7CA JUMP JUMPDEST STOP JUMPDEST PUSH2 0x254 PUSH1 0x4 DUP1 CALLDATASIZE SUB DUP2 ADD SWAP1 PUSH2 0x24F SWAP2 SWAP1 PUSH2 0x1C3C JUMP JUMPDEST PUSH2 0x7EA JUMP JUMPDEST PUSH1 0x40 MLOAD PUSH2 0x261 SWAP2 SWAP1 PUSH2 0x1BCE JUMP JUMPDEST PUSH1 0x40 MLOAD DUP1 SWAP2 SUB SWAP1 RETURN JUMPDEST PUSH2 0x284 PUSH1 0x4 DUP1 CALLDATASIZE SUB DUP2 ADD SWAP1 PUSH2 0x27F SWAP2 SWAP1 PUSH2 0x1ACA JUMP JUMPDEST PUSH2 0x802 JUMP JUMPDEST PUSH1 0x40 MLOAD PUSH2 0x291 SWAP2 SWAP1 PUSH2 0x1B38 JUMP JUMPDEST PUSH1 0x40 MLOAD DUP1 SWAP2 SUB SWAP1 RETURN JUMPDEST PUSH2 0x2B4 PUSH1 0x4 DUP1 CALLDATASIZE SUB DUP2 ADD SWAP1 PUSH2 0x2AF SWAP2 SWAP1 PUSH2 0x1C3C JUMP JUMPDEST PUSH2 0x888 JUMP JUMPDEST PUSH1 0x40 MLOAD PUSH2 0x2C1 SWAP2 SWAP1 PUSH2 0x1BCE JUMP JUMPDEST PUSH1 0x40 MLOAD DUP1 SWAP2 SUB SWAP1 RETURN JUMPDEST PUSH2 0x2D2 PUSH2 0x93F JUMP JUMPDEST PUSH1 0x40 MLOAD PUSH2 0x2DF SWAP2 SWAP1 PUSH2 0x1A72 JUMP JUMPDEST PUSH1 0x40 MLOAD DUP1 SWAP2 SUB SWAP1 RETURN JUMPDEST PUSH2 0x302 PUSH1 0x4 DUP1 CALLDATASIZE SUB DUP2 ADD SWAP1 PUSH2 0x2FD SWAP2 SWAP1 PUSH2 0x1C95 JUMP JUMPDEST PUSH2 0x9D1 JUMP JUMPDEST STOP JUMPDEST PUSH2 0x31E PUSH1 0x4 DUP1 CALLDATASIZE SUB DUP2 ADD SWAP1 PUSH2 0x319 SWAP2 SWAP1 PUSH2 0x1E0A JUMP JUMPDEST PUSH2 0x9E7 JUMP JUMPDEST STOP JUMPDEST PUSH2 0x33A PUSH1 0x4 DUP1 CALLDATASIZE SUB DUP2 ADD SWAP1 PUSH2 0x335 SWAP2 SWAP1 PUSH2 0x1ACA JUMP JUMPDEST PUSH2 0xA49 JUMP JUMPDEST PUSH1 0x40 MLOAD PUSH2 0x347 SWAP2 SWAP1 PUSH2 0x1A72 JUMP JUMPDEST PUSH1 0x40 MLOAD DUP1 SWAP2 SUB SWAP1 RETURN JUMPDEST PUSH2 0x36A PUSH1 0x4 DUP1 CALLDATASIZE SUB DUP2 ADD SWAP1 PUSH2 0x365 SWAP2 SWAP1 PUSH2 0x1E8D JUMP JUMPDEST PUSH2 0xAB1 JUMP JUMPDEST PUSH1 0x40 MLOAD PUSH2 0x377 SWAP2 SWAP1 PUSH2 0x19C7 JUMP JUMPDEST PUSH1 0x40 MLOAD DUP1 SWAP2 SUB SWAP1 RETURN JUMPDEST PUSH1 0x0 PUSH32 0x80AC58CD00000000000000000000000000000000000000000000000000000000 PUSH28 0xFFFFFFFFFFFFFFFFFFFFFFFFFFFFFFFFFFFFFFFFFFFFFFFFFFFFFFFF NOT AND DUP3 PUSH28 0xFFFFFFFFFFFFFFFFFFFFFFFFFFFFFFFFFFFFFFFFFFFFFFFFFFFFFFFF NOT AND EQ DUP1 PUSH2 0x44B JUMPI POP PUSH32 0x5B5E139F00000000000000000000000000000000000000000000000000000000 PUSH28 0xFFFFFFFFFFFFFFFFFFFFFFFFFFFFFFFFFFFFFFFFFFFFFFFFFFFFFFFF NOT AND DUP3 PUSH28 0xFFFFFFFFFFFFFFFFFFFFFFFFFFFFFFFFFFFFFFFFFFFFFFFFFFFFFFFF NOT AND EQ JUMPDEST DUP1 PUSH2 0x45B JUMPI POP PUSH2 0x45A DUP3 PUSH2 0xB45 JUMP JUMPDEST JUMPDEST SWAP1 POP SWAP2 SWAP1 POP JUMP JUMPDEST PUSH1 0x60 PUSH1 0x0 DUP1 SLOAD PUSH2 0x471 SWAP1 PUSH2 0x1EFC JUMP JUMPDEST DUP1 PUSH1 0x1F ADD PUSH1 0x20 DUP1 SWAP2 DIV MUL PUSH1 0x20 ADD PUSH1 0x40 MLOAD SWAP1 DUP2 ADD PUSH1 0x40 MSTORE DUP1 SWAP3 SWAP2 SWAP1 DUP2 DUP2 MSTORE PUSH1 0x20 ADD DUP3 DUP1 SLOAD PUSH2 0x49D SWAP1 PUSH2 0x1EFC JUMP JUMPDEST DUP1 ISZERO PUSH2 0x4EA JUMPI DUP1 PUSH1 0x1F LT PUSH2 0x4BF JUMPI PUSH2 0x100 DUP1 DUP4 SLOAD DIV MUL DUP4 MSTORE SWAP2 PUSH1 0x20 ADD SWAP2 PUSH2 0x4EA JUMP JUMPDEST DUP3 ADD SWAP2 SWAP1 PUSH1 0x0 MSTORE PUSH1 0x20 PUSH1 0x0 KECCAK256 SWAP1 JUMPDEST DUP2 SLOAD DUP2 MSTORE SWAP1 PUSH1 0x1 ADD SWAP1 PUSH1 0x20 ADD DUP1 DUP4 GT PUSH2 0x4CD JUMPI DUP3 SWAP1 SUB PUSH1 0x1F AND DUP3 ADD SWAP2 JUMPDEST POP POP POP POP POP SWAP1 POP SWAP1 JUMP JUMPDEST PUSH1 0x0 PUSH2 0x4FF DUP3 PUSH2 0xBAF JUMP JUMPDEST PUSH1 0x4 PUSH1 0x0 DUP4 DUP2 MSTORE PUSH1 0x20 ADD SWAP1 DUP2 MSTORE PUSH1 0x20 ADD PUSH1 0x0 KECCAK256 PUSH1 0x0 SWAP1 SLOAD SWAP1 PUSH2 0x100 EXP SWAP1 DIV PUSH20 0xFFFFFFFFFFFFFFFFFFFFFFFFFFFFFFFFFFFFFFFF AND SWAP1 POP SWAP2 SWAP1 POP JUMP JUMPDEST PUSH1 0x0 PUSH2 0x545 DUP3 PUSH2 0x802 JUMP JUMPDEST SWAP1 POP DUP1 PUSH20 0xFFFFFFFFFFFFFFFFFFFFFFFFFFFFFFFFFFFFFFFF AND DUP4 PUSH20 0xFFFFFFFFFFFFFFFFFFFFFFFFFFFFFFFFFFFFFFFF AND SUB PUSH2 0x5B5 JUMPI PUSH1 0x40 MLOAD PUSH32 0x8C379A000000000000000000000000000000000000000000000000000000000 DUP2 MSTORE PUSH1 0x4 ADD PUSH2 0x5AC SWAP1 PUSH2 0x1F9F JUMP JUMPDEST PUSH1 0x40 MLOAD DUP1 SWAP2 SUB SWAP1 REVERT JUMPDEST DUP1 PUSH20 0xFFFFFFFFFFFFFFFFFFFFFFFFFFFFFFFFFFFFFFFF AND PUSH2 0x5D4 PUSH2 0xBFA JUMP JUMPDEST PUSH20 0xFFFFFFFFFFFFFFFFFFFFFFFFFFFFFFFFFFFFFFFF AND EQ DUP1 PUSH2 0x603 JUMPI POP PUSH2 0x602 DUP2 PUSH2 0x5FD PUSH2 0xBFA JUMP JUMPDEST PUSH2 0xAB1 JUMP JUMPDEST JUMPDEST PUSH2 0x642 JUMPI PUSH1 0x40 MLOAD PUSH32 0x8C379A000000000000000000000000000000000000000000000000000000000 DUP2 MSTORE PUSH1 0x4 ADD PUSH2 0x639 SWAP1 PUSH2 0x2031 JUMP JUMPDEST PUSH1 0x40 MLOAD DUP1 SWAP2 SUB SWAP1 REVERT JUMPDEST PUSH2 0x64C DUP4 DUP4 PUSH2 0xC02 JUMP JUMPDEST POP POP POP JUMP JUMPDEST PUSH1 0x3 PUSH1 0x6 PUSH1 0x0 CALLER PUSH20 0xFFFFFFFFFFFFFFFFFFFFFFFFFFFFFFFFFFFFFFFF AND PUSH20 0xFFFFFFFFFFFFFFFFFFFFFFFFFFFFFFFFFFFFFFFF AND DUP2 MSTORE PUSH1 0x20 ADD SWAP1 DUP2 MSTORE PUSH1 0x20 ADD PUSH1 0x0 KECCAK256 SLOAD GT ISZERO PUSH2 0x6D4 JUMPI PUSH1 0x40 MLOAD PUSH32 0x8C379A000000000000000000000000000000000000000000000000000000000 DUP2 MSTORE PUSH1 0x4 ADD PUSH2 0x6CB SWAP1 PUSH2 0x209D JUMP JUMPDEST PUSH1 0x40 MLOAD DUP1 SWAP2 SUB SWAP1 REVERT JUMPDEST PUSH1 0x7 PUSH1 0x0 DUP2 SLOAD DUP1 SWAP3 SWAP2 SWAP1 PUSH2 0x6E7 SWAP1 PUSH2 0x20EC JUMP JUMPDEST SWAP2 SWAP1 POP SSTORE POP PUSH2 0x6F8 CALLER PUSH1 0x7 SLOAD PUSH2 0xCBB JUMP JUMPDEST PUSH1 0x6 PUSH1 0x0 CALLER PUSH20 0xFFFFFFFFFFFFFFFFFFFFFFFFFFFFFFFFFFFFFFFF AND PUSH20 0xFFFFFFFFFFFFFFFFFFFFFFFFFFFFFFFFFFFFFFFF AND DUP2 MSTORE PUSH1 0x20 ADD SWAP1 DUP2 MSTORE PUSH1 0x20 ADD PUSH1 0x0 KECCAK256 PUSH1 0x0 DUP2 SLOAD DUP1 SWAP3 SWAP2 SWAP1 PUSH2 0x748 SWAP1 PUSH2 0x20EC JUMP JUMPDEST SWAP2 SWAP1 POP SSTORE POP JUMP JUMPDEST PUSH1 0x7 SLOAD DUP2 JUMP JUMPDEST PUSH2 0x766 PUSH2 0x760 PUSH2 0xBFA JUMP JUMPDEST DUP3 PUSH2 0xCD9 JUMP JUMPDEST PUSH2 0x7A5 JUMPI PUSH1 0x40 MLOAD PUSH32 0x8C379A000000000000000000000000000000000000000000000000000000000 DUP2 MSTORE PUSH1 0x4 ADD PUSH2 0x79C SWAP1 PUSH2 0x21A6 JUMP JUMPDEST PUSH1 0x40 MLOAD DUP1 SWAP2 SUB SWAP1 REVERT JUMPDEST PUSH2 0x7B0 DUP4 DUP4 DUP4 PUSH2 0xD6E JUMP JUMPDEST POP POP POP JUMP JUMPDEST PUSH1 0x0 PUSH1 0x5 PUSH2 0x7C2 DUP4 PUSH2 0x888 JUMP JUMPDEST EQ SWAP1 POP SWAP2 SWAP1 POP JUMP JUMPDEST PUSH2 0x7E5 DUP4 DUP4 DUP4 PUSH1 0x40 MLOAD DUP1 PUSH1 0x20 ADD PUSH1 0x40 MSTORE DUP1 PUSH1 0x0 DUP2 MSTORE POP PUSH2 0x9E7 JUMP JUMPDEST POP POP POP JUMP JUMPDEST PUSH1 0x6 PUSH1 0x20 MSTORE DUP1 PUSH1 0x0 MSTORE PUSH1 0x40 PUSH1 0x0 KECCAK256 PUSH1 0x0 SWAP2 POP SWAP1 POP SLOAD DUP2 JUMP JUMPDEST PUSH1 0x0 DUP1 PUSH2 0x80E DUP4 PUSH2 0x1067 JUMP JUMPDEST SWAP1 POP PUSH1 0x0 PUSH20 0xFFFFFFFFFFFFFFFFFFFFFFFFFFFFFFFFFFFFFFFF AND DUP2 PUSH20 0xFFFFFFFFFFFFFFFFFFFFFFFFFFFFFFFFFFFFFFFF AND SUB PUSH2 0x87F JUMPI PUSH1 0x40 MLOAD PUSH32 0x8C379A000000000000000000000000000000000000000000000000000000000 DUP2 MSTORE PUSH1 0x4 ADD PUSH2 0x876 SWAP1 PUSH2 0x2212 JUMP JUMPDEST PUSH1 0x40 MLOAD DUP1 SWAP2 SUB SWAP1 REVERT JUMPDEST DUP1 SWAP2 POP POP SWAP2 SWAP1 POP JUMP JUMPDEST PUSH1 0x0 DUP1 PUSH20 0xFFFFFFFFFFFFFFFFFFFFFFFFFFFFFFFFFFFFFFFF AND DUP3 PUSH20 0xFFFFFFFFFFFFFFFFFFFFFFFFFFFFFFFFFFFFFFFF AND SUB PUSH2 0x8F8 JUMPI PUSH1 0x40 MLOAD PUSH32 0x8C379A000000000000000000000000000000000000000000000000000000000 DUP2 MSTORE PUSH1 0x4 ADD PUSH2 0x8EF SWAP1 PUSH2 0x22A4 JUMP JUMPDEST PUSH1 0x40 MLOAD DUP1 SWAP2 SUB SWAP1 REVERT JUMPDEST PUSH1 0x3 PUSH1 0x0 DUP4 PUSH20 0xFFFFFFFFFFFFFFFFFFFFFFFFFFFFFFFFFFFFFFFF AND PUSH20 0xFFFFFFFFFFFFFFFFFFFFFFFFFFFFFFFFFFFFFFFF AND DUP2 MSTORE PUSH1 0x20 ADD SWAP1 DUP2 MSTORE PUSH1 0x20 ADD PUSH1 0x0 KECCAK256 SLOAD SWAP1 POP SWAP2 SWAP1 POP JUMP JUMPDEST PUSH1 0x60 PUSH1 0x1 DUP1 SLOAD PUSH2 0x94E SWAP1 PUSH2 0x1EFC JUMP JUMPDEST DUP1 PUSH1 0x1F ADD PUSH1 0x20 DUP1 SWAP2 DIV MUL PUSH1 0x20 ADD PUSH1 0x40 MLOAD SWAP1 DUP2 ADD PUSH1 0x40 MSTORE DUP1 SWAP3 SWAP2 SWAP1 DUP2 DUP2 MSTORE PUSH1 0x20 ADD DUP3 DUP1 SLOAD PUSH2 0x97A SWAP1 PUSH2 0x1EFC JUMP JUMPDEST DUP1 ISZERO PUSH2 0x9C7 JUMPI DUP1 PUSH1 0x1F LT PUSH2 0x99C JUMPI PUSH2 0x100 DUP1 DUP4 SLOAD DIV MUL DUP4 MSTORE SWAP2 PUSH1 0x20 ADD SWAP2 PUSH2 0x9C7 JUMP JUMPDEST DUP3 ADD SWAP2 SWAP1 PUSH1 0x0 MSTORE PUSH1 0x20 PUSH1 0x0 KECCAK256 SWAP1 JUMPDEST DUP2 SLOAD DUP2 MSTORE SWAP1 PUSH1 0x1 ADD SWAP1 PUSH1 0x20 ADD DUP1 DUP4 GT PUSH2 0x9AA JUMPI DUP3 SWAP1 SUB PUSH1 0x1F AND DUP3 ADD SWAP2 JUMPDEST POP POP POP POP POP SWAP1 POP SWAP1 JUMP JUMPDEST PUSH2 0x9E3 PUSH2 0x9DC PUSH2 0xBFA JUMP JUMPDEST DUP4 DUP4 PUSH2 0x10A4 JUMP JUMPDEST POP POP JUMP JUMPDEST PUSH2 0x9F8 PUSH2 0x9F2 PUSH2 0xBFA JUMP JUMPDEST DUP4 PUSH2 0xCD9 JUMP JUMPDEST PUSH2 0xA37 JUMPI PUSH1 0x40 MLOAD PUSH32 0x8C379A000000000000000000000000000000000000000000000000000000000 DUP2 MSTORE PUSH1 0x4 ADD PUSH2 0xA2E SWAP1 PUSH2 0x21A6 JUMP JUMPDEST PUSH1 0x40 MLOAD DUP1 SWAP2 SUB SWAP1 REVERT JUMPDEST PUSH2 0xA43 DUP5 DUP5 DUP5 DUP5 PUSH2 0x1210 JUMP JUMPDEST POP POP POP POP JUMP JUMPDEST PUSH1 0x60 PUSH2 0xA54 DUP3 PUSH2 0xBAF JUMP JUMPDEST PUSH1 0x0 PUSH2 0xA5E PUSH2 0x126C JUMP JUMPDEST SWAP1 POP PUSH1 0x0 DUP2 MLOAD GT PUSH2 0xA7E JUMPI PUSH1 0x40 MLOAD DUP1 PUSH1 0x20 ADD PUSH1 0x40 MSTORE DUP1 PUSH1 0x0 DUP2 MSTORE POP PUSH2 0xAA9 JUMP JUMPDEST DUP1 PUSH2 0xA88 DUP5 PUSH2 0x1283 JUMP JUMPDEST PUSH1 0x40 MLOAD PUSH1 0x20 ADD PUSH2 0xA99 SWAP3 SWAP2 SWAP1 PUSH2 0x2300 JUMP JUMPDEST PUSH1 0x40 MLOAD PUSH1 0x20 DUP2 DUP4 SUB SUB DUP2 MSTORE SWAP1 PUSH1 0x40 MSTORE JUMPDEST SWAP2 POP POP SWAP2 SWAP1 POP JUMP JUMPDEST PUSH1 0x0 PUSH1 0x5 PUSH1 0x0 DUP5 PUSH20 0xFFFFFFFFFFFFFFFFFFFFFFFFFFFFFFFFFFFFFFFF AND PUSH20 0xFFFFFFFFFFFFFFFFFFFFFFFFFFFFFFFFFFFFFFFF AND DUP2 MSTORE PUSH1 0x20 ADD SWAP1 DUP2 MSTORE PUSH1 0x20 ADD PUSH1 0x0 KECCAK256 PUSH1 0x0 DUP4 PUSH20 0xFFFFFFFFFFFFFFFFFFFFFFFFFFFFFFFFFFFFFFFF AND PUSH20 0xFFFFFFFFFFFFFFFFFFFFFFFFFFFFFFFFFFFFFFFF AND DUP2 MSTORE PUSH1 0x20 ADD SWAP1 DUP2 MSTORE PUSH1 0x20 ADD PUSH1 0x0 KECCAK256 PUSH1 0x0 SWAP1 SLOAD SWAP1 PUSH2 0x100 EXP SWAP1 DIV PUSH1 0xFF AND SWAP1 POP SWAP3 SWAP2 POP POP JUMP JUMPDEST PUSH1 0x0 PUSH32 0x1FFC9A700000000000000000000000000000000000000000000000000000000 PUSH28 0xFFFFFFFFFFFFFFFFFFFFFFFFFFFFFFFFFFFFFFFFFFFFFFFFFFFFFFFF NOT AND DUP3 PUSH28 0xFFFFFFFFFFFFFFFFFFFFFFFFFFFFFFFFFFFFFFFFFFFFFFFFFFFFFFFF NOT AND EQ SWAP1 POP SWAP2 SWAP1 POP JUMP JUMPDEST PUSH2 0xBB8 DUP2 PUSH2 0x1351 JUMP JUMPDEST PUSH2 0xBF7 JUMPI PUSH1 0x40 MLOAD PUSH32 0x8C379A000000000000000000000000000000000000000000000000000000000 DUP2 MSTORE PUSH1 0x4 ADD PUSH2 0xBEE SWAP1 PUSH2 0x2212 JUMP JUMPDEST PUSH1 0x40 MLOAD DUP1 SWAP2 SUB SWAP1 REVERT JUMPDEST POP JUMP JUMPDEST PUSH1 0x0 CALLER SWAP1 POP SWAP1 JUMP JUMPDEST DUP2 PUSH1 0x4 PUSH1 0x0 DUP4 DUP2 MSTORE PUSH1 0x20 ADD SWAP1 DUP2 MSTORE PUSH1 0x20 ADD PUSH1 0x0 KECCAK256 PUSH1 0x0 PUSH2 0x100 EXP DUP2 SLOAD DUP2 PUSH20 0xFFFFFFFFFFFFFFFFFFFFFFFFFFFFFFFFFFFFFFFF MUL NOT AND SWAP1 DUP4 PUSH20 0xFFFFFFFFFFFFFFFFFFFFFFFFFFFFFFFFFFFFFFFF AND MUL OR SWAP1 SSTORE POP DUP1 DUP3 PUSH20 0xFFFFFFFFFFFFFFFFFFFFFFFFFFFFFFFFFFFFFFFF AND PUSH2 0xC75 DUP4 PUSH2 0x802 JUMP JUMPDEST PUSH20 0xFFFFFFFFFFFFFFFFFFFFFFFFFFFFFFFFFFFFFFFF AND PUSH32 0x8C5BE1E5EBEC7D5BD14F71427D1E84F3DD0314C0F7B2291E5B200AC8C7C3B925 PUSH1 0x40 MLOAD PUSH1 0x40 MLOAD DUP1 SWAP2 SUB SWAP1 LOG4 POP POP JUMP JUMPDEST PUSH2 0xCD5 DUP3 DUP3 PUSH1 0x40 MLOAD DUP1 PUSH1 0x20 ADD PUSH1 0x40 MSTORE DUP1 PUSH1 0x0 DUP2 MSTORE POP PUSH2 0x1392 JUMP JUMPDEST POP POP JUMP JUMPDEST PUSH1 0x0 DUP1 PUSH2 0xCE5 DUP4 PUSH2 0x802 JUMP JUMPDEST SWAP1 POP DUP1 PUSH20 0xFFFFFFFFFFFFFFFFFFFFFFFFFFFFFFFFFFFFFFFF AND DUP5 PUSH20 0xFFFFFFFFFFFFFFFFFFFFFFFFFFFFFFFFFFFFFFFF AND EQ DUP1 PUSH2 0xD27 JUMPI POP PUSH2 0xD26 DUP2 DUP6 PUSH2 0xAB1 JUMP JUMPDEST JUMPDEST DUP1 PUSH2 0xD65 JUMPI POP DUP4 PUSH20 0xFFFFFFFFFFFFFFFFFFFFFFFFFFFFFFFFFFFFFFFF AND PUSH2 0xD4D DUP5 PUSH2 0x4F4 JUMP JUMPDEST PUSH20 0xFFFFFFFFFFFFFFFFFFFFFFFFFFFFFFFFFFFFFFFF AND EQ JUMPDEST SWAP2 POP POP SWAP3 SWAP2 POP POP JUMP JUMPDEST DUP3 PUSH20 0xFFFFFFFFFFFFFFFFFFFFFFFFFFFFFFFFFFFFFFFF AND PUSH2 0xD8E DUP3 PUSH2 0x802 JUMP JUMPDEST PUSH20 0xFFFFFFFFFFFFFFFFFFFFFFFFFFFFFFFFFFFFFFFF AND EQ PUSH2 0xDE4 JUMPI PUSH1 0x40 MLOAD PUSH32 0x8C379A000000000000000000000000000000000000000000000000000000000 DUP2 MSTORE PUSH1 0x4 ADD PUSH2 0xDDB SWAP1 PUSH2 0x2396 JUMP JUMPDEST PUSH1 0x40 MLOAD DUP1 SWAP2 SUB SWAP1 REVERT JUMPDEST PUSH1 0x0 PUSH20 0xFFFFFFFFFFFFFFFFFFFFFFFFFFFFFFFFFFFFFFFF AND DUP3 PUSH20 0xFFFFFFFFFFFFFFFFFFFFFFFFFFFFFFFFFFFFFFFF AND SUB PUSH2 0xE53 JUMPI PUSH1 0x40 MLOAD PUSH32 0x8C379A000000000000000000000000000000000000000000000000000000000 DUP2 MSTORE PUSH1 0x4 ADD PUSH2 0xE4A SWAP1 PUSH2 0x2428 JUMP JUMPDEST PUSH1 0x40 MLOAD DUP1 SWAP2 SUB SWAP1 REVERT JUMPDEST PUSH2 0xE60 DUP4 DUP4 DUP4 PUSH1 0x1 PUSH2 0x13ED JUMP JUMPDEST DUP3 PUSH20 0xFFFFFFFFFFFFFFFFFFFFFFFFFFFFFFFFFFFFFFFF AND PUSH2 0xE80 DUP3 PUSH2 0x802 JUMP JUMPDEST PUSH20 0xFFFFFFFFFFFFFFFFFFFFFFFFFFFFFFFFFFFFFFFF AND EQ PUSH2 0xED6 JUMPI PUSH1 0x40 MLOAD PUSH32 0x8C379A000000000000000000000000000000000000000000000000000000000 DUP2 MSTORE PUSH1 0x4 ADD PUSH2 0xECD SWAP1 PUSH2 0x2396 JUMP JUMPDEST PUSH1 0x40 MLOAD DUP1 SWAP2 SUB SWAP1 REVERT JUMPDEST PUSH1 0x4 PUSH1 0x0 DUP3 DUP2 MSTORE PUSH1 0x20 ADD SWAP1 DUP2 MSTORE PUSH1 0x20 ADD PUSH1 0x0 KECCAK256 PUSH1 0x0 PUSH2 0x100 EXP DUP2 SLOAD SWAP1 PUSH20 0xFFFFFFFFFFFFFFFFFFFFFFFFFFFFFFFFFFFFFFFF MUL NOT AND SWAP1 SSTORE PUSH1 0x1 PUSH1 0x3 PUSH1 0x0 DUP6 PUSH20 0xFFFFFFFFFFFFFFFFFFFFFFFFFFFFFFFFFFFFFFFF AND PUSH20 0xFFFFFFFFFFFFFFFFFFFFFFFFFFFFFFFFFFFFFFFF AND DUP2 MSTORE PUSH1 0x20 ADD SWAP1 DUP2 MSTORE PUSH1 0x20 ADD PUSH1 0x0 KECCAK256 PUSH1 0x0 DUP3 DUP3 SLOAD SUB SWAP3 POP POP DUP2 SWAP1 SSTORE POP PUSH1 0x1 PUSH1 0x3 PUSH1 0x0 DUP5 PUSH20 0xFFFFFFFFFFFFFFFFFFFFFFFFFFFFFFFFFFFFFFFF AND PUSH20 0xFFFFFFFFFFFFFFFFFFFFFFFFFFFFFFFFFFFFFFFF AND DUP2 MSTORE PUSH1 0x20 ADD SWAP1 DUP2 MSTORE PUSH1 0x20 ADD PUSH1 0x0 KECCAK256 PUSH1 0x0 DUP3 DUP3 SLOAD ADD SWAP3 POP POP DUP2 SWAP1 SSTORE POP DUP2 PUSH1 0x2 PUSH1 0x0 DUP4 DUP2 MSTORE PUSH1 0x20 ADD SWAP1 DUP2 MSTORE PUSH1 0x20 ADD PUSH1 0x0 KECCAK256 PUSH1 0x0 PUSH2 0x100 EXP DUP2 SLOAD DUP2 PUSH20 0xFFFFFFFFFFFFFFFFFFFFFFFFFFFFFFFFFFFFFFFF MUL NOT AND SWAP1 DUP4 PUSH20 0xFFFFFFFFFFFFFFFFFFFFFFFFFFFFFFFFFFFFFFFF AND MUL OR SWAP1 SSTORE POP DUP1 DUP3 PUSH20 0xFFFFFFFFFFFFFFFFFFFFFFFFFFFFFFFFFFFFFFFF AND DUP5 PUSH20 0xFFFFFFFFFFFFFFFFFFFFFFFFFFFFFFFFFFFFFFFF AND PUSH32 0xDDF252AD1BE2C89B69C2B068FC378DAA952BA7F163C4A11628F55A4DF523B3EF PUSH1 0x40 MLOAD PUSH1 0x40 MLOAD DUP1 SWAP2 SUB SWAP1 LOG4 PUSH2 0x1062 DUP4 DUP4 DUP4 PUSH1 0x1 PUSH2 0x13F3 JUMP JUMPDEST POP POP POP JUMP JUMPDEST PUSH1 0x0 PUSH1 0x2 PUSH1 0x0 DUP4 DUP2 MSTORE PUSH1 0x20 ADD SWAP1 DUP2 MSTORE PUSH1 0x20 ADD PUSH1 0x0 KECCAK256 PUSH1 0x0 SWAP1 SLOAD SWAP1 PUSH2 0x100 EXP SWAP1 DIV PUSH20 0xFFFFFFFFFFFFFFFFFFFFFFFFFFFFFFFFFFFFFFFF AND SWAP1 POP SWAP2 SWAP1 POP JUMP JUMPDEST DUP2 PUSH20 0xFFFFFFFFFFFFFFFFFFFFFFFFFFFFFFFFFFFFFFFF AND DUP4 PUSH20 0xFFFFFFFFFFFFFFFFFFFFFFFFFFFFFFFFFFFFFFFF AND SUB PUSH2 0x1112 JUMPI PUSH1 0x40 MLOAD PUSH32 0x8C379A000000000000000000000000000000000000000000000000000000000 DUP2 MSTORE PUSH1 0x4 ADD PUSH2 0x1109 SWAP1 PUSH2 0x2494 JUMP JUMPDEST PUSH1 0x40 MLOAD DUP1 SWAP2 SUB SWAP1 REVERT JUMPDEST DUP1 PUSH1 0x5 PUSH1 0x0 DUP6 PUSH20 0xFFFFFFFFFFFFFFFFFFFFFFFFFFFFFFFFFFFFFFFF AND PUSH20 0xFFFFFFFFFFFFFFFFFFFFFFFFFFFFFFFFFFFFFFFF AND DUP2 MSTORE PUSH1 0x20 ADD SWAP1 DUP2 MSTORE PUSH1 0x20 ADD PUSH1 0x0 KECCAK256 PUSH1 0x0 DUP5 PUSH20 0xFFFFFFFFFFFFFFFFFFFFFFFFFFFFFFFFFFFFFFFF AND PUSH20 0xFFFFFFFFFFFFFFFFFFFFFFFFFFFFFFFFFFFFFFFF AND DUP2 MSTORE PUSH1 0x20 ADD SWAP1 DUP2 MSTORE PUSH1 0x20 ADD PUSH1 0x0 KECCAK256 PUSH1 0x0 PUSH2 0x100 EXP DUP2 SLOAD DUP2 PUSH1 0xFF MUL NOT AND SWAP1 DUP4 ISZERO ISZERO MUL OR SWAP1 SSTORE POP DUP2 PUSH20 0xFFFFFFFFFFFFFFFFFFFFFFFFFFFFFFFFFFFFFFFF AND DUP4 PUSH20 0xFFFFFFFFFFFFFFFFFFFFFFFFFFFFFFFFFFFFFFFF AND PUSH32 0x17307EAB39AB6107E8899845AD3D59BD9653F200F220920489CA2B5937696C31 DUP4 PUSH1 0x40 MLOAD PUSH2 0x1203 SWAP2 SWAP1 PUSH2 0x19C7 JUMP JUMPDEST PUSH1 0x40 MLOAD DUP1 SWAP2 SUB SWAP1 LOG3 POP POP POP JUMP JUMPDEST PUSH2 0x121B DUP5 DUP5 DUP5 PUSH2 0xD6E JUMP JUMPDEST PUSH2 0x1227 DUP5 DUP5 DUP5 DUP5 PUSH2 0x13F9 JUMP JUMPDEST PUSH2 0x1266 JUMPI PUSH1 0x40 MLOAD PUSH32 0x8C379A000000000000000000000000000000000000000000000000000000000 DUP2 MSTORE PUSH1 0x4 ADD PUSH2 0x125D SWAP1 PUSH2 0x2526 JUMP JUMPDEST PUSH1 0x40 MLOAD DUP1 SWAP2 SUB SWAP1 REVERT JUMPDEST POP POP POP POP JUMP JUMPDEST PUSH1 0x60 PUSH1 0x40 MLOAD DUP1 PUSH1 0x20 ADD PUSH1 0x40 MSTORE DUP1 PUSH1 0x0 DUP2 MSTORE POP SWAP1 POP SWAP1 JUMP JUMPDEST PUSH1 0x60 PUSH1 0x0 PUSH1 0x1 PUSH2 0x1292 DUP5 PUSH2 0x1580 JUMP JUMPDEST ADD SWAP1 POP PUSH1 0x0 DUP2 PUSH8 0xFFFFFFFFFFFFFFFF DUP2 GT ISZERO PUSH2 0x12B1 JUMPI PUSH2 0x12B0 PUSH2 0x1CDF JUMP JUMPDEST JUMPDEST PUSH1 0x40 MLOAD SWAP1 DUP1 DUP3 MSTORE DUP1 PUSH1 0x1F ADD PUSH1 0x1F NOT AND PUSH1 0x20 ADD DUP3 ADD PUSH1 0x40 MSTORE DUP1 ISZERO PUSH2 0x12E3 JUMPI DUP2 PUSH1 0x20 ADD PUSH1 0x1 DUP3 MUL DUP1 CALLDATASIZE DUP4 CALLDATACOPY DUP1 DUP3 ADD SWAP2 POP POP SWAP1 POP JUMPDEST POP SWAP1 POP PUSH1 0x0 DUP3 PUSH1 0x20 ADD DUP3 ADD SWAP1 POP JUMPDEST PUSH1 0x1 ISZERO PUSH2 0x1346 JUMPI DUP1 DUP1 PUSH1 0x1 SWAP1 SUB SWAP2 POP POP PUSH32 0x3031323334353637383961626364656600000000000000000000000000000000 PUSH1 0xA DUP7 MOD BYTE DUP2 MSTORE8 PUSH1 0xA DUP6 DUP2 PUSH2 0x133A JUMPI PUSH2 0x1339 PUSH2 0x2546 JUMP JUMPDEST JUMPDEST DIV SWAP5 POP PUSH1 0x0 DUP6 SUB PUSH2 0x12F1 JUMPI JUMPDEST DUP2 SWAP4 POP POP POP POP SWAP2 SWAP1 POP JUMP JUMPDEST PUSH1 0x0 DUP1 PUSH20 0xFFFFFFFFFFFFFFFFFFFFFFFFFFFFFFFFFFFFFFFF AND PUSH2 0x1373 DUP4 PUSH2 0x1067 JUMP JUMPDEST PUSH20 0xFFFFFFFFFFFFFFFFFFFFFFFFFFFFFFFFFFFFFFFF AND EQ ISZERO SWAP1 POP SWAP2 SWAP1 POP JUMP JUMPDEST PUSH2 0x139C DUP4 DUP4 PUSH2 0x16D3 JUMP JUMPDEST PUSH2 0x13A9 PUSH1 0x0 DUP5 DUP5 DUP5 PUSH2 0x13F9 JUMP JUMPDEST PUSH2 0x13E8 JUMPI PUSH1 0x40 MLOAD PUSH32 0x8C379A000000000000000000000000000000000000000000000000000000000 DUP2 MSTORE PUSH1 0x4 ADD PUSH2 0x13DF SWAP1 PUSH2 0x2526 JUMP JUMPDEST PUSH1 0x40 MLOAD DUP1 SWAP2 SUB SWAP1 REVERT JUMPDEST POP POP POP JUMP JUMPDEST POP POP POP POP JUMP JUMPDEST POP POP POP POP JUMP JUMPDEST PUSH1 0x0 PUSH2 0x141A DUP5 PUSH20 0xFFFFFFFFFFFFFFFFFFFFFFFFFFFFFFFFFFFFFFFF AND PUSH2 0x18F0 JUMP JUMPDEST ISZERO PUSH2 0x1573 JUMPI DUP4 PUSH20 0xFFFFFFFFFFFFFFFFFFFFFFFFFFFFFFFFFFFFFFFF AND PUSH4 0x150B7A02 PUSH2 0x1443 PUSH2 0xBFA JUMP JUMPDEST DUP8 DUP7 DUP7 PUSH1 0x40 MLOAD DUP6 PUSH4 0xFFFFFFFF AND PUSH1 0xE0 SHL DUP2 MSTORE PUSH1 0x4 ADD PUSH2 0x1465 SWAP5 SWAP4 SWAP3 SWAP2 SWAP1 PUSH2 0x25CA JUMP JUMPDEST PUSH1 0x20 PUSH1 0x40 MLOAD DUP1 DUP4 SUB DUP2 PUSH1 0x0 DUP8 GAS CALL SWAP3 POP POP POP DUP1 ISZERO PUSH2 0x14A1 JUMPI POP PUSH1 0x40 MLOAD RETURNDATASIZE PUSH1 0x1F NOT PUSH1 0x1F DUP3 ADD AND DUP3 ADD DUP1 PUSH1 0x40 MSTORE POP DUP2 ADD SWAP1 PUSH2 0x149E SWAP2 SWAP1 PUSH2 0x262B JUMP JUMPDEST PUSH1 0x1 JUMPDEST PUSH2 0x1523 JUMPI RETURNDATASIZE DUP1 PUSH1 0x0 DUP2 EQ PUSH2 0x14D1 JUMPI PUSH1 0x40 MLOAD SWAP2 POP PUSH1 0x1F NOT PUSH1 0x3F RETURNDATASIZE ADD AND DUP3 ADD PUSH1 0x40 MSTORE RETURNDATASIZE DUP3 MSTORE RETURNDATASIZE PUSH1 0x0 PUSH1 0x20 DUP5 ADD RETURNDATACOPY PUSH2 0x14D6 JUMP JUMPDEST PUSH1 0x60 SWAP2 POP JUMPDEST POP PUSH1 0x0 DUP2 MLOAD SUB PUSH2 0x151B JUMPI PUSH1 0x40 MLOAD PUSH32 0x8C379A000000000000000000000000000000000000000000000000000000000 DUP2 MSTORE PUSH1 0x4 ADD PUSH2 0x1512 SWAP1 PUSH2 0x2526 JUMP JUMPDEST PUSH1 0x40 MLOAD DUP1 SWAP2 SUB SWAP1 REVERT JUMPDEST DUP1 MLOAD DUP2 PUSH1 0x20 ADD REVERT JUMPDEST PUSH4 0x150B7A02 PUSH1 0xE0 SHL PUSH28 0xFFFFFFFFFFFFFFFFFFFFFFFFFFFFFFFFFFFFFFFFFFFFFFFFFFFFFFFF NOT AND DUP2 PUSH28 0xFFFFFFFFFFFFFFFFFFFFFFFFFFFFFFFFFFFFFFFFFFFFFFFFFFFFFFFF NOT AND EQ SWAP2 POP POP PUSH2 0x1578 JUMP JUMPDEST PUSH1 0x1 SWAP1 POP JUMPDEST SWAP5 SWAP4 POP POP POP POP JUMP JUMPDEST PUSH1 0x0 DUP1 PUSH1 0x0 SWAP1 POP PUSH27 0x184F03E93FF9F4DAA797ED6E38ED64BF6A1F010000000000000000 DUP4 LT PUSH2 0x15DE JUMPI PUSH27 0x184F03E93FF9F4DAA797ED6E38ED64BF6A1F010000000000000000 DUP4 DUP2 PUSH2 0x15D4 JUMPI PUSH2 0x15D3 PUSH2 0x2546 JUMP JUMPDEST JUMPDEST DIV SWAP3 POP PUSH1 0x40 DUP2 ADD SWAP1 POP JUMPDEST PUSH14 0x4EE2D6D415B85ACEF8100000000 DUP4 LT PUSH2 0x161B JUMPI PUSH14 0x4EE2D6D415B85ACEF8100000000 DUP4 DUP2 PUSH2 0x1611 JUMPI PUSH2 0x1610 PUSH2 0x2546 JUMP JUMPDEST JUMPDEST DIV SWAP3 POP PUSH1 0x20 DUP2 ADD SWAP1 POP JUMPDEST PUSH7 0x2386F26FC10000 DUP4 LT PUSH2 0x164A JUMPI PUSH7 0x2386F26FC10000 DUP4 DUP2 PUSH2 0x1640 JUMPI PUSH2 0x163F PUSH2 0x2546 JUMP JUMPDEST JUMPDEST DIV SWAP3 POP PUSH1 0x10 DUP2 ADD SWAP1 POP JUMPDEST PUSH4 0x5F5E100 DUP4 LT PUSH2 0x1673 JUMPI PUSH4 0x5F5E100 DUP4 DUP2 PUSH2 0x1669 JUMPI PUSH2 0x1668 PUSH2 0x2546 JUMP JUMPDEST JUMPDEST DIV SWAP3 POP PUSH1 0x8 DUP2 ADD SWAP1 POP JUMPDEST PUSH2 0x2710 DUP4 LT PUSH2 0x1698 JUMPI PUSH2 0x2710 DUP4 DUP2 PUSH2 0x168E JUMPI PUSH2 0x168D PUSH2 0x2546 JUMP JUMPDEST JUMPDEST DIV SWAP3 POP PUSH1 0x4 DUP2 ADD SWAP1 POP JUMPDEST PUSH1 0x64 DUP4 LT PUSH2 0x16BB JUMPI PUSH1 0x64 DUP4 DUP2 PUSH2 0x16B1 JUMPI PUSH2 0x16B0 PUSH2 0x2546 JUMP JUMPDEST JUMPDEST DIV SWAP3 POP PUSH1 0x2 DUP2 ADD SWAP1 POP JUMPDEST PUSH1 0xA DUP4 LT PUSH2 0x16CA JUMPI PUSH1 0x1 DUP2 ADD SWAP1 POP JUMPDEST DUP1 SWAP2 POP POP SWAP2 SWAP1 POP JUMP JUMPDEST PUSH1 0x0 PUSH20 0xFFFFFFFFFFFFFFFFFFFFFFFFFFFFFFFFFFFFFFFF AND DUP3 PUSH20 0xFFFFFFFFFFFFFFFFFFFFFFFFFFFFFFFFFFFFFFFF AND SUB PUSH2 0x1742 JUMPI PUSH1 0x40 MLOAD PUSH32 0x8C379A000000000000000000000000000000000000000000000000000000000 DUP2 MSTORE PUSH1 0x4 ADD PUSH2 0x1739 SWAP1 PUSH2 0x26A4 JUMP JUMPDEST PUSH1 0x40 MLOAD DUP1 SWAP2 SUB SWAP1 REVERT JUMPDEST PUSH2 0x174B DUP2 PUSH2 0x1351 JUMP JUMPDEST ISZERO PUSH2 0x178B JUMPI PUSH1 0x40 MLOAD PUSH32 0x8C379A000000000000000000000000000000000000000000000000000000000 DUP2 MSTORE PUSH1 0x4 ADD PUSH2 0x1782 SWAP1 PUSH2 0x2710 JUMP JUMPDEST PUSH1 0x40 MLOAD DUP1 SWAP2 SUB SWAP1 REVERT JUMPDEST PUSH2 0x1799 PUSH1 0x0 DUP4 DUP4 PUSH1 0x1 PUSH2 0x13ED JUMP JUMPDEST PUSH2 0x17A2 DUP2 PUSH2 0x1351 JUMP JUMPDEST ISZERO PUSH2 0x17E2 JUMPI PUSH1 0x40 MLOAD PUSH32 0x8C379A000000000000000000000000000000000000000000000000000000000 DUP2 MSTORE PUSH1 0x4 ADD PUSH2 0x17D9 SWAP1 PUSH2 0x2710 JUMP JUMPDEST PUSH1 0x40 MLOAD DUP1 SWAP2 SUB SWAP1 REVERT JUMPDEST PUSH1 0x1 PUSH1 0x3 PUSH1 0x0 DUP5 PUSH20 0xFFFFFFFFFFFFFFFFFFFFFFFFFFFFFFFFFFFFFFFF AND PUSH20 0xFFFFFFFFFFFFFFFFFFFFFFFFFFFFFFFFFFFFFFFF AND DUP2 MSTORE PUSH1 0x20 ADD SWAP1 DUP2 MSTORE PUSH1 0x20 ADD PUSH1 0x0 KECCAK256 PUSH1 0x0 DUP3 DUP3 SLOAD ADD SWAP3 POP POP DUP2 SWAP1 SSTORE POP DUP2 PUSH1 0x2 PUSH1 0x0 DUP4 DUP2 MSTORE PUSH1 0x20 ADD SWAP1 DUP2 MSTORE PUSH1 0x20 ADD PUSH1 0x0 KECCAK256 PUSH1 0x0 PUSH2 0x100 EXP DUP2 SLOAD DUP2 PUSH20 0xFFFFFFFFFFFFFFFFFFFFFFFFFFFFFFFFFFFFFFFF MUL NOT AND SWAP1 DUP4 PUSH20 0xFFFFFFFFFFFFFFFFFFFFFFFFFFFFFFFFFFFFFFFF AND MUL OR SWAP1 SSTORE POP DUP1 DUP3 PUSH20 0xFFFFFFFFFFFFFFFFFFFFFFFFFFFFFFFFFFFFFFFF AND PUSH1 0x0 PUSH20 0xFFFFFFFFFFFFFFFFFFFFFFFFFFFFFFFFFFFFFFFF AND PUSH32 0xDDF252AD1BE2C89B69C2B068FC378DAA952BA7F163C4A11628F55A4DF523B3EF PUSH1 0x40 MLOAD PUSH1 0x40 MLOAD DUP1 SWAP2 SUB SWAP1 LOG4 PUSH2 0x18EC PUSH1 0x0 DUP4 DUP4 PUSH1 0x1 PUSH2 0x13F3 JUMP JUMPDEST POP POP JUMP JUMPDEST PUSH1 0x0 DUP1 DUP3 PUSH20 0xFFFFFFFFFFFFFFFFFFFFFFFFFFFFFFFFFFFFFFFF AND EXTCODESIZE GT SWAP1 POP SWAP2 SWAP1 POP JUMP JUMPDEST PUSH1 0x0 PUSH1 0x40 MLOAD SWAP1 POP SWAP1 JUMP JUMPDEST PUSH1 0x0 DUP1 REVERT JUMPDEST PUSH1 0x0 DUP1 REVERT JUMPDEST PUSH1 0x0 PUSH32 0xFFFFFFFF00000000000000000000000000000000000000000000000000000000 DUP3 AND SWAP1 POP SWAP2 SWAP1 POP JUMP JUMPDEST PUSH2 0x195C DUP2 PUSH2 0x1927 JUMP JUMPDEST DUP2 EQ PUSH2 0x1967 JUMPI PUSH1 0x0 DUP1 REVERT JUMPDEST POP JUMP JUMPDEST PUSH1 0x0 DUP2 CALLDATALOAD SWAP1 POP PUSH2 0x1979 DUP2 PUSH2 0x1953 JUMP JUMPDEST SWAP3 SWAP2 POP POP JUMP JUMPDEST PUSH1 0x0 PUSH1 0x20 DUP3 DUP5 SUB SLT ISZERO PUSH2 0x1995 JUMPI PUSH2 0x1994 PUSH2 0x191D JUMP JUMPDEST JUMPDEST PUSH1 0x0 PUSH2 0x19A3 DUP5 DUP3 DUP6 ADD PUSH2 0x196A JUMP JUMPDEST SWAP2 POP POP SWAP3 SWAP2 POP POP JUMP JUMPDEST PUSH1 0x0 DUP2 ISZERO ISZERO SWAP1 POP SWAP2 SWAP1 POP JUMP JUMPDEST PUSH2 0x19C1 DUP2 PUSH2 0x19AC JUMP JUMPDEST DUP3 MSTORE POP POP JUMP JUMPDEST PUSH1 0x0 PUSH1 0x20 DUP3 ADD SWAP1 POP PUSH2 0x19DC PUSH1 0x0 DUP4 ADD DUP5 PUSH2 0x19B8 JUMP JUMPDEST SWAP3 SWAP2 POP POP JUMP JUMPDEST PUSH1 0x0 DUP2 MLOAD SWAP1 POP SWAP2 SWAP1 POP JUMP JUMPDEST PUSH1 0x0 DUP3 DUP3 MSTORE PUSH1 0x20 DUP3 ADD SWAP1 POP SWAP3 SWAP2 POP POP JUMP JUMPDEST PUSH1 0x0 JUMPDEST DUP4 DUP2 LT ISZERO PUSH2 0x1A1C JUMPI DUP1 DUP3 ADD MLOAD DUP2 DUP5 ADD MSTORE PUSH1 0x20 DUP2 ADD SWAP1 POP PUSH2 0x1A01 JUMP JUMPDEST PUSH1 0x0 DUP5 DUP5 ADD MSTORE POP POP POP POP JUMP JUMPDEST PUSH1 0x0 PUSH1 0x1F NOT PUSH1 0x1F DUP4 ADD AND SWAP1 POP SWAP2 SWAP1 POP JUMP JUMPDEST PUSH1 0x0 PUSH2 0x1A44 DUP3 PUSH2 0x19E2 JUMP JUMPDEST PUSH2 0x1A4E DUP2 DUP6 PUSH2 0x19ED JUMP JUMPDEST SWAP4 POP PUSH2 0x1A5E DUP2 DUP6 PUSH1 0x20 DUP7 ADD PUSH2 0x19FE JUMP JUMPDEST PUSH2 0x1A67 DUP2 PUSH2 0x1A28 JUMP JUMPDEST DUP5 ADD SWAP2 POP POP SWAP3 SWAP2 POP POP JUMP JUMPDEST PUSH1 0x0 PUSH1 0x20 DUP3 ADD SWAP1 POP DUP2 DUP2 SUB PUSH1 0x0 DUP4 ADD MSTORE PUSH2 0x1A8C DUP2 DUP5 PUSH2 0x1A39 JUMP JUMPDEST SWAP1 POP SWAP3 SWAP2 POP POP JUMP JUMPDEST PUSH1 0x0 DUP2 SWAP1 POP SWAP2 SWAP1 POP JUMP JUMPDEST PUSH2 0x1AA7 DUP2 PUSH2 0x1A94 JUMP JUMPDEST DUP2 EQ PUSH2 0x1AB2 JUMPI PUSH1 0x0 DUP1 REVERT JUMPDEST POP JUMP JUMPDEST PUSH1 0x0 DUP2 CALLDATALOAD SWAP1 POP PUSH2 0x1AC4 DUP2 PUSH2 0x1A9E JUMP JUMPDEST SWAP3 SWAP2 POP POP JUMP JUMPDEST PUSH1 0x0 PUSH1 0x20 DUP3 DUP5 SUB SLT ISZERO PUSH2 0x1AE0 JUMPI PUSH2 0x1ADF PUSH2 0x191D JUMP JUMPDEST JUMPDEST PUSH1 0x0 PUSH2 0x1AEE DUP5 DUP3 DUP6 ADD PUSH2 0x1AB5 JUMP JUMPDEST SWAP2 POP POP SWAP3 SWAP2 POP POP JUMP JUMPDEST PUSH1 0x0 PUSH20 0xFFFFFFFFFFFFFFFFFFFFFFFFFFFFFFFFFFFFFFFF DUP3 AND SWAP1 POP SWAP2 SWAP1 POP JUMP JUMPDEST PUSH1 0x0 PUSH2 0x1B22 DUP3 PUSH2 0x1AF7 JUMP JUMPDEST SWAP1 POP SWAP2 SWAP1 POP JUMP JUMPDEST PUSH2 0x1B32 DUP2 PUSH2 0x1B17 JUMP JUMPDEST DUP3 MSTORE POP POP JUMP JUMPDEST PUSH1 0x0 PUSH1 0x20 DUP3 ADD SWAP1 POP PUSH2 0x1B4D PUSH1 0x0 DUP4 ADD DUP5 PUSH2 0x1B29 JUMP JUMPDEST SWAP3 SWAP2 POP POP JUMP JUMPDEST PUSH2 0x1B5C DUP2 PUSH2 0x1B17 JUMP JUMPDEST DUP2 EQ PUSH2 0x1B67 JUMPI PUSH1 0x0 DUP1 REVERT JUMPDEST POP JUMP JUMPDEST PUSH1 0x0 DUP2 CALLDATALOAD SWAP1 POP PUSH2 0x1B79 DUP2 PUSH2 0x1B53 JUMP JUMPDEST SWAP3 SWAP2 POP POP JUMP JUMPDEST PUSH1 0x0 DUP1 PUSH1 0x40 DUP4 DUP6 SUB SLT ISZERO PUSH2 0x1B96 JUMPI PUSH2 0x1B95 PUSH2 0x191D JUMP JUMPDEST JUMPDEST PUSH1 0x0 PUSH2 0x1BA4 DUP6 DUP3 DUP7 ADD PUSH2 0x1B6A JUMP JUMPDEST SWAP3 POP POP PUSH1 0x20 PUSH2 0x1BB5 DUP6 DUP3 DUP7 ADD PUSH2 0x1AB5 JUMP JUMPDEST SWAP2 POP POP SWAP3 POP SWAP3 SWAP1 POP JUMP JUMPDEST PUSH2 0x1BC8 DUP2 PUSH2 0x1A94 JUMP JUMPDEST DUP3 MSTORE POP POP JUMP JUMPDEST PUSH1 0x0 PUSH1 0x20 DUP3 ADD SWAP1 POP PUSH2 0x1BE3 PUSH1 0x0 DUP4 ADD DUP5 PUSH2 0x1BBF JUMP JUMPDEST SWAP3 SWAP2 POP POP JUMP JUMPDEST PUSH1 0x0 DUP1 PUSH1 0x0 PUSH1 0x60 DUP5 DUP7 SUB SLT ISZERO PUSH2 0x1C02 JUMPI PUSH2 0x1C01 PUSH2 0x191D JUMP JUMPDEST JUMPDEST PUSH1 0x0 PUSH2 0x1C10 DUP7 DUP3 DUP8 ADD PUSH2 0x1B6A JUMP JUMPDEST SWAP4 POP POP PUSH1 0x20 PUSH2 0x1C21 DUP7 DUP3 DUP8 ADD PUSH2 0x1B6A JUMP JUMPDEST SWAP3 POP POP PUSH1 0x40 PUSH2 0x1C32 DUP7 DUP3 DUP8 ADD PUSH2 0x1AB5 JUMP JUMPDEST SWAP2 POP POP SWAP3 POP SWAP3 POP SWAP3 JUMP JUMPDEST PUSH1 0x0 PUSH1 0x20 DUP3 DUP5 SUB SLT ISZERO PUSH2 0x1C52 JUMPI PUSH2 0x1C51 PUSH2 0x191D JUMP JUMPDEST JUMPDEST PUSH1 0x0 PUSH2 0x1C60 DUP5 DUP3 DUP6 ADD PUSH2 0x1B6A JUMP JUMPDEST SWAP2 POP POP SWAP3 SWAP2 POP POP JUMP JUMPDEST PUSH2 0x1C72 DUP2 PUSH2 0x19AC JUMP JUMPDEST DUP2 EQ PUSH2 0x1C7D JUMPI PUSH1 0x0 DUP1 REVERT JUMPDEST POP JUMP JUMPDEST PUSH1 0x0 DUP2 CALLDATALOAD SWAP1 POP PUSH2 0x1C8F DUP2 PUSH2 0x1C69 JUMP JUMPDEST SWAP3 SWAP2 POP POP JUMP JUMPDEST PUSH1 0x0 DUP1 PUSH1 0x40 DUP4 DUP6 SUB SLT ISZERO PUSH2 0x1CAC JUMPI PUSH2 0x1CAB PUSH2 0x191D JUMP JUMPDEST JUMPDEST PUSH1 0x0 PUSH2 0x1CBA DUP6 DUP3 DUP7 ADD PUSH2 0x1B6A JUMP JUMPDEST SWAP3 POP POP PUSH1 0x20 PUSH2 0x1CCB DUP6 DUP3 DUP7 ADD PUSH2 0x1C80 JUMP JUMPDEST SWAP2 POP POP SWAP3 POP SWAP3 SWAP1 POP JUMP JUMPDEST PUSH1 0x0 DUP1 REVERT JUMPDEST PUSH1 0x0 DUP1 REVERT JUMPDEST PUSH32 0x4E487B7100000000000000000000000000000000000000000000000000000000 PUSH1 0x0 MSTORE PUSH1 0x41 PUSH1 0x4 MSTORE PUSH1 0x24 PUSH1 0x0 REVERT JUMPDEST PUSH2 0x1D17 DUP3 PUSH2 0x1A28 JUMP JUMPDEST DUP2 ADD DUP2 DUP2 LT PUSH8 0xFFFFFFFFFFFFFFFF DUP3 GT OR ISZERO PUSH2 0x1D36 JUMPI PUSH2 0x1D35 PUSH2 0x1CDF JUMP JUMPDEST JUMPDEST DUP1 PUSH1 0x40 MSTORE POP POP POP JUMP JUMPDEST PUSH1 0x0 PUSH2 0x1D49 PUSH2 0x1913 JUMP JUMPDEST SWAP1 POP PUSH2 0x1D55 DUP3 DUP3 PUSH2 0x1D0E JUMP JUMPDEST SWAP2 SWAP1 POP JUMP JUMPDEST PUSH1 0x0 PUSH8 0xFFFFFFFFFFFFFFFF DUP3 GT ISZERO PUSH2 0x1D75 JUMPI PUSH2 0x1D74 PUSH2 0x1CDF JUMP JUMPDEST JUMPDEST PUSH2 0x1D7E DUP3 PUSH2 0x1A28 JUMP JUMPDEST SWAP1 POP PUSH1 0x20 DUP2 ADD SWAP1 POP SWAP2 SWAP1 POP JUMP JUMPDEST DUP3 DUP2 DUP4 CALLDATACOPY PUSH1 0x0 DUP4 DUP4 ADD MSTORE POP POP POP JUMP JUMPDEST PUSH1 0x0 PUSH2 0x1DAD PUSH2 0x1DA8 DUP5 PUSH2 0x1D5A JUMP JUMPDEST PUSH2 0x1D3F JUMP JUMPDEST SWAP1 POP DUP3 DUP2 MSTORE PUSH1 0x20 DUP2 ADD DUP5 DUP5 DUP5 ADD GT ISZERO PUSH2 0x1DC9 JUMPI PUSH2 0x1DC8 PUSH2 0x1CDA JUMP JUMPDEST JUMPDEST PUSH2 0x1DD4 DUP5 DUP3 DUP6 PUSH2 0x1D8B JUMP JUMPDEST POP SWAP4 SWAP3 POP POP POP JUMP JUMPDEST PUSH1 0x0 DUP3 PUSH1 0x1F DUP4 ADD SLT PUSH2 0x1DF1 JUMPI PUSH2 0x1DF0 PUSH2 0x1CD5 JUMP JUMPDEST JUMPDEST DUP2 CALLDATALOAD PUSH2 0x1E01 DUP5 DUP3 PUSH1 0x20 DUP7 ADD PUSH2 0x1D9A JUMP JUMPDEST SWAP2 POP POP SWAP3 SWAP2 POP POP JUMP JUMPDEST PUSH1 0x0 DUP1 PUSH1 0x0 DUP1 PUSH1 0x80 DUP6 DUP8 SUB SLT ISZERO PUSH2 0x1E24 JUMPI PUSH2 0x1E23 PUSH2 0x191D JUMP JUMPDEST JUMPDEST PUSH1 0x0 PUSH2 0x1E32 DUP8 DUP3 DUP9 ADD PUSH2 0x1B6A JUMP JUMPDEST SWAP5 POP POP PUSH1 0x20 PUSH2 0x1E43 DUP8 DUP3 DUP9 ADD PUSH2 0x1B6A JUMP JUMPDEST SWAP4 POP POP PUSH1 0x40 PUSH2 0x1E54 DUP8 DUP3 DUP9 ADD PUSH2 0x1AB5 JUMP JUMPDEST SWAP3 POP POP PUSH1 0x60 DUP6 ADD CALLDATALOAD PUSH8 0xFFFFFFFFFFFFFFFF DUP2 GT ISZERO PUSH2 0x1E75 JUMPI PUSH2 0x1E74 PUSH2 0x1922 JUMP JUMPDEST JUMPDEST PUSH2 0x1E81 DUP8 DUP3 DUP9 ADD PUSH2 0x1DDC JUMP JUMPDEST SWAP2 POP POP SWAP3 SWAP6 SWAP2 SWAP5 POP SWAP3 POP JUMP JUMPDEST PUSH1 0x0 DUP1 PUSH1 0x40 DUP4 DUP6 SUB SLT ISZERO PUSH2 0x1EA4 JUMPI PUSH2 0x1EA3 PUSH2 0x191D JUMP JUMPDEST JUMPDEST PUSH1 0x0 PUSH2 0x1EB2 DUP6 DUP3 DUP7 ADD PUSH2 0x1B6A JUMP JUMPDEST SWAP3 POP POP PUSH1 0x20 PUSH2 0x1EC3 DUP6 DUP3 DUP7 ADD PUSH2 0x1B6A JUMP JUMPDEST SWAP2 POP POP SWAP3 POP SWAP3 SWAP1 POP JUMP JUMPDEST PUSH32 0x4E487B7100000000000000000000000000000000000000000000000000000000 PUSH1 0x0 MSTORE PUSH1 0x22 PUSH1 0x4 MSTORE PUSH1 0x24 PUSH1 0x0 REVERT JUMPDEST PUSH1 0x0 PUSH1 0x2 DUP3 DIV SWAP1 POP PUSH1 0x1 DUP3 AND DUP1 PUSH2 0x1F14 JUMPI PUSH1 0x7F DUP3 AND SWAP2 POP JUMPDEST PUSH1 0x20 DUP3 LT DUP2 SUB PUSH2 0x1F27 JUMPI PUSH2 0x1F26 PUSH2 0x1ECD JUMP JUMPDEST JUMPDEST POP SWAP2 SWAP1 POP JUMP JUMPDEST PUSH32 0x4552433732313A20617070726F76616C20746F2063757272656E74206F776E65 PUSH1 0x0 DUP3 ADD MSTORE PUSH32 0x7200000000000000000000000000000000000000000000000000000000000000 PUSH1 0x20 DUP3 ADD MSTORE POP JUMP JUMPDEST PUSH1 0x0 PUSH2 0x1F89 PUSH1 0x21 DUP4 PUSH2 0x19ED JUMP JUMPDEST SWAP2 POP PUSH2 0x1F94 DUP3 PUSH2 0x1F2D JUMP JUMPDEST PUSH1 0x40 DUP3 ADD SWAP1 POP SWAP2 SWAP1 POP JUMP JUMPDEST PUSH1 0x0 PUSH1 0x20 DUP3 ADD SWAP1 POP DUP2 DUP2 SUB PUSH1 0x0 DUP4 ADD MSTORE PUSH2 0x1FB8 DUP2 PUSH2 0x1F7C JUMP JUMPDEST SWAP1 POP SWAP2 SWAP1 POP JUMP JUMPDEST PUSH32 0x4552433732313A20617070726F76652063616C6C6572206973206E6F7420746F PUSH1 0x0 DUP3 ADD MSTORE PUSH32 0x6B656E206F776E6572206F7220617070726F76656420666F7220616C6C000000 PUSH1 0x20 DUP3 ADD MSTORE POP JUMP JUMPDEST PUSH1 0x0 PUSH2 0x201B PUSH1 0x3D DUP4 PUSH2 0x19ED JUMP JUMPDEST SWAP2 POP PUSH2 0x2026 DUP3 PUSH2 0x1FBF JUMP JUMPDEST PUSH1 0x40 DUP3 ADD SWAP1 POP SWAP2 SWAP1 POP JUMP JUMPDEST PUSH1 0x0 PUSH1 0x20 DUP3 ADD SWAP1 POP DUP2 DUP2 SUB PUSH1 0x0 DUP4 ADD MSTORE PUSH2 0x204A DUP2 PUSH2 0x200E JUMP JUMPDEST SWAP1 POP SWAP2 SWAP1 POP JUMP JUMPDEST PUSH32 0x6D61782033204E46547300000000000000000000000000000000000000000000 PUSH1 0x0 DUP3 ADD MSTORE POP JUMP JUMPDEST PUSH1 0x0 PUSH2 0x2087 PUSH1 0xA DUP4 PUSH2 0x19ED JUMP JUMPDEST SWAP2 POP PUSH2 0x2092 DUP3 PUSH2 0x2051 JUMP JUMPDEST PUSH1 0x20 DUP3 ADD SWAP1 POP SWAP2 SWAP1 POP JUMP JUMPDEST PUSH1 0x0 PUSH1 0x20 DUP3 ADD SWAP1 POP DUP2 DUP2 SUB PUSH1 0x0 DUP4 ADD MSTORE PUSH2 0x20B6 DUP2 PUSH2 0x207A JUMP JUMPDEST SWAP1 POP SWAP2 SWAP1 POP JUMP JUMPDEST PUSH32 0x4E487B7100000000000000000000000000000000000000000000000000000000 PUSH1 0x0 MSTORE PUSH1 0x11 PUSH1 0x4 MSTORE PUSH1 0x24 PUSH1 0x0 REVERT JUMPDEST PUSH1 0x0 PUSH2 0x20F7 DUP3 PUSH2 0x1A94 JUMP JUMPDEST SWAP2 POP PUSH32 0xFFFFFFFFFFFFFFFFFFFFFFFFFFFFFFFFFFFFFFFFFFFFFFFFFFFFFFFFFFFFFFFF DUP3 SUB PUSH2 0x2129 JUMPI PUSH2 0x2128 PUSH2 0x20BD JUMP JUMPDEST JUMPDEST PUSH1 0x1 DUP3 ADD SWAP1 POP SWAP2 SWAP1 POP JUMP JUMPDEST PUSH32 0x4552433732313A2063616C6C6572206973206E6F7420746F6B656E206F776E65 PUSH1 0x0 DUP3 ADD MSTORE PUSH32 0x72206F7220617070726F76656400000000000000000000000000000000000000 PUSH1 0x20 DUP3 ADD MSTORE POP JUMP JUMPDEST PUSH1 0x0 PUSH2 0x2190 PUSH1 0x2D DUP4 PUSH2 0x19ED JUMP JUMPDEST SWAP2 POP PUSH2 0x219B DUP3 PUSH2 0x2134 JUMP JUMPDEST PUSH1 0x40 DUP3 ADD SWAP1 POP SWAP2 SWAP1 POP JUMP JUMPDEST PUSH1 0x0 PUSH1 0x20 DUP3 ADD SWAP1 POP DUP2 DUP2 SUB PUSH1 0x0 DUP4 ADD MSTORE PUSH2 0x21BF DUP2 PUSH2 0x2183 JUMP JUMPDEST SWAP1 POP SWAP2 SWAP1 POP JUMP JUMPDEST PUSH32 0x4552433732313A20696E76616C696420746F6B656E2049440000000000000000 PUSH1 0x0 DUP3 ADD MSTORE POP JUMP JUMPDEST PUSH1 0x0 PUSH2 0x21FC PUSH1 0x18 DUP4 PUSH2 0x19ED JUMP JUMPDEST SWAP2 POP PUSH2 0x2207 DUP3 PUSH2 0x21C6 JUMP JUMPDEST PUSH1 0x20 DUP3 ADD SWAP1 POP SWAP2 SWAP1 POP JUMP JUMPDEST PUSH1 0x0 PUSH1 0x20 DUP3 ADD SWAP1 POP DUP2 DUP2 SUB PUSH1 0x0 DUP4 ADD MSTORE PUSH2 0x222B DUP2 PUSH2 0x21EF JUMP JUMPDEST SWAP1 POP SWAP2 SWAP1 POP JUMP JUMPDEST PUSH32 0x4552433732313A2061646472657373207A65726F206973206E6F742061207661 PUSH1 0x0 DUP3 ADD MSTORE PUSH32 0x6C6964206F776E65720000000000000000000000000000000000000000000000 PUSH1 0x20 DUP3 ADD MSTORE POP JUMP JUMPDEST PUSH1 0x0 PUSH2 0x228E PUSH1 0x29 DUP4 PUSH2 0x19ED JUMP JUMPDEST SWAP2 POP PUSH2 0x2299 DUP3 PUSH2 0x2232 JUMP JUMPDEST PUSH1 0x40 DUP3 ADD SWAP1 POP SWAP2 SWAP1 POP JUMP JUMPDEST PUSH1 0x0 PUSH1 0x20 DUP3 ADD SWAP1 POP DUP2 DUP2 SUB PUSH1 0x0 DUP4 ADD MSTORE PUSH2 0x22BD DUP2 PUSH2 0x2281 JUMP JUMPDEST SWAP1 POP SWAP2 SWAP1 POP JUMP JUMPDEST PUSH1 0x0 DUP2 SWAP1 POP SWAP3 SWAP2 POP POP JUMP JUMPDEST PUSH1 0x0 PUSH2 0x22DA DUP3 PUSH2 0x19E2 JUMP JUMPDEST PUSH2 0x22E4 DUP2 DUP6 PUSH2 0x22C4 JUMP JUMPDEST SWAP4 POP PUSH2 0x22F4 DUP2 DUP6 PUSH1 0x20 DUP7 ADD PUSH2 0x19FE JUMP JUMPDEST DUP1 DUP5 ADD SWAP2 POP POP SWAP3 SWAP2 POP POP JUMP JUMPDEST PUSH1 0x0 PUSH2 0x230C DUP3 DUP6 PUSH2 0x22CF JUMP JUMPDEST SWAP2 POP PUSH2 0x2318 DUP3 DUP5 PUSH2 0x22CF JUMP JUMPDEST SWAP2 POP DUP2 SWAP1 POP SWAP4 SWAP3 POP POP POP JUMP JUMPDEST PUSH32 0x4552433732313A207472616E736665722066726F6D20696E636F727265637420 PUSH1 0x0 DUP3 ADD MSTORE PUSH32 0x6F776E6572000000000000000000000000000000000000000000000000000000 PUSH1 0x20 DUP3 ADD MSTORE POP JUMP JUMPDEST PUSH1 0x0 PUSH2 0x2380 PUSH1 0x25 DUP4 PUSH2 0x19ED JUMP JUMPDEST SWAP2 POP PUSH2 0x238B DUP3 PUSH2 0x2324 JUMP JUMPDEST PUSH1 0x40 DUP3 ADD SWAP1 POP SWAP2 SWAP1 POP JUMP JUMPDEST PUSH1 0x0 PUSH1 0x20 DUP3 ADD SWAP1 POP DUP2 DUP2 SUB PUSH1 0x0 DUP4 ADD MSTORE PUSH2 0x23AF DUP2 PUSH2 0x2373 JUMP JUMPDEST SWAP1 POP SWAP2 SWAP1 POP JUMP JUMPDEST PUSH32 0x4552433732313A207472616E7366657220746F20746865207A65726F20616464 PUSH1 0x0 DUP3 ADD MSTORE PUSH32 0x7265737300000000000000000000000000000000000000000000000000000000 PUSH1 0x20 DUP3 ADD MSTORE POP JUMP JUMPDEST PUSH1 0x0 PUSH2 0x2412 PUSH1 0x24 DUP4 PUSH2 0x19ED JUMP JUMPDEST SWAP2 POP PUSH2 0x241D DUP3 PUSH2 0x23B6 JUMP JUMPDEST PUSH1 0x40 DUP3 ADD SWAP1 POP SWAP2 SWAP1 POP JUMP JUMPDEST PUSH1 0x0 PUSH1 0x20 DUP3 ADD SWAP1 POP DUP2 DUP2 SUB PUSH1 0x0 DUP4 ADD MSTORE PUSH2 0x2441 DUP2 PUSH2 0x2405 JUMP JUMPDEST SWAP1 POP SWAP2 SWAP1 POP JUMP JUMPDEST PUSH32 0x4552433732313A20617070726F766520746F2063616C6C657200000000000000 PUSH1 0x0 DUP3 ADD MSTORE POP JUMP JUMPDEST PUSH1 0x0 PUSH2 0x247E PUSH1 0x19 DUP4 PUSH2 0x19ED JUMP JUMPDEST SWAP2 POP PUSH2 0x2489 DUP3 PUSH2 0x2448 JUMP JUMPDEST PUSH1 0x20 DUP3 ADD SWAP1 POP SWAP2 SWAP1 POP JUMP JUMPDEST PUSH1 0x0 PUSH1 0x20 DUP3 ADD SWAP1 POP DUP2 DUP2 SUB PUSH1 0x0 DUP4 ADD MSTORE PUSH2 0x24AD DUP2 PUSH2 0x2471 JUMP JUMPDEST SWAP1 POP SWAP2 SWAP1 POP JUMP JUMPDEST PUSH32 0x4552433732313A207472616E7366657220746F206E6F6E204552433732315265 PUSH1 0x0 DUP3 ADD MSTORE PUSH32 0x63656976657220696D706C656D656E7465720000000000000000000000000000 PUSH1 0x20 DUP3 ADD MSTORE POP JUMP JUMPDEST PUSH1 0x0 PUSH2 0x2510 PUSH1 0x32 DUP4 PUSH2 0x19ED JUMP JUMPDEST SWAP2 POP PUSH2 0x251B DUP3 PUSH2 0x24B4 JUMP JUMPDEST PUSH1 0x40 DUP3 ADD SWAP1 POP SWAP2 SWAP1 POP JUMP JUMPDEST PUSH1 0x0 PUSH1 0x20 DUP3 ADD SWAP1 POP DUP2 DUP2 SUB PUSH1 0x0 DUP4 ADD MSTORE PUSH2 0x253F DUP2 PUSH2 0x2503 JUMP JUMPDEST SWAP1 POP SWAP2 SWAP1 POP JUMP JUMPDEST PUSH32 0x4E487B7100000000000000000000000000000000000000000000000000000000 PUSH1 0x0 MSTORE PUSH1 0x12 PUSH1 0x4 MSTORE PUSH1 0x24 PUSH1 0x0 REVERT JUMPDEST PUSH1 0x0 DUP2 MLOAD SWAP1 POP SWAP2 SWAP1 POP JUMP JUMPDEST PUSH1 0x0 DUP3 DUP3 MSTORE PUSH1 0x20 DUP3 ADD SWAP1 POP SWAP3 SWAP2 POP POP JUMP JUMPDEST PUSH1 0x0 PUSH2 0x259C DUP3 PUSH2 0x2575 JUMP JUMPDEST PUSH2 0x25A6 DUP2 DUP6 PUSH2 0x2580 JUMP JUMPDEST SWAP4 POP PUSH2 0x25B6 DUP2 DUP6 PUSH1 0x20 DUP7 ADD PUSH2 0x19FE JUMP JUMPDEST PUSH2 0x25BF DUP2 PUSH2 0x1A28 JUMP JUMPDEST DUP5 ADD SWAP2 POP POP SWAP3 SWAP2 POP POP JUMP JUMPDEST PUSH1 0x0 PUSH1 0x80 DUP3 ADD SWAP1 POP PUSH2 0x25DF PUSH1 0x0 DUP4 ADD DUP8 PUSH2 0x1B29 JUMP JUMPDEST PUSH2 0x25EC PUSH1 0x20 DUP4 ADD DUP7 PUSH2 0x1B29 JUMP JUMPDEST PUSH2 0x25F9 PUSH1 0x40 DUP4 ADD DUP6 PUSH2 0x1BBF JUMP JUMPDEST DUP2 DUP2 SUB PUSH1 0x60 DUP4 ADD MSTORE PUSH2 0x260B DUP2 DUP5 PUSH2 0x2591 JUMP JUMPDEST SWAP1 POP SWAP6 SWAP5 POP POP POP POP POP JUMP JUMPDEST PUSH1 0x0 DUP2 MLOAD SWAP1 POP PUSH2 0x2625 DUP2 PUSH2 0x1953 JUMP JUMPDEST SWAP3 SWAP2 POP POP JUMP JUMPDEST PUSH1 0x0 PUSH1 0x20 DUP3 DUP5 SUB SLT ISZERO PUSH2 0x2641 JUMPI PUSH2 0x2640 PUSH2 0x191D JUMP JUMPDEST JUMPDEST PUSH1 0x0 PUSH2 0x264F DUP5 DUP3 DUP6 ADD PUSH2 0x2616 JUMP JUMPDEST SWAP2 POP POP SWAP3 SWAP2 POP POP JUMP JUMPDEST PUSH32 0x4552433732313A206D696E7420746F20746865207A65726F2061646472657373 PUSH1 0x0 DUP3 ADD MSTORE POP JUMP JUMPDEST PUSH1 0x0 PUSH2 0x268E PUSH1 0x20 DUP4 PUSH2 0x19ED JUMP JUMPDEST SWAP2 POP PUSH2 0x2699 DUP3 PUSH2 0x2658 JUMP JUMPDEST PUSH1 0x20 DUP3 ADD SWAP1 POP SWAP2 SWAP1 POP JUMP JUMPDEST PUSH1 0x0 PUSH1 0x20 DUP3 ADD SWAP1 POP DUP2 DUP2 SUB PUSH1 0x0 DUP4 ADD MSTORE PUSH2 0x26BD DUP2 PUSH2 0x2681 JUMP JUMPDEST SWAP1 POP SWAP2 SWAP1 POP JUMP JUMPDEST PUSH32 0x4552433732313A20746F6B656E20616C7265616479206D696E74656400000000 PUSH1 0x0 DUP3 ADD MSTORE POP JUMP JUMPDEST PUSH1 0x0 PUSH2 0x26FA PUSH1 0x1C DUP4 PUSH2 0x19ED JUMP JUMPDEST SWAP2 POP PUSH2 0x2705 DUP3 PUSH2 0x26C4 JUMP JUMPDEST PUSH1 0x20 DUP3 ADD SWAP1 POP SWAP2 SWAP1 POP JUMP JUMPDEST PUSH1 0x0 PUSH1 0x20 DUP3 ADD SWAP1 POP DUP2 DUP2 SUB PUSH1 0x0 DUP4 ADD MSTORE PUSH2 0x2729 DUP2 PUSH2 0x26ED JUMP JUMPDEST SWAP1 POP SWAP2 SWAP1 POP JUMP INVALID LOG2 PUSH5 0x6970667358 0x22 SLT KECCAK256 0xE1 0x21 SWAP4 0x28 SHL 0xED 0xB2 LOG0 0xE3 0xB2 SWAP1 PUSH30 0x249AB48377817ABBB9A4BCDFDE9E2EB9DE8BE3E664736F6C634300081B00 CALLER "},"gasEstimates":{"creation":{"codeDepositCost":"2017200","executionCost":"infinite","totalCost":"infinite"},"external":{"amountMinted(address)":"2859","approve(address,uint256)":"infinite","balanceOf(address)":"2965","getApproved(uint256)":"5300","isApprovedForAll(address,address)":"infinite","mint()":"infinite","name()":"infinite","ownerOf(uint256)":"3066","safeTransferFrom(address,address,uint256)":"infinite","safeTransferFrom(address,address,uint256,bytes)":"infinite","setApprovalForAll(address,bool)":"infinite","success(address)":"3020","supportsInterface(bytes4)":"797","symbol()":"infinite","tokenURI(uint256)":"3481","totalSupply()":"2474","transferFrom(address,address,uint256)":"infinite"}},"methodIdentifiers":{"amountMinted(address)":"438a67e7","approve(address,uint256)":"095ea7b3","balanceOf(address)":"70a08231","getApproved(uint256)":"081812fc","isApprovedForAll(address,address)":"e985e9c5","mint()":"1249c58b","name()":"06fdde03","ownerOf(uint256)":"6352211e","safeTransferFrom(address,address,uint256)":"42842e0e","safeTransferFrom(address,address,uint256,bytes)":"b88d4fde","setApprovalForAll(address,bool)":"a22cb465","success(address)":"26e4baae","supportsInterface(bytes4)":"01ffc9a7","symbol()":"95d89b41","tokenURI(uint256)":"c87b56dd","totalSupply()":"18160ddd","transferFrom(address,address,uint256)":"23b872dd"}},"storageLayout":{"storage":[{"astId":28,"contract":"contracts/riddles/Overmint1.sol:Overmint1","label":"_name","offset":0,"slot":"0","type":"t_string_storage"},{"astId":30,"contract":"contracts/riddles/Overmint1.sol:Overmint1","label":"_symbol","offset":0,"slot":"1","type":"t_string_storage"},{"astId":34,"contract":"contracts/riddles/Overmint1.sol:Overmint1","label":"_owners","offset":0,"slot":"2","type":"t_mapping(t_uint256,t_address)"},{"astId":38,"contract":"contracts/riddles/Overmint1.sol:Overmint1","label":"_balances","offset":0,"slot":"3","type":"t_mapping(t_address,t_uint256)"},{"astId":42,"contract":"contracts/riddles/Overmint1.sol:Overmint1","label":"_tokenApprovals","offset":0,"slot":"4","type":"t_mapping(t_uint256,t_address)"},{"astId":48,"contract":"contracts/riddles/Overmint1.sol:Overmint1","label":"_operatorApprovals","offset":0,"slot":"5","type":"t_mapping(t_address,t_mapping(t_address,t_bool))"},{"astId":2684,"contract":"contracts/riddles/Overmint1.sol:Overmint1","label":"amountMinted","offset":0,"slot":"6","type":"t_mapping(t_address,t_uint256)"},{"astId":2686,"contract":"contracts/riddles/Overmint1.sol:Overmint1","label":"totalSupply","offset":0,"slot":"7","type":"t_uint256"}],"types":{"t_address":{"encoding":"inplace","label":"address","numberOfBytes":"20"},"t_bool":{"encoding":"inplace","label":"bool","numberOfBytes":"1"},"t_mapping(t_address,t_bool)":{"encoding":"mapping","key":"t_address","label":"mapping(address => bool)","numberOfBytes":"32","value":"t_bool"},"t_mapping(t_address,t_mapping(t_address,t_bool))":{"encoding":"mapping","key":"t_address","label":"mapping(address => mapping(address => bool))","numberOfBytes":"32","value":"t_mapping(t_address,t_bool)"},"t_mapping(t_address,t_uint256)":{"encoding":"mapping","key":"t_address","label":"mapping(address => uint256)","numberOfBytes":"32","value":"t_uint256"},"t_mapping(t_uint256,t_address)":{"encoding":"mapping","key":"t_uint256","label":"mapping(uint256 => address)","numberOfBytes":"32","value":"t_address"},"t_string_storage":{"encoding":"bytes","label":"string","numberOfBytes":"32"},"t_uint256":{"encoding":"inplace","label":"uint256","numberOfBytes":"32"}}},"userdoc":{"kind":"user","methods":{},"version":1}}}}