{"contracts/NFT1.sol":{"NFT1":{"abi":[{"inputs":[{"internalType":"string","name":"baseURI","type":"string"}],"stateMutability":"nonpayable","type":"constructor"},{"anonymous":false,"inputs":[{"indexed":true,"internalType":"address","name":"owner","type":"address"},{"indexed":true,"internalType":"address","name":"approved","type":"address"},{"indexed":true,"internalType":"uint256","name":"tokenId","type":"uint256"}],"name":"Approval","type":"event"},{"anonymous":false,"inputs":[{"indexed":true,"internalType":"address","name":"owner","type":"address"},{"indexed":true,"internalType":"address","name":"operator","type":"address"},{"indexed":false,"internalType":"bool","name":"approved","type":"bool"}],"name":"ApprovalForAll","type":"event"},{"anonymous":false,"inputs":[{"indexed":true,"internalType":"address","name":"previousOwner","type":"address"},{"indexed":true,"internalType":"address","name":"newOwner","type":"address"}],"name":"OwnershipTransferStarted","type":"event"},{"anonymous":false,"inputs":[{"indexed":true,"internalType":"address","name":"previousOwner","type":"address"},{"indexed":true,"internalType":"address","name":"newOwner","type":"address"}],"name":"OwnershipTransferred","type":"event"},{"anonymous":false,"inputs":[{"indexed":true,"internalType":"address","name":"from","type":"address"},{"indexed":true,"internalType":"address","name":"to","type":"address"},{"indexed":true,"internalType":"uint256","name":"tokenId","type":"uint256"}],"name":"Transfer","type":"event"},{"inputs":[],"name":"acceptOwnership","outputs":[],"stateMutability":"nonpayable","type":"function"},{"inputs":[{"internalType":"address","name":"to","type":"address"},{"internalType":"uint256","name":"tokenId","type":"uint256"}],"name":"approve","outputs":[],"stateMutability":"nonpayable","type":"function"},{"inputs":[{"internalType":"address","name":"owner","type":"address"}],"name":"balanceOf","outputs":[{"internalType":"uint256","name":"","type":"uint256"}],"stateMutability":"view","type":"function"},{"inputs":[{"internalType":"uint256","name":"tokenId","type":"uint256"}],"name":"getApproved","outputs":[{"internalType":"address","name":"","type":"address"}],"stateMutability":"view","type":"function"},{"inputs":[{"internalType":"address","name":"owner","type":"address"},{"internalType":"address","name":"operator","type":"address"}],"name":"isApprovedForAll","outputs":[{"internalType":"bool","name":"","type":"bool"}],"stateMutability":"view","type":"function"},{"inputs":[{"internalType":"address","name":"to","type":"address"}],"name":"mint","outputs":[],"stateMutability":"nonpayable","type":"function"},{"inputs":[],"name":"name","outputs":[{"internalType":"string","name":"","type":"string"}],"stateMutability":"view","type":"function"},{"inputs":[],"name":"owner","outputs":[{"internalType":"address","name":"","type":"address"}],"stateMutability":"view","type":"function"},{"inputs":[{"internalType":"uint256","name":"tokenId","type":"uint256"}],"name":"ownerOf","outputs":[{"internalType":"address","name":"","type":"address"}],"stateMutability":"view","type":"function"},{"inputs":[],"name":"pendingOwner","outputs":[{"internalType":"address","name":"","type":"address"}],"stateMutability":"view","type":"function"},{"inputs":[],"name":"renounceOwnership","outputs":[],"stateMutability":"nonpayable","type":"function"},{"inputs":[{"internalType":"address","name":"from","type":"address"},{"internalType":"address","name":"to","type":"address"},{"internalType":"uint256","name":"tokenId","type":"uint256"}],"name":"safeTransferFrom","outputs":[],"stateMutability":"nonpayable","type":"function"},{"inputs":[{"internalType":"address","name":"from","type":"address"},{"internalType":"address","name":"to","type":"address"},{"internalType":"uint256","name":"tokenId","type":"uint256"},{"internalType":"bytes","name":"data","type":"bytes"}],"name":"safeTransferFrom","outputs":[],"stateMutability":"nonpayable","type":"function"},{"inputs":[{"internalType":"address","name":"operator","type":"address"},{"internalType":"bool","name":"approved","type":"bool"}],"name":"setApprovalForAll","outputs":[],"stateMutability":"nonpayable","type":"function"},{"inputs":[{"internalType":"string","name":"baseURI","type":"string"}],"name":"setBaseURI","outputs":[],"stateMutability":"nonpayable","type":"function"},{"inputs":[{"internalType":"bytes4","name":"interfaceId","type":"bytes4"}],"name":"supportsInterface","outputs":[{"internalType":"bool","name":"","type":"bool"}],"stateMutability":"view","type":"function"},{"inputs":[],"name":"symbol","outputs":[{"internalType":"string","name":"","type":"string"}],"stateMutability":"view","type":"function"},{"inputs":[],"name":"tokenIdCounter","outputs":[{"internalType":"uint256","name":"","type":"uint256"}],"stateMutability":"view","type":"function"},{"inputs":[{"internalType":"uint256","name":"tokenId","type":"uint256"}],"name":"tokenURI","outputs":[{"internalType":"string","name":"","type":"string"}],"stateMutability":"view","type":"function"},{"inputs":[],"name":"totalSupply","outputs":[{"internalType":"uint256","name":"","type":"uint256"}],"stateMutability":"view","type":"function"},{"inputs":[{"internalType":"address","name":"from","type":"address"},{"internalType":"address","name":"to","type":"address"},{"internalType":"uint256","name":"tokenId","type":"uint256"}],"name":"transferFrom","outputs":[],"stateMutability":"nonpayable","type":"function"},{"inputs":[{"internalType":"address","name":"newOwner","type":"address"}],"name":"transferOwnership","outputs":[],"stateMutability":"nonpayable","type":"function"}],"devdoc":{"details":"Example of an ERC721 standard NFT contract using OpenZeppelin's Ownable2Step.","events":{"Approval(address,address,uint256)":{"details":"Emitted when `owner` enables `approved` to manage the `tokenId` token."},"ApprovalForAll(address,address,bool)":{"details":"Emitted when `owner` enables or disables (`approved`) `operator` to manage all of its assets."},"Transfer(address,address,uint256)":{"details":"Emitted when `tokenId` token is transferred from `from` to `to`."}},"kind":"dev","methods":{"acceptOwnership()":{"details":"The new owner accepts the ownership transfer."},"approve(address,uint256)":{"details":"See {IERC721-approve}."},"balanceOf(address)":{"details":"See {IERC721-balanceOf}."},"constructor":{"details":"Constructor that sets the name and symbol of the NFT collection."},"getApproved(uint256)":{"details":"See {IERC721-getApproved}."},"isApprovedForAll(address,address)":{"details":"See {IERC721-isApprovedForAll}."},"mint(address)":{"details":"Function to mint new NFTs. Only the owner of the contract can call this function.","params":{"to":"The address of the future owner of the minted NFT."}},"name()":{"details":"See {IERC721Metadata-name}."},"owner()":{"details":"Returns the address of the current owner."},"ownerOf(uint256)":{"details":"See {IERC721-ownerOf}."},"pendingOwner()":{"details":"Returns the address of the pending owner."},"renounceOwnership()":{"details":"Leaves the contract without owner. It will not be possible to call `onlyOwner` functions anymore. Can only be called by the current owner. NOTE: Renouncing ownership will leave the contract without an owner, thereby removing any functionality that is only available to the owner."},"safeTransferFrom(address,address,uint256)":{"details":"See {IERC721-safeTransferFrom}."},"safeTransferFrom(address,address,uint256,bytes)":{"details":"See {IERC721-safeTransferFrom}."},"setApprovalForAll(address,bool)":{"details":"See {IERC721-setApprovalForAll}."},"setBaseURI(string)":{"details":"Set a new base URI for all token metadata."},"supportsInterface(bytes4)":{"details":"See {IERC165-supportsInterface}."},"symbol()":{"details":"See {IERC721Metadata-symbol}."},"tokenURI(uint256)":{"details":"See {IERC721Metadata-tokenURI}."},"totalSupply()":{"details":"Returns the total number of minted tokens."},"transferFrom(address,address,uint256)":{"details":"See {IERC721-transferFrom}."},"transferOwnership(address)":{"details":"Starts the ownership transfer of the contract to a new account. Replaces the pending transfer if there is one. Can only be called by the current owner."}},"title":"NFT","version":1},"evm":{"bytecode":{"linkReferences":{},"object":"608060405234801561001057600080fd5b5060405161355d38038061355d83398181016040528101906100329190610374565b6040518060400160405280600481526020017f4e465431000000000000000000000000000000000000000000000000000000008152506040518060400160405280600481526020017f4e4654310000000000000000000000000000000000000000000000000000000081525081600090816100ad91906105de565b5080600190816100bd91906105de565b5050506100dc6100d16100fa60201b60201c565b61010260201b60201c565b80600990816100eb91906105de565b506000600881905550506106b0565b600033905090565b600760006101000a81549073ffffffffffffffffffffffffffffffffffffffff02191690556101368161013960201b60201c565b50565b6000600660009054906101000a900473ffffffffffffffffffffffffffffffffffffffff16905081600660006101000a81548173ffffffffffffffffffffffffffffffffffffffff021916908373ffffffffffffffffffffffffffffffffffffffff1602179055508173ffffffffffffffffffffffffffffffffffffffff168173ffffffffffffffffffffffffffffffffffffffff167f8be0079c531659141344cd1fd0a4f28419497f9722a3daafe3b4186f6b6457e060405160405180910390a35050565b6000604051905090565b600080fd5b600080fd5b600080fd5b600080fd5b6000601f19601f8301169050919050565b7f4e487b7100000000000000000000000000000000000000000000000000000000600052604160045260246000fd5b6102668261021d565b810181811067ffffffffffffffff821117156102855761028461022e565b5b80604052505050565b60006102986101ff565b90506102a4828261025d565b919050565b600067ffffffffffffffff8211156102c4576102c361022e565b5b6102cd8261021d565b9050602081019050919050565b60005b838110156102f85780820151818401526020810190506102dd565b60008484015250505050565b6000610317610312846102a9565b61028e565b90508281526020810184848401111561033357610332610218565b5b61033e8482856102da565b509392505050565b600082601f83011261035b5761035a610213565b5b815161036b848260208601610304565b91505092915050565b60006020828403121561038a57610389610209565b5b600082015167ffffffffffffffff8111156103a8576103a761020e565b5b6103b484828501610346565b91505092915050565b600081519050919050565b7f4e487b7100000000000000000000000000000000000000000000000000000000600052602260045260246000fd5b6000600282049050600182168061040f57607f821691505b602082108103610422576104216103c8565b5b50919050565b60008190508160005260206000209050919050565b60006020601f8301049050919050565b600082821b905092915050565b60006008830261048a7fffffffffffffffffffffffffffffffffffffffffffffffffffffffffffffffff8261044d565b610494868361044d565b95508019841693508086168417925050509392505050565b6000819050919050565b6000819050919050565b60006104db6104d66104d1846104ac565b6104b6565b6104ac565b9050919050565b6000819050919050565b6104f5836104c0565b610509610501826104e2565b84845461045a565b825550505050565b600090565b61051e610511565b6105298184846104ec565b505050565b5b8181101561054d57610542600082610516565b60018101905061052f565b5050565b601f8211156105925761056381610428565b61056c8461043d565b8101602085101561057b578190505b61058f6105878561043d565b83018261052e565b50505b505050565b600082821c905092915050565b60006105b560001984600802610597565b1980831691505092915050565b60006105ce83836105a4565b9150826002028217905092915050565b6105e7826103bd565b67ffffffffffffffff811115610600576105ff61022e565b5b61060a82546103f7565b610615828285610551565b600060209050601f8311600181146106485760008415610636578287015190505b61064085826105c2565b8655506106a8565b601f19841661065686610428565b60005b8281101561067e57848901518255600182019150602085019450602081019050610659565b8683101561069b5784890151610697601f8916826105a4565b8355505b6001600288020188555050505b505050505050565b612e9e806106bf6000396000f3fe608060405234801561001057600080fd5b50600436106101425760003560e01c8063715018a6116100b8578063a22cb4651161007c578063a22cb4651461033d578063b88d4fde14610359578063c87b56dd14610375578063e30c3978146103a5578063e985e9c5146103c3578063f2fde38b146103f357610142565b8063715018a6146102cf57806379ba5097146102d95780638da5cb5b146102e357806395d89b411461030157806398bdf6f51461031f57610142565b806323b872dd1161010a57806323b872dd146101ff57806342842e0e1461021b57806355f804b3146102375780636352211e146102535780636a6278421461028357806370a082311461029f57610142565b806301ffc9a71461014757806306fdde0314610177578063081812fc14610195578063095ea7b3146101c557806318160ddd146101e1575b600080fd5b610161600480360381019061015c9190611cd1565b61040f565b60405161016e9190611d19565b60405180910390f35b61017f6104f1565b60405161018c9190611dc4565b60405180910390f35b6101af60048036038101906101aa9190611e1c565b610583565b6040516101bc9190611e8a565b60405180910390f35b6101df60048036038101906101da9190611ed1565b6105c9565b005b6101e96106e0565b6040516101f69190611f20565b60405180910390f35b61021960048036038101906102149190611f3b565b6106ea565b005b61023560048036038101906102309190611f3b565b61074a565b005b610251600480360381019061024c91906120c3565b61076a565b005b61026d60048036038101906102689190611e1c565b610785565b60405161027a9190611e8a565b60405180910390f35b61029d6004803603810190610298919061210c565b61080b565b005b6102b960048036038101906102b4919061210c565b610842565b6040516102c69190611f20565b60405180910390f35b6102d76108f9565b005b6102e161090d565b005b6102eb61099a565b6040516102f89190611e8a565b60405180910390f35b6103096109c4565b6040516103169190611dc4565b60405180910390f35b610327610a56565b6040516103349190611f20565b60405180910390f35b61035760048036038101906103529190612165565b610a5c565b005b610373600480360381019061036e9190612246565b610a72565b005b61038f600480360381019061038a9190611e1c565b610ad4565b60405161039c9190611dc4565b60405180910390f35b6103ad610b3c565b6040516103ba9190611e8a565b60405180910390f35b6103dd60048036038101906103d891906122c9565b610b66565b6040516103ea9190611d19565b60405180910390f35b61040d6004803603810190610408919061210c565b610bfa565b005b60007f80ac58cd000000000000000000000000000000000000000000000000000000007bffffffffffffffffffffffffffffffffffffffffffffffffffffffff1916827bffffffffffffffffffffffffffffffffffffffffffffffffffffffff191614806104da57507f5b5e139f000000000000000000000000000000000000000000000000000000007bffffffffffffffffffffffffffffffffffffffffffffffffffffffff1916827bffffffffffffffffffffffffffffffffffffffffffffffffffffffff1916145b806104ea57506104e982610ca7565b5b9050919050565b60606000805461050090612338565b80601f016020809104026020016040519081016040528092919081815260200182805461052c90612338565b80156105795780601f1061054e57610100808354040283529160200191610579565b820191906000526020600020905b81548152906001019060200180831161055c57829003601f168201915b5050505050905090565b600061058e82610d11565b6004600083815260200190815260200160002060009054906101000a900473ffffffffffffffffffffffffffffffffffffffff169050919050565b60006105d482610785565b90508073ffffffffffffffffffffffffffffffffffffffff168373ffffffffffffffffffffffffffffffffffffffff1603610644576040517f08c379a000000000000000000000000000000000000000000000000000000000815260040161063b906123db565b60405180910390fd5b8073ffffffffffffffffffffffffffffffffffffffff16610663610d5c565b73ffffffffffffffffffffffffffffffffffffffff16148061069257506106918161068c610d5c565b610b66565b5b6106d1576040517f08c379a00000000000000000000000000000000000000000000000000000000081526004016106c89061246d565b60405180910390fd5b6106db8383610d64565b505050565b6000600854905090565b6106fb6106f5610d5c565b82610e1d565b61073a576040517f08c379a0000000000000000000000000000000000000000000000000000000008152600401610731906124ff565b60405180910390fd5b610745838383610eb2565b505050565b61076583838360405180602001604052806000815250610a72565b505050565b6107726111ab565b806009908161078191906126cb565b5050565b60008061079183611229565b9050600073ffffffffffffffffffffffffffffffffffffffff168173ffffffffffffffffffffffffffffffffffffffff1603610802576040517f08c379a00000000000000000000000000000000000000000000000000000000081526004016107f9906127e9565b60405180910390fd5b80915050919050565b6108136111ab565b6000600854905060016008600082825461082d9190612838565b9250508190555061083e8282611266565b5050565b60008073ffffffffffffffffffffffffffffffffffffffff168273ffffffffffffffffffffffffffffffffffffffff16036108b2576040517f08c379a00000000000000000000000000000000000000000000000000000000081526004016108a9906128de565b60405180910390fd5b600360008373ffffffffffffffffffffffffffffffffffffffff1673ffffffffffffffffffffffffffffffffffffffff168152602001908152602001600020549050919050565b6109016111ab565b61090b6000611284565b565b6000610917610d5c565b90508073ffffffffffffffffffffffffffffffffffffffff16610938610b3c565b73ffffffffffffffffffffffffffffffffffffffff161461098e576040517f08c379a000000000000000000000000000000000000000000000000000000000815260040161098590612970565b60405180910390fd5b61099781611284565b50565b6000600660009054906101000a900473ffffffffffffffffffffffffffffffffffffffff16905090565b6060600180546109d390612338565b80601f01602080910402602001604051908101604052809291908181526020018280546109ff90612338565b8015610a4c5780601f10610a2157610100808354040283529160200191610a4c565b820191906000526020600020905b815481529060010190602001808311610a2f57829003601f168201915b5050505050905090565b60085481565b610a6e610a67610d5c565b83836112b5565b5050565b610a83610a7d610d5c565b83610e1d565b610ac2576040517f08c379a0000000000000000000000000000000000000000000000000000000008152600401610ab9906124ff565b60405180910390fd5b610ace84848484611421565b50505050565b6060610adf82610d11565b6000610ae961147d565b90506000815111610b095760405180602001604052806000815250610b34565b80610b138461150f565b604051602001610b249291906129cc565b6040516020818303038152906040525b915050919050565b6000600760009054906101000a900473ffffffffffffffffffffffffffffffffffffffff16905090565b6000600560008473ffffffffffffffffffffffffffffffffffffffff1673ffffffffffffffffffffffffffffffffffffffff16815260200190815260200160002060008373ffffffffffffffffffffffffffffffffffffffff1673ffffffffffffffffffffffffffffffffffffffff16815260200190815260200160002060009054906101000a900460ff16905092915050565b610c026111ab565b80600760006101000a81548173ffffffffffffffffffffffffffffffffffffffff021916908373ffffffffffffffffffffffffffffffffffffffff1602179055508073ffffffffffffffffffffffffffffffffffffffff16610c6261099a565b73ffffffffffffffffffffffffffffffffffffffff167f38d16b8cac22d99fc7c124b9cd0de2d3fa1faef420bfe791d8c362d765e2270060405160405180910390a350565b60007f01ffc9a7000000000000000000000000000000000000000000000000000000007bffffffffffffffffffffffffffffffffffffffffffffffffffffffff1916827bffffffffffffffffffffffffffffffffffffffffffffffffffffffff1916149050919050565b610d1a816115dd565b610d59576040517f08c379a0000000000000000000000000000000000000000000000000000000008152600401610d50906127e9565b60405180910390fd5b50565b600033905090565b816004600083815260200190815260200160002060006101000a81548173ffffffffffffffffffffffffffffffffffffffff021916908373ffffffffffffffffffffffffffffffffffffffff160217905550808273ffffffffffffffffffffffffffffffffffffffff16610dd783610785565b73ffffffffffffffffffffffffffffffffffffffff167f8c5be1e5ebec7d5bd14f71427d1e84f3dd0314c0f7b2291e5b200ac8c7c3b92560405160405180910390a45050565b600080610e2983610785565b90508073ffffffffffffffffffffffffffffffffffffffff168473ffffffffffffffffffffffffffffffffffffffff161480610e6b5750610e6a8185610b66565b5b80610ea957508373ffffffffffffffffffffffffffffffffffffffff16610e9184610583565b73ffffffffffffffffffffffffffffffffffffffff16145b91505092915050565b8273ffffffffffffffffffffffffffffffffffffffff16610ed282610785565b73ffffffffffffffffffffffffffffffffffffffff1614610f28576040517f08c379a0000000000000000000000000000000000000000000000000000000008152600401610f1f90612a62565b60405180910390fd5b600073ffffffffffffffffffffffffffffffffffffffff168273ffffffffffffffffffffffffffffffffffffffff1603610f97576040517f08c379a0000000000000000000000000000000000000000000000000000000008152600401610f8e90612af4565b60405180910390fd5b610fa4838383600161161e565b8273ffffffffffffffffffffffffffffffffffffffff16610fc482610785565b73ffffffffffffffffffffffffffffffffffffffff161461101a576040517f08c379a000000000000000000000000000000000000000000000000000000000815260040161101190612a62565b60405180910390fd5b6004600082815260200190815260200160002060006101000a81549073ffffffffffffffffffffffffffffffffffffffff02191690556001600360008573ffffffffffffffffffffffffffffffffffffffff1673ffffffffffffffffffffffffffffffffffffffff168152602001908152602001600020600082825403925050819055506001600360008473ffffffffffffffffffffffffffffffffffffffff1673ffffffffffffffffffffffffffffffffffffffff16815260200190815260200160002060008282540192505081905550816002600083815260200190815260200160002060006101000a81548173ffffffffffffffffffffffffffffffffffffffff021916908373ffffffffffffffffffffffffffffffffffffffff160217905550808273ffffffffffffffffffffffffffffffffffffffff168473ffffffffffffffffffffffffffffffffffffffff167fddf252ad1be2c89b69c2b068fc378daa952ba7f163c4a11628f55a4df523b3ef60405160405180910390a46111a68383836001611624565b505050565b6111b3610d5c565b73ffffffffffffffffffffffffffffffffffffffff166111d161099a565b73ffffffffffffffffffffffffffffffffffffffff1614611227576040517f08c379a000000000000000000000000000000000000000000000000000000000815260040161121e90612b60565b60405180910390fd5b565b60006002600083815260200190815260200160002060009054906101000a900473ffffffffffffffffffffffffffffffffffffffff169050919050565b61128082826040518060200160405280600081525061162a565b5050565b600760006101000a81549073ffffffffffffffffffffffffffffffffffffffff02191690556112b281611685565b50565b8173ffffffffffffffffffffffffffffffffffffffff168373ffffffffffffffffffffffffffffffffffffffff1603611323576040517f08c379a000000000000000000000000000000000000000000000000000000000815260040161131a90612bcc565b60405180910390fd5b80600560008573ffffffffffffffffffffffffffffffffffffffff1673ffffffffffffffffffffffffffffffffffffffff16815260200190815260200160002060008473ffffffffffffffffffffffffffffffffffffffff1673ffffffffffffffffffffffffffffffffffffffff16815260200190815260200160002060006101000a81548160ff0219169083151502179055508173ffffffffffffffffffffffffffffffffffffffff168373ffffffffffffffffffffffffffffffffffffffff167f17307eab39ab6107e8899845ad3d59bd9653f200f220920489ca2b5937696c31836040516114149190611d19565b60405180910390a3505050565b61142c848484610eb2565b6114388484848461174b565b611477576040517f08c379a000000000000000000000000000000000000000000000000000000000815260040161146e90612c5e565b60405180910390fd5b50505050565b60606009805461148c90612338565b80601f01602080910402602001604051908101604052809291908181526020018280546114b890612338565b80156115055780601f106114da57610100808354040283529160200191611505565b820191906000526020600020905b8154815290600101906020018083116114e857829003601f168201915b5050505050905090565b60606000600161151e846118d2565b01905060008167ffffffffffffffff81111561153d5761153c611f98565b5b6040519080825280601f01601f19166020018201604052801561156f5781602001600182028036833780820191505090505b509050600082602001820190505b6001156115d2578080600190039150507f3031323334353637383961626364656600000000000000000000000000000000600a86061a8153600a85816115c6576115c5612c7e565b5b0494506000850361157d575b819350505050919050565b60008073ffffffffffffffffffffffffffffffffffffffff166115ff83611229565b73ffffffffffffffffffffffffffffffffffffffff1614159050919050565b50505050565b50505050565b6116348383611a25565b611641600084848461174b565b611680576040517f08c379a000000000000000000000000000000000000000000000000000000000815260040161167790612c5e565b60405180910390fd5b505050565b6000600660009054906101000a900473ffffffffffffffffffffffffffffffffffffffff16905081600660006101000a81548173ffffffffffffffffffffffffffffffffffffffff021916908373ffffffffffffffffffffffffffffffffffffffff1602179055508173ffffffffffffffffffffffffffffffffffffffff168173ffffffffffffffffffffffffffffffffffffffff167f8be0079c531659141344cd1fd0a4f28419497f9722a3daafe3b4186f6b6457e060405160405180910390a35050565b600061176c8473ffffffffffffffffffffffffffffffffffffffff16611c42565b156118c5578373ffffffffffffffffffffffffffffffffffffffff1663150b7a02611795610d5c565b8786866040518563ffffffff1660e01b81526004016117b79493929190612d02565b6020604051808303816000875af19250505080156117f357506040513d601f19601f820116820180604052508101906117f09190612d63565b60015b611875573d8060008114611823576040519150601f19603f3d011682016040523d82523d6000602084013e611828565b606091505b50600081510361186d576040517f08c379a000000000000000000000000000000000000000000000000000000000815260040161186490612c5e565b60405180910390fd5b805181602001fd5b63150b7a0260e01b7bffffffffffffffffffffffffffffffffffffffffffffffffffffffff1916817bffffffffffffffffffffffffffffffffffffffffffffffffffffffff1916149150506118ca565b600190505b949350505050565b600080600090507a184f03e93ff9f4daa797ed6e38ed64bf6a1f0100000000000000008310611930577a184f03e93ff9f4daa797ed6e38ed64bf6a1f010000000000000000838161192657611925612c7e565b5b0492506040810190505b6d04ee2d6d415b85acef8100000000831061196d576d04ee2d6d415b85acef8100000000838161196357611962612c7e565b5b0492506020810190505b662386f26fc10000831061199c57662386f26fc10000838161199257611991612c7e565b5b0492506010810190505b6305f5e10083106119c5576305f5e10083816119bb576119ba612c7e565b5b0492506008810190505b61271083106119ea5761271083816119e0576119df612c7e565b5b0492506004810190505b60648310611a0d5760648381611a0357611a02612c7e565b5b0492506002810190505b600a8310611a1c576001810190505b80915050919050565b600073ffffffffffffffffffffffffffffffffffffffff168273ffffffffffffffffffffffffffffffffffffffff1603611a94576040517f08c379a0000000000000000000000000000000000000000000000000000000008152600401611a8b90612ddc565b60405180910390fd5b611a9d816115dd565b15611add576040517f08c379a0000000000000000000000000000000000000000000000000000000008152600401611ad490612e48565b60405180910390fd5b611aeb60008383600161161e565b611af4816115dd565b15611b34576040517f08c379a0000000000000000000000000000000000000000000000000000000008152600401611b2b90612e48565b60405180910390fd5b6001600360008473ffffffffffffffffffffffffffffffffffffffff1673ffffffffffffffffffffffffffffffffffffffff16815260200190815260200160002060008282540192505081905550816002600083815260200190815260200160002060006101000a81548173ffffffffffffffffffffffffffffffffffffffff021916908373ffffffffffffffffffffffffffffffffffffffff160217905550808273ffffffffffffffffffffffffffffffffffffffff16600073ffffffffffffffffffffffffffffffffffffffff167fddf252ad1be2c89b69c2b068fc378daa952ba7f163c4a11628f55a4df523b3ef60405160405180910390a4611c3e600083836001611624565b5050565b6000808273ffffffffffffffffffffffffffffffffffffffff163b119050919050565b6000604051905090565b600080fd5b600080fd5b60007fffffffff0000000000000000000000000000000000000000000000000000000082169050919050565b611cae81611c79565b8114611cb957600080fd5b50565b600081359050611ccb81611ca5565b92915050565b600060208284031215611ce757611ce6611c6f565b5b6000611cf584828501611cbc565b91505092915050565b60008115159050919050565b611d1381611cfe565b82525050565b6000602082019050611d2e6000830184611d0a565b92915050565b600081519050919050565b600082825260208201905092915050565b60005b83811015611d6e578082015181840152602081019050611d53565b60008484015250505050565b6000601f19601f8301169050919050565b6000611d9682611d34565b611da08185611d3f565b9350611db0818560208601611d50565b611db981611d7a565b840191505092915050565b60006020820190508181036000830152611dde8184611d8b565b905092915050565b6000819050919050565b611df981611de6565b8114611e0457600080fd5b50565b600081359050611e1681611df0565b92915050565b600060208284031215611e3257611e31611c6f565b5b6000611e4084828501611e07565b91505092915050565b600073ffffffffffffffffffffffffffffffffffffffff82169050919050565b6000611e7482611e49565b9050919050565b611e8481611e69565b82525050565b6000602082019050611e9f6000830184611e7b565b92915050565b611eae81611e69565b8114611eb957600080fd5b50565b600081359050611ecb81611ea5565b92915050565b60008060408385031215611ee857611ee7611c6f565b5b6000611ef685828601611ebc565b9250506020611f0785828601611e07565b9150509250929050565b611f1a81611de6565b82525050565b6000602082019050611f356000830184611f11565b92915050565b600080600060608486031215611f5457611f53611c6f565b5b6000611f6286828701611ebc565b9350506020611f7386828701611ebc565b9250506040611f8486828701611e07565b9150509250925092565b600080fd5b600080fd5b7f4e487b7100000000000000000000000000000000000000000000000000000000600052604160045260246000fd5b611fd082611d7a565b810181811067ffffffffffffffff82111715611fef57611fee611f98565b5b80604052505050565b6000612002611c65565b905061200e8282611fc7565b919050565b600067ffffffffffffffff82111561202e5761202d611f98565b5b61203782611d7a565b9050602081019050919050565b82818337600083830152505050565b600061206661206184612013565b611ff8565b90508281526020810184848401111561208257612081611f93565b5b61208d848285612044565b509392505050565b600082601f8301126120aa576120a9611f8e565b5b81356120ba848260208601612053565b91505092915050565b6000602082840312156120d9576120d8611c6f565b5b600082013567ffffffffffffffff8111156120f7576120f6611c74565b5b61210384828501612095565b91505092915050565b60006020828403121561212257612121611c6f565b5b600061213084828501611ebc565b91505092915050565b61214281611cfe565b811461214d57600080fd5b50565b60008135905061215f81612139565b92915050565b6000806040838503121561217c5761217b611c6f565b5b600061218a85828601611ebc565b925050602061219b85828601612150565b9150509250929050565b600067ffffffffffffffff8211156121c0576121bf611f98565b5b6121c982611d7a565b9050602081019050919050565b60006121e96121e4846121a5565b611ff8565b90508281526020810184848401111561220557612204611f93565b5b612210848285612044565b509392505050565b600082601f83011261222d5761222c611f8e565b5b813561223d8482602086016121d6565b91505092915050565b600080600080608085870312156122605761225f611c6f565b5b600061226e87828801611ebc565b945050602061227f87828801611ebc565b935050604061229087828801611e07565b925050606085013567ffffffffffffffff8111156122b1576122b0611c74565b5b6122bd87828801612218565b91505092959194509250565b600080604083850312156122e0576122df611c6f565b5b60006122ee85828601611ebc565b92505060206122ff85828601611ebc565b9150509250929050565b7f4e487b7100000000000000000000000000000000000000000000000000000000600052602260045260246000fd5b6000600282049050600182168061235057607f821691505b60208210810361236357612362612309565b5b50919050565b7f4552433732313a20617070726f76616c20746f2063757272656e74206f776e6560008201527f7200000000000000000000000000000000000000000000000000000000000000602082015250565b60006123c5602183611d3f565b91506123d082612369565b604082019050919050565b600060208201905081810360008301526123f4816123b8565b9050919050565b7f4552433732313a20617070726f76652063616c6c6572206973206e6f7420746f60008201527f6b656e206f776e6572206f7220617070726f76656420666f7220616c6c000000602082015250565b6000612457603d83611d3f565b9150612462826123fb565b604082019050919050565b600060208201905081810360008301526124868161244a565b9050919050565b7f4552433732313a2063616c6c6572206973206e6f7420746f6b656e206f776e6560008201527f72206f7220617070726f76656400000000000000000000000000000000000000602082015250565b60006124e9602d83611d3f565b91506124f48261248d565b604082019050919050565b60006020820190508181036000830152612518816124dc565b9050919050565b60008190508160005260206000209050919050565b60006020601f8301049050919050565b600082821b905092915050565b6000600883026125817fffffffffffffffffffffffffffffffffffffffffffffffffffffffffffffffff82612544565b61258b8683612544565b95508019841693508086168417925050509392505050565b6000819050919050565b60006125c86125c36125be84611de6565b6125a3565b611de6565b9050919050565b6000819050919050565b6125e2836125ad565b6125f66125ee826125cf565b848454612551565b825550505050565b600090565b61260b6125fe565b6126168184846125d9565b505050565b5b8181101561263a5761262f600082612603565b60018101905061261c565b5050565b601f82111561267f576126508161251f565b61265984612534565b81016020851015612668578190505b61267c61267485612534565b83018261261b565b50505b505050565b600082821c905092915050565b60006126a260001984600802612684565b1980831691505092915050565b60006126bb8383612691565b9150826002028217905092915050565b6126d482611d34565b67ffffffffffffffff8111156126ed576126ec611f98565b5b6126f78254612338565b61270282828561263e565b600060209050601f8311600181146127355760008415612723578287015190505b61272d85826126af565b865550612795565b601f1984166127438661251f565b60005b8281101561276b57848901518255600182019150602085019450602081019050612746565b868310156127885784890151612784601f891682612691565b8355505b6001600288020188555050505b505050505050565b7f4552433732313a20696e76616c696420746f6b656e2049440000000000000000600082015250565b60006127d3601883611d3f565b91506127de8261279d565b602082019050919050565b60006020820190508181036000830152612802816127c6565b9050919050565b7f4e487b7100000000000000000000000000000000000000000000000000000000600052601160045260246000fd5b600061284382611de6565b915061284e83611de6565b925082820190508082111561286657612865612809565b5b92915050565b7f4552433732313a2061646472657373207a65726f206973206e6f74206120766160008201527f6c6964206f776e65720000000000000000000000000000000000000000000000602082015250565b60006128c8602983611d3f565b91506128d38261286c565b604082019050919050565b600060208201905081810360008301526128f7816128bb565b9050919050565b7f4f776e61626c6532537465703a2063616c6c6572206973206e6f74207468652060008201527f6e6577206f776e65720000000000000000000000000000000000000000000000602082015250565b600061295a602983611d3f565b9150612965826128fe565b604082019050919050565b600060208201905081810360008301526129898161294d565b9050919050565b600081905092915050565b60006129a682611d34565b6129b08185612990565b93506129c0818560208601611d50565b80840191505092915050565b60006129d8828561299b565b91506129e4828461299b565b91508190509392505050565b7f4552433732313a207472616e736665722066726f6d20696e636f72726563742060008201527f6f776e6572000000000000000000000000000000000000000000000000000000602082015250565b6000612a4c602583611d3f565b9150612a57826129f0565b604082019050919050565b60006020820190508181036000830152612a7b81612a3f565b9050919050565b7f4552433732313a207472616e7366657220746f20746865207a65726f2061646460008201527f7265737300000000000000000000000000000000000000000000000000000000602082015250565b6000612ade602483611d3f565b9150612ae982612a82565b604082019050919050565b60006020820190508181036000830152612b0d81612ad1565b9050919050565b7f4f776e61626c653a2063616c6c6572206973206e6f7420746865206f776e6572600082015250565b6000612b4a602083611d3f565b9150612b5582612b14565b602082019050919050565b60006020820190508181036000830152612b7981612b3d565b9050919050565b7f4552433732313a20617070726f766520746f2063616c6c657200000000000000600082015250565b6000612bb6601983611d3f565b9150612bc182612b80565b602082019050919050565b60006020820190508181036000830152612be581612ba9565b9050919050565b7f4552433732313a207472616e7366657220746f206e6f6e20455243373231526560008201527f63656976657220696d706c656d656e7465720000000000000000000000000000602082015250565b6000612c48603283611d3f565b9150612c5382612bec565b604082019050919050565b60006020820190508181036000830152612c7781612c3b565b9050919050565b7f4e487b7100000000000000000000000000000000000000000000000000000000600052601260045260246000fd5b600081519050919050565b600082825260208201905092915050565b6000612cd482612cad565b612cde8185612cb8565b9350612cee818560208601611d50565b612cf781611d7a565b840191505092915050565b6000608082019050612d176000830187611e7b565b612d246020830186611e7b565b612d316040830185611f11565b8181036060830152612d438184612cc9565b905095945050505050565b600081519050612d5d81611ca5565b92915050565b600060208284031215612d7957612d78611c6f565b5b6000612d8784828501612d4e565b91505092915050565b7f4552433732313a206d696e7420746f20746865207a65726f2061646472657373600082015250565b6000612dc6602083611d3f565b9150612dd182612d90565b602082019050919050565b60006020820190508181036000830152612df581612db9565b9050919050565b7f4552433732313a20746f6b656e20616c7265616479206d696e74656400000000600082015250565b6000612e32601c83611d3f565b9150612e3d82612dfc565b602082019050919050565b60006020820190508181036000830152612e6181612e25565b905091905056fea26469706673582212206399f4f555d843fc615fe47b8051fc5271362e7db0ba0bceb3cde1e28e27ab2c64736f6c634300081b0033","opcodes":"PUSH1 0x80 PUSH1 0x40 MSTORE CALLVALUE DUP1 ISZERO PUSH2 0x10 JUMPI PUSH1 0x0 DUP1 REVERT JUMPDEST POP PUSH1 0x40 MLOAD PUSH2 0x355D CODESIZE SUB DUP1 PUSH2 0x355D DUP4 CODECOPY DUP2 DUP2 ADD PUSH1 0x40 MSTORE DUP2 ADD SWAP1 PUSH2 0x32 SWAP2 SWAP1 PUSH2 0x374 JUMP JUMPDEST PUSH1 0x40 MLOAD DUP1 PUSH1 0x40 ADD PUSH1 0x40 MSTORE DUP1 PUSH1 0x4 DUP2 MSTORE PUSH1 0x20 ADD PUSH32 0x4E46543100000000000000000000000000000000000000000000000000000000 DUP2 MSTORE POP PUSH1 0x40 MLOAD DUP1 PUSH1 0x40 ADD PUSH1 0x40 MSTORE DUP1 PUSH1 0x4 DUP2 MSTORE PUSH1 0x20 ADD PUSH32 0x4E46543100000000000000000000000000000000000000000000000000000000 DUP2 MSTORE POP DUP2 PUSH1 0x0 SWAP1 DUP2 PUSH2 0xAD SWAP2 SWAP1 PUSH2 0x5DE JUMP JUMPDEST POP DUP1 PUSH1 0x1 SWAP1 DUP2 PUSH2 0xBD SWAP2 SWAP1 PUSH2 0x5DE JUMP JUMPDEST POP POP POP PUSH2 0xDC PUSH2 0xD1 PUSH2 0xFA PUSH1 0x20 SHL PUSH1 0x20 SHR JUMP JUMPDEST PUSH2 0x102 PUSH1 0x20 SHL PUSH1 0x20 SHR JUMP JUMPDEST DUP1 PUSH1 0x9 SWAP1 DUP2 PUSH2 0xEB SWAP2 SWAP1 PUSH2 0x5DE JUMP JUMPDEST POP PUSH1 0x0 PUSH1 0x8 DUP2 SWAP1 SSTORE POP POP PUSH2 0x6B0 JUMP JUMPDEST PUSH1 0x0 CALLER SWAP1 POP SWAP1 JUMP JUMPDEST PUSH1 0x7 PUSH1 0x0 PUSH2 0x100 EXP DUP2 SLOAD SWAP1 PUSH20 0xFFFFFFFFFFFFFFFFFFFFFFFFFFFFFFFFFFFFFFFF MUL NOT AND SWAP1 SSTORE PUSH2 0x136 DUP2 PUSH2 0x139 PUSH1 0x20 SHL PUSH1 0x20 SHR JUMP JUMPDEST POP JUMP JUMPDEST PUSH1 0x0 PUSH1 0x6 PUSH1 0x0 SWAP1 SLOAD SWAP1 PUSH2 0x100 EXP SWAP1 DIV PUSH20 0xFFFFFFFFFFFFFFFFFFFFFFFFFFFFFFFFFFFFFFFF AND SWAP1 POP DUP2 PUSH1 0x6 PUSH1 0x0 PUSH2 0x100 EXP DUP2 SLOAD DUP2 PUSH20 0xFFFFFFFFFFFFFFFFFFFFFFFFFFFFFFFFFFFFFFFF MUL NOT AND SWAP1 DUP4 PUSH20 0xFFFFFFFFFFFFFFFFFFFFFFFFFFFFFFFFFFFFFFFF AND MUL OR SWAP1 SSTORE POP DUP2 PUSH20 0xFFFFFFFFFFFFFFFFFFFFFFFFFFFFFFFFFFFFFFFF AND DUP2 PUSH20 0xFFFFFFFFFFFFFFFFFFFFFFFFFFFFFFFFFFFFFFFF AND PUSH32 0x8BE0079C531659141344CD1FD0A4F28419497F9722A3DAAFE3B4186F6B6457E0 PUSH1 0x40 MLOAD PUSH1 0x40 MLOAD DUP1 SWAP2 SUB SWAP1 LOG3 POP POP JUMP JUMPDEST PUSH1 0x0 PUSH1 0x40 MLOAD SWAP1 POP SWAP1 JUMP JUMPDEST PUSH1 0x0 DUP1 REVERT JUMPDEST PUSH1 0x0 DUP1 REVERT JUMPDEST PUSH1 0x0 DUP1 REVERT JUMPDEST PUSH1 0x0 DUP1 REVERT JUMPDEST PUSH1 0x0 PUSH1 0x1F NOT PUSH1 0x1F DUP4 ADD AND SWAP1 POP SWAP2 SWAP1 POP JUMP JUMPDEST PUSH32 0x4E487B7100000000000000000000000000000000000000000000000000000000 PUSH1 0x0 MSTORE PUSH1 0x41 PUSH1 0x4 MSTORE PUSH1 0x24 PUSH1 0x0 REVERT JUMPDEST PUSH2 0x266 DUP3 PUSH2 0x21D JUMP JUMPDEST DUP2 ADD DUP2 DUP2 LT PUSH8 0xFFFFFFFFFFFFFFFF DUP3 GT OR ISZERO PUSH2 0x285 JUMPI PUSH2 0x284 PUSH2 0x22E JUMP JUMPDEST JUMPDEST DUP1 PUSH1 0x40 MSTORE POP POP POP JUMP JUMPDEST PUSH1 0x0 PUSH2 0x298 PUSH2 0x1FF JUMP JUMPDEST SWAP1 POP PUSH2 0x2A4 DUP3 DUP3 PUSH2 0x25D JUMP JUMPDEST SWAP2 SWAP1 POP JUMP JUMPDEST PUSH1 0x0 PUSH8 0xFFFFFFFFFFFFFFFF DUP3 GT ISZERO PUSH2 0x2C4 JUMPI PUSH2 0x2C3 PUSH2 0x22E JUMP JUMPDEST JUMPDEST PUSH2 0x2CD DUP3 PUSH2 0x21D JUMP JUMPDEST SWAP1 POP PUSH1 0x20 DUP2 ADD SWAP1 POP SWAP2 SWAP1 POP JUMP JUMPDEST PUSH1 0x0 JUMPDEST DUP4 DUP2 LT ISZERO PUSH2 0x2F8 JUMPI DUP1 DUP3 ADD MLOAD DUP2 DUP5 ADD MSTORE PUSH1 0x20 DUP2 ADD SWAP1 POP PUSH2 0x2DD JUMP JUMPDEST PUSH1 0x0 DUP5 DUP5 ADD MSTORE POP POP POP POP JUMP JUMPDEST PUSH1 0x0 PUSH2 0x317 PUSH2 0x312 DUP5 PUSH2 0x2A9 JUMP JUMPDEST PUSH2 0x28E JUMP JUMPDEST SWAP1 POP DUP3 DUP2 MSTORE PUSH1 0x20 DUP2 ADD DUP5 DUP5 DUP5 ADD GT ISZERO PUSH2 0x333 JUMPI PUSH2 0x332 PUSH2 0x218 JUMP JUMPDEST JUMPDEST PUSH2 0x33E DUP5 DUP3 DUP6 PUSH2 0x2DA JUMP JUMPDEST POP SWAP4 SWAP3 POP POP POP JUMP JUMPDEST PUSH1 0x0 DUP3 PUSH1 0x1F DUP4 ADD SLT PUSH2 0x35B JUMPI PUSH2 0x35A PUSH2 0x213 JUMP JUMPDEST JUMPDEST DUP2 MLOAD PUSH2 0x36B DUP5 DUP3 PUSH1 0x20 DUP7 ADD PUSH2 0x304 JUMP JUMPDEST SWAP2 POP POP SWAP3 SWAP2 POP POP JUMP JUMPDEST PUSH1 0x0 PUSH1 0x20 DUP3 DUP5 SUB SLT ISZERO PUSH2 0x38A JUMPI PUSH2 0x389 PUSH2 0x209 JUMP JUMPDEST JUMPDEST PUSH1 0x0 DUP3 ADD MLOAD PUSH8 0xFFFFFFFFFFFFFFFF DUP2 GT ISZERO PUSH2 0x3A8 JUMPI PUSH2 0x3A7 PUSH2 0x20E JUMP JUMPDEST JUMPDEST PUSH2 0x3B4 DUP5 DUP3 DUP6 ADD PUSH2 0x346 JUMP JUMPDEST SWAP2 POP POP SWAP3 SWAP2 POP POP JUMP JUMPDEST PUSH1 0x0 DUP2 MLOAD SWAP1 POP SWAP2 SWAP1 POP JUMP JUMPDEST PUSH32 0x4E487B7100000000000000000000000000000000000000000000000000000000 PUSH1 0x0 MSTORE PUSH1 0x22 PUSH1 0x4 MSTORE PUSH1 0x24 PUSH1 0x0 REVERT JUMPDEST PUSH1 0x0 PUSH1 0x2 DUP3 DIV SWAP1 POP PUSH1 0x1 DUP3 AND DUP1 PUSH2 0x40F JUMPI PUSH1 0x7F DUP3 AND SWAP2 POP JUMPDEST PUSH1 0x20 DUP3 LT DUP2 SUB PUSH2 0x422 JUMPI PUSH2 0x421 PUSH2 0x3C8 JUMP JUMPDEST JUMPDEST POP SWAP2 SWAP1 POP JUMP JUMPDEST PUSH1 0x0 DUP2 SWAP1 POP DUP2 PUSH1 0x0 MSTORE PUSH1 0x20 PUSH1 0x0 KECCAK256 SWAP1 POP SWAP2 SWAP1 POP JUMP JUMPDEST PUSH1 0x0 PUSH1 0x20 PUSH1 0x1F DUP4 ADD DIV SWAP1 POP SWAP2 SWAP1 POP JUMP JUMPDEST PUSH1 0x0 DUP3 DUP3 SHL SWAP1 POP SWAP3 SWAP2 POP POP JUMP JUMPDEST PUSH1 0x0 PUSH1 0x8 DUP4 MUL PUSH2 0x48A PUSH32 0xFFFFFFFFFFFFFFFFFFFFFFFFFFFFFFFFFFFFFFFFFFFFFFFFFFFFFFFFFFFFFFFF DUP3 PUSH2 0x44D JUMP JUMPDEST PUSH2 0x494 DUP7 DUP4 PUSH2 0x44D JUMP JUMPDEST SWAP6 POP DUP1 NOT DUP5 AND SWAP4 POP DUP1 DUP7 AND DUP5 OR SWAP3 POP POP POP SWAP4 SWAP3 POP POP POP JUMP JUMPDEST PUSH1 0x0 DUP2 SWAP1 POP SWAP2 SWAP1 POP JUMP JUMPDEST PUSH1 0x0 DUP2 SWAP1 POP SWAP2 SWAP1 POP JUMP JUMPDEST PUSH1 0x0 PUSH2 0x4DB PUSH2 0x4D6 PUSH2 0x4D1 DUP5 PUSH2 0x4AC JUMP JUMPDEST PUSH2 0x4B6 JUMP JUMPDEST PUSH2 0x4AC JUMP JUMPDEST SWAP1 POP SWAP2 SWAP1 POP JUMP JUMPDEST PUSH1 0x0 DUP2 SWAP1 POP SWAP2 SWAP1 POP JUMP JUMPDEST PUSH2 0x4F5 DUP4 PUSH2 0x4C0 JUMP JUMPDEST PUSH2 0x509 PUSH2 0x501 DUP3 PUSH2 0x4E2 JUMP JUMPDEST DUP5 DUP5 SLOAD PUSH2 0x45A JUMP JUMPDEST DUP3 SSTORE POP POP POP POP JUMP JUMPDEST PUSH1 0x0 SWAP1 JUMP JUMPDEST PUSH2 0x51E PUSH2 0x511 JUMP JUMPDEST PUSH2 0x529 DUP2 DUP5 DUP5 PUSH2 0x4EC JUMP JUMPDEST POP POP POP JUMP JUMPDEST JUMPDEST DUP2 DUP2 LT ISZERO PUSH2 0x54D JUMPI PUSH2 0x542 PUSH1 0x0 DUP3 PUSH2 0x516 JUMP JUMPDEST PUSH1 0x1 DUP2 ADD SWAP1 POP PUSH2 0x52F JUMP JUMPDEST POP POP JUMP JUMPDEST PUSH1 0x1F DUP3 GT ISZERO PUSH2 0x592 JUMPI PUSH2 0x563 DUP2 PUSH2 0x428 JUMP JUMPDEST PUSH2 0x56C DUP5 PUSH2 0x43D JUMP JUMPDEST DUP2 ADD PUSH1 0x20 DUP6 LT ISZERO PUSH2 0x57B JUMPI DUP2 SWAP1 POP JUMPDEST PUSH2 0x58F PUSH2 0x587 DUP6 PUSH2 0x43D JUMP JUMPDEST DUP4 ADD DUP3 PUSH2 0x52E JUMP JUMPDEST POP POP JUMPDEST POP POP POP JUMP JUMPDEST PUSH1 0x0 DUP3 DUP3 SHR SWAP1 POP SWAP3 SWAP2 POP POP JUMP JUMPDEST PUSH1 0x0 PUSH2 0x5B5 PUSH1 0x0 NOT DUP5 PUSH1 0x8 MUL PUSH2 0x597 JUMP JUMPDEST NOT DUP1 DUP4 AND SWAP2 POP POP SWAP3 SWAP2 POP POP JUMP JUMPDEST PUSH1 0x0 PUSH2 0x5CE DUP4 DUP4 PUSH2 0x5A4 JUMP JUMPDEST SWAP2 POP DUP3 PUSH1 0x2 MUL DUP3 OR SWAP1 POP SWAP3 SWAP2 POP POP JUMP JUMPDEST PUSH2 0x5E7 DUP3 PUSH2 0x3BD JUMP JUMPDEST PUSH8 0xFFFFFFFFFFFFFFFF DUP2 GT ISZERO PUSH2 0x600 JUMPI PUSH2 0x5FF PUSH2 0x22E JUMP JUMPDEST JUMPDEST PUSH2 0x60A DUP3 SLOAD PUSH2 0x3F7 JUMP JUMPDEST PUSH2 0x615 DUP3 DUP3 DUP6 PUSH2 0x551 JUMP JUMPDEST PUSH1 0x0 PUSH1 0x20 SWAP1 POP PUSH1 0x1F DUP4 GT PUSH1 0x1 DUP2 EQ PUSH2 0x648 JUMPI PUSH1 0x0 DUP5 ISZERO PUSH2 0x636 JUMPI DUP3 DUP8 ADD MLOAD SWAP1 POP JUMPDEST PUSH2 0x640 DUP6 DUP3 PUSH2 0x5C2 JUMP JUMPDEST DUP7 SSTORE POP PUSH2 0x6A8 JUMP JUMPDEST PUSH1 0x1F NOT DUP5 AND PUSH2 0x656 DUP7 PUSH2 0x428 JUMP JUMPDEST PUSH1 0x0 JUMPDEST DUP3 DUP2 LT ISZERO PUSH2 0x67E JUMPI DUP5 DUP10 ADD MLOAD DUP3 SSTORE PUSH1 0x1 DUP3 ADD SWAP2 POP PUSH1 0x20 DUP6 ADD SWAP5 POP PUSH1 0x20 DUP2 ADD SWAP1 POP PUSH2 0x659 JUMP JUMPDEST DUP7 DUP4 LT ISZERO PUSH2 0x69B JUMPI DUP5 DUP10 ADD MLOAD PUSH2 0x697 PUSH1 0x1F DUP10 AND DUP3 PUSH2 0x5A4 JUMP JUMPDEST DUP4 SSTORE POP JUMPDEST PUSH1 0x1 PUSH1 0x2 DUP9 MUL ADD DUP9 SSTORE POP POP POP JUMPDEST POP POP POP POP POP POP JUMP JUMPDEST PUSH2 0x2E9E DUP1 PUSH2 0x6BF PUSH1 0x0 CODECOPY PUSH1 0x0 RETURN INVALID PUSH1 0x80 PUSH1 0x40 MSTORE CALLVALUE DUP1 ISZERO PUSH2 0x10 JUMPI PUSH1 0x0 DUP1 REVERT JUMPDEST POP PUSH1 0x4 CALLDATASIZE LT PUSH2 0x142 JUMPI PUSH1 0x0 CALLDATALOAD PUSH1 0xE0 SHR DUP1 PUSH4 0x715018A6 GT PUSH2 0xB8 JUMPI DUP1 PUSH4 0xA22CB465 GT PUSH2 0x7C JUMPI DUP1 PUSH4 0xA22CB465 EQ PUSH2 0x33D JUMPI DUP1 PUSH4 0xB88D4FDE EQ PUSH2 0x359 JUMPI DUP1 PUSH4 0xC87B56DD EQ PUSH2 0x375 JUMPI DUP1 PUSH4 0xE30C3978 EQ PUSH2 0x3A5 JUMPI DUP1 PUSH4 0xE985E9C5 EQ PUSH2 0x3C3 JUMPI DUP1 PUSH4 0xF2FDE38B EQ PUSH2 0x3F3 JUMPI PUSH2 0x142 JUMP JUMPDEST DUP1 PUSH4 0x715018A6 EQ PUSH2 0x2CF JUMPI DUP1 PUSH4 0x79BA5097 EQ PUSH2 0x2D9 JUMPI DUP1 PUSH4 0x8DA5CB5B EQ PUSH2 0x2E3 JUMPI DUP1 PUSH4 0x95D89B41 EQ PUSH2 0x301 JUMPI DUP1 PUSH4 0x98BDF6F5 EQ PUSH2 0x31F JUMPI PUSH2 0x142 JUMP JUMPDEST DUP1 PUSH4 0x23B872DD GT PUSH2 0x10A JUMPI DUP1 PUSH4 0x23B872DD EQ PUSH2 0x1FF JUMPI DUP1 PUSH4 0x42842E0E EQ PUSH2 0x21B JUMPI DUP1 PUSH4 0x55F804B3 EQ PUSH2 0x237 JUMPI DUP1 PUSH4 0x6352211E EQ PUSH2 0x253 JUMPI DUP1 PUSH4 0x6A627842 EQ PUSH2 0x283 JUMPI DUP1 PUSH4 0x70A08231 EQ PUSH2 0x29F JUMPI PUSH2 0x142 JUMP JUMPDEST DUP1 PUSH4 0x1FFC9A7 EQ PUSH2 0x147 JUMPI DUP1 PUSH4 0x6FDDE03 EQ PUSH2 0x177 JUMPI DUP1 PUSH4 0x81812FC EQ PUSH2 0x195 JUMPI DUP1 PUSH4 0x95EA7B3 EQ PUSH2 0x1C5 JUMPI DUP1 PUSH4 0x18160DDD EQ PUSH2 0x1E1 JUMPI JUMPDEST PUSH1 0x0 DUP1 REVERT JUMPDEST PUSH2 0x161 PUSH1 0x4 DUP1 CALLDATASIZE SUB DUP2 ADD SWAP1 PUSH2 0x15C SWAP2 SWAP1 PUSH2 0x1CD1 JUMP JUMPDEST PUSH2 0x40F JUMP JUMPDEST PUSH1 0x40 MLOAD PUSH2 0x16E SWAP2 SWAP1 PUSH2 0x1D19 JUMP JUMPDEST PUSH1 0x40 MLOAD DUP1 SWAP2 SUB SWAP1 RETURN JUMPDEST PUSH2 0x17F PUSH2 0x4F1 JUMP JUMPDEST PUSH1 0x40 MLOAD PUSH2 0x18C SWAP2 SWAP1 PUSH2 0x1DC4 JUMP JUMPDEST PUSH1 0x40 MLOAD DUP1 SWAP2 SUB SWAP1 RETURN JUMPDEST PUSH2 0x1AF PUSH1 0x4 DUP1 CALLDATASIZE SUB DUP2 ADD SWAP1 PUSH2 0x1AA SWAP2 SWAP1 PUSH2 0x1E1C JUMP JUMPDEST PUSH2 0x583 JUMP JUMPDEST PUSH1 0x40 MLOAD PUSH2 0x1BC SWAP2 SWAP1 PUSH2 0x1E8A JUMP JUMPDEST PUSH1 0x40 MLOAD DUP1 SWAP2 SUB SWAP1 RETURN JUMPDEST PUSH2 0x1DF PUSH1 0x4 DUP1 CALLDATASIZE SUB DUP2 ADD SWAP1 PUSH2 0x1DA SWAP2 SWAP1 PUSH2 0x1ED1 JUMP JUMPDEST PUSH2 0x5C9 JUMP JUMPDEST STOP JUMPDEST PUSH2 0x1E9 PUSH2 0x6E0 JUMP JUMPDEST PUSH1 0x40 MLOAD PUSH2 0x1F6 SWAP2 SWAP1 PUSH2 0x1F20 JUMP JUMPDEST PUSH1 0x40 MLOAD DUP1 SWAP2 SUB SWAP1 RETURN JUMPDEST PUSH2 0x219 PUSH1 0x4 DUP1 CALLDATASIZE SUB DUP2 ADD SWAP1 PUSH2 0x214 SWAP2 SWAP1 PUSH2 0x1F3B JUMP JUMPDEST PUSH2 0x6EA JUMP JUMPDEST STOP JUMPDEST PUSH2 0x235 PUSH1 0x4 DUP1 CALLDATASIZE SUB DUP2 ADD SWAP1 PUSH2 0x230 SWAP2 SWAP1 PUSH2 0x1F3B JUMP JUMPDEST PUSH2 0x74A JUMP JUMPDEST STOP JUMPDEST PUSH2 0x251 PUSH1 0x4 DUP1 CALLDATASIZE SUB DUP2 ADD SWAP1 PUSH2 0x24C SWAP2 SWAP1 PUSH2 0x20C3 JUMP JUMPDEST PUSH2 0x76A JUMP JUMPDEST STOP JUMPDEST PUSH2 0x26D PUSH1 0x4 DUP1 CALLDATASIZE SUB DUP2 ADD SWAP1 PUSH2 0x268 SWAP2 SWAP1 PUSH2 0x1E1C JUMP JUMPDEST PUSH2 0x785 JUMP JUMPDEST PUSH1 0x40 MLOAD PUSH2 0x27A SWAP2 SWAP1 PUSH2 0x1E8A JUMP JUMPDEST PUSH1 0x40 MLOAD DUP1 SWAP2 SUB SWAP1 RETURN JUMPDEST PUSH2 0x29D PUSH1 0x4 DUP1 CALLDATASIZE SUB DUP2 ADD SWAP1 PUSH2 0x298 SWAP2 SWAP1 PUSH2 0x210C JUMP JUMPDEST PUSH2 0x80B JUMP JUMPDEST STOP JUMPDEST PUSH2 0x2B9 PUSH1 0x4 DUP1 CALLDATASIZE SUB DUP2 ADD SWAP1 PUSH2 0x2B4 SWAP2 SWAP1 PUSH2 0x210C JUMP JUMPDEST PUSH2 0x842 JUMP JUMPDEST PUSH1 0x40 MLOAD PUSH2 0x2C6 SWAP2 SWAP1 PUSH2 0x1F20 JUMP JUMPDEST PUSH1 0x40 MLOAD DUP1 SWAP2 SUB SWAP1 RETURN JUMPDEST PUSH2 0x2D7 PUSH2 0x8F9 JUMP JUMPDEST STOP JUMPDEST PUSH2 0x2E1 PUSH2 0x90D JUMP JUMPDEST STOP JUMPDEST PUSH2 0x2EB PUSH2 0x99A JUMP JUMPDEST PUSH1 0x40 MLOAD PUSH2 0x2F8 SWAP2 SWAP1 PUSH2 0x1E8A JUMP JUMPDEST PUSH1 0x40 MLOAD DUP1 SWAP2 SUB SWAP1 RETURN JUMPDEST PUSH2 0x309 PUSH2 0x9C4 JUMP JUMPDEST PUSH1 0x40 MLOAD PUSH2 0x316 SWAP2 SWAP1 PUSH2 0x1DC4 JUMP JUMPDEST PUSH1 0x40 MLOAD DUP1 SWAP2 SUB SWAP1 RETURN JUMPDEST PUSH2 0x327 PUSH2 0xA56 JUMP JUMPDEST PUSH1 0x40 MLOAD PUSH2 0x334 SWAP2 SWAP1 PUSH2 0x1F20 JUMP JUMPDEST PUSH1 0x40 MLOAD DUP1 SWAP2 SUB SWAP1 RETURN JUMPDEST PUSH2 0x357 PUSH1 0x4 DUP1 CALLDATASIZE SUB DUP2 ADD SWAP1 PUSH2 0x352 SWAP2 SWAP1 PUSH2 0x2165 JUMP JUMPDEST PUSH2 0xA5C JUMP JUMPDEST STOP JUMPDEST PUSH2 0x373 PUSH1 0x4 DUP1 CALLDATASIZE SUB DUP2 ADD SWAP1 PUSH2 0x36E SWAP2 SWAP1 PUSH2 0x2246 JUMP JUMPDEST PUSH2 0xA72 JUMP JUMPDEST STOP JUMPDEST PUSH2 0x38F PUSH1 0x4 DUP1 CALLDATASIZE SUB DUP2 ADD SWAP1 PUSH2 0x38A SWAP2 SWAP1 PUSH2 0x1E1C JUMP JUMPDEST PUSH2 0xAD4 JUMP JUMPDEST PUSH1 0x40 MLOAD PUSH2 0x39C SWAP2 SWAP1 PUSH2 0x1DC4 JUMP JUMPDEST PUSH1 0x40 MLOAD DUP1 SWAP2 SUB SWAP1 RETURN JUMPDEST PUSH2 0x3AD PUSH2 0xB3C JUMP JUMPDEST PUSH1 0x40 MLOAD PUSH2 0x3BA SWAP2 SWAP1 PUSH2 0x1E8A JUMP JUMPDEST PUSH1 0x40 MLOAD DUP1 SWAP2 SUB SWAP1 RETURN JUMPDEST PUSH2 0x3DD PUSH1 0x4 DUP1 CALLDATASIZE SUB DUP2 ADD SWAP1 PUSH2 0x3D8 SWAP2 SWAP1 PUSH2 0x22C9 JUMP JUMPDEST PUSH2 0xB66 JUMP JUMPDEST PUSH1 0x40 MLOAD PUSH2 0x3EA SWAP2 SWAP1 PUSH2 0x1D19 JUMP JUMPDEST PUSH1 0x40 MLOAD DUP1 SWAP2 SUB SWAP1 RETURN JUMPDEST PUSH2 0x40D PUSH1 0x4 DUP1 CALLDATASIZE SUB DUP2 ADD SWAP1 PUSH2 0x408 SWAP2 SWAP1 PUSH2 0x210C JUMP JUMPDEST PUSH2 0xBFA JUMP JUMPDEST STOP JUMPDEST PUSH1 0x0 PUSH32 0x80AC58CD00000000000000000000000000000000000000000000000000000000 PUSH28 0xFFFFFFFFFFFFFFFFFFFFFFFFFFFFFFFFFFFFFFFFFFFFFFFFFFFFFFFF NOT AND DUP3 PUSH28 0xFFFFFFFFFFFFFFFFFFFFFFFFFFFFFFFFFFFFFFFFFFFFFFFFFFFFFFFF NOT AND EQ DUP1 PUSH2 0x4DA JUMPI POP PUSH32 0x5B5E139F00000000000000000000000000000000000000000000000000000000 PUSH28 0xFFFFFFFFFFFFFFFFFFFFFFFFFFFFFFFFFFFFFFFFFFFFFFFFFFFFFFFF NOT AND DUP3 PUSH28 0xFFFFFFFFFFFFFFFFFFFFFFFFFFFFFFFFFFFFFFFFFFFFFFFFFFFFFFFF NOT AND EQ JUMPDEST DUP1 PUSH2 0x4EA JUMPI POP PUSH2 0x4E9 DUP3 PUSH2 0xCA7 JUMP JUMPDEST JUMPDEST SWAP1 POP SWAP2 SWAP1 POP JUMP JUMPDEST PUSH1 0x60 PUSH1 0x0 DUP1 SLOAD PUSH2 0x500 SWAP1 PUSH2 0x2338 JUMP JUMPDEST DUP1 PUSH1 0x1F ADD PUSH1 0x20 DUP1 SWAP2 DIV MUL PUSH1 0x20 ADD PUSH1 0x40 MLOAD SWAP1 DUP2 ADD PUSH1 0x40 MSTORE DUP1 SWAP3 SWAP2 SWAP1 DUP2 DUP2 MSTORE PUSH1 0x20 ADD DUP3 DUP1 SLOAD PUSH2 0x52C SWAP1 PUSH2 0x2338 JUMP JUMPDEST DUP1 ISZERO PUSH2 0x579 JUMPI DUP1 PUSH1 0x1F LT PUSH2 0x54E JUMPI PUSH2 0x100 DUP1 DUP4 SLOAD DIV MUL DUP4 MSTORE SWAP2 PUSH1 0x20 ADD SWAP2 PUSH2 0x579 JUMP JUMPDEST DUP3 ADD SWAP2 SWAP1 PUSH1 0x0 MSTORE PUSH1 0x20 PUSH1 0x0 KECCAK256 SWAP1 JUMPDEST DUP2 SLOAD DUP2 MSTORE SWAP1 PUSH1 0x1 ADD SWAP1 PUSH1 0x20 ADD DUP1 DUP4 GT PUSH2 0x55C JUMPI DUP3 SWAP1 SUB PUSH1 0x1F AND DUP3 ADD SWAP2 JUMPDEST POP POP POP POP POP SWAP1 POP SWAP1 JUMP JUMPDEST PUSH1 0x0 PUSH2 0x58E DUP3 PUSH2 0xD11 JUMP JUMPDEST PUSH1 0x4 PUSH1 0x0 DUP4 DUP2 MSTORE PUSH1 0x20 ADD SWAP1 DUP2 MSTORE PUSH1 0x20 ADD PUSH1 0x0 KECCAK256 PUSH1 0x0 SWAP1 SLOAD SWAP1 PUSH2 0x100 EXP SWAP1 DIV PUSH20 0xFFFFFFFFFFFFFFFFFFFFFFFFFFFFFFFFFFFFFFFF AND SWAP1 POP SWAP2 SWAP1 POP JUMP JUMPDEST PUSH1 0x0 PUSH2 0x5D4 DUP3 PUSH2 0x785 JUMP JUMPDEST SWAP1 POP DUP1 PUSH20 0xFFFFFFFFFFFFFFFFFFFFFFFFFFFFFFFFFFFFFFFF AND DUP4 PUSH20 0xFFFFFFFFFFFFFFFFFFFFFFFFFFFFFFFFFFFFFFFF AND SUB PUSH2 0x644 JUMPI PUSH1 0x40 MLOAD PUSH32 0x8C379A000000000000000000000000000000000000000000000000000000000 DUP2 MSTORE PUSH1 0x4 ADD PUSH2 0x63B SWAP1 PUSH2 0x23DB JUMP JUMPDEST PUSH1 0x40 MLOAD DUP1 SWAP2 SUB SWAP1 REVERT JUMPDEST DUP1 PUSH20 0xFFFFFFFFFFFFFFFFFFFFFFFFFFFFFFFFFFFFFFFF AND PUSH2 0x663 PUSH2 0xD5C JUMP JUMPDEST PUSH20 0xFFFFFFFFFFFFFFFFFFFFFFFFFFFFFFFFFFFFFFFF AND EQ DUP1 PUSH2 0x692 JUMPI POP PUSH2 0x691 DUP2 PUSH2 0x68C PUSH2 0xD5C JUMP JUMPDEST PUSH2 0xB66 JUMP JUMPDEST JUMPDEST PUSH2 0x6D1 JUMPI PUSH1 0x40 MLOAD PUSH32 0x8C379A000000000000000000000000000000000000000000000000000000000 DUP2 MSTORE PUSH1 0x4 ADD PUSH2 0x6C8 SWAP1 PUSH2 0x246D JUMP JUMPDEST PUSH1 0x40 MLOAD DUP1 SWAP2 SUB SWAP1 REVERT JUMPDEST PUSH2 0x6DB DUP4 DUP4 PUSH2 0xD64 JUMP JUMPDEST POP POP POP JUMP JUMPDEST PUSH1 0x0 PUSH1 0x8 SLOAD SWAP1 POP SWAP1 JUMP JUMPDEST PUSH2 0x6FB PUSH2 0x6F5 PUSH2 0xD5C JUMP JUMPDEST DUP3 PUSH2 0xE1D JUMP JUMPDEST PUSH2 0x73A JUMPI PUSH1 0x40 MLOAD PUSH32 0x8C379A000000000000000000000000000000000000000000000000000000000 DUP2 MSTORE PUSH1 0x4 ADD PUSH2 0x731 SWAP1 PUSH2 0x24FF JUMP JUMPDEST PUSH1 0x40 MLOAD DUP1 SWAP2 SUB SWAP1 REVERT JUMPDEST PUSH2 0x745 DUP4 DUP4 DUP4 PUSH2 0xEB2 JUMP JUMPDEST POP POP POP JUMP JUMPDEST PUSH2 0x765 DUP4 DUP4 DUP4 PUSH1 0x40 MLOAD DUP1 PUSH1 0x20 ADD PUSH1 0x40 MSTORE DUP1 PUSH1 0x0 DUP2 MSTORE POP PUSH2 0xA72 JUMP JUMPDEST POP POP POP JUMP JUMPDEST PUSH2 0x772 PUSH2 0x11AB JUMP JUMPDEST DUP1 PUSH1 0x9 SWAP1 DUP2 PUSH2 0x781 SWAP2 SWAP1 PUSH2 0x26CB JUMP JUMPDEST POP POP JUMP JUMPDEST PUSH1 0x0 DUP1 PUSH2 0x791 DUP4 PUSH2 0x1229 JUMP JUMPDEST SWAP1 POP PUSH1 0x0 PUSH20 0xFFFFFFFFFFFFFFFFFFFFFFFFFFFFFFFFFFFFFFFF AND DUP2 PUSH20 0xFFFFFFFFFFFFFFFFFFFFFFFFFFFFFFFFFFFFFFFF AND SUB PUSH2 0x802 JUMPI PUSH1 0x40 MLOAD PUSH32 0x8C379A000000000000000000000000000000000000000000000000000000000 DUP2 MSTORE PUSH1 0x4 ADD PUSH2 0x7F9 SWAP1 PUSH2 0x27E9 JUMP JUMPDEST PUSH1 0x40 MLOAD DUP1 SWAP2 SUB SWAP1 REVERT JUMPDEST DUP1 SWAP2 POP POP SWAP2 SWAP1 POP JUMP JUMPDEST PUSH2 0x813 PUSH2 0x11AB JUMP JUMPDEST PUSH1 0x0 PUSH1 0x8 SLOAD SWAP1 POP PUSH1 0x1 PUSH1 0x8 PUSH1 0x0 DUP3 DUP3 SLOAD PUSH2 0x82D SWAP2 SWAP1 PUSH2 0x2838 JUMP JUMPDEST SWAP3 POP POP DUP2 SWAP1 SSTORE POP PUSH2 0x83E DUP3 DUP3 PUSH2 0x1266 JUMP JUMPDEST POP POP JUMP JUMPDEST PUSH1 0x0 DUP1 PUSH20 0xFFFFFFFFFFFFFFFFFFFFFFFFFFFFFFFFFFFFFFFF AND DUP3 PUSH20 0xFFFFFFFFFFFFFFFFFFFFFFFFFFFFFFFFFFFFFFFF AND SUB PUSH2 0x8B2 JUMPI PUSH1 0x40 MLOAD PUSH32 0x8C379A000000000000000000000000000000000000000000000000000000000 DUP2 MSTORE PUSH1 0x4 ADD PUSH2 0x8A9 SWAP1 PUSH2 0x28DE JUMP JUMPDEST PUSH1 0x40 MLOAD DUP1 SWAP2 SUB SWAP1 REVERT JUMPDEST PUSH1 0x3 PUSH1 0x0 DUP4 PUSH20 0xFFFFFFFFFFFFFFFFFFFFFFFFFFFFFFFFFFFFFFFF AND PUSH20 0xFFFFFFFFFFFFFFFFFFFFFFFFFFFFFFFFFFFFFFFF AND DUP2 MSTORE PUSH1 0x20 ADD SWAP1 DUP2 MSTORE PUSH1 0x20 ADD PUSH1 0x0 KECCAK256 SLOAD SWAP1 POP SWAP2 SWAP1 POP JUMP JUMPDEST PUSH2 0x901 PUSH2 0x11AB JUMP JUMPDEST PUSH2 0x90B PUSH1 0x0 PUSH2 0x1284 JUMP JUMPDEST JUMP JUMPDEST PUSH1 0x0 PUSH2 0x917 PUSH2 0xD5C JUMP JUMPDEST SWAP1 POP DUP1 PUSH20 0xFFFFFFFFFFFFFFFFFFFFFFFFFFFFFFFFFFFFFFFF AND PUSH2 0x938 PUSH2 0xB3C JUMP JUMPDEST PUSH20 0xFFFFFFFFFFFFFFFFFFFFFFFFFFFFFFFFFFFFFFFF AND EQ PUSH2 0x98E JUMPI PUSH1 0x40 MLOAD PUSH32 0x8C379A000000000000000000000000000000000000000000000000000000000 DUP2 MSTORE PUSH1 0x4 ADD PUSH2 0x985 SWAP1 PUSH2 0x2970 JUMP JUMPDEST PUSH1 0x40 MLOAD DUP1 SWAP2 SUB SWAP1 REVERT JUMPDEST PUSH2 0x997 DUP2 PUSH2 0x1284 JUMP JUMPDEST POP JUMP JUMPDEST PUSH1 0x0 PUSH1 0x6 PUSH1 0x0 SWAP1 SLOAD SWAP1 PUSH2 0x100 EXP SWAP1 DIV PUSH20 0xFFFFFFFFFFFFFFFFFFFFFFFFFFFFFFFFFFFFFFFF AND SWAP1 POP SWAP1 JUMP JUMPDEST PUSH1 0x60 PUSH1 0x1 DUP1 SLOAD PUSH2 0x9D3 SWAP1 PUSH2 0x2338 JUMP JUMPDEST DUP1 PUSH1 0x1F ADD PUSH1 0x20 DUP1 SWAP2 DIV MUL PUSH1 0x20 ADD PUSH1 0x40 MLOAD SWAP1 DUP2 ADD PUSH1 0x40 MSTORE DUP1 SWAP3 SWAP2 SWAP1 DUP2 DUP2 MSTORE PUSH1 0x20 ADD DUP3 DUP1 SLOAD PUSH2 0x9FF SWAP1 PUSH2 0x2338 JUMP JUMPDEST DUP1 ISZERO PUSH2 0xA4C JUMPI DUP1 PUSH1 0x1F LT PUSH2 0xA21 JUMPI PUSH2 0x100 DUP1 DUP4 SLOAD DIV MUL DUP4 MSTORE SWAP2 PUSH1 0x20 ADD SWAP2 PUSH2 0xA4C JUMP JUMPDEST DUP3 ADD SWAP2 SWAP1 PUSH1 0x0 MSTORE PUSH1 0x20 PUSH1 0x0 KECCAK256 SWAP1 JUMPDEST DUP2 SLOAD DUP2 MSTORE SWAP1 PUSH1 0x1 ADD SWAP1 PUSH1 0x20 ADD DUP1 DUP4 GT PUSH2 0xA2F JUMPI DUP3 SWAP1 SUB PUSH1 0x1F AND DUP3 ADD SWAP2 JUMPDEST POP POP POP POP POP SWAP1 POP SWAP1 JUMP JUMPDEST PUSH1 0x8 SLOAD DUP2 JUMP JUMPDEST PUSH2 0xA6E PUSH2 0xA67 PUSH2 0xD5C JUMP JUMPDEST DUP4 DUP4 PUSH2 0x12B5 JUMP JUMPDEST POP POP JUMP JUMPDEST PUSH2 0xA83 PUSH2 0xA7D PUSH2 0xD5C JUMP JUMPDEST DUP4 PUSH2 0xE1D JUMP JUMPDEST PUSH2 0xAC2 JUMPI PUSH1 0x40 MLOAD PUSH32 0x8C379A000000000000000000000000000000000000000000000000000000000 DUP2 MSTORE PUSH1 0x4 ADD PUSH2 0xAB9 SWAP1 PUSH2 0x24FF JUMP JUMPDEST PUSH1 0x40 MLOAD DUP1 SWAP2 SUB SWAP1 REVERT JUMPDEST PUSH2 0xACE DUP5 DUP5 DUP5 DUP5 PUSH2 0x1421 JUMP JUMPDEST POP POP POP POP JUMP JUMPDEST PUSH1 0x60 PUSH2 0xADF DUP3 PUSH2 0xD11 JUMP JUMPDEST PUSH1 0x0 PUSH2 0xAE9 PUSH2 0x147D JUMP JUMPDEST SWAP1 POP PUSH1 0x0 DUP2 MLOAD GT PUSH2 0xB09 JUMPI PUSH1 0x40 MLOAD DUP1 PUSH1 0x20 ADD PUSH1 0x40 MSTORE DUP1 PUSH1 0x0 DUP2 MSTORE POP PUSH2 0xB34 JUMP JUMPDEST DUP1 PUSH2 0xB13 DUP5 PUSH2 0x150F JUMP JUMPDEST PUSH1 0x40 MLOAD PUSH1 0x20 ADD PUSH2 0xB24 SWAP3 SWAP2 SWAP1 PUSH2 0x29CC JUMP JUMPDEST PUSH1 0x40 MLOAD PUSH1 0x20 DUP2 DUP4 SUB SUB DUP2 MSTORE SWAP1 PUSH1 0x40 MSTORE JUMPDEST SWAP2 POP POP SWAP2 SWAP1 POP JUMP JUMPDEST PUSH1 0x0 PUSH1 0x7 PUSH1 0x0 SWAP1 SLOAD SWAP1 PUSH2 0x100 EXP SWAP1 DIV PUSH20 0xFFFFFFFFFFFFFFFFFFFFFFFFFFFFFFFFFFFFFFFF AND SWAP1 POP SWAP1 JUMP JUMPDEST PUSH1 0x0 PUSH1 0x5 PUSH1 0x0 DUP5 PUSH20 0xFFFFFFFFFFFFFFFFFFFFFFFFFFFFFFFFFFFFFFFF AND PUSH20 0xFFFFFFFFFFFFFFFFFFFFFFFFFFFFFFFFFFFFFFFF AND DUP2 MSTORE PUSH1 0x20 ADD SWAP1 DUP2 MSTORE PUSH1 0x20 ADD PUSH1 0x0 KECCAK256 PUSH1 0x0 DUP4 PUSH20 0xFFFFFFFFFFFFFFFFFFFFFFFFFFFFFFFFFFFFFFFF AND PUSH20 0xFFFFFFFFFFFFFFFFFFFFFFFFFFFFFFFFFFFFFFFF AND DUP2 MSTORE PUSH1 0x20 ADD SWAP1 DUP2 MSTORE PUSH1 0x20 ADD PUSH1 0x0 KECCAK256 PUSH1 0x0 SWAP1 SLOAD SWAP1 PUSH2 0x100 EXP SWAP1 DIV PUSH1 0xFF AND SWAP1 POP SWAP3 SWAP2 POP POP JUMP JUMPDEST PUSH2 0xC02 PUSH2 0x11AB JUMP JUMPDEST DUP1 PUSH1 0x7 PUSH1 0x0 PUSH2 0x100 EXP DUP2 SLOAD DUP2 PUSH20 0xFFFFFFFFFFFFFFFFFFFFFFFFFFFFFFFFFFFFFFFF MUL NOT AND SWAP1 DUP4 PUSH20 0xFFFFFFFFFFFFFFFFFFFFFFFFFFFFFFFFFFFFFFFF AND MUL OR SWAP1 SSTORE POP DUP1 PUSH20 0xFFFFFFFFFFFFFFFFFFFFFFFFFFFFFFFFFFFFFFFF AND PUSH2 0xC62 PUSH2 0x99A JUMP JUMPDEST PUSH20 0xFFFFFFFFFFFFFFFFFFFFFFFFFFFFFFFFFFFFFFFF AND PUSH32 0x38D16B8CAC22D99FC7C124B9CD0DE2D3FA1FAEF420BFE791D8C362D765E22700 PUSH1 0x40 MLOAD PUSH1 0x40 MLOAD DUP1 SWAP2 SUB SWAP1 LOG3 POP JUMP JUMPDEST PUSH1 0x0 PUSH32 0x1FFC9A700000000000000000000000000000000000000000000000000000000 PUSH28 0xFFFFFFFFFFFFFFFFFFFFFFFFFFFFFFFFFFFFFFFFFFFFFFFFFFFFFFFF NOT AND DUP3 PUSH28 0xFFFFFFFFFFFFFFFFFFFFFFFFFFFFFFFFFFFFFFFFFFFFFFFFFFFFFFFF NOT AND EQ SWAP1 POP SWAP2 SWAP1 POP JUMP JUMPDEST PUSH2 0xD1A DUP2 PUSH2 0x15DD JUMP JUMPDEST PUSH2 0xD59 JUMPI PUSH1 0x40 MLOAD PUSH32 0x8C379A000000000000000000000000000000000000000000000000000000000 DUP2 MSTORE PUSH1 0x4 ADD PUSH2 0xD50 SWAP1 PUSH2 0x27E9 JUMP JUMPDEST PUSH1 0x40 MLOAD DUP1 SWAP2 SUB SWAP1 REVERT JUMPDEST POP JUMP JUMPDEST PUSH1 0x0 CALLER SWAP1 POP SWAP1 JUMP JUMPDEST DUP2 PUSH1 0x4 PUSH1 0x0 DUP4 DUP2 MSTORE PUSH1 0x20 ADD SWAP1 DUP2 MSTORE PUSH1 0x20 ADD PUSH1 0x0 KECCAK256 PUSH1 0x0 PUSH2 0x100 EXP DUP2 SLOAD DUP2 PUSH20 0xFFFFFFFFFFFFFFFFFFFFFFFFFFFFFFFFFFFFFFFF MUL NOT AND SWAP1 DUP4 PUSH20 0xFFFFFFFFFFFFFFFFFFFFFFFFFFFFFFFFFFFFFFFF AND MUL OR SWAP1 SSTORE POP DUP1 DUP3 PUSH20 0xFFFFFFFFFFFFFFFFFFFFFFFFFFFFFFFFFFFFFFFF AND PUSH2 0xDD7 DUP4 PUSH2 0x785 JUMP JUMPDEST PUSH20 0xFFFFFFFFFFFFFFFFFFFFFFFFFFFFFFFFFFFFFFFF AND PUSH32 0x8C5BE1E5EBEC7D5BD14F71427D1E84F3DD0314C0F7B2291E5B200AC8C7C3B925 PUSH1 0x40 MLOAD PUSH1 0x40 MLOAD DUP1 SWAP2 SUB SWAP1 LOG4 POP POP JUMP JUMPDEST PUSH1 0x0 DUP1 PUSH2 0xE29 DUP4 PUSH2 0x785 JUMP JUMPDEST SWAP1 POP DUP1 PUSH20 0xFFFFFFFFFFFFFFFFFFFFFFFFFFFFFFFFFFFFFFFF AND DUP5 PUSH20 0xFFFFFFFFFFFFFFFFFFFFFFFFFFFFFFFFFFFFFFFF AND EQ DUP1 PUSH2 0xE6B JUMPI POP PUSH2 0xE6A DUP2 DUP6 PUSH2 0xB66 JUMP JUMPDEST JUMPDEST DUP1 PUSH2 0xEA9 JUMPI POP DUP4 PUSH20 0xFFFFFFFFFFFFFFFFFFFFFFFFFFFFFFFFFFFFFFFF AND PUSH2 0xE91 DUP5 PUSH2 0x583 JUMP JUMPDEST PUSH20 0xFFFFFFFFFFFFFFFFFFFFFFFFFFFFFFFFFFFFFFFF AND EQ JUMPDEST SWAP2 POP POP SWAP3 SWAP2 POP POP JUMP JUMPDEST DUP3 PUSH20 0xFFFFFFFFFFFFFFFFFFFFFFFFFFFFFFFFFFFFFFFF AND PUSH2 0xED2 DUP3 PUSH2 0x785 JUMP JUMPDEST PUSH20 0xFFFFFFFFFFFFFFFFFFFFFFFFFFFFFFFFFFFFFFFF AND EQ PUSH2 0xF28 JUMPI PUSH1 0x40 MLOAD PUSH32 0x8C379A000000000000000000000000000000000000000000000000000000000 DUP2 MSTORE PUSH1 0x4 ADD PUSH2 0xF1F SWAP1 PUSH2 0x2A62 JUMP JUMPDEST PUSH1 0x40 MLOAD DUP1 SWAP2 SUB SWAP1 REVERT JUMPDEST PUSH1 0x0 PUSH20 0xFFFFFFFFFFFFFFFFFFFFFFFFFFFFFFFFFFFFFFFF AND DUP3 PUSH20 0xFFFFFFFFFFFFFFFFFFFFFFFFFFFFFFFFFFFFFFFF AND SUB PUSH2 0xF97 JUMPI PUSH1 0x40 MLOAD PUSH32 0x8C379A000000000000000000000000000000000000000000000000000000000 DUP2 MSTORE PUSH1 0x4 ADD PUSH2 0xF8E SWAP1 PUSH2 0x2AF4 JUMP JUMPDEST PUSH1 0x40 MLOAD DUP1 SWAP2 SUB SWAP1 REVERT JUMPDEST PUSH2 0xFA4 DUP4 DUP4 DUP4 PUSH1 0x1 PUSH2 0x161E JUMP JUMPDEST DUP3 PUSH20 0xFFFFFFFFFFFFFFFFFFFFFFFFFFFFFFFFFFFFFFFF AND PUSH2 0xFC4 DUP3 PUSH2 0x785 JUMP JUMPDEST PUSH20 0xFFFFFFFFFFFFFFFFFFFFFFFFFFFFFFFFFFFFFFFF AND EQ PUSH2 0x101A JUMPI PUSH1 0x40 MLOAD PUSH32 0x8C379A000000000000000000000000000000000000000000000000000000000 DUP2 MSTORE PUSH1 0x4 ADD PUSH2 0x1011 SWAP1 PUSH2 0x2A62 JUMP JUMPDEST PUSH1 0x40 MLOAD DUP1 SWAP2 SUB SWAP1 REVERT JUMPDEST PUSH1 0x4 PUSH1 0x0 DUP3 DUP2 MSTORE PUSH1 0x20 ADD SWAP1 DUP2 MSTORE PUSH1 0x20 ADD PUSH1 0x0 KECCAK256 PUSH1 0x0 PUSH2 0x100 EXP DUP2 SLOAD SWAP1 PUSH20 0xFFFFFFFFFFFFFFFFFFFFFFFFFFFFFFFFFFFFFFFF MUL NOT AND SWAP1 SSTORE PUSH1 0x1 PUSH1 0x3 PUSH1 0x0 DUP6 PUSH20 0xFFFFFFFFFFFFFFFFFFFFFFFFFFFFFFFFFFFFFFFF AND PUSH20 0xFFFFFFFFFFFFFFFFFFFFFFFFFFFFFFFFFFFFFFFF AND DUP2 MSTORE PUSH1 0x20 ADD SWAP1 DUP2 MSTORE PUSH1 0x20 ADD PUSH1 0x0 KECCAK256 PUSH1 0x0 DUP3 DUP3 SLOAD SUB SWAP3 POP POP DUP2 SWAP1 SSTORE POP PUSH1 0x1 PUSH1 0x3 PUSH1 0x0 DUP5 PUSH20 0xFFFFFFFFFFFFFFFFFFFFFFFFFFFFFFFFFFFFFFFF AND PUSH20 0xFFFFFFFFFFFFFFFFFFFFFFFFFFFFFFFFFFFFFFFF AND DUP2 MSTORE PUSH1 0x20 ADD SWAP1 DUP2 MSTORE PUSH1 0x20 ADD PUSH1 0x0 KECCAK256 PUSH1 0x0 DUP3 DUP3 SLOAD ADD SWAP3 POP POP DUP2 SWAP1 SSTORE POP DUP2 PUSH1 0x2 PUSH1 0x0 DUP4 DUP2 MSTORE PUSH1 0x20 ADD SWAP1 DUP2 MSTORE PUSH1 0x20 ADD PUSH1 0x0 KECCAK256 PUSH1 0x0 PUSH2 0x100 EXP DUP2 SLOAD DUP2 PUSH20 0xFFFFFFFFFFFFFFFFFFFFFFFFFFFFFFFFFFFFFFFF MUL NOT AND SWAP1 DUP4 PUSH20 0xFFFFFFFFFFFFFFFFFFFFFFFFFFFFFFFFFFFFFFFF AND MUL OR SWAP1 SSTORE POP DUP1 DUP3 PUSH20 0xFFFFFFFFFFFFFFFFFFFFFFFFFFFFFFFFFFFFFFFF AND DUP5 PUSH20 0xFFFFFFFFFFFFFFFFFFFFFFFFFFFFFFFFFFFFFFFF AND PUSH32 0xDDF252AD1BE2C89B69C2B068FC378DAA952BA7F163C4A11628F55A4DF523B3EF PUSH1 0x40 MLOAD PUSH1 0x40 MLOAD DUP1 SWAP2 SUB SWAP1 LOG4 PUSH2 0x11A6 DUP4 DUP4 DUP4 PUSH1 0x1 PUSH2 0x1624 JUMP JUMPDEST POP POP POP JUMP JUMPDEST PUSH2 0x11B3 PUSH2 0xD5C JUMP JUMPDEST PUSH20 0xFFFFFFFFFFFFFFFFFFFFFFFFFFFFFFFFFFFFFFFF AND PUSH2 0x11D1 PUSH2 0x99A JUMP JUMPDEST PUSH20 0xFFFFFFFFFFFFFFFFFFFFFFFFFFFFFFFFFFFFFFFF AND EQ PUSH2 0x1227 JUMPI PUSH1 0x40 MLOAD PUSH32 0x8C379A000000000000000000000000000000000000000000000000000000000 DUP2 MSTORE PUSH1 0x4 ADD PUSH2 0x121E SWAP1 PUSH2 0x2B60 JUMP JUMPDEST PUSH1 0x40 MLOAD DUP1 SWAP2 SUB SWAP1 REVERT JUMPDEST JUMP JUMPDEST PUSH1 0x0 PUSH1 0x2 PUSH1 0x0 DUP4 DUP2 MSTORE PUSH1 0x20 ADD SWAP1 DUP2 MSTORE PUSH1 0x20 ADD PUSH1 0x0 KECCAK256 PUSH1 0x0 SWAP1 SLOAD SWAP1 PUSH2 0x100 EXP SWAP1 DIV PUSH20 0xFFFFFFFFFFFFFFFFFFFFFFFFFFFFFFFFFFFFFFFF AND SWAP1 POP SWAP2 SWAP1 POP JUMP JUMPDEST PUSH2 0x1280 DUP3 DUP3 PUSH1 0x40 MLOAD DUP1 PUSH1 0x20 ADD PUSH1 0x40 MSTORE DUP1 PUSH1 0x0 DUP2 MSTORE POP PUSH2 0x162A JUMP JUMPDEST POP POP JUMP JUMPDEST PUSH1 0x7 PUSH1 0x0 PUSH2 0x100 EXP DUP2 SLOAD SWAP1 PUSH20 0xFFFFFFFFFFFFFFFFFFFFFFFFFFFFFFFFFFFFFFFF MUL NOT AND SWAP1 SSTORE PUSH2 0x12B2 DUP2 PUSH2 0x1685 JUMP JUMPDEST POP JUMP JUMPDEST DUP2 PUSH20 0xFFFFFFFFFFFFFFFFFFFFFFFFFFFFFFFFFFFFFFFF AND DUP4 PUSH20 0xFFFFFFFFFFFFFFFFFFFFFFFFFFFFFFFFFFFFFFFF AND SUB PUSH2 0x1323 JUMPI PUSH1 0x40 MLOAD PUSH32 0x8C379A000000000000000000000000000000000000000000000000000000000 DUP2 MSTORE PUSH1 0x4 ADD PUSH2 0x131A SWAP1 PUSH2 0x2BCC JUMP JUMPDEST PUSH1 0x40 MLOAD DUP1 SWAP2 SUB SWAP1 REVERT JUMPDEST DUP1 PUSH1 0x5 PUSH1 0x0 DUP6 PUSH20 0xFFFFFFFFFFFFFFFFFFFFFFFFFFFFFFFFFFFFFFFF AND PUSH20 0xFFFFFFFFFFFFFFFFFFFFFFFFFFFFFFFFFFFFFFFF AND DUP2 MSTORE PUSH1 0x20 ADD SWAP1 DUP2 MSTORE PUSH1 0x20 ADD PUSH1 0x0 KECCAK256 PUSH1 0x0 DUP5 PUSH20 0xFFFFFFFFFFFFFFFFFFFFFFFFFFFFFFFFFFFFFFFF AND PUSH20 0xFFFFFFFFFFFFFFFFFFFFFFFFFFFFFFFFFFFFFFFF AND DUP2 MSTORE PUSH1 0x20 ADD SWAP1 DUP2 MSTORE PUSH1 0x20 ADD PUSH1 0x0 KECCAK256 PUSH1 0x0 PUSH2 0x100 EXP DUP2 SLOAD DUP2 PUSH1 0xFF MUL NOT AND SWAP1 DUP4 ISZERO ISZERO MUL OR SWAP1 SSTORE POP DUP2 PUSH20 0xFFFFFFFFFFFFFFFFFFFFFFFFFFFFFFFFFFFFFFFF AND DUP4 PUSH20 0xFFFFFFFFFFFFFFFFFFFFFFFFFFFFFFFFFFFFFFFF AND PUSH32 0x17307EAB39AB6107E8899845AD3D59BD9653F200F220920489CA2B5937696C31 DUP4 PUSH1 0x40 MLOAD PUSH2 0x1414 SWAP2 SWAP1 PUSH2 0x1D19 JUMP JUMPDEST PUSH1 0x40 MLOAD DUP1 SWAP2 SUB SWAP1 LOG3 POP POP POP JUMP JUMPDEST PUSH2 0x142C DUP5 DUP5 DUP5 PUSH2 0xEB2 JUMP JUMPDEST PUSH2 0x1438 DUP5 DUP5 DUP5 DUP5 PUSH2 0x174B JUMP JUMPDEST PUSH2 0x1477 JUMPI PUSH1 0x40 MLOAD PUSH32 0x8C379A000000000000000000000000000000000000000000000000000000000 DUP2 MSTORE PUSH1 0x4 ADD PUSH2 0x146E SWAP1 PUSH2 0x2C5E JUMP JUMPDEST PUSH1 0x40 MLOAD DUP1 SWAP2 SUB SWAP1 REVERT JUMPDEST POP POP POP POP JUMP JUMPDEST PUSH1 0x60 PUSH1 0x9 DUP1 SLOAD PUSH2 0x148C SWAP1 PUSH2 0x2338 JUMP JUMPDEST DUP1 PUSH1 0x1F ADD PUSH1 0x20 DUP1 SWAP2 DIV MUL PUSH1 0x20 ADD PUSH1 0x40 MLOAD SWAP1 DUP2 ADD PUSH1 0x40 MSTORE DUP1 SWAP3 SWAP2 SWAP1 DUP2 DUP2 MSTORE PUSH1 0x20 ADD DUP3 DUP1 SLOAD PUSH2 0x14B8 SWAP1 PUSH2 0x2338 JUMP JUMPDEST DUP1 ISZERO PUSH2 0x1505 JUMPI DUP1 PUSH1 0x1F LT PUSH2 0x14DA JUMPI PUSH2 0x100 DUP1 DUP4 SLOAD DIV MUL DUP4 MSTORE SWAP2 PUSH1 0x20 ADD SWAP2 PUSH2 0x1505 JUMP JUMPDEST DUP3 ADD SWAP2 SWAP1 PUSH1 0x0 MSTORE PUSH1 0x20 PUSH1 0x0 KECCAK256 SWAP1 JUMPDEST DUP2 SLOAD DUP2 MSTORE SWAP1 PUSH1 0x1 ADD SWAP1 PUSH1 0x20 ADD DUP1 DUP4 GT PUSH2 0x14E8 JUMPI DUP3 SWAP1 SUB PUSH1 0x1F AND DUP3 ADD SWAP2 JUMPDEST POP POP POP POP POP SWAP1 POP SWAP1 JUMP JUMPDEST PUSH1 0x60 PUSH1 0x0 PUSH1 0x1 PUSH2 0x151E DUP5 PUSH2 0x18D2 JUMP JUMPDEST ADD SWAP1 POP PUSH1 0x0 DUP2 PUSH8 0xFFFFFFFFFFFFFFFF DUP2 GT ISZERO PUSH2 0x153D JUMPI PUSH2 0x153C PUSH2 0x1F98 JUMP JUMPDEST JUMPDEST PUSH1 0x40 MLOAD SWAP1 DUP1 DUP3 MSTORE DUP1 PUSH1 0x1F ADD PUSH1 0x1F NOT AND PUSH1 0x20 ADD DUP3 ADD PUSH1 0x40 MSTORE DUP1 ISZERO PUSH2 0x156F JUMPI DUP2 PUSH1 0x20 ADD PUSH1 0x1 DUP3 MUL DUP1 CALLDATASIZE DUP4 CALLDATACOPY DUP1 DUP3 ADD SWAP2 POP POP SWAP1 POP JUMPDEST POP SWAP1 POP PUSH1 0x0 DUP3 PUSH1 0x20 ADD DUP3 ADD SWAP1 POP JUMPDEST PUSH1 0x1 ISZERO PUSH2 0x15D2 JUMPI DUP1 DUP1 PUSH1 0x1 SWAP1 SUB SWAP2 POP POP PUSH32 0x3031323334353637383961626364656600000000000000000000000000000000 PUSH1 0xA DUP7 MOD BYTE DUP2 MSTORE8 PUSH1 0xA DUP6 DUP2 PUSH2 0x15C6 JUMPI PUSH2 0x15C5 PUSH2 0x2C7E JUMP JUMPDEST JUMPDEST DIV SWAP5 POP PUSH1 0x0 DUP6 SUB PUSH2 0x157D JUMPI JUMPDEST DUP2 SWAP4 POP POP POP POP SWAP2 SWAP1 POP JUMP JUMPDEST PUSH1 0x0 DUP1 PUSH20 0xFFFFFFFFFFFFFFFFFFFFFFFFFFFFFFFFFFFFFFFF AND PUSH2 0x15FF DUP4 PUSH2 0x1229 JUMP JUMPDEST PUSH20 0xFFFFFFFFFFFFFFFFFFFFFFFFFFFFFFFFFFFFFFFF AND EQ ISZERO SWAP1 POP SWAP2 SWAP1 POP JUMP JUMPDEST POP POP POP POP JUMP JUMPDEST POP POP POP POP JUMP JUMPDEST PUSH2 0x1634 DUP4 DUP4 PUSH2 0x1A25 JUMP JUMPDEST PUSH2 0x1641 PUSH1 0x0 DUP5 DUP5 DUP5 PUSH2 0x174B JUMP JUMPDEST PUSH2 0x1680 JUMPI PUSH1 0x40 MLOAD PUSH32 0x8C379A000000000000000000000000000000000000000000000000000000000 DUP2 MSTORE PUSH1 0x4 ADD PUSH2 0x1677 SWAP1 PUSH2 0x2C5E JUMP JUMPDEST PUSH1 0x40 MLOAD DUP1 SWAP2 SUB SWAP1 REVERT JUMPDEST POP POP POP JUMP JUMPDEST PUSH1 0x0 PUSH1 0x6 PUSH1 0x0 SWAP1 SLOAD SWAP1 PUSH2 0x100 EXP SWAP1 DIV PUSH20 0xFFFFFFFFFFFFFFFFFFFFFFFFFFFFFFFFFFFFFFFF AND SWAP1 POP DUP2 PUSH1 0x6 PUSH1 0x0 PUSH2 0x100 EXP DUP2 SLOAD DUP2 PUSH20 0xFFFFFFFFFFFFFFFFFFFFFFFFFFFFFFFFFFFFFFFF MUL NOT AND SWAP1 DUP4 PUSH20 0xFFFFFFFFFFFFFFFFFFFFFFFFFFFFFFFFFFFFFFFF AND MUL OR SWAP1 SSTORE POP DUP2 PUSH20 0xFFFFFFFFFFFFFFFFFFFFFFFFFFFFFFFFFFFFFFFF AND DUP2 PUSH20 0xFFFFFFFFFFFFFFFFFFFFFFFFFFFFFFFFFFFFFFFF AND PUSH32 0x8BE0079C531659141344CD1FD0A4F28419497F9722A3DAAFE3B4186F6B6457E0 PUSH1 0x40 MLOAD PUSH1 0x40 MLOAD DUP1 SWAP2 SUB SWAP1 LOG3 POP POP JUMP JUMPDEST PUSH1 0x0 PUSH2 0x176C DUP5 PUSH20 0xFFFFFFFFFFFFFFFFFFFFFFFFFFFFFFFFFFFFFFFF AND PUSH2 0x1C42 JUMP JUMPDEST ISZERO PUSH2 0x18C5 JUMPI DUP4 PUSH20 0xFFFFFFFFFFFFFFFFFFFFFFFFFFFFFFFFFFFFFFFF AND PUSH4 0x150B7A02 PUSH2 0x1795 PUSH2 0xD5C JUMP JUMPDEST DUP8 DUP7 DUP7 PUSH1 0x40 MLOAD DUP6 PUSH4 0xFFFFFFFF AND PUSH1 0xE0 SHL DUP2 MSTORE PUSH1 0x4 ADD PUSH2 0x17B7 SWAP5 SWAP4 SWAP3 SWAP2 SWAP1 PUSH2 0x2D02 JUMP JUMPDEST PUSH1 0x20 PUSH1 0x40 MLOAD DUP1 DUP4 SUB DUP2 PUSH1 0x0 DUP8 GAS CALL SWAP3 POP POP POP DUP1 ISZERO PUSH2 0x17F3 JUMPI POP PUSH1 0x40 MLOAD RETURNDATASIZE PUSH1 0x1F NOT PUSH1 0x1F DUP3 ADD AND DUP3 ADD DUP1 PUSH1 0x40 MSTORE POP DUP2 ADD SWAP1 PUSH2 0x17F0 SWAP2 SWAP1 PUSH2 0x2D63 JUMP JUMPDEST PUSH1 0x1 JUMPDEST PUSH2 0x1875 JUMPI RETURNDATASIZE DUP1 PUSH1 0x0 DUP2 EQ PUSH2 0x1823 JUMPI PUSH1 0x40 MLOAD SWAP2 POP PUSH1 0x1F NOT PUSH1 0x3F RETURNDATASIZE ADD AND DUP3 ADD PUSH1 0x40 MSTORE RETURNDATASIZE DUP3 MSTORE RETURNDATASIZE PUSH1 0x0 PUSH1 0x20 DUP5 ADD RETURNDATACOPY PUSH2 0x1828 JUMP JUMPDEST PUSH1 0x60 SWAP2 POP JUMPDEST POP PUSH1 0x0 DUP2 MLOAD SUB PUSH2 0x186D JUMPI PUSH1 0x40 MLOAD PUSH32 0x8C379A000000000000000000000000000000000000000000000000000000000 DUP2 MSTORE PUSH1 0x4 ADD PUSH2 0x1864 SWAP1 PUSH2 0x2C5E JUMP JUMPDEST PUSH1 0x40 MLOAD DUP1 SWAP2 SUB SWAP1 REVERT JUMPDEST DUP1 MLOAD DUP2 PUSH1 0x20 ADD REVERT JUMPDEST PUSH4 0x150B7A02 PUSH1 0xE0 SHL PUSH28 0xFFFFFFFFFFFFFFFFFFFFFFFFFFFFFFFFFFFFFFFFFFFFFFFFFFFFFFFF NOT AND DUP2 PUSH28 0xFFFFFFFFFFFFFFFFFFFFFFFFFFFFFFFFFFFFFFFFFFFFFFFFFFFFFFFF NOT AND EQ SWAP2 POP POP PUSH2 0x18CA JUMP JUMPDEST PUSH1 0x1 SWAP1 POP JUMPDEST SWAP5 SWAP4 POP POP POP POP JUMP JUMPDEST PUSH1 0x0 DUP1 PUSH1 0x0 SWAP1 POP PUSH27 0x184F03E93FF9F4DAA797ED6E38ED64BF6A1F010000000000000000 DUP4 LT PUSH2 0x1930 JUMPI PUSH27 0x184F03E93FF9F4DAA797ED6E38ED64BF6A1F010000000000000000 DUP4 DUP2 PUSH2 0x1926 JUMPI PUSH2 0x1925 PUSH2 0x2C7E JUMP JUMPDEST JUMPDEST DIV SWAP3 POP PUSH1 0x40 DUP2 ADD SWAP1 POP JUMPDEST PUSH14 0x4EE2D6D415B85ACEF8100000000 DUP4 LT PUSH2 0x196D JUMPI PUSH14 0x4EE2D6D415B85ACEF8100000000 DUP4 DUP2 PUSH2 0x1963 JUMPI PUSH2 0x1962 PUSH2 0x2C7E JUMP JUMPDEST JUMPDEST DIV SWAP3 POP PUSH1 0x20 DUP2 ADD SWAP1 POP JUMPDEST PUSH7 0x2386F26FC10000 DUP4 LT PUSH2 0x199C JUMPI PUSH7 0x2386F26FC10000 DUP4 DUP2 PUSH2 0x1992 JUMPI PUSH2 0x1991 PUSH2 0x2C7E JUMP JUMPDEST JUMPDEST DIV SWAP3 POP PUSH1 0x10 DUP2 ADD SWAP1 POP JUMPDEST PUSH4 0x5F5E100 DUP4 LT PUSH2 0x19C5 JUMPI PUSH4 0x5F5E100 DUP4 DUP2 PUSH2 0x19BB JUMPI PUSH2 0x19BA PUSH2 0x2C7E JUMP JUMPDEST JUMPDEST DIV SWAP3 POP PUSH1 0x8 DUP2 ADD SWAP1 POP JUMPDEST PUSH2 0x2710 DUP4 LT PUSH2 0x19EA JUMPI PUSH2 0x2710 DUP4 DUP2 PUSH2 0x19E0 JUMPI PUSH2 0x19DF PUSH2 0x2C7E JUMP JUMPDEST JUMPDEST DIV SWAP3 POP PUSH1 0x4 DUP2 ADD SWAP1 POP JUMPDEST PUSH1 0x64 DUP4 LT PUSH2 0x1A0D JUMPI PUSH1 0x64 DUP4 DUP2 PUSH2 0x1A03 JUMPI PUSH2 0x1A02 PUSH2 0x2C7E JUMP JUMPDEST JUMPDEST DIV SWAP3 POP PUSH1 0x2 DUP2 ADD SWAP1 POP JUMPDEST PUSH1 0xA DUP4 LT PUSH2 0x1A1C JUMPI PUSH1 0x1 DUP2 ADD SWAP1 POP JUMPDEST DUP1 SWAP2 POP POP SWAP2 SWAP1 POP JUMP JUMPDEST PUSH1 0x0 PUSH20 0xFFFFFFFFFFFFFFFFFFFFFFFFFFFFFFFFFFFFFFFF AND DUP3 PUSH20 0xFFFFFFFFFFFFFFFFFFFFFFFFFFFFFFFFFFFFFFFF AND SUB PUSH2 0x1A94 JUMPI PUSH1 0x40 MLOAD PUSH32 0x8C379A000000000000000000000000000000000000000000000000000000000 DUP2 MSTORE PUSH1 0x4 ADD PUSH2 0x1A8B SWAP1 PUSH2 0x2DDC JUMP JUMPDEST PUSH1 0x40 MLOAD DUP1 SWAP2 SUB SWAP1 REVERT JUMPDEST PUSH2 0x1A9D DUP2 PUSH2 0x15DD JUMP JUMPDEST ISZERO PUSH2 0x1ADD JUMPI PUSH1 0x40 MLOAD PUSH32 0x8C379A000000000000000000000000000000000000000000000000000000000 DUP2 MSTORE PUSH1 0x4 ADD PUSH2 0x1AD4 SWAP1 PUSH2 0x2E48 JUMP JUMPDEST PUSH1 0x40 MLOAD DUP1 SWAP2 SUB SWAP1 REVERT JUMPDEST PUSH2 0x1AEB PUSH1 0x0 DUP4 DUP4 PUSH1 0x1 PUSH2 0x161E JUMP JUMPDEST PUSH2 0x1AF4 DUP2 PUSH2 0x15DD JUMP JUMPDEST ISZERO PUSH2 0x1B34 JUMPI PUSH1 0x40 MLOAD PUSH32 0x8C379A000000000000000000000000000000000000000000000000000000000 DUP2 MSTORE PUSH1 0x4 ADD PUSH2 0x1B2B SWAP1 PUSH2 0x2E48 JUMP JUMPDEST PUSH1 0x40 MLOAD DUP1 SWAP2 SUB SWAP1 REVERT JUMPDEST PUSH1 0x1 PUSH1 0x3 PUSH1 0x0 DUP5 PUSH20 0xFFFFFFFFFFFFFFFFFFFFFFFFFFFFFFFFFFFFFFFF AND PUSH20 0xFFFFFFFFFFFFFFFFFFFFFFFFFFFFFFFFFFFFFFFF AND DUP2 MSTORE PUSH1 0x20 ADD SWAP1 DUP2 MSTORE PUSH1 0x20 ADD PUSH1 0x0 KECCAK256 PUSH1 0x0 DUP3 DUP3 SLOAD ADD SWAP3 POP POP DUP2 SWAP1 SSTORE POP DUP2 PUSH1 0x2 PUSH1 0x0 DUP4 DUP2 MSTORE PUSH1 0x20 ADD SWAP1 DUP2 MSTORE PUSH1 0x20 ADD PUSH1 0x0 KECCAK256 PUSH1 0x0 PUSH2 0x100 EXP DUP2 SLOAD DUP2 PUSH20 0xFFFFFFFFFFFFFFFFFFFFFFFFFFFFFFFFFFFFFFFF MUL NOT AND SWAP1 DUP4 PUSH20 0xFFFFFFFFFFFFFFFFFFFFFFFFFFFFFFFFFFFFFFFF AND MUL OR SWAP1 SSTORE POP DUP1 DUP3 PUSH20 0xFFFFFFFFFFFFFFFFFFFFFFFFFFFFFFFFFFFFFFFF AND PUSH1 0x0 PUSH20 0xFFFFFFFFFFFFFFFFFFFFFFFFFFFFFFFFFFFFFFFF AND PUSH32 0xDDF252AD1BE2C89B69C2B068FC378DAA952BA7F163C4A11628F55A4DF523B3EF PUSH1 0x40 MLOAD PUSH1 0x40 MLOAD DUP1 SWAP2 SUB SWAP1 LOG4 PUSH2 0x1C3E PUSH1 0x0 DUP4 DUP4 PUSH1 0x1 PUSH2 0x1624 JUMP JUMPDEST POP POP JUMP JUMPDEST PUSH1 0x0 DUP1 DUP3 PUSH20 0xFFFFFFFFFFFFFFFFFFFFFFFFFFFFFFFFFFFFFFFF AND EXTCODESIZE GT SWAP1 POP SWAP2 SWAP1 POP JUMP JUMPDEST PUSH1 0x0 PUSH1 0x40 MLOAD SWAP1 POP SWAP1 JUMP JUMPDEST PUSH1 0x0 DUP1 REVERT JUMPDEST PUSH1 0x0 DUP1 REVERT JUMPDEST PUSH1 0x0 PUSH32 0xFFFFFFFF00000000000000000000000000000000000000000000000000000000 DUP3 AND SWAP1 POP SWAP2 SWAP1 POP JUMP JUMPDEST PUSH2 0x1CAE DUP2 PUSH2 0x1C79 JUMP JUMPDEST DUP2 EQ PUSH2 0x1CB9 JUMPI PUSH1 0x0 DUP1 REVERT JUMPDEST POP JUMP JUMPDEST PUSH1 0x0 DUP2 CALLDATALOAD SWAP1 POP PUSH2 0x1CCB DUP2 PUSH2 0x1CA5 JUMP JUMPDEST SWAP3 SWAP2 POP POP JUMP JUMPDEST PUSH1 0x0 PUSH1 0x20 DUP3 DUP5 SUB SLT ISZERO PUSH2 0x1CE7 JUMPI PUSH2 0x1CE6 PUSH2 0x1C6F JUMP JUMPDEST JUMPDEST PUSH1 0x0 PUSH2 0x1CF5 DUP5 DUP3 DUP6 ADD PUSH2 0x1CBC JUMP JUMPDEST SWAP2 POP POP SWAP3 SWAP2 POP POP JUMP JUMPDEST PUSH1 0x0 DUP2 ISZERO ISZERO SWAP1 POP SWAP2 SWAP1 POP JUMP JUMPDEST PUSH2 0x1D13 DUP2 PUSH2 0x1CFE JUMP JUMPDEST DUP3 MSTORE POP POP JUMP JUMPDEST PUSH1 0x0 PUSH1 0x20 DUP3 ADD SWAP1 POP PUSH2 0x1D2E PUSH1 0x0 DUP4 ADD DUP5 PUSH2 0x1D0A JUMP JUMPDEST SWAP3 SWAP2 POP POP JUMP JUMPDEST PUSH1 0x0 DUP2 MLOAD SWAP1 POP SWAP2 SWAP1 POP JUMP JUMPDEST PUSH1 0x0 DUP3 DUP3 MSTORE PUSH1 0x20 DUP3 ADD SWAP1 POP SWAP3 SWAP2 POP POP JUMP JUMPDEST PUSH1 0x0 JUMPDEST DUP4 DUP2 LT ISZERO PUSH2 0x1D6E JUMPI DUP1 DUP3 ADD MLOAD DUP2 DUP5 ADD MSTORE PUSH1 0x20 DUP2 ADD SWAP1 POP PUSH2 0x1D53 JUMP JUMPDEST PUSH1 0x0 DUP5 DUP5 ADD MSTORE POP POP POP POP JUMP JUMPDEST PUSH1 0x0 PUSH1 0x1F NOT PUSH1 0x1F DUP4 ADD AND SWAP1 POP SWAP2 SWAP1 POP JUMP JUMPDEST PUSH1 0x0 PUSH2 0x1D96 DUP3 PUSH2 0x1D34 JUMP JUMPDEST PUSH2 0x1DA0 DUP2 DUP6 PUSH2 0x1D3F JUMP JUMPDEST SWAP4 POP PUSH2 0x1DB0 DUP2 DUP6 PUSH1 0x20 DUP7 ADD PUSH2 0x1D50 JUMP JUMPDEST PUSH2 0x1DB9 DUP2 PUSH2 0x1D7A JUMP JUMPDEST DUP5 ADD SWAP2 POP POP SWAP3 SWAP2 POP POP JUMP JUMPDEST PUSH1 0x0 PUSH1 0x20 DUP3 ADD SWAP1 POP DUP2 DUP2 SUB PUSH1 0x0 DUP4 ADD MSTORE PUSH2 0x1DDE DUP2 DUP5 PUSH2 0x1D8B JUMP JUMPDEST SWAP1 POP SWAP3 SWAP2 POP POP JUMP JUMPDEST PUSH1 0x0 DUP2 SWAP1 POP SWAP2 SWAP1 POP JUMP JUMPDEST PUSH2 0x1DF9 DUP2 PUSH2 0x1DE6 JUMP JUMPDEST DUP2 EQ PUSH2 0x1E04 JUMPI PUSH1 0x0 DUP1 REVERT JUMPDEST POP JUMP JUMPDEST PUSH1 0x0 DUP2 CALLDATALOAD SWAP1 POP PUSH2 0x1E16 DUP2 PUSH2 0x1DF0 JUMP JUMPDEST SWAP3 SWAP2 POP POP JUMP JUMPDEST PUSH1 0x0 PUSH1 0x20 DUP3 DUP5 SUB SLT ISZERO PUSH2 0x1E32 JUMPI PUSH2 0x1E31 PUSH2 0x1C6F JUMP JUMPDEST JUMPDEST PUSH1 0x0 PUSH2 0x1E40 DUP5 DUP3 DUP6 ADD PUSH2 0x1E07 JUMP JUMPDEST SWAP2 POP POP SWAP3 SWAP2 POP POP JUMP JUMPDEST PUSH1 0x0 PUSH20 0xFFFFFFFFFFFFFFFFFFFFFFFFFFFFFFFFFFFFFFFF DUP3 AND SWAP1 POP SWAP2 SWAP1 POP JUMP JUMPDEST PUSH1 0x0 PUSH2 0x1E74 DUP3 PUSH2 0x1E49 JUMP JUMPDEST SWAP1 POP SWAP2 SWAP1 POP JUMP JUMPDEST PUSH2 0x1E84 DUP2 PUSH2 0x1E69 JUMP JUMPDEST DUP3 MSTORE POP POP JUMP JUMPDEST PUSH1 0x0 PUSH1 0x20 DUP3 ADD SWAP1 POP PUSH2 0x1E9F PUSH1 0x0 DUP4 ADD DUP5 PUSH2 0x1E7B JUMP JUMPDEST SWAP3 SWAP2 POP POP JUMP JUMPDEST PUSH2 0x1EAE DUP2 PUSH2 0x1E69 JUMP JUMPDEST DUP2 EQ PUSH2 0x1EB9 JUMPI PUSH1 0x0 DUP1 REVERT JUMPDEST POP JUMP JUMPDEST PUSH1 0x0 DUP2 CALLDATALOAD SWAP1 POP PUSH2 0x1ECB DUP2 PUSH2 0x1EA5 JUMP JUMPDEST SWAP3 SWAP2 POP POP JUMP JUMPDEST PUSH1 0x0 DUP1 PUSH1 0x40 DUP4 DUP6 SUB SLT ISZERO PUSH2 0x1EE8 JUMPI PUSH2 0x1EE7 PUSH2 0x1C6F JUMP JUMPDEST JUMPDEST PUSH1 0x0 PUSH2 0x1EF6 DUP6 DUP3 DUP7 ADD PUSH2 0x1EBC JUMP JUMPDEST SWAP3 POP POP PUSH1 0x20 PUSH2 0x1F07 DUP6 DUP3 DUP7 ADD PUSH2 0x1E07 JUMP JUMPDEST SWAP2 POP POP SWAP3 POP SWAP3 SWAP1 POP JUMP JUMPDEST PUSH2 0x1F1A DUP2 PUSH2 0x1DE6 JUMP JUMPDEST DUP3 MSTORE POP POP JUMP JUMPDEST PUSH1 0x0 PUSH1 0x20 DUP3 ADD SWAP1 POP PUSH2 0x1F35 PUSH1 0x0 DUP4 ADD DUP5 PUSH2 0x1F11 JUMP JUMPDEST SWAP3 SWAP2 POP POP JUMP JUMPDEST PUSH1 0x0 DUP1 PUSH1 0x0 PUSH1 0x60 DUP5 DUP7 SUB SLT ISZERO PUSH2 0x1F54 JUMPI PUSH2 0x1F53 PUSH2 0x1C6F JUMP JUMPDEST JUMPDEST PUSH1 0x0 PUSH2 0x1F62 DUP7 DUP3 DUP8 ADD PUSH2 0x1EBC JUMP JUMPDEST SWAP4 POP POP PUSH1 0x20 PUSH2 0x1F73 DUP7 DUP3 DUP8 ADD PUSH2 0x1EBC JUMP JUMPDEST SWAP3 POP POP PUSH1 0x40 PUSH2 0x1F84 DUP7 DUP3 DUP8 ADD PUSH2 0x1E07 JUMP JUMPDEST SWAP2 POP POP SWAP3 POP SWAP3 POP SWAP3 JUMP JUMPDEST PUSH1 0x0 DUP1 REVERT JUMPDEST PUSH1 0x0 DUP1 REVERT JUMPDEST PUSH32 0x4E487B7100000000000000000000000000000000000000000000000000000000 PUSH1 0x0 MSTORE PUSH1 0x41 PUSH1 0x4 MSTORE PUSH1 0x24 PUSH1 0x0 REVERT JUMPDEST PUSH2 0x1FD0 DUP3 PUSH2 0x1D7A JUMP JUMPDEST DUP2 ADD DUP2 DUP2 LT PUSH8 0xFFFFFFFFFFFFFFFF DUP3 GT OR ISZERO PUSH2 0x1FEF JUMPI PUSH2 0x1FEE PUSH2 0x1F98 JUMP JUMPDEST JUMPDEST DUP1 PUSH1 0x40 MSTORE POP POP POP JUMP JUMPDEST PUSH1 0x0 PUSH2 0x2002 PUSH2 0x1C65 JUMP JUMPDEST SWAP1 POP PUSH2 0x200E DUP3 DUP3 PUSH2 0x1FC7 JUMP JUMPDEST SWAP2 SWAP1 POP JUMP JUMPDEST PUSH1 0x0 PUSH8 0xFFFFFFFFFFFFFFFF DUP3 GT ISZERO PUSH2 0x202E JUMPI PUSH2 0x202D PUSH2 0x1F98 JUMP JUMPDEST JUMPDEST PUSH2 0x2037 DUP3 PUSH2 0x1D7A JUMP JUMPDEST SWAP1 POP PUSH1 0x20 DUP2 ADD SWAP1 POP SWAP2 SWAP1 POP JUMP JUMPDEST DUP3 DUP2 DUP4 CALLDATACOPY PUSH1 0x0 DUP4 DUP4 ADD MSTORE POP POP POP JUMP JUMPDEST PUSH1 0x0 PUSH2 0x2066 PUSH2 0x2061 DUP5 PUSH2 0x2013 JUMP JUMPDEST PUSH2 0x1FF8 JUMP JUMPDEST SWAP1 POP DUP3 DUP2 MSTORE PUSH1 0x20 DUP2 ADD DUP5 DUP5 DUP5 ADD GT ISZERO PUSH2 0x2082 JUMPI PUSH2 0x2081 PUSH2 0x1F93 JUMP JUMPDEST JUMPDEST PUSH2 0x208D DUP5 DUP3 DUP6 PUSH2 0x2044 JUMP JUMPDEST POP SWAP4 SWAP3 POP POP POP JUMP JUMPDEST PUSH1 0x0 DUP3 PUSH1 0x1F DUP4 ADD SLT PUSH2 0x20AA JUMPI PUSH2 0x20A9 PUSH2 0x1F8E JUMP JUMPDEST JUMPDEST DUP2 CALLDATALOAD PUSH2 0x20BA DUP5 DUP3 PUSH1 0x20 DUP7 ADD PUSH2 0x2053 JUMP JUMPDEST SWAP2 POP POP SWAP3 SWAP2 POP POP JUMP JUMPDEST PUSH1 0x0 PUSH1 0x20 DUP3 DUP5 SUB SLT ISZERO PUSH2 0x20D9 JUMPI PUSH2 0x20D8 PUSH2 0x1C6F JUMP JUMPDEST JUMPDEST PUSH1 0x0 DUP3 ADD CALLDATALOAD PUSH8 0xFFFFFFFFFFFFFFFF DUP2 GT ISZERO PUSH2 0x20F7 JUMPI PUSH2 0x20F6 PUSH2 0x1C74 JUMP JUMPDEST JUMPDEST PUSH2 0x2103 DUP5 DUP3 DUP6 ADD PUSH2 0x2095 JUMP JUMPDEST SWAP2 POP POP SWAP3 SWAP2 POP POP JUMP JUMPDEST PUSH1 0x0 PUSH1 0x20 DUP3 DUP5 SUB SLT ISZERO PUSH2 0x2122 JUMPI PUSH2 0x2121 PUSH2 0x1C6F JUMP JUMPDEST JUMPDEST PUSH1 0x0 PUSH2 0x2130 DUP5 DUP3 DUP6 ADD PUSH2 0x1EBC JUMP JUMPDEST SWAP2 POP POP SWAP3 SWAP2 POP POP JUMP JUMPDEST PUSH2 0x2142 DUP2 PUSH2 0x1CFE JUMP JUMPDEST DUP2 EQ PUSH2 0x214D JUMPI PUSH1 0x0 DUP1 REVERT JUMPDEST POP JUMP JUMPDEST PUSH1 0x0 DUP2 CALLDATALOAD SWAP1 POP PUSH2 0x215F DUP2 PUSH2 0x2139 JUMP JUMPDEST SWAP3 SWAP2 POP POP JUMP JUMPDEST PUSH1 0x0 DUP1 PUSH1 0x40 DUP4 DUP6 SUB SLT ISZERO PUSH2 0x217C JUMPI PUSH2 0x217B PUSH2 0x1C6F JUMP JUMPDEST JUMPDEST PUSH1 0x0 PUSH2 0x218A DUP6 DUP3 DUP7 ADD PUSH2 0x1EBC JUMP JUMPDEST SWAP3 POP POP PUSH1 0x20 PUSH2 0x219B DUP6 DUP3 DUP7 ADD PUSH2 0x2150 JUMP JUMPDEST SWAP2 POP POP SWAP3 POP SWAP3 SWAP1 POP JUMP JUMPDEST PUSH1 0x0 PUSH8 0xFFFFFFFFFFFFFFFF DUP3 GT ISZERO PUSH2 0x21C0 JUMPI PUSH2 0x21BF PUSH2 0x1F98 JUMP JUMPDEST JUMPDEST PUSH2 0x21C9 DUP3 PUSH2 0x1D7A JUMP JUMPDEST SWAP1 POP PUSH1 0x20 DUP2 ADD SWAP1 POP SWAP2 SWAP1 POP JUMP JUMPDEST PUSH1 0x0 PUSH2 0x21E9 PUSH2 0x21E4 DUP5 PUSH2 0x21A5 JUMP JUMPDEST PUSH2 0x1FF8 JUMP JUMPDEST SWAP1 POP DUP3 DUP2 MSTORE PUSH1 0x20 DUP2 ADD DUP5 DUP5 DUP5 ADD GT ISZERO PUSH2 0x2205 JUMPI PUSH2 0x2204 PUSH2 0x1F93 JUMP JUMPDEST JUMPDEST PUSH2 0x2210 DUP5 DUP3 DUP6 PUSH2 0x2044 JUMP JUMPDEST POP SWAP4 SWAP3 POP POP POP JUMP JUMPDEST PUSH1 0x0 DUP3 PUSH1 0x1F DUP4 ADD SLT PUSH2 0x222D JUMPI PUSH2 0x222C PUSH2 0x1F8E JUMP JUMPDEST JUMPDEST DUP2 CALLDATALOAD PUSH2 0x223D DUP5 DUP3 PUSH1 0x20 DUP7 ADD PUSH2 0x21D6 JUMP JUMPDEST SWAP2 POP POP SWAP3 SWAP2 POP POP JUMP JUMPDEST PUSH1 0x0 DUP1 PUSH1 0x0 DUP1 PUSH1 0x80 DUP6 DUP8 SUB SLT ISZERO PUSH2 0x2260 JUMPI PUSH2 0x225F PUSH2 0x1C6F JUMP JUMPDEST JUMPDEST PUSH1 0x0 PUSH2 0x226E DUP8 DUP3 DUP9 ADD PUSH2 0x1EBC JUMP JUMPDEST SWAP5 POP POP PUSH1 0x20 PUSH2 0x227F DUP8 DUP3 DUP9 ADD PUSH2 0x1EBC JUMP JUMPDEST SWAP4 POP POP PUSH1 0x40 PUSH2 0x2290 DUP8 DUP3 DUP9 ADD PUSH2 0x1E07 JUMP JUMPDEST SWAP3 POP POP PUSH1 0x60 DUP6 ADD CALLDATALOAD PUSH8 0xFFFFFFFFFFFFFFFF DUP2 GT ISZERO PUSH2 0x22B1 JUMPI PUSH2 0x22B0 PUSH2 0x1C74 JUMP JUMPDEST JUMPDEST PUSH2 0x22BD DUP8 DUP3 DUP9 ADD PUSH2 0x2218 JUMP JUMPDEST SWAP2 POP POP SWAP3 SWAP6 SWAP2 SWAP5 POP SWAP3 POP JUMP JUMPDEST PUSH1 0x0 DUP1 PUSH1 0x40 DUP4 DUP6 SUB SLT ISZERO PUSH2 0x22E0 JUMPI PUSH2 0x22DF PUSH2 0x1C6F JUMP JUMPDEST JUMPDEST PUSH1 0x0 PUSH2 0x22EE DUP6 DUP3 DUP7 ADD PUSH2 0x1EBC JUMP JUMPDEST SWAP3 POP POP PUSH1 0x20 PUSH2 0x22FF DUP6 DUP3 DUP7 ADD PUSH2 0x1EBC JUMP JUMPDEST SWAP2 POP POP SWAP3 POP SWAP3 SWAP1 POP JUMP JUMPDEST PUSH32 0x4E487B7100000000000000000000000000000000000000000000000000000000 PUSH1 0x0 MSTORE PUSH1 0x22 PUSH1 0x4 MSTORE PUSH1 0x24 PUSH1 0x0 REVERT JUMPDEST PUSH1 0x0 PUSH1 0x2 DUP3 DIV SWAP1 POP PUSH1 0x1 DUP3 AND DUP1 PUSH2 0x2350 JUMPI PUSH1 0x7F DUP3 AND SWAP2 POP JUMPDEST PUSH1 0x20 DUP3 LT DUP2 SUB PUSH2 0x2363 JUMPI PUSH2 0x2362 PUSH2 0x2309 JUMP JUMPDEST JUMPDEST POP SWAP2 SWAP1 POP JUMP JUMPDEST PUSH32 0x4552433732313A20617070726F76616C20746F2063757272656E74206F776E65 PUSH1 0x0 DUP3 ADD MSTORE PUSH32 0x7200000000000000000000000000000000000000000000000000000000000000 PUSH1 0x20 DUP3 ADD MSTORE POP JUMP JUMPDEST PUSH1 0x0 PUSH2 0x23C5 PUSH1 0x21 DUP4 PUSH2 0x1D3F JUMP JUMPDEST SWAP2 POP PUSH2 0x23D0 DUP3 PUSH2 0x2369 JUMP JUMPDEST PUSH1 0x40 DUP3 ADD SWAP1 POP SWAP2 SWAP1 POP JUMP JUMPDEST PUSH1 0x0 PUSH1 0x20 DUP3 ADD SWAP1 POP DUP2 DUP2 SUB PUSH1 0x0 DUP4 ADD MSTORE PUSH2 0x23F4 DUP2 PUSH2 0x23B8 JUMP JUMPDEST SWAP1 POP SWAP2 SWAP1 POP JUMP JUMPDEST PUSH32 0x4552433732313A20617070726F76652063616C6C6572206973206E6F7420746F PUSH1 0x0 DUP3 ADD MSTORE PUSH32 0x6B656E206F776E6572206F7220617070726F76656420666F7220616C6C000000 PUSH1 0x20 DUP3 ADD MSTORE POP JUMP JUMPDEST PUSH1 0x0 PUSH2 0x2457 PUSH1 0x3D DUP4 PUSH2 0x1D3F JUMP JUMPDEST SWAP2 POP PUSH2 0x2462 DUP3 PUSH2 0x23FB JUMP JUMPDEST PUSH1 0x40 DUP3 ADD SWAP1 POP SWAP2 SWAP1 POP JUMP JUMPDEST PUSH1 0x0 PUSH1 0x20 DUP3 ADD SWAP1 POP DUP2 DUP2 SUB PUSH1 0x0 DUP4 ADD MSTORE PUSH2 0x2486 DUP2 PUSH2 0x244A JUMP JUMPDEST SWAP1 POP SWAP2 SWAP1 POP JUMP JUMPDEST PUSH32 0x4552433732313A2063616C6C6572206973206E6F7420746F6B656E206F776E65 PUSH1 0x0 DUP3 ADD MSTORE PUSH32 0x72206F7220617070726F76656400000000000000000000000000000000000000 PUSH1 0x20 DUP3 ADD MSTORE POP JUMP JUMPDEST PUSH1 0x0 PUSH2 0x24E9 PUSH1 0x2D DUP4 PUSH2 0x1D3F JUMP JUMPDEST SWAP2 POP PUSH2 0x24F4 DUP3 PUSH2 0x248D JUMP JUMPDEST PUSH1 0x40 DUP3 ADD SWAP1 POP SWAP2 SWAP1 POP JUMP JUMPDEST PUSH1 0x0 PUSH1 0x20 DUP3 ADD SWAP1 POP DUP2 DUP2 SUB PUSH1 0x0 DUP4 ADD MSTORE PUSH2 0x2518 DUP2 PUSH2 0x24DC JUMP JUMPDEST SWAP1 POP SWAP2 SWAP1 POP JUMP JUMPDEST PUSH1 0x0 DUP2 SWAP1 POP DUP2 PUSH1 0x0 MSTORE PUSH1 0x20 PUSH1 0x0 KECCAK256 SWAP1 POP SWAP2 SWAP1 POP JUMP JUMPDEST PUSH1 0x0 PUSH1 0x20 PUSH1 0x1F DUP4 ADD DIV SWAP1 POP SWAP2 SWAP1 POP JUMP JUMPDEST PUSH1 0x0 DUP3 DUP3 SHL SWAP1 POP SWAP3 SWAP2 POP POP JUMP JUMPDEST PUSH1 0x0 PUSH1 0x8 DUP4 MUL PUSH2 0x2581 PUSH32 0xFFFFFFFFFFFFFFFFFFFFFFFFFFFFFFFFFFFFFFFFFFFFFFFFFFFFFFFFFFFFFFFF DUP3 PUSH2 0x2544 JUMP JUMPDEST PUSH2 0x258B DUP7 DUP4 PUSH2 0x2544 JUMP JUMPDEST SWAP6 POP DUP1 NOT DUP5 AND SWAP4 POP DUP1 DUP7 AND DUP5 OR SWAP3 POP POP POP SWAP4 SWAP3 POP POP POP JUMP JUMPDEST PUSH1 0x0 DUP2 SWAP1 POP SWAP2 SWAP1 POP JUMP JUMPDEST PUSH1 0x0 PUSH2 0x25C8 PUSH2 0x25C3 PUSH2 0x25BE DUP5 PUSH2 0x1DE6 JUMP JUMPDEST PUSH2 0x25A3 JUMP JUMPDEST PUSH2 0x1DE6 JUMP JUMPDEST SWAP1 POP SWAP2 SWAP1 POP JUMP JUMPDEST PUSH1 0x0 DUP2 SWAP1 POP SWAP2 SWAP1 POP JUMP JUMPDEST PUSH2 0x25E2 DUP4 PUSH2 0x25AD JUMP JUMPDEST PUSH2 0x25F6 PUSH2 0x25EE DUP3 PUSH2 0x25CF JUMP JUMPDEST DUP5 DUP5 SLOAD PUSH2 0x2551 JUMP JUMPDEST DUP3 SSTORE POP POP POP POP JUMP JUMPDEST PUSH1 0x0 SWAP1 JUMP JUMPDEST PUSH2 0x260B PUSH2 0x25FE JUMP JUMPDEST PUSH2 0x2616 DUP2 DUP5 DUP5 PUSH2 0x25D9 JUMP JUMPDEST POP POP POP JUMP JUMPDEST JUMPDEST DUP2 DUP2 LT ISZERO PUSH2 0x263A JUMPI PUSH2 0x262F PUSH1 0x0 DUP3 PUSH2 0x2603 JUMP JUMPDEST PUSH1 0x1 DUP2 ADD SWAP1 POP PUSH2 0x261C JUMP JUMPDEST POP POP JUMP JUMPDEST PUSH1 0x1F DUP3 GT ISZERO PUSH2 0x267F JUMPI PUSH2 0x2650 DUP2 PUSH2 0x251F JUMP JUMPDEST PUSH2 0x2659 DUP5 PUSH2 0x2534 JUMP JUMPDEST DUP2 ADD PUSH1 0x20 DUP6 LT ISZERO PUSH2 0x2668 JUMPI DUP2 SWAP1 POP JUMPDEST PUSH2 0x267C PUSH2 0x2674 DUP6 PUSH2 0x2534 JUMP JUMPDEST DUP4 ADD DUP3 PUSH2 0x261B JUMP JUMPDEST POP POP JUMPDEST POP POP POP JUMP JUMPDEST PUSH1 0x0 DUP3 DUP3 SHR SWAP1 POP SWAP3 SWAP2 POP POP JUMP JUMPDEST PUSH1 0x0 PUSH2 0x26A2 PUSH1 0x0 NOT DUP5 PUSH1 0x8 MUL PUSH2 0x2684 JUMP JUMPDEST NOT DUP1 DUP4 AND SWAP2 POP POP SWAP3 SWAP2 POP POP JUMP JUMPDEST PUSH1 0x0 PUSH2 0x26BB DUP4 DUP4 PUSH2 0x2691 JUMP JUMPDEST SWAP2 POP DUP3 PUSH1 0x2 MUL DUP3 OR SWAP1 POP SWAP3 SWAP2 POP POP JUMP JUMPDEST PUSH2 0x26D4 DUP3 PUSH2 0x1D34 JUMP JUMPDEST PUSH8 0xFFFFFFFFFFFFFFFF DUP2 GT ISZERO PUSH2 0x26ED JUMPI PUSH2 0x26EC PUSH2 0x1F98 JUMP JUMPDEST JUMPDEST PUSH2 0x26F7 DUP3 SLOAD PUSH2 0x2338 JUMP JUMPDEST PUSH2 0x2702 DUP3 DUP3 DUP6 PUSH2 0x263E JUMP JUMPDEST PUSH1 0x0 PUSH1 0x20 SWAP1 POP PUSH1 0x1F DUP4 GT PUSH1 0x1 DUP2 EQ PUSH2 0x2735 JUMPI PUSH1 0x0 DUP5 ISZERO PUSH2 0x2723 JUMPI DUP3 DUP8 ADD MLOAD SWAP1 POP JUMPDEST PUSH2 0x272D DUP6 DUP3 PUSH2 0x26AF JUMP JUMPDEST DUP7 SSTORE POP PUSH2 0x2795 JUMP JUMPDEST PUSH1 0x1F NOT DUP5 AND PUSH2 0x2743 DUP7 PUSH2 0x251F JUMP JUMPDEST PUSH1 0x0 JUMPDEST DUP3 DUP2 LT ISZERO PUSH2 0x276B JUMPI DUP5 DUP10 ADD MLOAD DUP3 SSTORE PUSH1 0x1 DUP3 ADD SWAP2 POP PUSH1 0x20 DUP6 ADD SWAP5 POP PUSH1 0x20 DUP2 ADD SWAP1 POP PUSH2 0x2746 JUMP JUMPDEST DUP7 DUP4 LT ISZERO PUSH2 0x2788 JUMPI DUP5 DUP10 ADD MLOAD PUSH2 0x2784 PUSH1 0x1F DUP10 AND DUP3 PUSH2 0x2691 JUMP JUMPDEST DUP4 SSTORE POP JUMPDEST PUSH1 0x1 PUSH1 0x2 DUP9 MUL ADD DUP9 SSTORE POP POP POP JUMPDEST POP POP POP POP POP POP JUMP JUMPDEST PUSH32 0x4552433732313A20696E76616C696420746F6B656E2049440000000000000000 PUSH1 0x0 DUP3 ADD MSTORE POP JUMP JUMPDEST PUSH1 0x0 PUSH2 0x27D3 PUSH1 0x18 DUP4 PUSH2 0x1D3F JUMP JUMPDEST SWAP2 POP PUSH2 0x27DE DUP3 PUSH2 0x279D JUMP JUMPDEST PUSH1 0x20 DUP3 ADD SWAP1 POP SWAP2 SWAP1 POP JUMP JUMPDEST PUSH1 0x0 PUSH1 0x20 DUP3 ADD SWAP1 POP DUP2 DUP2 SUB PUSH1 0x0 DUP4 ADD MSTORE PUSH2 0x2802 DUP2 PUSH2 0x27C6 JUMP JUMPDEST SWAP1 POP SWAP2 SWAP1 POP JUMP JUMPDEST PUSH32 0x4E487B7100000000000000000000000000000000000000000000000000000000 PUSH1 0x0 MSTORE PUSH1 0x11 PUSH1 0x4 MSTORE PUSH1 0x24 PUSH1 0x0 REVERT JUMPDEST PUSH1 0x0 PUSH2 0x2843 DUP3 PUSH2 0x1DE6 JUMP JUMPDEST SWAP2 POP PUSH2 0x284E DUP4 PUSH2 0x1DE6 JUMP JUMPDEST SWAP3 POP DUP3 DUP3 ADD SWAP1 POP DUP1 DUP3 GT ISZERO PUSH2 0x2866 JUMPI PUSH2 0x2865 PUSH2 0x2809 JUMP JUMPDEST JUMPDEST SWAP3 SWAP2 POP POP JUMP JUMPDEST PUSH32 0x4552433732313A2061646472657373207A65726F206973206E6F742061207661 PUSH1 0x0 DUP3 ADD MSTORE PUSH32 0x6C6964206F776E65720000000000000000000000000000000000000000000000 PUSH1 0x20 DUP3 ADD MSTORE POP JUMP JUMPDEST PUSH1 0x0 PUSH2 0x28C8 PUSH1 0x29 DUP4 PUSH2 0x1D3F JUMP JUMPDEST SWAP2 POP PUSH2 0x28D3 DUP3 PUSH2 0x286C JUMP JUMPDEST PUSH1 0x40 DUP3 ADD SWAP1 POP SWAP2 SWAP1 POP JUMP JUMPDEST PUSH1 0x0 PUSH1 0x20 DUP3 ADD SWAP1 POP DUP2 DUP2 SUB PUSH1 0x0 DUP4 ADD MSTORE PUSH2 0x28F7 DUP2 PUSH2 0x28BB JUMP JUMPDEST SWAP1 POP SWAP2 SWAP1 POP JUMP JUMPDEST PUSH32 0x4F776E61626C6532537465703A2063616C6C6572206973206E6F742074686520 PUSH1 0x0 DUP3 ADD MSTORE PUSH32 0x6E6577206F776E65720000000000000000000000000000000000000000000000 PUSH1 0x20 DUP3 ADD MSTORE POP JUMP JUMPDEST PUSH1 0x0 PUSH2 0x295A PUSH1 0x29 DUP4 PUSH2 0x1D3F JUMP JUMPDEST SWAP2 POP PUSH2 0x2965 DUP3 PUSH2 0x28FE JUMP JUMPDEST PUSH1 0x40 DUP3 ADD SWAP1 POP SWAP2 SWAP1 POP JUMP JUMPDEST PUSH1 0x0 PUSH1 0x20 DUP3 ADD SWAP1 POP DUP2 DUP2 SUB PUSH1 0x0 DUP4 ADD MSTORE PUSH2 0x2989 DUP2 PUSH2 0x294D JUMP JUMPDEST SWAP1 POP SWAP2 SWAP1 POP JUMP JUMPDEST PUSH1 0x0 DUP2 SWAP1 POP SWAP3 SWAP2 POP POP JUMP JUMPDEST PUSH1 0x0 PUSH2 0x29A6 DUP3 PUSH2 0x1D34 JUMP JUMPDEST PUSH2 0x29B0 DUP2 DUP6 PUSH2 0x2990 JUMP JUMPDEST SWAP4 POP PUSH2 0x29C0 DUP2 DUP6 PUSH1 0x20 DUP7 ADD PUSH2 0x1D50 JUMP JUMPDEST DUP1 DUP5 ADD SWAP2 POP POP SWAP3 SWAP2 POP POP JUMP JUMPDEST PUSH1 0x0 PUSH2 0x29D8 DUP3 DUP6 PUSH2 0x299B JUMP JUMPDEST SWAP2 POP PUSH2 0x29E4 DUP3 DUP5 PUSH2 0x299B JUMP JUMPDEST SWAP2 POP DUP2 SWAP1 POP SWAP4 SWAP3 POP POP POP JUMP JUMPDEST PUSH32 0x4552433732313A207472616E736665722066726F6D20696E636F727265637420 PUSH1 0x0 DUP3 ADD MSTORE PUSH32 0x6F776E6572000000000000000000000000000000000000000000000000000000 PUSH1 0x20 DUP3 ADD MSTORE POP JUMP JUMPDEST PUSH1 0x0 PUSH2 0x2A4C PUSH1 0x25 DUP4 PUSH2 0x1D3F JUMP JUMPDEST SWAP2 POP PUSH2 0x2A57 DUP3 PUSH2 0x29F0 JUMP JUMPDEST PUSH1 0x40 DUP3 ADD SWAP1 POP SWAP2 SWAP1 POP JUMP JUMPDEST PUSH1 0x0 PUSH1 0x20 DUP3 ADD SWAP1 POP DUP2 DUP2 SUB PUSH1 0x0 DUP4 ADD MSTORE PUSH2 0x2A7B DUP2 PUSH2 0x2A3F JUMP JUMPDEST SWAP1 POP SWAP2 SWAP1 POP JUMP JUMPDEST PUSH32 0x4552433732313A207472616E7366657220746F20746865207A65726F20616464 PUSH1 0x0 DUP3 ADD MSTORE PUSH32 0x7265737300000000000000000000000000000000000000000000000000000000 PUSH1 0x20 DUP3 ADD MSTORE POP JUMP JUMPDEST PUSH1 0x0 PUSH2 0x2ADE PUSH1 0x24 DUP4 PUSH2 0x1D3F JUMP JUMPDEST SWAP2 POP PUSH2 0x2AE9 DUP3 PUSH2 0x2A82 JUMP JUMPDEST PUSH1 0x40 DUP3 ADD SWAP1 POP SWAP2 SWAP1 POP JUMP JUMPDEST PUSH1 0x0 PUSH1 0x20 DUP3 ADD SWAP1 POP DUP2 DUP2 SUB PUSH1 0x0 DUP4 ADD MSTORE PUSH2 0x2B0D DUP2 PUSH2 0x2AD1 JUMP JUMPDEST SWAP1 POP SWAP2 SWAP1 POP JUMP JUMPDEST PUSH32 0x4F776E61626C653A2063616C6C6572206973206E6F7420746865206F776E6572 PUSH1 0x0 DUP3 ADD MSTORE POP JUMP JUMPDEST PUSH1 0x0 PUSH2 0x2B4A PUSH1 0x20 DUP4 PUSH2 0x1D3F JUMP JUMPDEST SWAP2 POP PUSH2 0x2B55 DUP3 PUSH2 0x2B14 JUMP JUMPDEST PUSH1 0x20 DUP3 ADD SWAP1 POP SWAP2 SWAP1 POP JUMP JUMPDEST PUSH1 0x0 PUSH1 0x20 DUP3 ADD SWAP1 POP DUP2 DUP2 SUB PUSH1 0x0 DUP4 ADD MSTORE PUSH2 0x2B79 DUP2 PUSH2 0x2B3D JUMP JUMPDEST SWAP1 POP SWAP2 SWAP1 POP JUMP JUMPDEST PUSH32 0x4552433732313A20617070726F766520746F2063616C6C657200000000000000 PUSH1 0x0 DUP3 ADD MSTORE POP JUMP JUMPDEST PUSH1 0x0 PUSH2 0x2BB6 PUSH1 0x19 DUP4 PUSH2 0x1D3F JUMP JUMPDEST SWAP2 POP PUSH2 0x2BC1 DUP3 PUSH2 0x2B80 JUMP JUMPDEST PUSH1 0x20 DUP3 ADD SWAP1 POP SWAP2 SWAP1 POP JUMP JUMPDEST PUSH1 0x0 PUSH1 0x20 DUP3 ADD SWAP1 POP DUP2 DUP2 SUB PUSH1 0x0 DUP4 ADD MSTORE PUSH2 0x2BE5 DUP2 PUSH2 0x2BA9 JUMP JUMPDEST SWAP1 POP SWAP2 SWAP1 POP JUMP JUMPDEST PUSH32 0x4552433732313A207472616E7366657220746F206E6F6E204552433732315265 PUSH1 0x0 DUP3 ADD MSTORE PUSH32 0x63656976657220696D706C656D656E7465720000000000000000000000000000 PUSH1 0x20 DUP3 ADD MSTORE POP JUMP JUMPDEST PUSH1 0x0 PUSH2 0x2C48 PUSH1 0x32 DUP4 PUSH2 0x1D3F JUMP JUMPDEST SWAP2 POP PUSH2 0x2C53 DUP3 PUSH2 0x2BEC JUMP JUMPDEST PUSH1 0x40 DUP3 ADD SWAP1 POP SWAP2 SWAP1 POP JUMP JUMPDEST PUSH1 0x0 PUSH1 0x20 DUP3 ADD SWAP1 POP DUP2 DUP2 SUB PUSH1 0x0 DUP4 ADD MSTORE PUSH2 0x2C77 DUP2 PUSH2 0x2C3B JUMP JUMPDEST SWAP1 POP SWAP2 SWAP1 POP JUMP JUMPDEST PUSH32 0x4E487B7100000000000000000000000000000000000000000000000000000000 PUSH1 0x0 MSTORE PUSH1 0x12 PUSH1 0x4 MSTORE PUSH1 0x24 PUSH1 0x0 REVERT JUMPDEST PUSH1 0x0 DUP2 MLOAD SWAP1 POP SWAP2 SWAP1 POP JUMP JUMPDEST PUSH1 0x0 DUP3 DUP3 MSTORE PUSH1 0x20 DUP3 ADD SWAP1 POP SWAP3 SWAP2 POP POP JUMP JUMPDEST PUSH1 0x0 PUSH2 0x2CD4 DUP3 PUSH2 0x2CAD JUMP JUMPDEST PUSH2 0x2CDE DUP2 DUP6 PUSH2 0x2CB8 JUMP JUMPDEST SWAP4 POP PUSH2 0x2CEE DUP2 DUP6 PUSH1 0x20 DUP7 ADD PUSH2 0x1D50 JUMP JUMPDEST PUSH2 0x2CF7 DUP2 PUSH2 0x1D7A JUMP JUMPDEST DUP5 ADD SWAP2 POP POP SWAP3 SWAP2 POP POP JUMP JUMPDEST PUSH1 0x0 PUSH1 0x80 DUP3 ADD SWAP1 POP PUSH2 0x2D17 PUSH1 0x0 DUP4 ADD DUP8 PUSH2 0x1E7B JUMP JUMPDEST PUSH2 0x2D24 PUSH1 0x20 DUP4 ADD DUP7 PUSH2 0x1E7B JUMP JUMPDEST PUSH2 0x2D31 PUSH1 0x40 DUP4 ADD DUP6 PUSH2 0x1F11 JUMP JUMPDEST DUP2 DUP2 SUB PUSH1 0x60 DUP4 ADD MSTORE PUSH2 0x2D43 DUP2 DUP5 PUSH2 0x2CC9 JUMP JUMPDEST SWAP1 POP SWAP6 SWAP5 POP POP POP POP POP JUMP JUMPDEST PUSH1 0x0 DUP2 MLOAD SWAP1 POP PUSH2 0x2D5D DUP2 PUSH2 0x1CA5 JUMP JUMPDEST SWAP3 SWAP2 POP POP JUMP JUMPDEST PUSH1 0x0 PUSH1 0x20 DUP3 DUP5 SUB SLT ISZERO PUSH2 0x2D79 JUMPI PUSH2 0x2D78 PUSH2 0x1C6F JUMP JUMPDEST JUMPDEST PUSH1 0x0 PUSH2 0x2D87 DUP5 DUP3 DUP6 ADD PUSH2 0x2D4E JUMP JUMPDEST SWAP2 POP POP SWAP3 SWAP2 POP POP JUMP JUMPDEST PUSH32 0x4552433732313A206D696E7420746F20746865207A65726F2061646472657373 PUSH1 0x0 DUP3 ADD MSTORE POP JUMP JUMPDEST PUSH1 0x0 PUSH2 0x2DC6 PUSH1 0x20 DUP4 PUSH2 0x1D3F JUMP JUMPDEST SWAP2 POP PUSH2 0x2DD1 DUP3 PUSH2 0x2D90 JUMP JUMPDEST PUSH1 0x20 DUP3 ADD SWAP1 POP SWAP2 SWAP1 POP JUMP JUMPDEST PUSH1 0x0 PUSH1 0x20 DUP3 ADD SWAP1 POP DUP2 DUP2 SUB PUSH1 0x0 DUP4 ADD MSTORE PUSH2 0x2DF5 DUP2 PUSH2 0x2DB9 JUMP JUMPDEST SWAP1 POP SWAP2 SWAP1 POP JUMP JUMPDEST PUSH32 0x4552433732313A20746F6B656E20616C7265616479206D696E74656400000000 PUSH1 0x0 DUP3 ADD MSTORE POP JUMP JUMPDEST PUSH1 0x0 PUSH2 0x2E32 PUSH1 0x1C DUP4 PUSH2 0x1D3F JUMP JUMPDEST SWAP2 POP PUSH2 0x2E3D DUP3 PUSH2 0x2DFC JUMP JUMPDEST PUSH1 0x20 DUP3 ADD SWAP1 POP SWAP2 SWAP1 POP JUMP JUMPDEST PUSH1 0x0 PUSH1 0x20 DUP3 ADD SWAP1 POP DUP2 DUP2 SUB PUSH1 0x0 DUP4 ADD MSTORE PUSH2 0x2E61 DUP2 PUSH2 0x2E25 JUMP JUMPDEST SWAP1 POP SWAP2 SWAP1 POP JUMP INVALID LOG2 PUSH5 0x6970667358 0x22 SLT KECCAK256 PUSH4 0x99F4F555 0xD8 NUMBER 0xFC PUSH2 0x5FE4 PUSH28 0x8051FC5271362E7DB0BA0BCEB3CDE1E28E27AB2C64736F6C63430008 SHL STOP CALLER "},"gasEstimates":{"creation":{"codeDepositCost":"2386800","executionCost":"infinite","totalCost":"infinite"},"external":{"acceptOwnership()":"54703","approve(address,uint256)":"infinite","balanceOf(address)":"3009","getApproved(uint256)":"5300","isApprovedForAll(address,address)":"infinite","mint(address)":"infinite","name()":"infinite","owner()":"2589","ownerOf(uint256)":"3088","pendingOwner()":"2610","renounceOwnership()":"54692","safeTransferFrom(address,address,uint256)":"infinite","safeTransferFrom(address,address,uint256,bytes)":"infinite","setApprovalForAll(address,bool)":"infinite","setBaseURI(string)":"infinite","supportsInterface(bytes4)":"797","symbol()":"infinite","tokenIdCounter()":"2540","tokenURI(uint256)":"infinite","totalSupply()":"2549","transferFrom(address,address,uint256)":"infinite","transferOwnership(address)":"infinite"},"internal":{"_baseURI()":"infinite"}},"methodIdentifiers":{"acceptOwnership()":"79ba5097","approve(address,uint256)":"095ea7b3","balanceOf(address)":"70a08231","getApproved(uint256)":"081812fc","isApprovedForAll(address,address)":"e985e9c5","mint(address)":"6a627842","name()":"06fdde03","owner()":"8da5cb5b","ownerOf(uint256)":"6352211e","pendingOwner()":"e30c3978","renounceOwnership()":"715018a6","safeTransferFrom(address,address,uint256)":"42842e0e","safeTransferFrom(address,address,uint256,bytes)":"b88d4fde","setApprovalForAll(address,bool)":"a22cb465","setBaseURI(string)":"55f804b3","supportsInterface(bytes4)":"01ffc9a7","symbol()":"95d89b41","tokenIdCounter()":"98bdf6f5","tokenURI(uint256)":"c87b56dd","totalSupply()":"18160ddd","transferFrom(address,address,uint256)":"23b872dd","transferOwnership(address)":"f2fde38b"}},"storageLayout":{"storage":[{"astId":221,"contract":"contracts/NFT1.sol:NFT1","label":"_name","offset":0,"slot":"0","type":"t_string_storage"},{"astId":223,"contract":"contracts/NFT1.sol:NFT1","label":"_symbol","offset":0,"slot":"1","type":"t_string_storage"},{"astId":227,"contract":"contracts/NFT1.sol:NFT1","label":"_owners","offset":0,"slot":"2","type":"t_mapping(t_uint256,t_address)"},{"astId":231,"contract":"contracts/NFT1.sol:NFT1","label":"_balances","offset":0,"slot":"3","type":"t_mapping(t_address,t_uint256)"},{"astId":235,"contract":"contracts/NFT1.sol:NFT1","label":"_tokenApprovals","offset":0,"slot":"4","type":"t_mapping(t_uint256,t_address)"},{"astId":241,"contract":"contracts/NFT1.sol:NFT1","label":"_operatorApprovals","offset":0,"slot":"5","type":"t_mapping(t_address,t_mapping(t_address,t_bool))"},{"astId":7,"contract":"contracts/NFT1.sol:NFT1","label":"_owner","offset":0,"slot":"6","type":"t_address"},{"astId":120,"contract":"contracts/NFT1.sol:NFT1","label":"_pendingOwner","offset":0,"slot":"7","type":"t_address"},{"astId":2724,"contract":"contracts/NFT1.sol:NFT1","label":"tokenIdCounter","offset":0,"slot":"8","type":"t_uint256"},{"astId":2726,"contract":"contracts/NFT1.sol:NFT1","label":"baseTokenURI","offset":0,"slot":"9","type":"t_string_storage"}],"types":{"t_address":{"encoding":"inplace","label":"address","numberOfBytes":"20"},"t_bool":{"encoding":"inplace","label":"bool","numberOfBytes":"1"},"t_mapping(t_address,t_bool)":{"encoding":"mapping","key":"t_address","label":"mapping(address => bool)","numberOfBytes":"32","value":"t_bool"},"t_mapping(t_address,t_mapping(t_address,t_bool))":{"encoding":"mapping","key":"t_address","label":"mapping(address => mapping(address => bool))","numberOfBytes":"32","value":"t_mapping(t_address,t_bool)"},"t_mapping(t_address,t_uint256)":{"encoding":"mapping","key":"t_address","label":"mapping(address => uint256)","numberOfBytes":"32","value":"t_uint256"},"t_mapping(t_uint256,t_address)":{"encoding":"mapping","key":"t_uint256","label":"mapping(uint256 => address)","numberOfBytes":"32","value":"t_address"},"t_string_storage":{"encoding":"bytes","label":"string","numberOfBytes":"32"},"t_uint256":{"encoding":"inplace","label":"uint256","numberOfBytes":"32"}}},"userdoc":{"kind":"user","methods":{},"version":1}}}}