{
  "_format": "hh-sol-artifact-1",
  "contractName": "Overmint2",
  "sourceName": "contracts/riddles/Overmint2.sol",
  "abi": [
    {
      "inputs": [],
      "stateMutability": "nonpayable",
      "type": "constructor"
    },
    {
      "anonymous": false,
      "inputs": [
        {
          "indexed": true,
          "internalType": "address",
          "name": "owner",
          "type": "address"
        },
        {
          "indexed": true,
          "internalType": "address",
          "name": "approved",
          "type": "address"
        },
        {
          "indexed": true,
          "internalType": "uint256",
          "name": "tokenId",
          "type": "uint256"
        }
      ],
      "name": "Approval",
      "type": "event"
    },
    {
      "anonymous": false,
      "inputs": [
        {
          "indexed": true,
          "internalType": "address",
          "name": "owner",
          "type": "address"
        },
        {
          "indexed": true,
          "internalType": "address",
          "name": "operator",
          "type": "address"
        },
        {
          "indexed": false,
          "internalType": "bool",
          "name": "approved",
          "type": "bool"
        }
      ],
      "name": "ApprovalForAll",
      "type": "event"
    },
    {
      "anonymous": false,
      "inputs": [
        {
          "indexed": true,
          "internalType": "address",
          "name": "from",
          "type": "address"
        },
        {
          "indexed": true,
          "internalType": "address",
          "name": "to",
          "type": "address"
        },
        {
          "indexed": true,
          "internalType": "uint256",
          "name": "tokenId",
          "type": "uint256"
        }
      ],
      "name": "Transfer",
      "type": "event"
    },
    {
      "inputs": [
        {
          "internalType": "address",
          "name": "to",
          "type": "address"
        },
        {
          "internalType": "uint256",
          "name": "tokenId",
          "type": "uint256"
        }
      ],
      "name": "approve",
      "outputs": [],
      "stateMutability": "nonpayable",
      "type": "function"
    },
    {
      "inputs": [
        {
          "internalType": "address",
          "name": "owner",
          "type": "address"
        }
      ],
      "name": "balanceOf",
      "outputs": [
        {
          "internalType": "uint256",
          "name": "",
          "type": "uint256"
        }
      ],
      "stateMutability": "view",
      "type": "function"
    },
    {
      "inputs": [
        {
          "internalType": "uint256",
          "name": "tokenId",
          "type": "uint256"
        }
      ],
      "name": "getApproved",
      "outputs": [
        {
          "internalType": "address",
          "name": "",
          "type": "address"
        }
      ],
      "stateMutability": "view",
      "type": "function"
    },
    {
      "inputs": [
        {
          "internalType": "address",
          "name": "owner",
          "type": "address"
        },
        {
          "internalType": "address",
          "name": "operator",
          "type": "address"
        }
      ],
      "name": "isApprovedForAll",
      "outputs": [
        {
          "internalType": "bool",
          "name": "",
          "type": "bool"
        }
      ],
      "stateMutability": "view",
      "type": "function"
    },
    {
      "inputs": [],
      "name": "mint",
      "outputs": [],
      "stateMutability": "nonpayable",
      "type": "function"
    },
    {
      "inputs": [],
      "name": "name",
      "outputs": [
        {
          "internalType": "string",
          "name": "",
          "type": "string"
        }
      ],
      "stateMutability": "view",
      "type": "function"
    },
    {
      "inputs": [
        {
          "internalType": "uint256",
          "name": "tokenId",
          "type": "uint256"
        }
      ],
      "name": "ownerOf",
      "outputs": [
        {
          "internalType": "address",
          "name": "",
          "type": "address"
        }
      ],
      "stateMutability": "view",
      "type": "function"
    },
    {
      "inputs": [
        {
          "internalType": "address",
          "name": "from",
          "type": "address"
        },
        {
          "internalType": "address",
          "name": "to",
          "type": "address"
        },
        {
          "internalType": "uint256",
          "name": "tokenId",
          "type": "uint256"
        }
      ],
      "name": "safeTransferFrom",
      "outputs": [],
      "stateMutability": "nonpayable",
      "type": "function"
    },
    {
      "inputs": [
        {
          "internalType": "address",
          "name": "from",
          "type": "address"
        },
        {
          "internalType": "address",
          "name": "to",
          "type": "address"
        },
        {
          "internalType": "uint256",
          "name": "tokenId",
          "type": "uint256"
        },
        {
          "internalType": "bytes",
          "name": "data",
          "type": "bytes"
        }
      ],
      "name": "safeTransferFrom",
      "outputs": [],
      "stateMutability": "nonpayable",
      "type": "function"
    },
    {
      "inputs": [
        {
          "internalType": "address",
          "name": "operator",
          "type": "address"
        },
        {
          "internalType": "bool",
          "name": "approved",
          "type": "bool"
        }
      ],
      "name": "setApprovalForAll",
      "outputs": [],
      "stateMutability": "nonpayable",
      "type": "function"
    },
    {
      "inputs": [],
      "name": "success",
      "outputs": [
        {
          "internalType": "bool",
          "name": "",
          "type": "bool"
        }
      ],
      "stateMutability": "view",
      "type": "function"
    },
    {
      "inputs": [
        {
          "internalType": "bytes4",
          "name": "interfaceId",
          "type": "bytes4"
        }
      ],
      "name": "supportsInterface",
      "outputs": [
        {
          "internalType": "bool",
          "name": "",
          "type": "bool"
        }
      ],
      "stateMutability": "view",
      "type": "function"
    },
    {
      "inputs": [],
      "name": "symbol",
      "outputs": [
        {
          "internalType": "string",
          "name": "",
          "type": "string"
        }
      ],
      "stateMutability": "view",
      "type": "function"
    },
    {
      "inputs": [
        {
          "internalType": "uint256",
          "name": "tokenId",
          "type": "uint256"
        }
      ],
      "name": "tokenURI",
      "outputs": [
        {
          "internalType": "string",
          "name": "",
          "type": "string"
        }
      ],
      "stateMutability": "view",
      "type": "function"
    },
    {
      "inputs": [],
      "name": "totalSupply",
      "outputs": [
        {
          "internalType": "uint256",
          "name": "",
          "type": "uint256"
        }
      ],
      "stateMutability": "view",
      "type": "function"
    },
    {
      "inputs": [
        {
          "internalType": "address",
          "name": "from",
          "type": "address"
        },
        {
          "internalType": "address",
          "name": "to",
          "type": "address"
        },
        {
          "internalType": "uint256",
          "name": "tokenId",
          "type": "uint256"
        }
      ],
      "name": "transferFrom",
      "outputs": [],
      "stateMutability": "nonpayable",
      "type": "function"
    }
  ],
  "bytecode": "0x608060405234801561001057600080fd5b506040518060400160405280600981526020017f4f7665726d696e743200000000000000000000000000000000000000000000008152506040518060400160405280600281526020017f4154000000000000000000000000000000000000000000000000000000000000815250816000908161008c91906102f4565b50806001908161009c91906102f4565b5050506103c6565b600081519050919050565b7f4e487b7100000000000000000000000000000000000000000000000000000000600052604160045260246000fd5b7f4e487b7100000000000000000000000000000000000000000000000000000000600052602260045260246000fd5b6000600282049050600182168061012557607f821691505b602082108103610138576101376100de565b5b50919050565b60008190508160005260206000209050919050565b60006020601f8301049050919050565b600082821b905092915050565b6000600883026101a07fffffffffffffffffffffffffffffffffffffffffffffffffffffffffffffffff82610163565b6101aa8683610163565b95508019841693508086168417925050509392505050565b6000819050919050565b6000819050919050565b60006101f16101ec6101e7846101c2565b6101cc565b6101c2565b9050919050565b6000819050919050565b61020b836101d6565b61021f610217826101f8565b848454610170565b825550505050565b600090565b610234610227565b61023f818484610202565b505050565b5b818110156102635761025860008261022c565b600181019050610245565b5050565b601f8211156102a8576102798161013e565b61028284610153565b81016020851015610291578190505b6102a561029d85610153565b830182610244565b50505b505050565b600082821c905092915050565b60006102cb600019846008026102ad565b1980831691505092915050565b60006102e483836102ba565b9150826002028217905092915050565b6102fd826100a4565b67ffffffffffffffff811115610316576103156100af565b5b610320825461010d565b61032b828285610267565b600060209050601f83116001811461035e576000841561034c578287015190505b61035685826102d8565b8655506103be565b601f19841661036c8661013e565b60005b828110156103945784890151825560018201915060208501945060208101905061036f565b868310156103b157848901516103ad601f8916826102ba565b8355505b6001600288020188555050505b505050505050565b6125fa806103d56000396000f3fe608060405234801561001057600080fd5b50600436106101005760003560e01c806342842e0e11610097578063a22cb46511610066578063a22cb4651461029b578063b88d4fde146102b7578063c87b56dd146102d3578063e985e9c51461030357610100565b806342842e0e146102015780636352211e1461021d57806370a082311461024d57806395d89b411461027d57610100565b80630b93381b116100d35780630b93381b1461019f5780631249c58b146101bd57806318160ddd146101c757806323b872dd146101e557610100565b806301ffc9a71461010557806306fdde0314610135578063081812fc14610153578063095ea7b314610183575b600080fd5b61011f600480360381019061011a9190611813565b610333565b60405161012c919061185b565b60405180910390f35b61013d610415565b60405161014a9190611906565b60405180910390f35b61016d6004803603810190610168919061195e565b6104a7565b60405161017a91906119cc565b60405180910390f35b61019d60048036038101906101989190611a13565b6104ed565b005b6101a7610604565b6040516101b4919061185b565b60405180910390f35b6101c5610617565b005b6101cf610689565b6040516101dc9190611a62565b60405180910390f35b6101ff60048036038101906101fa9190611a7d565b61068f565b005b61021b60048036038101906102169190611a7d565b6106ef565b005b6102376004803603810190610232919061195e565b61070f565b60405161024491906119cc565b60405180910390f35b61026760048036038101906102629190611ad0565b610795565b6040516102749190611a62565b60405180910390f35b61028561084c565b6040516102929190611906565b60405180910390f35b6102b560048036038101906102b09190611b29565b6108de565b005b6102d160048036038101906102cc9190611c9e565b6108f4565b005b6102ed60048036038101906102e8919061195e565b610956565b6040516102fa9190611906565b60405180910390f35b61031d60048036038101906103189190611d21565b6109be565b60405161032a919061185b565b60405180910390f35b60007f80ac58cd000000000000000000000000000000000000000000000000000000007bffffffffffffffffffffffffffffffffffffffffffffffffffffffff1916827bffffffffffffffffffffffffffffffffffffffffffffffffffffffff191614806103fe57507f5b5e139f000000000000000000000000000000000000000000000000000000007bffffffffffffffffffffffffffffffffffffffffffffffffffffffff1916827bffffffffffffffffffffffffffffffffffffffffffffffffffffffff1916145b8061040e575061040d82610a52565b5b9050919050565b60606000805461042490611d90565b80601f016020809104026020016040519081016040528092919081815260200182805461045090611d90565b801561049d5780601f106104725761010080835404028352916020019161049d565b820191906000526020600020905b81548152906001019060200180831161048057829003601f168201915b5050505050905090565b60006104b282610abc565b6004600083815260200190815260200160002060009054906101000a900473ffffffffffffffffffffffffffffffffffffffff169050919050565b60006104f88261070f565b90508073ffffffffffffffffffffffffffffffffffffffff168373ffffffffffffffffffffffffffffffffffffffff1603610568576040517f08c379a000000000000000000000000000000000000000000000000000000000815260040161055f90611e33565b60405180910390fd5b8073ffffffffffffffffffffffffffffffffffffffff16610587610b07565b73ffffffffffffffffffffffffffffffffffffffff1614806105b657506105b5816105b0610b07565b6109be565b5b6105f5576040517f08c379a00000000000000000000000000000000000000000000000000000000081526004016105ec90611ec5565b60405180910390fd5b6105ff8383610b0f565b505050565b6000600561061133610795565b14905090565b600361062233610795565b1115610663576040517f08c379a000000000000000000000000000000000000000000000000000000000815260040161065a90611f31565b60405180910390fd5b6006600081548092919061067690611f80565b919050555061068733600654610bc8565b565b60065481565b6106a061069a610b07565b82610de5565b6106df576040517f08c379a00000000000000000000000000000000000000000000000000000000081526004016106d69061203a565b60405180910390fd5b6106ea838383610e7a565b505050565b61070a838383604051806020016040528060008152506108f4565b505050565b60008061071b83611173565b9050600073ffffffffffffffffffffffffffffffffffffffff168173ffffffffffffffffffffffffffffffffffffffff160361078c576040517f08c379a0000000000000000000000000000000000000000000000000000000008152600401610783906120a6565b60405180910390fd5b80915050919050565b60008073ffffffffffffffffffffffffffffffffffffffff168273ffffffffffffffffffffffffffffffffffffffff1603610805576040517f08c379a00000000000000000000000000000000000000000000000000000000081526004016107fc90612138565b60405180910390fd5b600360008373ffffffffffffffffffffffffffffffffffffffff1673ffffffffffffffffffffffffffffffffffffffff168152602001908152602001600020549050919050565b60606001805461085b90611d90565b80601f016020809104026020016040519081016040528092919081815260200182805461088790611d90565b80156108d45780601f106108a9576101008083540402835291602001916108d4565b820191906000526020600020905b8154815290600101906020018083116108b757829003601f168201915b5050505050905090565b6108f06108e9610b07565b83836111b0565b5050565b6109056108ff610b07565b83610de5565b610944576040517f08c379a000000000000000000000000000000000000000000000000000000000815260040161093b9061203a565b60405180910390fd5b6109508484848461131c565b50505050565b606061096182610abc565b600061096b611378565b9050600081511161098b57604051806020016040528060008152506109b6565b806109958461138f565b6040516020016109a6929190612194565b6040516020818303038152906040525b915050919050565b6000600560008473ffffffffffffffffffffffffffffffffffffffff1673ffffffffffffffffffffffffffffffffffffffff16815260200190815260200160002060008373ffffffffffffffffffffffffffffffffffffffff1673ffffffffffffffffffffffffffffffffffffffff16815260200190815260200160002060009054906101000a900460ff16905092915050565b60007f01ffc9a7000000000000000000000000000000000000000000000000000000007bffffffffffffffffffffffffffffffffffffffffffffffffffffffff1916827bffffffffffffffffffffffffffffffffffffffffffffffffffffffff1916149050919050565b610ac58161145d565b610b04576040517f08c379a0000000000000000000000000000000000000000000000000000000008152600401610afb906120a6565b60405180910390fd5b50565b600033905090565b816004600083815260200190815260200160002060006101000a81548173ffffffffffffffffffffffffffffffffffffffff021916908373ffffffffffffffffffffffffffffffffffffffff160217905550808273ffffffffffffffffffffffffffffffffffffffff16610b828361070f565b73ffffffffffffffffffffffffffffffffffffffff167f8c5be1e5ebec7d5bd14f71427d1e84f3dd0314c0f7b2291e5b200ac8c7c3b92560405160405180910390a45050565b600073ffffffffffffffffffffffffffffffffffffffff168273ffffffffffffffffffffffffffffffffffffffff1603610c37576040517f08c379a0000000000000000000000000000000000000000000000000000000008152600401610c2e90612204565b60405180910390fd5b610c408161145d565b15610c80576040517f08c379a0000000000000000000000000000000000000000000000000000000008152600401610c7790612270565b60405180910390fd5b610c8e60008383600161149e565b610c978161145d565b15610cd7576040517f08c379a0000000000000000000000000000000000000000000000000000000008152600401610cce90612270565b60405180910390fd5b6001600360008473ffffffffffffffffffffffffffffffffffffffff1673ffffffffffffffffffffffffffffffffffffffff16815260200190815260200160002060008282540192505081905550816002600083815260200190815260200160002060006101000a81548173ffffffffffffffffffffffffffffffffffffffff021916908373ffffffffffffffffffffffffffffffffffffffff160217905550808273ffffffffffffffffffffffffffffffffffffffff16600073ffffffffffffffffffffffffffffffffffffffff167fddf252ad1be2c89b69c2b068fc378daa952ba7f163c4a11628f55a4df523b3ef60405160405180910390a4610de16000838360016114a4565b5050565b600080610df18361070f565b90508073ffffffffffffffffffffffffffffffffffffffff168473ffffffffffffffffffffffffffffffffffffffff161480610e335750610e3281856109be565b5b80610e7157508373ffffffffffffffffffffffffffffffffffffffff16610e59846104a7565b73ffffffffffffffffffffffffffffffffffffffff16145b91505092915050565b8273ffffffffffffffffffffffffffffffffffffffff16610e9a8261070f565b73ffffffffffffffffffffffffffffffffffffffff1614610ef0576040517f08c379a0000000000000000000000000000000000000000000000000000000008152600401610ee790612302565b60405180910390fd5b600073ffffffffffffffffffffffffffffffffffffffff168273ffffffffffffffffffffffffffffffffffffffff1603610f5f576040517f08c379a0000000000000000000000000000000000000000000000000000000008152600401610f5690612394565b60405180910390fd5b610f6c838383600161149e565b8273ffffffffffffffffffffffffffffffffffffffff16610f8c8261070f565b73ffffffffffffffffffffffffffffffffffffffff1614610fe2576040517f08c379a0000000000000000000000000000000000000000000000000000000008152600401610fd990612302565b60405180910390fd5b6004600082815260200190815260200160002060006101000a81549073ffffffffffffffffffffffffffffffffffffffff02191690556001600360008573ffffffffffffffffffffffffffffffffffffffff1673ffffffffffffffffffffffffffffffffffffffff168152602001908152602001600020600082825403925050819055506001600360008473ffffffffffffffffffffffffffffffffffffffff1673ffffffffffffffffffffffffffffffffffffffff16815260200190815260200160002060008282540192505081905550816002600083815260200190815260200160002060006101000a81548173ffffffffffffffffffffffffffffffffffffffff021916908373ffffffffffffffffffffffffffffffffffffffff160217905550808273ffffffffffffffffffffffffffffffffffffffff168473ffffffffffffffffffffffffffffffffffffffff167fddf252ad1be2c89b69c2b068fc378daa952ba7f163c4a11628f55a4df523b3ef60405160405180910390a461116e83838360016114a4565b505050565b60006002600083815260200190815260200160002060009054906101000a900473ffffffffffffffffffffffffffffffffffffffff169050919050565b8173ffffffffffffffffffffffffffffffffffffffff168373ffffffffffffffffffffffffffffffffffffffff160361121e576040517f08c379a000000000000000000000000000000000000000000000000000000000815260040161121590612400565b60405180910390fd5b80600560008573ffffffffffffffffffffffffffffffffffffffff1673ffffffffffffffffffffffffffffffffffffffff16815260200190815260200160002060008473ffffffffffffffffffffffffffffffffffffffff1673ffffffffffffffffffffffffffffffffffffffff16815260200190815260200160002060006101000a81548160ff0219169083151502179055508173ffffffffffffffffffffffffffffffffffffffff168373ffffffffffffffffffffffffffffffffffffffff167f17307eab39ab6107e8899845ad3d59bd9653f200f220920489ca2b5937696c318360405161130f919061185b565b60405180910390a3505050565b611327848484610e7a565b611333848484846114aa565b611372576040517f08c379a000000000000000000000000000000000000000000000000000000000815260040161136990612492565b60405180910390fd5b50505050565b606060405180602001604052806000815250905090565b60606000600161139e84611631565b01905060008167ffffffffffffffff8111156113bd576113bc611b73565b5b6040519080825280601f01601f1916602001820160405280156113ef5781602001600182028036833780820191505090505b509050600082602001820190505b600115611452578080600190039150507f3031323334353637383961626364656600000000000000000000000000000000600a86061a8153600a8581611446576114456124b2565b5b049450600085036113fd575b819350505050919050565b60008073ffffffffffffffffffffffffffffffffffffffff1661147f83611173565b73ffffffffffffffffffffffffffffffffffffffff1614159050919050565b50505050565b50505050565b60006114cb8473ffffffffffffffffffffffffffffffffffffffff16611784565b15611624578373ffffffffffffffffffffffffffffffffffffffff1663150b7a026114f4610b07565b8786866040518563ffffffff1660e01b81526004016115169493929190612536565b6020604051808303816000875af192505050801561155257506040513d601f19601f8201168201806040525081019061154f9190612597565b60015b6115d4573d8060008114611582576040519150601f19603f3d011682016040523d82523d6000602084013e611587565b606091505b5060008151036115cc576040517f08c379a00000000000000000000000000000000000000000000000000000000081526004016115c390612492565b60405180910390fd5b805181602001fd5b63150b7a0260e01b7bffffffffffffffffffffffffffffffffffffffffffffffffffffffff1916817bffffffffffffffffffffffffffffffffffffffffffffffffffffffff191614915050611629565b600190505b949350505050565b600080600090507a184f03e93ff9f4daa797ed6e38ed64bf6a1f010000000000000000831061168f577a184f03e93ff9f4daa797ed6e38ed64bf6a1f0100000000000000008381611685576116846124b2565b5b0492506040810190505b6d04ee2d6d415b85acef810000000083106116cc576d04ee2d6d415b85acef810000000083816116c2576116c16124b2565b5b0492506020810190505b662386f26fc1000083106116fb57662386f26fc1000083816116f1576116f06124b2565b5b0492506010810190505b6305f5e1008310611724576305f5e100838161171a576117196124b2565b5b0492506008810190505b612710831061174957612710838161173f5761173e6124b2565b5b0492506004810190505b6064831061176c5760648381611762576117616124b2565b5b0492506002810190505b600a831061177b576001810190505b80915050919050565b6000808273ffffffffffffffffffffffffffffffffffffffff163b119050919050565b6000604051905090565b600080fd5b600080fd5b60007fffffffff0000000000000000000000000000000000000000000000000000000082169050919050565b6117f0816117bb565b81146117fb57600080fd5b50565b60008135905061180d816117e7565b92915050565b600060208284031215611829576118286117b1565b5b6000611837848285016117fe565b91505092915050565b60008115159050919050565b61185581611840565b82525050565b6000602082019050611870600083018461184c565b92915050565b600081519050919050565b600082825260208201905092915050565b60005b838110156118b0578082015181840152602081019050611895565b60008484015250505050565b6000601f19601f8301169050919050565b60006118d882611876565b6118e28185611881565b93506118f2818560208601611892565b6118fb816118bc565b840191505092915050565b6000602082019050818103600083015261192081846118cd565b905092915050565b6000819050919050565b61193b81611928565b811461194657600080fd5b50565b60008135905061195881611932565b92915050565b600060208284031215611974576119736117b1565b5b600061198284828501611949565b91505092915050565b600073ffffffffffffffffffffffffffffffffffffffff82169050919050565b60006119b68261198b565b9050919050565b6119c6816119ab565b82525050565b60006020820190506119e160008301846119bd565b92915050565b6119f0816119ab565b81146119fb57600080fd5b50565b600081359050611a0d816119e7565b92915050565b60008060408385031215611a2a57611a296117b1565b5b6000611a38858286016119fe565b9250506020611a4985828601611949565b9150509250929050565b611a5c81611928565b82525050565b6000602082019050611a776000830184611a53565b92915050565b600080600060608486031215611a9657611a956117b1565b5b6000611aa4868287016119fe565b9350506020611ab5868287016119fe565b9250506040611ac686828701611949565b9150509250925092565b600060208284031215611ae657611ae56117b1565b5b6000611af4848285016119fe565b91505092915050565b611b0681611840565b8114611b1157600080fd5b50565b600081359050611b2381611afd565b92915050565b60008060408385031215611b4057611b3f6117b1565b5b6000611b4e858286016119fe565b9250506020611b5f85828601611b14565b9150509250929050565b600080fd5b600080fd5b7f4e487b7100000000000000000000000000000000000000000000000000000000600052604160045260246000fd5b611bab826118bc565b810181811067ffffffffffffffff82111715611bca57611bc9611b73565b5b80604052505050565b6000611bdd6117a7565b9050611be98282611ba2565b919050565b600067ffffffffffffffff821115611c0957611c08611b73565b5b611c12826118bc565b9050602081019050919050565b82818337600083830152505050565b6000611c41611c3c84611bee565b611bd3565b905082815260208101848484011115611c5d57611c5c611b6e565b5b611c68848285611c1f565b509392505050565b600082601f830112611c8557611c84611b69565b5b8135611c95848260208601611c2e565b91505092915050565b60008060008060808587031215611cb857611cb76117b1565b5b6000611cc6878288016119fe565b9450506020611cd7878288016119fe565b9350506040611ce887828801611949565b925050606085013567ffffffffffffffff811115611d0957611d086117b6565b5b611d1587828801611c70565b91505092959194509250565b60008060408385031215611d3857611d376117b1565b5b6000611d46858286016119fe565b9250506020611d57858286016119fe565b9150509250929050565b7f4e487b7100000000000000000000000000000000000000000000000000000000600052602260045260246000fd5b60006002820490506001821680611da857607f821691505b602082108103611dbb57611dba611d61565b5b50919050565b7f4552433732313a20617070726f76616c20746f2063757272656e74206f776e6560008201527f7200000000000000000000000000000000000000000000000000000000000000602082015250565b6000611e1d602183611881565b9150611e2882611dc1565b604082019050919050565b60006020820190508181036000830152611e4c81611e10565b9050919050565b7f4552433732313a20617070726f76652063616c6c6572206973206e6f7420746f60008201527f6b656e206f776e6572206f7220617070726f76656420666f7220616c6c000000602082015250565b6000611eaf603d83611881565b9150611eba82611e53565b604082019050919050565b60006020820190508181036000830152611ede81611ea2565b9050919050565b7f6d61782033204e46547300000000000000000000000000000000000000000000600082015250565b6000611f1b600a83611881565b9150611f2682611ee5565b602082019050919050565b60006020820190508181036000830152611f4a81611f0e565b9050919050565b7f4e487b7100000000000000000000000000000000000000000000000000000000600052601160045260246000fd5b6000611f8b82611928565b91507fffffffffffffffffffffffffffffffffffffffffffffffffffffffffffffffff8203611fbd57611fbc611f51565b5b600182019050919050565b7f4552433732313a2063616c6c6572206973206e6f7420746f6b656e206f776e6560008201527f72206f7220617070726f76656400000000000000000000000000000000000000602082015250565b6000612024602d83611881565b915061202f82611fc8565b604082019050919050565b6000602082019050818103600083015261205381612017565b9050919050565b7f4552433732313a20696e76616c696420746f6b656e2049440000000000000000600082015250565b6000612090601883611881565b915061209b8261205a565b602082019050919050565b600060208201905081810360008301526120bf81612083565b9050919050565b7f4552433732313a2061646472657373207a65726f206973206e6f74206120766160008201527f6c6964206f776e65720000000000000000000000000000000000000000000000602082015250565b6000612122602983611881565b915061212d826120c6565b604082019050919050565b6000602082019050818103600083015261215181612115565b9050919050565b600081905092915050565b600061216e82611876565b6121788185612158565b9350612188818560208601611892565b80840191505092915050565b60006121a08285612163565b91506121ac8284612163565b91508190509392505050565b7f4552433732313a206d696e7420746f20746865207a65726f2061646472657373600082015250565b60006121ee602083611881565b91506121f9826121b8565b602082019050919050565b6000602082019050818103600083015261221d816121e1565b9050919050565b7f4552433732313a20746f6b656e20616c7265616479206d696e74656400000000600082015250565b600061225a601c83611881565b915061226582612224565b602082019050919050565b600060208201905081810360008301526122898161224d565b9050919050565b7f4552433732313a207472616e736665722066726f6d20696e636f72726563742060008201527f6f776e6572000000000000000000000000000000000000000000000000000000602082015250565b60006122ec602583611881565b91506122f782612290565b604082019050919050565b6000602082019050818103600083015261231b816122df565b9050919050565b7f4552433732313a207472616e7366657220746f20746865207a65726f2061646460008201527f7265737300000000000000000000000000000000000000000000000000000000602082015250565b600061237e602483611881565b915061238982612322565b604082019050919050565b600060208201905081810360008301526123ad81612371565b9050919050565b7f4552433732313a20617070726f766520746f2063616c6c657200000000000000600082015250565b60006123ea601983611881565b91506123f5826123b4565b602082019050919050565b60006020820190508181036000830152612419816123dd565b9050919050565b7f4552433732313a207472616e7366657220746f206e6f6e20455243373231526560008201527f63656976657220696d706c656d656e7465720000000000000000000000000000602082015250565b600061247c603283611881565b915061248782612420565b604082019050919050565b600060208201905081810360008301526124ab8161246f565b9050919050565b7f4e487b7100000000000000000000000000000000000000000000000000000000600052601260045260246000fd5b600081519050919050565b600082825260208201905092915050565b6000612508826124e1565b61251281856124ec565b9350612522818560208601611892565b61252b816118bc565b840191505092915050565b600060808201905061254b60008301876119bd565b61255860208301866119bd565b6125656040830185611a53565b818103606083015261257781846124fd565b905095945050505050565b600081519050612591816117e7565b92915050565b6000602082840312156125ad576125ac6117b1565b5b60006125bb84828501612582565b9150509291505056fea264697066735822122062b91b182b54ad13bda1099a53e874092bb024360d3034ad5bfa508ba63a56c664736f6c634300081b0033",
  "linkReferences": {},
  "deployedLinkReferences": {}
}