{
  "_format": "hh-sol-artifact-1",
  "contractName": "NFT1",
  "sourceName": "contracts/NFT1.sol",
  "abi": [
    {
      "inputs": [
        {
          "internalType": "string",
          "name": "baseURI",
          "type": "string"
        },
        {
          "internalType": "bytes32",
          "name": "merkleRoot_",
          "type": "bytes32"
        }
      ],
      "stateMutability": "nonpayable",
      "type": "constructor"
    },
    {
      "anonymous": false,
      "inputs": [
        {
          "indexed": true,
          "internalType": "address",
          "name": "owner",
          "type": "address"
        },
        {
          "indexed": true,
          "internalType": "address",
          "name": "approved",
          "type": "address"
        },
        {
          "indexed": true,
          "internalType": "uint256",
          "name": "tokenId",
          "type": "uint256"
        }
      ],
      "name": "Approval",
      "type": "event"
    },
    {
      "anonymous": false,
      "inputs": [
        {
          "indexed": true,
          "internalType": "address",
          "name": "owner",
          "type": "address"
        },
        {
          "indexed": true,
          "internalType": "address",
          "name": "operator",
          "type": "address"
        },
        {
          "indexed": false,
          "internalType": "bool",
          "name": "approved",
          "type": "bool"
        }
      ],
      "name": "ApprovalForAll",
      "type": "event"
    },
    {
      "anonymous": false,
      "inputs": [
        {
          "indexed": true,
          "internalType": "address",
          "name": "owner",
          "type": "address"
        },
        {
          "indexed": false,
          "internalType": "uint256",
          "name": "amount",
          "type": "uint256"
        }
      ],
      "name": "FundsWithdrawn",
      "type": "event"
    },
    {
      "anonymous": false,
      "inputs": [
        {
          "indexed": true,
          "internalType": "address",
          "name": "nftOwner",
          "type": "address"
        }
      ],
      "name": "Minted",
      "type": "event"
    },
    {
      "anonymous": false,
      "inputs": [
        {
          "indexed": true,
          "internalType": "address",
          "name": "previousOwner",
          "type": "address"
        },
        {
          "indexed": true,
          "internalType": "address",
          "name": "newOwner",
          "type": "address"
        }
      ],
      "name": "OwnershipTransferStarted",
      "type": "event"
    },
    {
      "anonymous": false,
      "inputs": [
        {
          "indexed": true,
          "internalType": "address",
          "name": "previousOwner",
          "type": "address"
        },
        {
          "indexed": true,
          "internalType": "address",
          "name": "newOwner",
          "type": "address"
        }
      ],
      "name": "OwnershipTransferred",
      "type": "event"
    },
    {
      "anonymous": false,
      "inputs": [
        {
          "indexed": true,
          "internalType": "address",
          "name": "from",
          "type": "address"
        },
        {
          "indexed": true,
          "internalType": "address",
          "name": "to",
          "type": "address"
        },
        {
          "indexed": true,
          "internalType": "uint256",
          "name": "tokenId",
          "type": "uint256"
        }
      ],
      "name": "Transfer",
      "type": "event"
    },
    {
      "inputs": [],
      "name": "DISCOUNTED_MINTING_PRICE",
      "outputs": [
        {
          "internalType": "uint256",
          "name": "",
          "type": "uint256"
        }
      ],
      "stateMutability": "view",
      "type": "function"
    },
    {
      "inputs": [],
      "name": "MAX_SUPPLY",
      "outputs": [
        {
          "internalType": "uint256",
          "name": "",
          "type": "uint256"
        }
      ],
      "stateMutability": "view",
      "type": "function"
    },
    {
      "inputs": [],
      "name": "MINTING_PRICE",
      "outputs": [
        {
          "internalType": "uint256",
          "name": "",
          "type": "uint256"
        }
      ],
      "stateMutability": "view",
      "type": "function"
    },
    {
      "inputs": [],
      "name": "ROYALTY_FEE_NUMERATOR",
      "outputs": [
        {
          "internalType": "uint96",
          "name": "",
          "type": "uint96"
        }
      ],
      "stateMutability": "view",
      "type": "function"
    },
    {
      "inputs": [],
      "name": "acceptOwnership",
      "outputs": [],
      "stateMutability": "nonpayable",
      "type": "function"
    },
    {
      "inputs": [
        {
          "internalType": "address",
          "name": "to",
          "type": "address"
        },
        {
          "internalType": "uint256",
          "name": "tokenId",
          "type": "uint256"
        }
      ],
      "name": "approve",
      "outputs": [],
      "stateMutability": "nonpayable",
      "type": "function"
    },
    {
      "inputs": [
        {
          "internalType": "address",
          "name": "owner",
          "type": "address"
        }
      ],
      "name": "balanceOf",
      "outputs": [
        {
          "internalType": "uint256",
          "name": "",
          "type": "uint256"
        }
      ],
      "stateMutability": "view",
      "type": "function"
    },
    {
      "inputs": [
        {
          "internalType": "uint256",
          "name": "tokenId",
          "type": "uint256"
        }
      ],
      "name": "getApproved",
      "outputs": [
        {
          "internalType": "address",
          "name": "",
          "type": "address"
        }
      ],
      "stateMutability": "view",
      "type": "function"
    },
    {
      "inputs": [
        {
          "internalType": "address",
          "name": "owner",
          "type": "address"
        },
        {
          "internalType": "address",
          "name": "operator",
          "type": "address"
        }
      ],
      "name": "isApprovedForAll",
      "outputs": [
        {
          "internalType": "bool",
          "name": "",
          "type": "bool"
        }
      ],
      "stateMutability": "view",
      "type": "function"
    },
    {
      "inputs": [],
      "name": "merkleRoot",
      "outputs": [
        {
          "internalType": "bytes32",
          "name": "",
          "type": "bytes32"
        }
      ],
      "stateMutability": "view",
      "type": "function"
    },
    {
      "inputs": [],
      "name": "mint",
      "outputs": [],
      "stateMutability": "payable",
      "type": "function"
    },
    {
      "inputs": [
        {
          "internalType": "bytes32[]",
          "name": "proof",
          "type": "bytes32[]"
        },
        {
          "internalType": "uint256",
          "name": "index",
          "type": "uint256"
        },
        {
          "internalType": "uint256",
          "name": "amount",
          "type": "uint256"
        }
      ],
      "name": "mintWithDiscount",
      "outputs": [],
      "stateMutability": "payable",
      "type": "function"
    },
    {
      "inputs": [],
      "name": "name",
      "outputs": [
        {
          "internalType": "string",
          "name": "",
          "type": "string"
        }
      ],
      "stateMutability": "view",
      "type": "function"
    },
    {
      "inputs": [],
      "name": "owner",
      "outputs": [
        {
          "internalType": "address",
          "name": "",
          "type": "address"
        }
      ],
      "stateMutability": "view",
      "type": "function"
    },
    {
      "inputs": [
        {
          "internalType": "uint256",
          "name": "tokenId",
          "type": "uint256"
        }
      ],
      "name": "ownerOf",
      "outputs": [
        {
          "internalType": "address",
          "name": "",
          "type": "address"
        }
      ],
      "stateMutability": "view",
      "type": "function"
    },
    {
      "inputs": [],
      "name": "pendingOwner",
      "outputs": [
        {
          "internalType": "address",
          "name": "",
          "type": "address"
        }
      ],
      "stateMutability": "view",
      "type": "function"
    },
    {
      "inputs": [],
      "name": "renounceOwnership",
      "outputs": [],
      "stateMutability": "nonpayable",
      "type": "function"
    },
    {
      "inputs": [
        {
          "internalType": "uint256",
          "name": "_tokenId",
          "type": "uint256"
        },
        {
          "internalType": "uint256",
          "name": "_salePrice",
          "type": "uint256"
        }
      ],
      "name": "royaltyInfo",
      "outputs": [
        {
          "internalType": "address",
          "name": "",
          "type": "address"
        },
        {
          "internalType": "uint256",
          "name": "",
          "type": "uint256"
        }
      ],
      "stateMutability": "view",
      "type": "function"
    },
    {
      "inputs": [
        {
          "internalType": "address",
          "name": "from",
          "type": "address"
        },
        {
          "internalType": "address",
          "name": "to",
          "type": "address"
        },
        {
          "internalType": "uint256",
          "name": "tokenId",
          "type": "uint256"
        }
      ],
      "name": "safeTransferFrom",
      "outputs": [],
      "stateMutability": "nonpayable",
      "type": "function"
    },
    {
      "inputs": [
        {
          "internalType": "address",
          "name": "from",
          "type": "address"
        },
        {
          "internalType": "address",
          "name": "to",
          "type": "address"
        },
        {
          "internalType": "uint256",
          "name": "tokenId",
          "type": "uint256"
        },
        {
          "internalType": "bytes",
          "name": "data",
          "type": "bytes"
        }
      ],
      "name": "safeTransferFrom",
      "outputs": [],
      "stateMutability": "nonpayable",
      "type": "function"
    },
    {
      "inputs": [
        {
          "internalType": "address",
          "name": "operator",
          "type": "address"
        },
        {
          "internalType": "bool",
          "name": "approved",
          "type": "bool"
        }
      ],
      "name": "setApprovalForAll",
      "outputs": [],
      "stateMutability": "nonpayable",
      "type": "function"
    },
    {
      "inputs": [
        {
          "internalType": "string",
          "name": "baseURI",
          "type": "string"
        }
      ],
      "name": "setBaseURI",
      "outputs": [],
      "stateMutability": "nonpayable",
      "type": "function"
    },
    {
      "inputs": [
        {
          "internalType": "uint256",
          "name": "tokenId",
          "type": "uint256"
        },
        {
          "internalType": "address",
          "name": "receiver",
          "type": "address"
        },
        {
          "internalType": "uint96",
          "name": "feeNumerator",
          "type": "uint96"
        }
      ],
      "name": "setTokenRoyalty",
      "outputs": [],
      "stateMutability": "nonpayable",
      "type": "function"
    },
    {
      "inputs": [
        {
          "internalType": "bytes4",
          "name": "interfaceId",
          "type": "bytes4"
        }
      ],
      "name": "supportsInterface",
      "outputs": [
        {
          "internalType": "bool",
          "name": "",
          "type": "bool"
        }
      ],
      "stateMutability": "view",
      "type": "function"
    },
    {
      "inputs": [],
      "name": "symbol",
      "outputs": [
        {
          "internalType": "string",
          "name": "",
          "type": "string"
        }
      ],
      "stateMutability": "view",
      "type": "function"
    },
    {
      "inputs": [],
      "name": "tokenIdCounter",
      "outputs": [
        {
          "internalType": "uint256",
          "name": "",
          "type": "uint256"
        }
      ],
      "stateMutability": "view",
      "type": "function"
    },
    {
      "inputs": [
        {
          "internalType": "uint256",
          "name": "tokenId",
          "type": "uint256"
        }
      ],
      "name": "tokenURI",
      "outputs": [
        {
          "internalType": "string",
          "name": "",
          "type": "string"
        }
      ],
      "stateMutability": "view",
      "type": "function"
    },
    {
      "inputs": [],
      "name": "totalSupply",
      "outputs": [
        {
          "internalType": "uint256",
          "name": "",
          "type": "uint256"
        }
      ],
      "stateMutability": "view",
      "type": "function"
    },
    {
      "inputs": [
        {
          "internalType": "address",
          "name": "from",
          "type": "address"
        },
        {
          "internalType": "address",
          "name": "to",
          "type": "address"
        },
        {
          "internalType": "uint256",
          "name": "tokenId",
          "type": "uint256"
        }
      ],
      "name": "transferFrom",
      "outputs": [],
      "stateMutability": "nonpayable",
      "type": "function"
    },
    {
      "inputs": [
        {
          "internalType": "address",
          "name": "from",
          "type": "address"
        },
        {
          "internalType": "address",
          "name": "to",
          "type": "address"
        },
        {
          "internalType": "uint256",
          "name": "tokenId",
          "type": "uint256"
        },
        {
          "internalType": "uint256",
          "name": "salesPrice",
          "type": "uint256"
        }
      ],
      "name": "transferFromWithRoyalties",
      "outputs": [],
      "stateMutability": "payable",
      "type": "function"
    },
    {
      "inputs": [
        {
          "internalType": "address",
          "name": "newOwner",
          "type": "address"
        }
      ],
      "name": "transferOwnership",
      "outputs": [],
      "stateMutability": "nonpayable",
      "type": "function"
    },
    {
      "inputs": [],
      "name": "withdrawFunds",
      "outputs": [],
      "stateMutability": "nonpayable",
      "type": "function"
    }
  ],
  "bytecode": "0x60a060405234801561001057600080fd5b5060405161523c38038061523c8339818101604052810190610032919061058c565b6040518060400160405280600481526020017f4e465431000000000000000000000000000000000000000000000000000000008152506040518060400160405280600481526020017f4e4654310000000000000000000000000000000000000000000000000000000081525081600090816100ad9190610809565b5080600190816100bd9190610809565b5050506100dc6100d161011460201b60201c565b61011c60201b60201c565b81600b90816100eb9190610809565b5080608081815250506000600a8190555061010d3360fa61013f60201b60201c565b50506109ea565b600033905090565b61012b816102da60201b60201c565b61013c8160fa61013f60201b60201c565b50565b61014d61031160201b60201c565b6bffffffffffffffffffffffff16816bffffffffffffffffffffffff1611156101ab576040517f08c379a00000000000000000000000000000000000000000000000000000000081526004016101a29061095e565b60405180910390fd5b600073ffffffffffffffffffffffffffffffffffffffff168273ffffffffffffffffffffffffffffffffffffffff160361021a576040517f08c379a0000000000000000000000000000000000000000000000000000000008152600401610211906109ca565b60405180910390fd5b60405180604001604052808373ffffffffffffffffffffffffffffffffffffffff168152602001826bffffffffffffffffffffffff16815250600860008201518160000160006101000a81548173ffffffffffffffffffffffffffffffffffffffff021916908373ffffffffffffffffffffffffffffffffffffffff16021790555060208201518160000160146101000a8154816bffffffffffffffffffffffff02191690836bffffffffffffffffffffffff1602179055509050505050565b600760006101000a81549073ffffffffffffffffffffffffffffffffffffffff021916905561030e8161031b60201b60201c565b50565b6000612710905090565b6000600660009054906101000a900473ffffffffffffffffffffffffffffffffffffffff16905081600660006101000a81548173ffffffffffffffffffffffffffffffffffffffff021916908373ffffffffffffffffffffffffffffffffffffffff1602179055508173ffffffffffffffffffffffffffffffffffffffff168173ffffffffffffffffffffffffffffffffffffffff167f8be0079c531659141344cd1fd0a4f28419497f9722a3daafe3b4186f6b6457e060405160405180910390a35050565b6000604051905090565b600080fd5b600080fd5b600080fd5b600080fd5b6000601f19601f8301169050919050565b7f4e487b7100000000000000000000000000000000000000000000000000000000600052604160045260246000fd5b610448826103ff565b810181811067ffffffffffffffff8211171561046757610466610410565b5b80604052505050565b600061047a6103e1565b9050610486828261043f565b919050565b600067ffffffffffffffff8211156104a6576104a5610410565b5b6104af826103ff565b9050602081019050919050565b60005b838110156104da5780820151818401526020810190506104bf565b60008484015250505050565b60006104f96104f48461048b565b610470565b905082815260208101848484011115610515576105146103fa565b5b6105208482856104bc565b509392505050565b600082601f83011261053d5761053c6103f5565b5b815161054d8482602086016104e6565b91505092915050565b6000819050919050565b61056981610556565b811461057457600080fd5b50565b60008151905061058681610560565b92915050565b600080604083850312156105a3576105a26103eb565b5b600083015167ffffffffffffffff8111156105c1576105c06103f0565b5b6105cd85828601610528565b92505060206105de85828601610577565b9150509250929050565b600081519050919050565b7f4e487b7100000000000000000000000000000000000000000000000000000000600052602260045260246000fd5b6000600282049050600182168061063a57607f821691505b60208210810361064d5761064c6105f3565b5b50919050565b60008190508160005260206000209050919050565b60006020601f8301049050919050565b600082821b905092915050565b6000600883026106b57fffffffffffffffffffffffffffffffffffffffffffffffffffffffffffffffff82610678565b6106bf8683610678565b95508019841693508086168417925050509392505050565b6000819050919050565b6000819050919050565b60006107066107016106fc846106d7565b6106e1565b6106d7565b9050919050565b6000819050919050565b610720836106eb565b61073461072c8261070d565b848454610685565b825550505050565b600090565b61074961073c565b610754818484610717565b505050565b5b818110156107785761076d600082610741565b60018101905061075a565b5050565b601f8211156107bd5761078e81610653565b61079784610668565b810160208510156107a6578190505b6107ba6107b285610668565b830182610759565b50505b505050565b600082821c905092915050565b60006107e0600019846008026107c2565b1980831691505092915050565b60006107f983836107cf565b9150826002028217905092915050565b610812826105e8565b67ffffffffffffffff81111561082b5761082a610410565b5b6108358254610622565b61084082828561077c565b600060209050601f8311600181146108735760008415610861578287015190505b61086b85826107ed565b8655506108d3565b601f19841661088186610653565b60005b828110156108a957848901518255600182019150602085019450602081019050610884565b868310156108c657848901516108c2601f8916826107cf565b8355505b6001600288020188555050505b505050505050565b600082825260208201905092915050565b7f455243323938313a20726f79616c7479206665652077696c6c2065786365656460008201527f2073616c65507269636500000000000000000000000000000000000000000000602082015250565b6000610948602a836108db565b9150610953826108ec565b604082019050919050565b600060208201905081810360008301526109778161093b565b9050919050565b7f455243323938313a20696e76616c696420726563656976657200000000000000600082015250565b60006109b46019836108db565b91506109bf8261097e565b602082019050919050565b600060208201905081810360008301526109e3816109a7565b9050919050565b608051614830610a0c60003960008181610e610152611be201526148306000f3fe6080604052600436106101e35760003560e01c80635944c7531161010257806398bdf6f511610095578063c87b56dd11610064578063c87b56dd1461066e578063e30c3978146106ab578063e985e9c5146106d6578063f2fde38b14610713576101e3565b806398bdf6f5146105c6578063a22cb465146105f1578063b88d4fde1461061a578063c749934814610643576101e3565b8063715018a6116100d1578063715018a61461054257806379ba5097146105595780638da5cb5b1461057057806395d89b411461059b576101e3565b80635944c753146104745780636352211e1461049d57806363d9d166146104da57806370a0823114610505576101e3565b806324600fc31161017a57806342842e0e1161014957806342842e0e146103db57806347b13d8a1461040457806355850fe61461042057806355f804b31461044b576101e3565b806324600fc3146103305780632a55205a146103475780632eb4a7ab1461038557806332cb6b0c146103b0576101e3565b80630ab7039e116101b65780630ab7039e146102b65780631249c58b146102d257806318160ddd146102dc57806323b872dd14610307576101e3565b806301ffc9a7146101e857806306fdde0314610225578063081812fc14610250578063095ea7b31461028d575b600080fd5b3480156101f457600080fd5b5061020f600480360381019061020a9190612cdf565b61073c565b60405161021c9190612d27565b60405180910390f35b34801561023157600080fd5b5061023a61074e565b6040516102479190612dd2565b60405180910390f35b34801561025c57600080fd5b5061027760048036038101906102729190612e2a565b6107e0565b6040516102849190612e98565b60405180910390f35b34801561029957600080fd5b506102b460048036038101906102af9190612edf565b610826565b005b6102d060048036038101906102cb9190612f1f565b61093d565b005b6102da610a69565b005b3480156102e857600080fd5b506102f1610abd565b6040516102fe9190612f95565b60405180910390f35b34801561031357600080fd5b5061032e60048036038101906103299190612fb0565b610ac7565b005b34801561033c57600080fd5b50610345610b27565b005b34801561035357600080fd5b5061036e60048036038101906103699190613003565b610c75565b60405161037c929190613043565b60405180910390f35b34801561039157600080fd5b5061039a610e5f565b6040516103a79190613085565b60405180910390f35b3480156103bc57600080fd5b506103c5610e83565b6040516103d29190612f95565b60405180910390f35b3480156103e757600080fd5b5061040260048036038101906103fd9190612fb0565b610e89565b005b61041e60048036038101906104199190613105565b610ea9565b005b34801561042c57600080fd5b50610435610fbe565b60405161044291906131a0565b60405180910390f35b34801561045757600080fd5b50610472600480360381019061046d91906132eb565b610fc3565b005b34801561048057600080fd5b5061049b60048036038101906104969190613360565b610fde565b005b3480156104a957600080fd5b506104c460048036038101906104bf9190612e2a565b610ff6565b6040516104d19190612e98565b60405180910390f35b3480156104e657600080fd5b506104ef61107c565b6040516104fc9190612f95565b60405180910390f35b34801561051157600080fd5b5061052c600480360381019061052791906133b3565b611088565b6040516105399190612f95565b60405180910390f35b34801561054e57600080fd5b5061055761113f565b005b34801561056557600080fd5b5061056e611153565b005b34801561057c57600080fd5b506105856111e0565b6040516105929190612e98565b60405180910390f35b3480156105a757600080fd5b506105b061120a565b6040516105bd9190612dd2565b60405180910390f35b3480156105d257600080fd5b506105db61129c565b6040516105e89190612f95565b60405180910390f35b3480156105fd57600080fd5b506106186004803603810190610613919061340c565b6112a2565b005b34801561062657600080fd5b50610641600480360381019061063c91906134ed565b6112b8565b005b34801561064f57600080fd5b5061065861131a565b6040516106659190612f95565b60405180910390f35b34801561067a57600080fd5b5061069560048036038101906106909190612e2a565b611325565b6040516106a29190612dd2565b60405180910390f35b3480156106b757600080fd5b506106c061138d565b6040516106cd9190612e98565b60405180910390f35b3480156106e257600080fd5b506106fd60048036038101906106f89190613570565b6113b7565b60405161070a9190612d27565b60405180910390f35b34801561071f57600080fd5b5061073a600480360381019061073591906133b3565b61144b565b005b6000610747826114f8565b9050919050565b60606000805461075d906135df565b80601f0160208091040260200160405190810160405280929190818152602001828054610789906135df565b80156107d65780601f106107ab576101008083540402835291602001916107d6565b820191906000526020600020905b8154815290600101906020018083116107b957829003601f168201915b5050505050905090565b60006107eb82611572565b6004600083815260200190815260200160002060009054906101000a900473ffffffffffffffffffffffffffffffffffffffff169050919050565b600061083182610ff6565b90508073ffffffffffffffffffffffffffffffffffffffff168373ffffffffffffffffffffffffffffffffffffffff16036108a1576040517f08c379a000000000000000000000000000000000000000000000000000000000815260040161089890613682565b60405180910390fd5b8073ffffffffffffffffffffffffffffffffffffffff166108c06115bd565b73ffffffffffffffffffffffffffffffffffffffff1614806108ef57506108ee816108e96115bd565b6113b7565b5b61092e576040517f08c379a000000000000000000000000000000000000000000000000000000000815260040161092590613714565b60405180910390fd5b61093883836115c5565b505050565b60006109498383610c75565b9150508034101561098f576040517f08c379a000000000000000000000000000000000000000000000000000000000815260040161098690613780565b60405180910390fd5b61099a858585610ac7565b600081346109a891906137cf565b90506000811115610a615760003373ffffffffffffffffffffffffffffffffffffffff16826040516109d990613834565b60006040518083038185875af1925050503d8060008114610a16576040519150601f19603f3d011682016040523d82523d6000602084013e610a1b565b606091505b5050905080610a5f576040517f08c379a0000000000000000000000000000000000000000000000000000000008152600401610a5690613895565b60405180910390fd5b505b505050505050565b67016345785d8a00003414610ab3576040517f08c379a0000000000000000000000000000000000000000000000000000000008152600401610aaa90613901565b60405180910390fd5b610abb61167e565b565b6000600a54905090565b610ad8610ad26115bd565b82611735565b610b17576040517f08c379a0000000000000000000000000000000000000000000000000000000008152600401610b0e90613993565b60405180910390fd5b610b228383836117ca565b505050565b610b2f611ac3565b600047905060008111610b77576040517f08c379a0000000000000000000000000000000000000000000000000000000008152600401610b6e906139ff565b60405180910390fd5b60003373ffffffffffffffffffffffffffffffffffffffff1682604051610b9d90613834565b60006040518083038185875af1925050503d8060008114610bda576040519150601f19603f3d011682016040523d82523d6000602084013e610bdf565b606091505b5050905080610c23576040517f08c379a0000000000000000000000000000000000000000000000000000000008152600401610c1a90613a6b565b60405180910390fd5b3373ffffffffffffffffffffffffffffffffffffffff167feaff4b37086828766ad3268786972c0cd24259d4c87a80f9d3963a3c3d999b0d83604051610c699190612f95565b60405180910390a25050565b6000806000600960008681526020019081526020016000206040518060400160405290816000820160009054906101000a900473ffffffffffffffffffffffffffffffffffffffff1673ffffffffffffffffffffffffffffffffffffffff1673ffffffffffffffffffffffffffffffffffffffff1681526020016000820160149054906101000a90046bffffffffffffffffffffffff166bffffffffffffffffffffffff166bffffffffffffffffffffffff16815250509050600073ffffffffffffffffffffffffffffffffffffffff16816000015173ffffffffffffffffffffffffffffffffffffffff1603610e0a5760086040518060400160405290816000820160009054906101000a900473ffffffffffffffffffffffffffffffffffffffff1673ffffffffffffffffffffffffffffffffffffffff1673ffffffffffffffffffffffffffffffffffffffff1681526020016000820160149054906101000a90046bffffffffffffffffffffffff166bffffffffffffffffffffffff166bffffffffffffffffffffffff168152505090505b6000610e14611b41565b6bffffffffffffffffffffffff1682602001516bffffffffffffffffffffffff1686610e409190613a8b565b610e4a9190613afc565b90508160000151819350935050509250929050565b7f000000000000000000000000000000000000000000000000000000000000000081565b6103e881565b610ea4838383604051806020016040528060008152506112b8565b505050565b66b1a2bc2ec500003414610ef2576040517f08c379a0000000000000000000000000000000000000000000000000000000008152600401610ee990613b79565b60405180910390fd5b610efd600c83611b4b565b15610f3d576040517f08c379a0000000000000000000000000000000000000000000000000000000008152600401610f3490613be5565b60405180910390fd5b610f8a848480806020026020016040519081016040528093929190818152602001838360200280828437600081840152601f19601f82011690508083019250505050505050838333611b87565b610f97600c836001611c4d565b60005b81811015610fb757610faa61167e565b8080600101915050610f9a565b5050505050565b60fa81565b610fcb611ac3565b80600b9081610fda9190613db1565b5050565b610fe6611ac3565b610ff1838383611c72565b505050565b60008061100283611e19565b9050600073ffffffffffffffffffffffffffffffffffffffff168173ffffffffffffffffffffffffffffffffffffffff1603611073576040517f08c379a000000000000000000000000000000000000000000000000000000000815260040161106a90613ecf565b60405180910390fd5b80915050919050565b67016345785d8a000081565b60008073ffffffffffffffffffffffffffffffffffffffff168273ffffffffffffffffffffffffffffffffffffffff16036110f8576040517f08c379a00000000000000000000000000000000000000000000000000000000081526004016110ef90613f61565b60405180910390fd5b600360008373ffffffffffffffffffffffffffffffffffffffff1673ffffffffffffffffffffffffffffffffffffffff168152602001908152602001600020549050919050565b611147611ac3565b6111516000611e56565b565b600061115d6115bd565b90508073ffffffffffffffffffffffffffffffffffffffff1661117e61138d565b73ffffffffffffffffffffffffffffffffffffffff16146111d4576040517f08c379a00000000000000000000000000000000000000000000000000000000081526004016111cb90613ff3565b60405180910390fd5b6111dd81611e56565b50565b6000600660009054906101000a900473ffffffffffffffffffffffffffffffffffffffff16905090565b606060018054611219906135df565b80601f0160208091040260200160405190810160405280929190818152602001828054611245906135df565b80156112925780601f1061126757610100808354040283529160200191611292565b820191906000526020600020905b81548152906001019060200180831161127557829003601f168201915b5050505050905090565b600a5481565b6112b46112ad6115bd565b8383611e6d565b5050565b6112c96112c36115bd565b83611735565b611308576040517f08c379a00000000000000000000000000000000000000000000000000000000081526004016112ff90613993565b60405180910390fd5b61131484848484611fd9565b50505050565b66b1a2bc2ec5000081565b606061133082611572565b600061133a612035565b9050600081511161135a5760405180602001604052806000815250611385565b80611364846120c7565b60405160200161137592919061404f565b6040516020818303038152906040525b915050919050565b6000600760009054906101000a900473ffffffffffffffffffffffffffffffffffffffff16905090565b6000600560008473ffffffffffffffffffffffffffffffffffffffff1673ffffffffffffffffffffffffffffffffffffffff16815260200190815260200160002060008373ffffffffffffffffffffffffffffffffffffffff1673ffffffffffffffffffffffffffffffffffffffff16815260200190815260200160002060009054906101000a900460ff16905092915050565b611453611ac3565b80600760006101000a81548173ffffffffffffffffffffffffffffffffffffffff021916908373ffffffffffffffffffffffffffffffffffffffff1602179055508073ffffffffffffffffffffffffffffffffffffffff166114b36111e0565b73ffffffffffffffffffffffffffffffffffffffff167f38d16b8cac22d99fc7c124b9cd0de2d3fa1faef420bfe791d8c362d765e2270060405160405180910390a350565b60007f2a55205a000000000000000000000000000000000000000000000000000000007bffffffffffffffffffffffffffffffffffffffffffffffffffffffff1916827bffffffffffffffffffffffffffffffffffffffffffffffffffffffff1916148061156b575061156a82612195565b5b9050919050565b61157b81612277565b6115ba576040517f08c379a00000000000000000000000000000000000000000000000000000000081526004016115b190613ecf565b60405180910390fd5b50565b600033905090565b816004600083815260200190815260200160002060006101000a81548173ffffffffffffffffffffffffffffffffffffffff021916908373ffffffffffffffffffffffffffffffffffffffff160217905550808273ffffffffffffffffffffffffffffffffffffffff1661163883610ff6565b73ffffffffffffffffffffffffffffffffffffffff167f8c5be1e5ebec7d5bd14f71427d1e84f3dd0314c0f7b2291e5b200ac8c7c3b92560405160405180910390a45050565b6103e8600a54106116c4576040517f08c379a00000000000000000000000000000000000000000000000000000000081526004016116bb906140e5565b60405180910390fd5b6000600a5490506001600a60008282546116de9190614105565b925050819055506116ef33826122b8565b3373ffffffffffffffffffffffffffffffffffffffff167f90ddedd5a25821bba11fbb98de02ec1f75c1be90ae147d6450ce873e7b78b5d860405160405180910390a250565b60008061174183610ff6565b90508073ffffffffffffffffffffffffffffffffffffffff168473ffffffffffffffffffffffffffffffffffffffff161480611783575061178281856113b7565b5b806117c157508373ffffffffffffffffffffffffffffffffffffffff166117a9846107e0565b73ffffffffffffffffffffffffffffffffffffffff16145b91505092915050565b8273ffffffffffffffffffffffffffffffffffffffff166117ea82610ff6565b73ffffffffffffffffffffffffffffffffffffffff1614611840576040517f08c379a0000000000000000000000000000000000000000000000000000000008152600401611837906141ab565b60405180910390fd5b600073ffffffffffffffffffffffffffffffffffffffff168273ffffffffffffffffffffffffffffffffffffffff16036118af576040517f08c379a00000000000000000000000000000000000000000000000000000000081526004016118a69061423d565b60405180910390fd5b6118bc83838360016122d6565b8273ffffffffffffffffffffffffffffffffffffffff166118dc82610ff6565b73ffffffffffffffffffffffffffffffffffffffff1614611932576040517f08c379a0000000000000000000000000000000000000000000000000000000008152600401611929906141ab565b60405180910390fd5b6004600082815260200190815260200160002060006101000a81549073ffffffffffffffffffffffffffffffffffffffff02191690556001600360008573ffffffffffffffffffffffffffffffffffffffff1673ffffffffffffffffffffffffffffffffffffffff168152602001908152602001600020600082825403925050819055506001600360008473ffffffffffffffffffffffffffffffffffffffff1673ffffffffffffffffffffffffffffffffffffffff16815260200190815260200160002060008282540192505081905550816002600083815260200190815260200160002060006101000a81548173ffffffffffffffffffffffffffffffffffffffff021916908373ffffffffffffffffffffffffffffffffffffffff160217905550808273ffffffffffffffffffffffffffffffffffffffff168473ffffffffffffffffffffffffffffffffffffffff167fddf252ad1be2c89b69c2b068fc378daa952ba7f163c4a11628f55a4df523b3ef60405160405180910390a4611abe83838360016122dc565b505050565b611acb6115bd565b73ffffffffffffffffffffffffffffffffffffffff16611ae96111e0565b73ffffffffffffffffffffffffffffffffffffffff1614611b3f576040517f08c379a0000000000000000000000000000000000000000000000000000000008152600401611b36906142a9565b60405180910390fd5b565b6000612710905090565b600080600883901c9050600060ff84166001901b9050600081866000016000858152602001908152602001600020541614159250505092915050565b6000818484604051602001611b9e939291906142c9565b60405160208183030381529060405280519060200120604051602001611bc49190614321565b604051602081830303815290604052805190602001209050611c07857f0000000000000000000000000000000000000000000000000000000000000000836122e2565b611c46576040517f08c379a0000000000000000000000000000000000000000000000000000000008152600401611c3d90614388565b60405180910390fd5b5050505050565b8015611c6257611c5d83836122f9565b611c6d565b611c6c8383612337565b5b505050565b611c7a611b41565b6bffffffffffffffffffffffff16816bffffffffffffffffffffffff161115611cd8576040517f08c379a0000000000000000000000000000000000000000000000000000000008152600401611ccf9061441a565b60405180910390fd5b600073ffffffffffffffffffffffffffffffffffffffff168273ffffffffffffffffffffffffffffffffffffffff1603611d47576040517f08c379a0000000000000000000000000000000000000000000000000000000008152600401611d3e90614486565b60405180910390fd5b60405180604001604052808373ffffffffffffffffffffffffffffffffffffffff168152602001826bffffffffffffffffffffffff168152506009600085815260200190815260200160002060008201518160000160006101000a81548173ffffffffffffffffffffffffffffffffffffffff021916908373ffffffffffffffffffffffffffffffffffffffff16021790555060208201518160000160146101000a8154816bffffffffffffffffffffffff02191690836bffffffffffffffffffffffff160217905550905050505050565b60006002600083815260200190815260200160002060009054906101000a900473ffffffffffffffffffffffffffffffffffffffff169050919050565b611e5f81612376565b611e6a8160fa6123a7565b50565b8173ffffffffffffffffffffffffffffffffffffffff168373ffffffffffffffffffffffffffffffffffffffff1603611edb576040517f08c379a0000000000000000000000000000000000000000000000000000000008152600401611ed2906144f2565b60405180910390fd5b80600560008573ffffffffffffffffffffffffffffffffffffffff1673ffffffffffffffffffffffffffffffffffffffff16815260200190815260200160002060008473ffffffffffffffffffffffffffffffffffffffff1673ffffffffffffffffffffffffffffffffffffffff16815260200190815260200160002060006101000a81548160ff0219169083151502179055508173ffffffffffffffffffffffffffffffffffffffff168373ffffffffffffffffffffffffffffffffffffffff167f17307eab39ab6107e8899845ad3d59bd9653f200f220920489ca2b5937696c3183604051611fcc9190612d27565b60405180910390a3505050565b611fe48484846117ca565b611ff08484848461253c565b61202f576040517f08c379a000000000000000000000000000000000000000000000000000000000815260040161202690614584565b60405180910390fd5b50505050565b6060600b8054612044906135df565b80601f0160208091040260200160405190810160405280929190818152602001828054612070906135df565b80156120bd5780601f10612092576101008083540402835291602001916120bd565b820191906000526020600020905b8154815290600101906020018083116120a057829003601f168201915b5050505050905090565b6060600060016120d6846126c3565b01905060008167ffffffffffffffff8111156120f5576120f46131c0565b5b6040519080825280601f01601f1916602001820160405280156121275781602001600182028036833780820191505090505b509050600082602001820190505b60011561218a578080600190039150507f3031323334353637383961626364656600000000000000000000000000000000600a86061a8153600a858161217e5761217d613acd565b5b04945060008503612135575b819350505050919050565b60007f80ac58cd000000000000000000000000000000000000000000000000000000007bffffffffffffffffffffffffffffffffffffffffffffffffffffffff1916827bffffffffffffffffffffffffffffffffffffffffffffffffffffffff1916148061226057507f5b5e139f000000000000000000000000000000000000000000000000000000007bffffffffffffffffffffffffffffffffffffffffffffffffffffffff1916827bffffffffffffffffffffffffffffffffffffffffffffffffffffffff1916145b80612270575061226f82612816565b5b9050919050565b60008073ffffffffffffffffffffffffffffffffffffffff1661229983611e19565b73ffffffffffffffffffffffffffffffffffffffff1614159050919050565b6122d2828260405180602001604052806000815250612880565b5050565b50505050565b50505050565b6000826122ef85846128db565b1490509392505050565b6000600882901c9050600060ff83166001901b9050808460000160008481526020019081526020016000206000828254179250508190555050505050565b6000600882901c9050600060ff83166001901b905080198460000160008481526020019081526020016000206000828254169250508190555050505050565b600760006101000a81549073ffffffffffffffffffffffffffffffffffffffff02191690556123a48161292b565b50565b6123af611b41565b6bffffffffffffffffffffffff16816bffffffffffffffffffffffff16111561240d576040517f08c379a00000000000000000000000000000000000000000000000000000000081526004016124049061441a565b60405180910390fd5b600073ffffffffffffffffffffffffffffffffffffffff168273ffffffffffffffffffffffffffffffffffffffff160361247c576040517f08c379a0000000000000000000000000000000000000000000000000000000008152600401612473906145f0565b60405180910390fd5b60405180604001604052808373ffffffffffffffffffffffffffffffffffffffff168152602001826bffffffffffffffffffffffff16815250600860008201518160000160006101000a81548173ffffffffffffffffffffffffffffffffffffffff021916908373ffffffffffffffffffffffffffffffffffffffff16021790555060208201518160000160146101000a8154816bffffffffffffffffffffffff02191690836bffffffffffffffffffffffff1602179055509050505050565b600061255d8473ffffffffffffffffffffffffffffffffffffffff166129f1565b156126b6578373ffffffffffffffffffffffffffffffffffffffff1663150b7a026125866115bd565b8786866040518563ffffffff1660e01b81526004016125a89493929190614665565b6020604051808303816000875af19250505080156125e457506040513d601f19601f820116820180604052508101906125e191906146c6565b60015b612666573d8060008114612614576040519150601f19603f3d011682016040523d82523d6000602084013e612619565b606091505b50600081510361265e576040517f08c379a000000000000000000000000000000000000000000000000000000000815260040161265590614584565b60405180910390fd5b805181602001fd5b63150b7a0260e01b7bffffffffffffffffffffffffffffffffffffffffffffffffffffffff1916817bffffffffffffffffffffffffffffffffffffffffffffffffffffffff1916149150506126bb565b600190505b949350505050565b600080600090507a184f03e93ff9f4daa797ed6e38ed64bf6a1f0100000000000000008310612721577a184f03e93ff9f4daa797ed6e38ed64bf6a1f010000000000000000838161271757612716613acd565b5b0492506040810190505b6d04ee2d6d415b85acef8100000000831061275e576d04ee2d6d415b85acef8100000000838161275457612753613acd565b5b0492506020810190505b662386f26fc10000831061278d57662386f26fc10000838161278357612782613acd565b5b0492506010810190505b6305f5e10083106127b6576305f5e10083816127ac576127ab613acd565b5b0492506008810190505b61271083106127db5761271083816127d1576127d0613acd565b5b0492506004810190505b606483106127fe57606483816127f4576127f3613acd565b5b0492506002810190505b600a831061280d576001810190505b80915050919050565b60007f01ffc9a7000000000000000000000000000000000000000000000000000000007bffffffffffffffffffffffffffffffffffffffffffffffffffffffff1916827bffffffffffffffffffffffffffffffffffffffffffffffffffffffff1916149050919050565b61288a8383612a14565b612897600084848461253c565b6128d6576040517f08c379a00000000000000000000000000000000000000000000000000000000081526004016128cd90614584565b60405180910390fd5b505050565b60008082905060005b84518110156129205761291182868381518110612904576129036146f3565b5b6020026020010151612c31565b915080806001019150506128e4565b508091505092915050565b6000600660009054906101000a900473ffffffffffffffffffffffffffffffffffffffff16905081600660006101000a81548173ffffffffffffffffffffffffffffffffffffffff021916908373ffffffffffffffffffffffffffffffffffffffff1602179055508173ffffffffffffffffffffffffffffffffffffffff168173ffffffffffffffffffffffffffffffffffffffff167f8be0079c531659141344cd1fd0a4f28419497f9722a3daafe3b4186f6b6457e060405160405180910390a35050565b6000808273ffffffffffffffffffffffffffffffffffffffff163b119050919050565b600073ffffffffffffffffffffffffffffffffffffffff168273ffffffffffffffffffffffffffffffffffffffff1603612a83576040517f08c379a0000000000000000000000000000000000000000000000000000000008152600401612a7a9061476e565b60405180910390fd5b612a8c81612277565b15612acc576040517f08c379a0000000000000000000000000000000000000000000000000000000008152600401612ac3906147da565b60405180910390fd5b612ada6000838360016122d6565b612ae381612277565b15612b23576040517f08c379a0000000000000000000000000000000000000000000000000000000008152600401612b1a906147da565b60405180910390fd5b6001600360008473ffffffffffffffffffffffffffffffffffffffff1673ffffffffffffffffffffffffffffffffffffffff16815260200190815260200160002060008282540192505081905550816002600083815260200190815260200160002060006101000a81548173ffffffffffffffffffffffffffffffffffffffff021916908373ffffffffffffffffffffffffffffffffffffffff160217905550808273ffffffffffffffffffffffffffffffffffffffff16600073ffffffffffffffffffffffffffffffffffffffff167fddf252ad1be2c89b69c2b068fc378daa952ba7f163c4a11628f55a4df523b3ef60405160405180910390a4612c2d6000838360016122dc565b5050565b6000818310612c4957612c448284612c5c565b612c54565b612c538383612c5c565b5b905092915050565b600082600052816020526040600020905092915050565b6000604051905090565b600080fd5b600080fd5b60007fffffffff0000000000000000000000000000000000000000000000000000000082169050919050565b612cbc81612c87565b8114612cc757600080fd5b50565b600081359050612cd981612cb3565b92915050565b600060208284031215612cf557612cf4612c7d565b5b6000612d0384828501612cca565b91505092915050565b60008115159050919050565b612d2181612d0c565b82525050565b6000602082019050612d3c6000830184612d18565b92915050565b600081519050919050565b600082825260208201905092915050565b60005b83811015612d7c578082015181840152602081019050612d61565b60008484015250505050565b6000601f19601f8301169050919050565b6000612da482612d42565b612dae8185612d4d565b9350612dbe818560208601612d5e565b612dc781612d88565b840191505092915050565b60006020820190508181036000830152612dec8184612d99565b905092915050565b6000819050919050565b612e0781612df4565b8114612e1257600080fd5b50565b600081359050612e2481612dfe565b92915050565b600060208284031215612e4057612e3f612c7d565b5b6000612e4e84828501612e15565b91505092915050565b600073ffffffffffffffffffffffffffffffffffffffff82169050919050565b6000612e8282612e57565b9050919050565b612e9281612e77565b82525050565b6000602082019050612ead6000830184612e89565b92915050565b612ebc81612e77565b8114612ec757600080fd5b50565b600081359050612ed981612eb3565b92915050565b60008060408385031215612ef657612ef5612c7d565b5b6000612f0485828601612eca565b9250506020612f1585828601612e15565b9150509250929050565b60008060008060808587031215612f3957612f38612c7d565b5b6000612f4787828801612eca565b9450506020612f5887828801612eca565b9350506040612f6987828801612e15565b9250506060612f7a87828801612e15565b91505092959194509250565b612f8f81612df4565b82525050565b6000602082019050612faa6000830184612f86565b92915050565b600080600060608486031215612fc957612fc8612c7d565b5b6000612fd786828701612eca565b9350506020612fe886828701612eca565b9250506040612ff986828701612e15565b9150509250925092565b6000806040838503121561301a57613019612c7d565b5b600061302885828601612e15565b925050602061303985828601612e15565b9150509250929050565b60006040820190506130586000830185612e89565b6130656020830184612f86565b9392505050565b6000819050919050565b61307f8161306c565b82525050565b600060208201905061309a6000830184613076565b92915050565b600080fd5b600080fd5b600080fd5b60008083601f8401126130c5576130c46130a0565b5b8235905067ffffffffffffffff8111156130e2576130e16130a5565b5b6020830191508360208202830111156130fe576130fd6130aa565b5b9250929050565b6000806000806060858703121561311f5761311e612c7d565b5b600085013567ffffffffffffffff81111561313d5761313c612c82565b5b613149878288016130af565b9450945050602061315c87828801612e15565b925050604061316d87828801612e15565b91505092959194509250565b60006bffffffffffffffffffffffff82169050919050565b61319a81613179565b82525050565b60006020820190506131b56000830184613191565b92915050565b600080fd5b7f4e487b7100000000000000000000000000000000000000000000000000000000600052604160045260246000fd5b6131f882612d88565b810181811067ffffffffffffffff82111715613217576132166131c0565b5b80604052505050565b600061322a612c73565b905061323682826131ef565b919050565b600067ffffffffffffffff821115613256576132556131c0565b5b61325f82612d88565b9050602081019050919050565b82818337600083830152505050565b600061328e6132898461323b565b613220565b9050828152602081018484840111156132aa576132a96131bb565b5b6132b584828561326c565b509392505050565b600082601f8301126132d2576132d16130a0565b5b81356132e284826020860161327b565b91505092915050565b60006020828403121561330157613300612c7d565b5b600082013567ffffffffffffffff81111561331f5761331e612c82565b5b61332b848285016132bd565b91505092915050565b61333d81613179565b811461334857600080fd5b50565b60008135905061335a81613334565b92915050565b60008060006060848603121561337957613378612c7d565b5b600061338786828701612e15565b935050602061339886828701612eca565b92505060406133a98682870161334b565b9150509250925092565b6000602082840312156133c9576133c8612c7d565b5b60006133d784828501612eca565b91505092915050565b6133e981612d0c565b81146133f457600080fd5b50565b600081359050613406816133e0565b92915050565b6000806040838503121561342357613422612c7d565b5b600061343185828601612eca565b9250506020613442858286016133f7565b9150509250929050565b600067ffffffffffffffff821115613467576134666131c0565b5b61347082612d88565b9050602081019050919050565b600061349061348b8461344c565b613220565b9050828152602081018484840111156134ac576134ab6131bb565b5b6134b784828561326c565b509392505050565b600082601f8301126134d4576134d36130a0565b5b81356134e484826020860161347d565b91505092915050565b6000806000806080858703121561350757613506612c7d565b5b600061351587828801612eca565b945050602061352687828801612eca565b935050604061353787828801612e15565b925050606085013567ffffffffffffffff81111561355857613557612c82565b5b613564878288016134bf565b91505092959194509250565b6000806040838503121561358757613586612c7d565b5b600061359585828601612eca565b92505060206135a685828601612eca565b9150509250929050565b7f4e487b7100000000000000000000000000000000000000000000000000000000600052602260045260246000fd5b600060028204905060018216806135f757607f821691505b60208210810361360a576136096135b0565b5b50919050565b7f4552433732313a20617070726f76616c20746f2063757272656e74206f776e6560008201527f7200000000000000000000000000000000000000000000000000000000000000602082015250565b600061366c602183612d4d565b915061367782613610565b604082019050919050565b6000602082019050818103600083015261369b8161365f565b9050919050565b7f4552433732313a20617070726f76652063616c6c6572206973206e6f7420746f60008201527f6b656e206f776e6572206f7220617070726f76656420666f7220616c6c000000602082015250565b60006136fe603d83612d4d565b9150613709826136a2565b604082019050919050565b6000602082019050818103600083015261372d816136f1565b9050919050565b7f496e73756666696369656e7420726f79616c747920616d6f756e740000000000600082015250565b600061376a601b83612d4d565b915061377582613734565b602082019050919050565b600060208201905081810360008301526137998161375d565b9050919050565b7f4e487b7100000000000000000000000000000000000000000000000000000000600052601160045260246000fd5b60006137da82612df4565b91506137e583612df4565b92508282039050818111156137fd576137fc6137a0565b5b92915050565b600081905092915050565b50565b600061381e600083613803565b91506138298261380e565b600082019050919050565b600061383f82613811565b9150819050919050565b7f526566756e64206661696c656400000000000000000000000000000000000000600082015250565b600061387f600d83612d4d565b915061388a82613849565b602082019050919050565b600060208201905081810360008301526138ae81613872565b9050919050565b7f77726f6e6720616d6f756e742c2073656e6420302e3120455448000000000000600082015250565b60006138eb601a83612d4d565b91506138f6826138b5565b602082019050919050565b6000602082019050818103600083015261391a816138de565b9050919050565b7f4552433732313a2063616c6c6572206973206e6f7420746f6b656e206f776e6560008201527f72206f7220617070726f76656400000000000000000000000000000000000000602082015250565b600061397d602d83612d4d565b915061398882613921565b604082019050919050565b600060208201905081810360008301526139ac81613970565b9050919050565b7f6e6f2066756e647320746f207769746864726177000000000000000000000000600082015250565b60006139e9601483612d4d565b91506139f4826139b3565b602082019050919050565b60006020820190508181036000830152613a18816139dc565b9050919050565b7f66756e64207472616e73666572206661696c6564000000000000000000000000600082015250565b6000613a55601483612d4d565b9150613a6082613a1f565b602082019050919050565b60006020820190508181036000830152613a8481613a48565b9050919050565b6000613a9682612df4565b9150613aa183612df4565b9250828202613aaf81612df4565b91508282048414831517613ac657613ac56137a0565b5b5092915050565b7f4e487b7100000000000000000000000000000000000000000000000000000000600052601260045260246000fd5b6000613b0782612df4565b9150613b1283612df4565b925082613b2257613b21613acd565b5b828204905092915050565b7f77726f6e6720616d6f756e742c2073656e6420302e3035204554480000000000600082015250565b6000613b63601b83612d4d565b9150613b6e82613b2d565b602082019050919050565b60006020820190508181036000830152613b9281613b56565b9050919050565b7f446973636f756e7420616c726561647920636c61696d65640000000000000000600082015250565b6000613bcf601883612d4d565b9150613bda82613b99565b602082019050919050565b60006020820190508181036000830152613bfe81613bc2565b9050919050565b60008190508160005260206000209050919050565b60006020601f8301049050919050565b600082821b905092915050565b600060088302613c677fffffffffffffffffffffffffffffffffffffffffffffffffffffffffffffffff82613c2a565b613c718683613c2a565b95508019841693508086168417925050509392505050565b6000819050919050565b6000613cae613ca9613ca484612df4565b613c89565b612df4565b9050919050565b6000819050919050565b613cc883613c93565b613cdc613cd482613cb5565b848454613c37565b825550505050565b600090565b613cf1613ce4565b613cfc818484613cbf565b505050565b5b81811015613d2057613d15600082613ce9565b600181019050613d02565b5050565b601f821115613d6557613d3681613c05565b613d3f84613c1a565b81016020851015613d4e578190505b613d62613d5a85613c1a565b830182613d01565b50505b505050565b600082821c905092915050565b6000613d8860001984600802613d6a565b1980831691505092915050565b6000613da18383613d77565b9150826002028217905092915050565b613dba82612d42565b67ffffffffffffffff811115613dd357613dd26131c0565b5b613ddd82546135df565b613de8828285613d24565b600060209050601f831160018114613e1b5760008415613e09578287015190505b613e138582613d95565b865550613e7b565b601f198416613e2986613c05565b60005b82811015613e5157848901518255600182019150602085019450602081019050613e2c565b86831015613e6e5784890151613e6a601f891682613d77565b8355505b6001600288020188555050505b505050505050565b7f4552433732313a20696e76616c696420746f6b656e2049440000000000000000600082015250565b6000613eb9601883612d4d565b9150613ec482613e83565b602082019050919050565b60006020820190508181036000830152613ee881613eac565b9050919050565b7f4552433732313a2061646472657373207a65726f206973206e6f74206120766160008201527f6c6964206f776e65720000000000000000000000000000000000000000000000602082015250565b6000613f4b602983612d4d565b9150613f5682613eef565b604082019050919050565b60006020820190508181036000830152613f7a81613f3e565b9050919050565b7f4f776e61626c6532537465703a2063616c6c6572206973206e6f74207468652060008201527f6e6577206f776e65720000000000000000000000000000000000000000000000602082015250565b6000613fdd602983612d4d565b9150613fe882613f81565b604082019050919050565b6000602082019050818103600083015261400c81613fd0565b9050919050565b600081905092915050565b600061402982612d42565b6140338185614013565b9350614043818560208601612d5e565b80840191505092915050565b600061405b828561401e565b9150614067828461401e565b91508190509392505050565b7f74686520737570706c79206c696d6974206f662031303030206973207265616360008201527f6865640000000000000000000000000000000000000000000000000000000000602082015250565b60006140cf602383612d4d565b91506140da82614073565b604082019050919050565b600060208201905081810360008301526140fe816140c2565b9050919050565b600061411082612df4565b915061411b83612df4565b9250828201905080821115614133576141326137a0565b5b92915050565b7f4552433732313a207472616e736665722066726f6d20696e636f72726563742060008201527f6f776e6572000000000000000000000000000000000000000000000000000000602082015250565b6000614195602583612d4d565b91506141a082614139565b604082019050919050565b600060208201905081810360008301526141c481614188565b9050919050565b7f4552433732313a207472616e7366657220746f20746865207a65726f2061646460008201527f7265737300000000000000000000000000000000000000000000000000000000602082015250565b6000614227602483612d4d565b9150614232826141cb565b604082019050919050565b600060208201905081810360008301526142568161421a565b9050919050565b7f4f776e61626c653a2063616c6c6572206973206e6f7420746865206f776e6572600082015250565b6000614293602083612d4d565b915061429e8261425d565b602082019050919050565b600060208201905081810360008301526142c281614286565b9050919050565b60006060820190506142de6000830186612e89565b6142eb6020830185612f86565b6142f86040830184612f86565b949350505050565b6000819050919050565b61431b6143168261306c565b614300565b82525050565b600061432d828461430a565b60208201915081905092915050565b7f496e76616c69642070726f6f6600000000000000000000000000000000000000600082015250565b6000614372600d83612d4d565b915061437d8261433c565b602082019050919050565b600060208201905081810360008301526143a181614365565b9050919050565b7f455243323938313a20726f79616c7479206665652077696c6c2065786365656460008201527f2073616c65507269636500000000000000000000000000000000000000000000602082015250565b6000614404602a83612d4d565b915061440f826143a8565b604082019050919050565b60006020820190508181036000830152614433816143f7565b9050919050565b7f455243323938313a20496e76616c696420706172616d65746572730000000000600082015250565b6000614470601b83612d4d565b915061447b8261443a565b602082019050919050565b6000602082019050818103600083015261449f81614463565b9050919050565b7f4552433732313a20617070726f766520746f2063616c6c657200000000000000600082015250565b60006144dc601983612d4d565b91506144e7826144a6565b602082019050919050565b6000602082019050818103600083015261450b816144cf565b9050919050565b7f4552433732313a207472616e7366657220746f206e6f6e20455243373231526560008201527f63656976657220696d706c656d656e7465720000000000000000000000000000602082015250565b600061456e603283612d4d565b915061457982614512565b604082019050919050565b6000602082019050818103600083015261459d81614561565b9050919050565b7f455243323938313a20696e76616c696420726563656976657200000000000000600082015250565b60006145da601983612d4d565b91506145e5826145a4565b602082019050919050565b60006020820190508181036000830152614609816145cd565b9050919050565b600081519050919050565b600082825260208201905092915050565b600061463782614610565b614641818561461b565b9350614651818560208601612d5e565b61465a81612d88565b840191505092915050565b600060808201905061467a6000830187612e89565b6146876020830186612e89565b6146946040830185612f86565b81810360608301526146a6818461462c565b905095945050505050565b6000815190506146c081612cb3565b92915050565b6000602082840312156146dc576146db612c7d565b5b60006146ea848285016146b1565b91505092915050565b7f4e487b7100000000000000000000000000000000000000000000000000000000600052603260045260246000fd5b7f4552433732313a206d696e7420746f20746865207a65726f2061646472657373600082015250565b6000614758602083612d4d565b915061476382614722565b602082019050919050565b600060208201905081810360008301526147878161474b565b9050919050565b7f4552433732313a20746f6b656e20616c7265616479206d696e74656400000000600082015250565b60006147c4601c83612d4d565b91506147cf8261478e565b602082019050919050565b600060208201905081810360008301526147f3816147b7565b905091905056fea264697066735822122028378d43be0a2c68a65d7b7001c390d78c504e5b42ec3ce9785e6ed0e12e862964736f6c634300081b0033",
  "linkReferences": {},
  "deployedLinkReferences": {}
}