{
  "_format": "hh-sol-artifact-1",
  "contractName": "Attacker2",
  "sourceName": "contracts/riddles/Attacker2.sol",
  "abi": [
    {
      "inputs": [
        {
          "internalType": "address",
          "name": "vulnerableContract_",
          "type": "address"
        }
      ],
      "stateMutability": "nonpayable",
      "type": "constructor"
    },
    {
      "inputs": [],
      "name": "attack",
      "outputs": [],
      "stateMutability": "nonpayable",
      "type": "function"
    },
    {
      "inputs": [],
      "name": "vulnerableContract",
      "outputs": [
        {
          "internalType": "contract Overmint1",
          "name": "",
          "type": "address"
        }
      ],
      "stateMutability": "view",
      "type": "function"
    }
  ],
  "bytecode": "0x608060405234801561001057600080fd5b506040516103f03803806103f0833981810160405281019061003291906100db565b806000806101000a81548173ffffffffffffffffffffffffffffffffffffffff021916908373ffffffffffffffffffffffffffffffffffffffff16021790555050610108565b600080fd5b600073ffffffffffffffffffffffffffffffffffffffff82169050919050565b60006100a88261007d565b9050919050565b6100b88161009d565b81146100c357600080fd5b50565b6000815190506100d5816100af565b92915050565b6000602082840312156100f1576100f0610078565b5b60006100ff848285016100c6565b91505092915050565b6102d9806101176000396000f3fe608060405234801561001057600080fd5b50600436106100365760003560e01c8063144166ae1461003b5780639e5faafc14610059575b600080fd5b610043610063565b6040516100509190610288565b60405180910390f35b610061610087565b005b60008054906101000a900473ffffffffffffffffffffffffffffffffffffffff1681565b60008054906101000a900473ffffffffffffffffffffffffffffffffffffffff1673ffffffffffffffffffffffffffffffffffffffff16631249c58b6040518163ffffffff1660e01b8152600401600060405180830381600087803b1580156100ef57600080fd5b505af1158015610103573d6000803e3d6000fd5b5050505060008054906101000a900473ffffffffffffffffffffffffffffffffffffffff1673ffffffffffffffffffffffffffffffffffffffff16631249c58b6040518163ffffffff1660e01b8152600401600060405180830381600087803b15801561016f57600080fd5b505af1158015610183573d6000803e3d6000fd5b5050505060008054906101000a900473ffffffffffffffffffffffffffffffffffffffff1673ffffffffffffffffffffffffffffffffffffffff16631249c58b6040518163ffffffff1660e01b8152600401600060405180830381600087803b1580156101ef57600080fd5b505af1158015610203573d6000803e3d6000fd5b50505050565b600073ffffffffffffffffffffffffffffffffffffffff82169050919050565b6000819050919050565b600061024e61024961024484610209565b610229565b610209565b9050919050565b600061026082610233565b9050919050565b600061027282610255565b9050919050565b61028281610267565b82525050565b600060208201905061029d6000830184610279565b9291505056fea264697066735822122097beaf25a8c862e4c30d949173cb6c07b5eaabc9e4c73c42b67589a82f6b755664736f6c634300081b0033",
  "linkReferences": {},
  "deployedLinkReferences": {}
}