{
  "_format": "hh-sol-artifact-1",
  "contractName": "CounterPrimeNumberTokenId",
  "sourceName": "contracts/CounterPrimeNumberTokenId.sol",
  "abi": [
    {
      "inputs": [
        {
          "internalType": "address",
          "name": "tokenOwner",
          "type": "address"
        },
        {
          "internalType": "address",
          "name": "nftAddress",
          "type": "address"
        }
      ],
      "name": "countPrimeNumberTokenId",
      "outputs": [
        {
          "internalType": "uint256",
          "name": "counter",
          "type": "uint256"
        }
      ],
      "stateMutability": "view",
      "type": "function"
    }
  ],
  "bytecode": "0x6080604052348015600f57600080fd5b5061053e8061001f6000396000f3fe608060405234801561001057600080fd5b506004361061002b5760003560e01c8063ab3bbe9214610030575b600080fd5b61004a6004803603810190610045919061029b565b610060565b60405161005791906102f4565b60405180910390f35b6000808273ffffffffffffffffffffffffffffffffffffffff166370a08231856040518263ffffffff1660e01b815260040161009c919061031e565b602060405180830381865afa1580156100b9573d6000803e3d6000fd5b505050506040513d601f19601f820116820180604052508101906100dd9190610365565b90506000915060005b818110156101995760008473ffffffffffffffffffffffffffffffffffffffff16632f745c5987846040518363ffffffff1660e01b815260040161012b929190610392565b602060405180830381865afa158015610148573d6000803e3d6000fd5b505050506040513d601f19601f8201168201806040525081019061016c9190610365565b9050610177816101a1565b1561018b578380610187906103ea565b9450505b5080806001019150506100e6565b505092915050565b600060028210156101b55760009050610233565b600282036101c65760019050610233565b60006002836101d59190610461565b036101e35760009050610233565b6000600390505b8281826101f79190610492565b1161022d576000818461020a9190610461565b03610219576000915050610233565b60028161022691906104d4565b90506101ea565b50600190505b919050565b600080fd5b600073ffffffffffffffffffffffffffffffffffffffff82169050919050565b60006102688261023d565b9050919050565b6102788161025d565b811461028357600080fd5b50565b6000813590506102958161026f565b92915050565b600080604083850312156102b2576102b1610238565b5b60006102c085828601610286565b92505060206102d185828601610286565b9150509250929050565b6000819050919050565b6102ee816102db565b82525050565b600060208201905061030960008301846102e5565b92915050565b6103188161025d565b82525050565b6000602082019050610333600083018461030f565b92915050565b610342816102db565b811461034d57600080fd5b50565b60008151905061035f81610339565b92915050565b60006020828403121561037b5761037a610238565b5b600061038984828501610350565b91505092915050565b60006040820190506103a7600083018561030f565b6103b460208301846102e5565b9392505050565b7f4e487b7100000000000000000000000000000000000000000000000000000000600052601160045260246000fd5b60006103f5826102db565b91507fffffffffffffffffffffffffffffffffffffffffffffffffffffffffffffffff8203610427576104266103bb565b5b600182019050919050565b7f4e487b7100000000000000000000000000000000000000000000000000000000600052601260045260246000fd5b600061046c826102db565b9150610477836102db565b92508261048757610486610432565b5b828206905092915050565b600061049d826102db565b91506104a8836102db565b92508282026104b6816102db565b915082820484148315176104cd576104cc6103bb565b5b5092915050565b60006104df826102db565b91506104ea836102db565b9250828201905080821115610502576105016103bb565b5b9291505056fea2646970667358221220cfcb39e79685988957ccfb40d608a208cd2c6729ceff4225fe5a1f79c6781e2464736f6c634300081b0033",
  "linkReferences": {},
  "deployedLinkReferences": {}
}