{
  "_format": "hh-sol-artifact-1",
  "contractName": "Attacker1",
  "sourceName": "contracts/riddles/Attacker1.sol",
  "abi": [
    {
      "inputs": [
        {
          "internalType": "address",
          "name": "vulnerableContract_",
          "type": "address"
        }
      ],
      "stateMutability": "nonpayable",
      "type": "constructor"
    },
    {
      "inputs": [],
      "name": "attack",
      "outputs": [],
      "stateMutability": "nonpayable",
      "type": "function"
    },
    {
      "inputs": [
        {
          "internalType": "address",
          "name": "",
          "type": "address"
        },
        {
          "internalType": "address",
          "name": "",
          "type": "address"
        },
        {
          "internalType": "uint256",
          "name": "",
          "type": "uint256"
        },
        {
          "internalType": "bytes",
          "name": "",
          "type": "bytes"
        }
      ],
      "name": "onERC721Received",
      "outputs": [
        {
          "internalType": "bytes4",
          "name": "",
          "type": "bytes4"
        }
      ],
      "stateMutability": "nonpayable",
      "type": "function"
    },
    {
      "inputs": [],
      "name": "vulnerableContract",
      "outputs": [
        {
          "internalType": "contract Overmint1",
          "name": "",
          "type": "address"
        }
      ],
      "stateMutability": "view",
      "type": "function"
    }
  ],
  "bytecode": "0x608060405234801561001057600080fd5b5060405161065b38038061065b833981810160405281019061003291906100db565b806000806101000a81548173ffffffffffffffffffffffffffffffffffffffff021916908373ffffffffffffffffffffffffffffffffffffffff16021790555050610108565b600080fd5b600073ffffffffffffffffffffffffffffffffffffffff82169050919050565b60006100a88261007d565b9050919050565b6100b88161009d565b81146100c357600080fd5b50565b6000815190506100d5816100af565b92915050565b6000602082840312156100f1576100f0610078565b5b60006100ff848285016100c6565b91505092915050565b610544806101176000396000f3fe608060405234801561001057600080fd5b50600436106100415760003560e01c8063144166ae14610046578063150b7a02146100645780639e5faafc14610094575b600080fd5b61004e61009e565b60405161005b91906102f0565b60405180910390f35b61007e600480360381019061007991906103ee565b6100c2565b60405161008b91906104b1565b60405180910390f35b61009c6101ef565b005b60008054906101000a900473ffffffffffffffffffffffffffffffffffffffff1681565b6000600560008054906101000a900473ffffffffffffffffffffffffffffffffffffffff1673ffffffffffffffffffffffffffffffffffffffff166318160ddd6040518163ffffffff1660e01b8152600401602060405180830381865afa158015610131573d6000803e3d6000fd5b505050506040513d601f19601f8201168201806040525081019061015591906104e1565b10156101dc5760008054906101000a900473ffffffffffffffffffffffffffffffffffffffff1673ffffffffffffffffffffffffffffffffffffffff16631249c58b6040518163ffffffff1660e01b8152600401600060405180830381600087803b1580156101c357600080fd5b505af11580156101d7573d6000803e3d6000fd5b505050505b63150b7a0260e01b905095945050505050565b60008054906101000a900473ffffffffffffffffffffffffffffffffffffffff1673ffffffffffffffffffffffffffffffffffffffff16631249c58b6040518163ffffffff1660e01b8152600401600060405180830381600087803b15801561025757600080fd5b505af115801561026b573d6000803e3d6000fd5b50505050565b600073ffffffffffffffffffffffffffffffffffffffff82169050919050565b6000819050919050565b60006102b66102b16102ac84610271565b610291565b610271565b9050919050565b60006102c88261029b565b9050919050565b60006102da826102bd565b9050919050565b6102ea816102cf565b82525050565b600060208201905061030560008301846102e1565b92915050565b600080fd5b600080fd5b600061032082610271565b9050919050565b61033081610315565b811461033b57600080fd5b50565b60008135905061034d81610327565b92915050565b6000819050919050565b61036681610353565b811461037157600080fd5b50565b6000813590506103838161035d565b92915050565b600080fd5b600080fd5b600080fd5b60008083601f8401126103ae576103ad610389565b5b8235905067ffffffffffffffff8111156103cb576103ca61038e565b5b6020830191508360018202830111156103e7576103e6610393565b5b9250929050565b60008060008060006080868803121561040a5761040961030b565b5b60006104188882890161033e565b95505060206104298882890161033e565b945050604061043a88828901610374565b935050606086013567ffffffffffffffff81111561045b5761045a610310565b5b61046788828901610398565b92509250509295509295909350565b60007fffffffff0000000000000000000000000000000000000000000000000000000082169050919050565b6104ab81610476565b82525050565b60006020820190506104c660008301846104a2565b92915050565b6000815190506104db8161035d565b92915050565b6000602082840312156104f7576104f661030b565b5b6000610505848285016104cc565b9150509291505056fea26469706673582212200b2244366e7c1564fbc7908abab4865f949a27d41c5d114b2544b837fbba5c1f64736f6c634300081b0033",
  "linkReferences": {},
  "deployedLinkReferences": {}
}