{
  "_format": "hh-sol-artifact-1",
  "contractName": "Staking",
  "sourceName": "contracts/Staking.sol",
  "abi": [
    {
      "inputs": [
        {
          "internalType": "address",
          "name": "nft_",
          "type": "address"
        },
        {
          "internalType": "address",
          "name": "rewardToken_",
          "type": "address"
        }
      ],
      "stateMutability": "nonpayable",
      "type": "constructor"
    },
    {
      "anonymous": false,
      "inputs": [
        {
          "indexed": true,
          "internalType": "address",
          "name": "owner",
          "type": "address"
        },
        {
          "indexed": true,
          "internalType": "uint256",
          "name": "tokenId",
          "type": "uint256"
        },
        {
          "indexed": false,
          "internalType": "uint256",
          "name": "timestamp",
          "type": "uint256"
        }
      ],
      "name": "NFTStaked",
      "type": "event"
    },
    {
      "anonymous": false,
      "inputs": [
        {
          "indexed": true,
          "internalType": "address",
          "name": "owner",
          "type": "address"
        },
        {
          "indexed": true,
          "internalType": "uint256",
          "name": "tokenId",
          "type": "uint256"
        }
      ],
      "name": "NFTWithdrawn",
      "type": "event"
    },
    {
      "anonymous": false,
      "inputs": [
        {
          "indexed": true,
          "internalType": "address",
          "name": "owner",
          "type": "address"
        },
        {
          "indexed": false,
          "internalType": "uint256",
          "name": "amount",
          "type": "uint256"
        },
        {
          "indexed": true,
          "internalType": "uint256",
          "name": "tokenId",
          "type": "uint256"
        }
      ],
      "name": "RewardsMinted",
      "type": "event"
    },
    {
      "inputs": [
        {
          "internalType": "uint256",
          "name": "id",
          "type": "uint256"
        }
      ],
      "name": "getStakeOwner",
      "outputs": [
        {
          "internalType": "address",
          "name": "",
          "type": "address"
        }
      ],
      "stateMutability": "view",
      "type": "function"
    },
    {
      "inputs": [
        {
          "internalType": "uint256",
          "name": "id",
          "type": "uint256"
        }
      ],
      "name": "getStakeTimestamp",
      "outputs": [
        {
          "internalType": "uint256",
          "name": "",
          "type": "uint256"
        }
      ],
      "stateMutability": "view",
      "type": "function"
    },
    {
      "inputs": [],
      "name": "nft",
      "outputs": [
        {
          "internalType": "address",
          "name": "",
          "type": "address"
        }
      ],
      "stateMutability": "view",
      "type": "function"
    },
    {
      "inputs": [
        {
          "internalType": "address",
          "name": "",
          "type": "address"
        },
        {
          "internalType": "address",
          "name": "from",
          "type": "address"
        },
        {
          "internalType": "uint256",
          "name": "id",
          "type": "uint256"
        },
        {
          "internalType": "bytes",
          "name": "",
          "type": "bytes"
        }
      ],
      "name": "onERC721Received",
      "outputs": [
        {
          "internalType": "bytes4",
          "name": "",
          "type": "bytes4"
        }
      ],
      "stateMutability": "nonpayable",
      "type": "function"
    },
    {
      "inputs": [],
      "name": "rewardToken",
      "outputs": [
        {
          "internalType": "address",
          "name": "",
          "type": "address"
        }
      ],
      "stateMutability": "view",
      "type": "function"
    },
    {
      "inputs": [
        {
          "internalType": "uint256",
          "name": "",
          "type": "uint256"
        }
      ],
      "name": "stakes",
      "outputs": [
        {
          "internalType": "uint256",
          "name": "timestamp",
          "type": "uint256"
        },
        {
          "internalType": "address",
          "name": "originalOwner",
          "type": "address"
        }
      ],
      "stateMutability": "view",
      "type": "function"
    },
    {
      "inputs": [
        {
          "internalType": "uint256",
          "name": "id",
          "type": "uint256"
        }
      ],
      "name": "withdrawNft",
      "outputs": [],
      "stateMutability": "nonpayable",
      "type": "function"
    },
    {
      "inputs": [
        {
          "internalType": "uint256",
          "name": "id",
          "type": "uint256"
        }
      ],
      "name": "withdrawRewards",
      "outputs": [],
      "stateMutability": "nonpayable",
      "type": "function"
    }
  ],
  "bytecode": "0x60c060405234801561001057600080fd5b50604051610faa380380610faa83398181016040528101906100329190610104565b8173ffffffffffffffffffffffffffffffffffffffff1660808173ffffffffffffffffffffffffffffffffffffffff16815250508073ffffffffffffffffffffffffffffffffffffffff1660a08173ffffffffffffffffffffffffffffffffffffffff16815250505050610144565b600080fd5b600073ffffffffffffffffffffffffffffffffffffffff82169050919050565b60006100d1826100a6565b9050919050565b6100e1816100c6565b81146100ec57600080fd5b50565b6000815190506100fe816100d8565b92915050565b6000806040838503121561011b5761011a6100a1565b5b6000610129858286016100ef565b925050602061013a858286016100ef565b9150509250929050565b60805160a051610e2c61017e600039600081816106fa01526108b80152600081816101c60152818161033901526104d80152610e2c6000f3fe608060405234801561001057600080fd5b50600436106100885760003560e01c80639342c8f41161005b5780639342c8f4146101275780639ee0bcbc14610143578063d5a44f8614610173578063f7c618c1146101a457610088565b8063150b7a021461008d57806347ccca02146100bd5780635108f256146100db578063910efae81461010b575b600080fd5b6100a760048036038101906100a291906109dd565b6101c2565b6040516100b49190610aa0565b60405180910390f35b6100c5610337565b6040516100d29190610aca565b60405180910390f35b6100f560048036038101906100f09190610ae5565b61035b565b6040516101029190610aca565b60405180910390f35b61012560048036038101906101209190610ae5565b6103ea565b005b610141600480360381019061013c9190610ae5565b6105ad565b005b61015d60048036038101906101589190610ae5565b6107e3565b60405161016a9190610b21565b60405180910390f35b61018d60048036038101906101889190610ae5565b610872565b60405161019b929190610b3c565b60405180910390f35b6101ac6108b6565b6040516101b99190610aca565b60405180910390f35b60007f000000000000000000000000000000000000000000000000000000000000000073ffffffffffffffffffffffffffffffffffffffff163373ffffffffffffffffffffffffffffffffffffffff1614610252576040517f08c379a000000000000000000000000000000000000000000000000000000000815260040161024990610bc2565b60405180910390fd5b8460008086815260200190815260200160002060010160006101000a81548173ffffffffffffffffffffffffffffffffffffffff021916908373ffffffffffffffffffffffffffffffffffffffff1602179055504260008086815260200190815260200160002060000181905550838573ffffffffffffffffffffffffffffffffffffffff167f36b3725f1783bad4ff05b7f4c077c3aa68eeb23a4d054ba189db4d01ac278d396000808881526020019081526020016000206000015460405161031c9190610b21565b60405180910390a363150b7a0260e01b905095945050505050565b7f000000000000000000000000000000000000000000000000000000000000000081565b600080600080848152602001908152602001600020604051806040016040529081600082015481526020016001820160009054906101000a900473ffffffffffffffffffffffffffffffffffffffff1673ffffffffffffffffffffffffffffffffffffffff1673ffffffffffffffffffffffffffffffffffffffff168152505090508060200151915050919050565b600080600083815260200190815260200160002090503373ffffffffffffffffffffffffffffffffffffffff168160010160009054906101000a900473ffffffffffffffffffffffffffffffffffffffff1673ffffffffffffffffffffffffffffffffffffffff1614610492576040517f08c379a000000000000000000000000000000000000000000000000000000000815260040161048990610c2e565b60405180910390fd5b6000808381526020019081526020016000206000808201600090556001820160006101000a81549073ffffffffffffffffffffffffffffffffffffffff021916905550507f000000000000000000000000000000000000000000000000000000000000000073ffffffffffffffffffffffffffffffffffffffff166323b872dd3033856040518463ffffffff1660e01b815260040161053393929190610c4e565b600060405180830381600087803b15801561054d57600080fd5b505af1158015610561573d6000803e3d6000fd5b50505050813373ffffffffffffffffffffffffffffffffffffffff167f2aa1b4c95f3b2da9c955947fca584743ea0d457708fadf209c093061e98c4ccb60405160405180910390a35050565b600080600083815260200190815260200160002090503373ffffffffffffffffffffffffffffffffffffffff168160010160009054906101000a900473ffffffffffffffffffffffffffffffffffffffff1673ffffffffffffffffffffffffffffffffffffffff1614610655576040517f08c379a000000000000000000000000000000000000000000000000000000000815260040161064c90610c2e565b60405180910390fd5b600081600001540361069c576040517f08c379a000000000000000000000000000000000000000000000000000000000815260040161069390610cd1565b60405180910390fd5b60008160000154426106ae9190610d20565b905060006018603c80846106c29190610d83565b6106cc9190610d83565b6106d69190610d83565b9050600181106107dd576000678ac7230489e80000826106f69190610db4565b90507f000000000000000000000000000000000000000000000000000000000000000073ffffffffffffffffffffffffffffffffffffffff1663a0712d68826040518263ffffffff1660e01b81526004016107519190610b21565b600060405180830381600087803b15801561076b57600080fd5b505af115801561077f573d6000803e3d6000fd5b50505050843373ffffffffffffffffffffffffffffffffffffffff167fb981442338311d47912aead4f8d309ff0d9f814fca5087277f319a56741dd450836040516107ca9190610b21565b60405180910390a3428460000181905550505b50505050565b600080600080848152602001908152602001600020604051806040016040529081600082015481526020016001820160009054906101000a900473ffffffffffffffffffffffffffffffffffffffff1673ffffffffffffffffffffffffffffffffffffffff1673ffffffffffffffffffffffffffffffffffffffff168152505090508060000151915050919050565b60006020528060005260406000206000915090508060000154908060010160009054906101000a900473ffffffffffffffffffffffffffffffffffffffff16905082565b7f000000000000000000000000000000000000000000000000000000000000000081565b600080fd5b600080fd5b600073ffffffffffffffffffffffffffffffffffffffff82169050919050565b600061090f826108e4565b9050919050565b61091f81610904565b811461092a57600080fd5b50565b60008135905061093c81610916565b92915050565b6000819050919050565b61095581610942565b811461096057600080fd5b50565b6000813590506109728161094c565b92915050565b600080fd5b600080fd5b600080fd5b60008083601f84011261099d5761099c610978565b5b8235905067ffffffffffffffff8111156109ba576109b961097d565b5b6020830191508360018202830111156109d6576109d5610982565b5b9250929050565b6000806000806000608086880312156109f9576109f86108da565b5b6000610a078882890161092d565b9550506020610a188882890161092d565b9450506040610a2988828901610963565b935050606086013567ffffffffffffffff811115610a4a57610a496108df565b5b610a5688828901610987565b92509250509295509295909350565b60007fffffffff0000000000000000000000000000000000000000000000000000000082169050919050565b610a9a81610a65565b82525050565b6000602082019050610ab56000830184610a91565b92915050565b610ac481610904565b82525050565b6000602082019050610adf6000830184610abb565b92915050565b600060208284031215610afb57610afa6108da565b5b6000610b0984828501610963565b91505092915050565b610b1b81610942565b82525050565b6000602082019050610b366000830184610b12565b92915050565b6000604082019050610b516000830185610b12565b610b5e6020830184610abb565b9392505050565b600082825260208201905092915050565b7f5374616b696e673a20496e636f7272656374204e465420636f6e747261637400600082015250565b6000610bac601f83610b65565b9150610bb782610b76565b602082019050919050565b60006020820190508181036000830152610bdb81610b9f565b9050919050565b7f5374616b696e673a204e6f7420746865206f726967696e616c206f776e657200600082015250565b6000610c18601f83610b65565b9150610c2382610be2565b602082019050919050565b60006020820190508181036000830152610c4781610c0b565b9050919050565b6000606082019050610c636000830186610abb565b610c706020830185610abb565b610c7d6040830184610b12565b949350505050565b7f4e4654206973206e6f74207374616b6564000000000000000000000000000000600082015250565b6000610cbb601183610b65565b9150610cc682610c85565b602082019050919050565b60006020820190508181036000830152610cea81610cae565b9050919050565b7f4e487b7100000000000000000000000000000000000000000000000000000000600052601160045260246000fd5b6000610d2b82610942565b9150610d3683610942565b9250828203905081811115610d4e57610d4d610cf1565b5b92915050565b7f4e487b7100000000000000000000000000000000000000000000000000000000600052601260045260246000fd5b6000610d8e82610942565b9150610d9983610942565b925082610da957610da8610d54565b5b828204905092915050565b6000610dbf82610942565b9150610dca83610942565b9250828202610dd881610942565b91508282048414831517610def57610dee610cf1565b5b509291505056fea26469706673582212200d5c92b3116d5a2a766742583b0f67a6b97d2009a9ad843788d291435bba815664736f6c634300081b0033",
  "linkReferences": {},
  "deployedLinkReferences": {}
}